:020000040800F2
:10000000000400205B000008710000087100000877
:10001000A70B0701000000000101A845002000080F
:1000200004030000AD060008C506000830100008F3
:1000300000000000000000000000000000000000C0
:1000400009480068202100EA010028B1074801683A
:1000500042685FEA010D10477047FFF7F1FF00F0BB
:100060000FF800F041F800002C00004000200008CC
:1000700002E05FEA000D70474FF4017000F0ACBC85
:1000800038B54FF20F044A4D00F06CFA002804D046
:1000900040F2052028806C8031BD44480068C006CD
:1000A00013D56888A0421BD1288840F202218842DB
:1000B00016D040F20621884212D040F20111884247
:1000C0000ED040F2111188420AD0064C208A40F628
:1000D000A721884204D12068FFF7CBFF60688047E2
:1000E00031BD00BF0020000810B572B62548016878
:1000F0004908490001602448592101602B480068E3
:1001000010F0100000D0012008B1204905E020497E
:1001100003E04FF0CD3241F8042B1E4A9142F8D350
:100120001D491E4A1E4B03E051F8044B42F8044B94
:100130009A42F9D31B491C4A002301E041F8043BD1
:100140009142FBD31A494A884FF20F039A420AD1CF
:100150000A8840F205239A4206D020B1100A0128ED
:1001600002D0022800D00022124802804CF23C301B
:10017000488000F063FA4FF40170BDE8104000F0D1
:100180002BBC00BFFCED00E000800040940000208C
:10019000000000200004002044100008000400209B
:1001A00008040020080400202D0C00202C00004032
:1001B00000000020280C0020C108032908D2C1102B
:1001C0008902044A012300F0070003FA00F05050AE
:1001D000704700BF14B00040C108032908D2C11005
:1001E0008902044A012300F0070003FA00F050508E
:1001F000704700BF10B00040C10803290BD2C110E6
:10020000054A02EB81210A68012300F0070003FA86
:1002100000F05040086070470CB0004030B583B02B
:10022000044610467F2800D10020B1F5004F19D1B7
:1002300008237F2240F6120100A8FFF7EFFF0822F3
:100240000D4900A800F07DF830B908237F2240F264
:10025000A27100A8FFF7E2FF082200A9204600F0E3
:1002600057F837BD1A46054D294300FB03112046B8
:1002700000F04EF837BD00BF280F0008000004084A
:100280000748012181604EF6BE21416002E0000076
:10029000024800BF01210160704700BF08600040B4
:1002A0000060004010B58208074B53F82220136805
:1002B00000F0030080000F248440A34301FA00F003
:1002C0001843106010BD00BF300F00080A0242EA58
:1002D000112148400106090F484080EA00304101E1
:1002E000C9B20206D20E41EA0221484080B27047EC
:1002F0000A0A4840C0B208214308C00746BF034865
:1003000058401846491EF7D1504070472083B8ED39
:1003100000E00000814210D21018401E5118491E02
:1003200092B26AB111F8013900F80139521EF7E7AB
:1003300011F8013B00F8013B521E92B2002AF7D19E
:10034000704710B500E0521E92B2002A03D000F0B0
:1003500004F8F8D007E0002010BD10F8013B11F8B8
:10036000014BA3427047181B40B210BD2DE9F84362
:10037000FFF78EFF00F0EEF8002000F00FF9444C7C
:1003800041A542A6DFF80C91DFF80C8113E040464E
:1003900000F0A0F8B9F81A70380A00F0A6F8304654
:1003A00000F098F8F8B200F0A0F808F11C0000F096
:1003B00091F800F0CFF8FFF76BFF022000F0EEF8A5
:1003C00000A800F0B9F80028F5D19DF8000000F071
:1003D0007BF89DF800000A28D9D00D28D7D0312805
:1003E00004D032282ED0332831D0E2E708F15C0067
:1003F00000F070F8012000F0FBF8074608F17000EB
:1004000000F068F82FB9052000F0C8F808F1840062
:10041000CDE7042000F0C2F808F1900000F05AF88F
:10042000B80602D508F19C0005E078064CBF08F13B
:10043000B40008F1D00000F04DF8384600F069F83B
:100440002846B4E7012000F0A9F8BDE8F1830027B1
:10045000284600F03FF8208A40F6A721884202D0C3
:1004600008F14C00A3E7222000F02EF8381990F88C
:1004700024007F1C18B100F027F8202FF6DB222083
:1004800000F022F8DCE700BF0D0A00002062000047
:100490000020000800000008480F000880B5094847
:1004A0006821416100218161022181600121016097
:1004B00009210920FFF7F6FE04210A20BDE80440C7
:1004C000FFF7F0BE54C800402149CA685207FCD566
:1004D0000860704710B5044603E014F8010BFFF7FD
:1004E000F3FF20780028F8D110BD10B5044620098C
:1004F0000A28ACBF37303030C0B2FFF7E5FF04F058
:100500000F000A28ACBF37303030C0B2BDE8104011
:10051000DAE710B50446200AFFF7E7FFE0B2BDE8CE
:100520001040E2E70348006810F0020000D001200C
:100530007047000048C8004010B50446FFF7F2FFBE
:1005400020B1034800682070002010BD012010BDBC
:100550003CC8004080B500A8FFF7EEFF0028FAD0A5
:1005600001BD00000020704780B5FFF789FE012122
:100570000620FFF797FE0620FFF72EFE0121072039
:10058000FFF790FE0720FFF717FE0348016821F0F0
:100590001001016001BD00BF00BC004010B505287E
:1005A00021D8DFE800F0032008151D030620BDE870
:1005B0001040FFF701BE0C4C2088411E218000280E
:1005C00011D10720FFF718FE42F21070208010BDF5
:1005D0000720FFF701FE0620BDE81040FFF70CBE24
:1005E0000620FFF7F9FD10BD2A0C002000787047A7
:1005F00030B5CFB0044621462AA800F011FB0020F8
:1006000000904FF402630B4A2AA901A800F04EF8AB
:10061000094A01A902F10C0000F054F80546FFF761
:1006200037FE1DB12146284600F046FB28464FB054
:1006300030BD00BF080400202410000880B500F081
:10064000D5FAFFF791FFFFF729FFFFF78FFE40F282
:10065000012000F0C1F9002002BD80B5012A01D1BE
:10066000FFF732FF01BD000038B50D46144605E026
:10067000014615F8010BFFF73BFE641EA4B2002CE7
:10068000F6D132BDF8B507460E4615461C46224641
:10069000294630683B689847070005D1224629461D
:1006A000F068FFF7E1FFF0603846F2BD10B5029C3C
:1006B00084720381426001604FF0FF31C16000210C
:1006C000017410BD2DE9F54F83B00E467468B6F87D
:1006D00008A006F21400009000F110075046C00771
:1006E00004D4BAF1800FDFF8C89201DA4F2082E01B
:1006F00000F06CF90100FAD12078617801EB00205C
:100700001FFA80FBA078E17801EB0025ADB2E80785
:1007100001D546206FE0B5F5026F01DD4E206AE09D
:10072000002DE5D05FEA0B000AD04FF60441BBEB89
:10073000010000F0B280FF3860D0FE385ED034E1B6
:10074000307C08B1452056E0912DCFD22B46009841
:10075000021D31460398FFF795FF01004BD100F0D1
:100760002BF901980C308542ECD10098808800F07C
:10077000C3FB00F47F404FF400718842E2D100983F
:10078000C08800F0B9FB4EF250318842DAD1388A85
:1007900040F6A7218842D5D1788A00F47F404FF4F3
:1007A00080718842CED100F00DF9D9F81C10884232
:1007B000C8D14FF6FF703882019A92B2009800F1CA
:1007C00010014FF0FF30FFF74FFF05460098C0685B
:1007D00000F09CFBC0438542B4D1387E0428B1D1DF
:1007E000787E032801D00628ACD101203074B07A7D
:1007F000002896D0502005B0BDE8F08F307C08B9B5
:100800004120F8E700F0E2F80100F4D120786178A7
:10081000090441EA0060A17840EA0120E17841EA58
:1008200000082D1FADB2D9F81C00804501D2482028
:10083000E1E705EB0800796D884201D34920DAE74A
:100840004FF6035083450DD1049858B1414602201C
:10085000049A1268904728B14A20CCE7A5EB0B0513
:10086000ADB2D844002DC2D0AB46554500DDD346CD
:100870001FFA8BF300F0ABF80100BCD104980028FC
:10088000ECD00BEBDB70421021464046049B5B68CA
:1008900098470028E2D04B20ADE7307C0028AFD04D
:1008A000042D01D04C20A6E700F090F80028A2D13A
:1008B00000F082F8F0683F49884234D1049800285B
:1008C0006BD084684FF0FF3A002502E06D1C062DC6
:1008D00024DA07EB4500029090F8488016E0FFF715
:1008E000D7FC4FEAC82040F0006B4FF4006958462F
:1008F000A0475146FFF7FCFC82460BF1010BB9F112
:100900000109F4D108F101005FFA80F8029890F82B
:1009100049004045DADBB8F1FF0FE0D1786C6FEAAF
:100920000A01884201D0432065E700F04BF80199A5
:100930004A083946049B5B689847F0B90098C0683C
:1009400000F0E4FA044600F03DF8019D80464FF0C7
:10095000FF390498D0F808B008E04046D847494627
:10096000FFF7C6FC81466D1E08F10108ADB2002DEF
:10097000F3D16FEA0900844201D042203BE740F600
:10098000A720388200F01EF8012207F11001103074
:10099000049B5B6898470028EFD130680399496849
:1009A0008847172800D1002025E7442023E700BF0F
:1009B00000000008E320BBDEF87E802800D3802002
:1009C000019070470098806800F0A0BA0423224686
:1009D0003146039856E600000D4930220A600D4961
:1009E0000A600D490A600D4910220A60010A00D10F
:1009F00000020E4908804FF20F004880BFF35F8F5E
:100A000007480021016041600648074901607047BE
:100A10003020004030C8004030C0004010D00040BE
:100A20001C4000400CED00E00400FA05000000202E
:100A30002848018A40F6A772914209D1418A4FF4B1
:100A40007F40014204D102298041C043C00F70475A
:100A500000207047F8B505460C460E4E0120307058
:100A6000FFF7E6FF18B94FF40170FFF7B5FF19481B
:100A7000876A21464FF480702843B84700213170BF
:100A8000154E20B921464FF400702843B847805DC9
:100A9000F2BD00002C0C00202DE9F04180460C46F0
:100AA0005500FFF7C5FF18B94FF40170FFF794FF29
:100AB0000848466A00232A4621464046B047064F6A
:100AC00020B92B46002221464046B047C05DBDE814
:100AD000F081000000000408381000080648016892
:100AE00041F0010101600121416002485121016092
:100AF000704700BF008000401C400040F8B5394CF2
:100B0000454D4FF6FF77454EB088B84229D10223B4
:100B10007F2233480188301DFFF780FBB088B84240
:100B200001D10220B080A069800703D4A06940F001
:100B30000200A06101203070B0882060072028608A
:100B400000206860A86028484FF000710160A0692B
:100B5000C00732D5E06900282FD048F69F40686072
:100B60000AE0A0698007E1D52868C00301D500F03C
:100B700047F83078002801D00020F2BDA06810F0BE
:100B80000100A168B28803D10F2A08D2521C06E0E6
:100B9000890704D5B17811B1032A00D3521EB07071
:100BA00092B2022A00D20222B2802068B188884222
:100BB000C0D1FFF793FF0120F2BDA069C00705D5A2
:100BC000E069002802D144F24F60C8E7A069C0077D
:100BD00002D4E0690028F6D142F22730BFE700BF17
:100BE000401000080440004004ED00E080B5FFF72D
:100BF00085FF00B101BD40F2DC5000F065F9F6E779
:100C00000548002141608160016821F00201016016
:100C1000024800210170704710E000E0000400204D
:100C2000017001224270827001290CBF8021402195
:100C300081800021C18001811E4801600E218162F6
:100C4000016821F010010160002141634162704799
:100C5000F8B506460C46154615484FF0FF310160C1
:100C6000144FFD6200207862386840F0010038605F
:100C7000FFF70EFB012E19D16CB9FFF753FC78B9C1
:100C8000786AA842F4D3002DF2D0386840084000BA
:100C900038601620F2BD2046FFF74EFC0028EFD149
:100CA00038684008400038600020F2BD0120F2BDE5
:100CB00000A8004000E0004038B505460C4600F0B2
:100CC00009F800F007F8224629461820BDE8384008
:100CD000FFF7C3BC224629461820FFF7BEBC38B533
:100CE0000446002020814AF6B43200A92078FFF79C
:100CF000AFFF002801D01C2032BD9DF80000032862
:100D000001D1182032BD1828FBD0042801D11720AA
:100D100032BD012801D0212032BD002501E06D1C2B
:100D2000EDB2A088001D85420BDA40F2DD222819C1
:100D300000F10A012078FFF78BFF0028EFD0262072
:100D400032BD0025002006E001462819007BFFF790
:100D5000BDFA6D1CEDB2A1888D42F5DBA17AE27A75
:100D6000511889B2FF2901D0222032BDA18809196A
:100D7000097B0212D2B2914201D0232032BDA18858
:100D80000919497BC0B2814201D0242032BDA07A2A
:100D9000A178884207D0491EC9B2884201D12720D4
:100DA00032BD252032BDA088801C20810220E08039
:100DB000002032BD38B504466078012804D00228EE
:100DC00032D0032838D039E02078012811D13B25D2
:100DD00004E02846451EC0B2002823D04320FFF778
:100DE00073FB40F2DD2200212078FFF731FF00285D
:100DF000EFD1022060702046FFF771FF050001D09F
:100E0000FFF7A8FB272D1BD12278A078411EC9B27D
:100E10000620FFF722FC002DEDD10320FFF7BEFBDB
:100E2000002032BD1B2032BDFFF794FB00F023F8F9
:100E3000A078401CA070DEE7172032BD182032BD1C
:100E4000A80603D52278A1781520E2E7680603D426
:100E5000182D01D01C2D07D121782846FFF72CFF33
:100E600004206070284632BD172DD4D100F003F85D
:100E700003206070E0E72278A1780620FFF7EDBB41
:100E8000F8B506460C461546002706E0F088411CDA
:100E9000F1808019807A38557F1CAF4209DAF088DA
:100EA00031898842F2D33046FFF784FF0100EDD04C
:100EB000F2BD0020F2BD10B504462046FFF77AFFD0
:100EC0000028FAD010BD000009490A68094B1B68C8
:100ED000DB0700D44008032809D34B6D43F001031E
:100EE0004B650B689B1A1B031B0B8342F9D370479E
:100EF000382000401C40004001B49DF800009DF8DF
:100F0000011001EB002080B201B0704711B581B033
:100F1000BDF80400FFF7F0FF0446BDF80600FFF738
:100F2000EBFF40EA044016BDFFFFFFFFFFFFFFFF9E
:100F300000B0004004B0004000B4004004B40040E1
:100F400000B8004004B800400D0A454D3335372045
:100F500053657269616C20426F6F746C6F61646578
:100F6000722076000D0A0D0A312E2075706C6F61AB
:100F7000642065626C0D0A322E2072756E0D0A3384
:100F80002E2065626C20696E666F0D0A424C203E11
:100F900020000000202A2A206E6F20617070202A15
:100FA0002A0D0A000D0A626567696E2075706C6F04
:100FB00061640D0A000000000D0A53657269616CDE
:100FC0002075706C6F61642000000000636F6D70AD
:100FD0006C6574650D0A000061626F727465640D62
:100FE0000A0000000D0A584D6F64656D20626C6F39
:100FF000636B206572726F72203078000D0A646F27
:10100000776E6C6F61642066696C65206572726FC3
:1010100072203078000000000D0A6572726F722035
:1010200030780000550A0008990A0008ED0500080C
:10103000810E0008B70E0008000202024B4B464723
:10104000EE08000000000100FFFFFFFFFFFFFFFFB1
:10105000FFFFFFFFFFFFFFFFFFFFFFFFFFFFFFFFA0
:10106000FFFFFFFFFFFFFFFFFFFFFFFFFFFFFFFF90
:10107000FFFFFFFFFFFFFFFFFFFFFFFFFFFFFFFF80
:10108000FFFFFFFFFFFFFFFFFFFFFFFFFFFFFFFF70
:102000005807002015830008915D0008935D0008C3
:10201000A70A0401002100080403039CA84500004E
:10202000D89E034E000000000000000000000000E9
:1020300000000000000000000000000000000000A0
:102040000000000073B0683D041EFFFFFFFFFFFFAC
:10205000FFFFFFFF00E00208FFFFFFFFFFFFFFFFA2
:10206000FFFFFFFFFFFFFFFFFFFFFFFFFFFFFFFF80
:10207000FFFFFFFFFFFFFFFFFFFFFFFFFFFFFFFF70
:10208000E02F002000000000941500207E0F0020AB
:10209000580700206FF600085AB60008FFFFFFFF40
:1020A000FFFFFFFFFFFFFFFFFFFFFFFFFFFFFFFF40
:1020B000FFFFFFFFFFFFFFFFFFFFFFFFFFFFFFFF30
:1020C000FFFFFFFFFFFFFFFFFFFFFFFFFFFFFFFF20
:1020D000FFFFFFFFFFFFFFFFFFFFFFFFFFFFFFFF10
:1020E000FFFFFFFFFFFFFFFFFFFFFFFFFFFFFFFF00
:1020F000FFFFFFFFFFFFFFFFFFFFFFFFFFFFFFFFF0
:102100005807002015830008915D0008935D0008C2
:10211000975D0008955D0008995D00087C5F0008E8
:102120007C5F00087C5F00087C5F00087C5F000823
:102130009B5D00087C5F00084999000805AE000817
:10214000415700087C5F0008F59900087C5F000893
:10215000758F00089D7000087C5F00087C5F000898
:1021600045B40008A9920008259D0008DF52000828
:102170007C5F0008295600086B5600087C5F000849
:1021800085860008704700002DE9F04706460024C8
:10219000DFF87C55DFF80C93494600F0BDF8DFF816
:1021A00008A30FF2700804E0414605F0BBFD641C73
:1021B000A4B2270131687A18287853689BB1534537
:1021C00005D17A5809F1740105F0ACFDEFE7936889
:1021D0007A5809F1840105F0A5FD00F097F8E3D0E5
:1021E00009F18C01F0E709F1940105F09BFD09F17B
:1021F000BC0100F091F809F1EC0100F08DF809F252
:10220000181100F089F841462878BDE8F04705F03C
:1022100089BD00BF0D0A0000412803D35B2801D20D
:102220002030C0B2704700002DE9F84F0646002468
:10223000B06800783449096810F80190A346DFF8C7
:10224000D054DFF86082B9F1210F05DB08F24411A8
:1022500000F062F8BDE8F18F05F0DAF80746A24613
:1022600007E01AF80700FFF7D7FF0AF807000AF19E
:10227000010ACA45F5DBCA46524608F280113846C3
:1022800003F00CF840B94FF0010B05E0024608F2EC
:102290008811287805F046FD2001316842185368FE
:1022A000002BD7D0641CA4B2DFF8FC914B45F3D1CE
:1022B0004058BBF1000FE9D15246394602F0E2FF27
:1022C0000028E9D10FF23C0A04E0514605F02AFD4E
:1022D000641CA4B22701306839184A68002AB9D0B2
:1022E0004A45B7D08B683A5808F29011287805F023
:1022F00019FD00F00BF8E8D008F18C0105F012FD93
:10230000E6E700BF0D0A0000D80700203068391842
:102310002878CA68002A7047287805F003BD0000B5
:10232000F0B589B005461A4EA86800683070194F9C
:10233000A86840683870184C204600F0D1FB174858
:10234000A968C96801701649AA6812690A700978F3
:10235000079104F17C0106910078059004F1740066
:1023600004900120039009A002903878019004F1B4
:102370006C000090337804F1640205F1110104F15E
:10238000280000F0ADFB09B0F0BD00BF746167002C
:102390007C0900207D09002020C400087E0900205F
:1023A0007F090020007C044951F820200349D848C7
:1023B000007805F0B7BC00BF10090020A4C40008D5
:1023C00070B5D34C0DA500F0B2F90E4E314600F0B9
:1023D000AFF900F0ACF906F1240100F0A9F908A169
:1023E00000F0A6F906F1300100F0A2F906F13C0177
:1023F0002078BDE8704005F095BC00BF0D0A0000D4
:102400002C200000B4C400082DE9F74F07463C6BB0
:102410000025DFF8FCB205E021A105F083FC6D1C6E
:10242000ADB210346068C8B3D4F80080DDF8049011
:102430004FF0000A0CE019F8010BFFF7EDFE06461D
:1024400018F8010BFFF7E8FE8642E8D10AF1010A0D
:102450009DF808008245EEDB2E01396872189BF862
:102460000000DFF840805368DFF83CC0634505D1C9
:10247000725808F1740105F055FCD0E79368725862
:1024800008F1840105F04EFC386831189BF8000013
:10249000CA68002AC0D008F18C01ECE7BDE8F78FCC
:1024A0000D0A000088C20008852100082DE9F047C8
:1024B0009CB0DFF858920EA84946342209F07BF808
:1024C00000278DF8017003F091FDA52003F070FE48
:1024D00005F0F4FF012300220F21104605F0BEFA9B
:1024E000040006D0012300220A21104605F0B6FAA6
:1024F0000446012300220F21184605F0AFFA05001B
:1025000006D0012300220A21184605F0A7FA054645
:1025100005F0C4FF002C62D035B107B54FF4CF7180
:1025200009F1800003F05CF90120794C2070201D36
:1025300005F0ADFC201DFFF743FF09F2900500F008
:10254000F6F809F1340100F0F3F86DA6314600F019
:10255000EFF8201D01F0F0F900F0E9F809F1400171
:1025600000F0E6F8314600F0E3F8201D01F03AFAF9
:1025700000F0DDF809F14C0100F0DAF8314600F026
:10258000D7F8201D02F038F800F0D1F809F1580111
:1025900000F0CEF8314600F0CBF8201D02F040F8F4
:1025A00000F0C5F809F1640100F0C2F8314600F00E
:1025B000BFF8201D02F038FD00F0B9F809F17401F0
:1025C00000F0B6F8314600F0B3F8201D02F000F834
:1025D0004CA50FF2341A01AE09F298083FE00DB194
:1025E0000020A2E700A9002005F072FA38B99DF892
:1025F00000000D28F4D00A28F2D02A28F0D000A933
:10260000012005F065FA0028ECD19DF800000D28A6
:102610008AD00A2888D02A28E4D185E78DF80000DE
:102620009DF800108A5D481C0A2A03D00D2A01D0AB
:10263000002AF3D10D228A558DF800009DF8002064
:1026400001A9201D05F030FC9DF8002001A90EA86D
:1026500002F0CEFD9DF8007000208DF8010000F022
:102660006AF80DF10103322201A9207805F07AFA07
:102670000028D3D003F094FD00F080FD9DF8010008
:1026800018B301A9401810F8010C09281DD15146B2
:1026900000F04EF89DF80100401E8DF801009DF8F5
:1026A000012001A9201DFFF7AFFE9DF801000021C8
:1026B000815500F040F8002004E000F033F89DF868
:1026C0000000401C00F026F8F7D39DF804002128F4
:1026D000C7D1514600F02CF83A460EA901A802F0E5
:1026E00087FD781E8DF8010000F025F8002000F02D
:1026F00011F8B6D200F016F89DF80000401CF6E77D
:102700005D0D0A00256300000D0A00001CB90008D9
:10271000580700208DF800009DF800009DF801107A
:1027200088427047825D2946207805F0FBBA294629
:10273000207805F0F7BA4146207805F0F3BA00207A
:102740007047000038B50446206A611D451AEDB295
:102750002A46207923689847002801D0002032BDFE
:1027600000F01AF804F205002062012032BD38B5ED
:102770000446002501E06D1CEDB2685C0028FAD12A
:102780002A46207923689847002803D100F004F8EE
:10279000012032BD002032BD94F82900281884F8A9
:1027A000290070472DE9FE4F04460D46904604F27D
:1027B0000500206204F1200604F21500706000207C
:1027C00070724FF00A0ADFF8B8B214E018B104F2E0
:1027D000050020621D46B9F1000F03D000F059F941
:1027E0007D200870206A7168884203D300F04FF999
:1027F00000285FD06D1C2878002800F03A819BF8F3
:102800000110252811D026280FD07B2803D07D2841
:1028100001D0232806D10029E4D03268511C316050
:102820001070DFE79BF80210F5E715F8012F252A55
:1028300001D0262A03D100F02CF92878D1E72628E8
:1028400009D141B14FF001096E2A06D04E2A04D0B9
:1028500000F023F901E04FF00009002029784E290B
:1028600006D0542923D06E2902D074291FD030E01D
:1028700058F8047B9BF800000028B3D0B9F1000F92
:1028800005D000F00AF900F004F92820087000F0E3
:10289000FEF800280ED000F0F5F800280AD0B9F1B3
:1028A000000F9FD000F0F5F82920087096E700F09F
:1028B000ECF8002876D000F0E5F8002872D000F09F
:1028C000E6F800286ED000F0E4F83A200870012005
:1028D0006D1C2978A1F13002D2B26F78022A36DB62
:1028E000072A34DA642F01D0752F30D1002358F82D
:1028F000041B1FFA81FECDF800E00121642F08D1EE
:102900005FEA0E4705D501236FEA0E077F1C1FFA09
:1029100087FEBEF1000F08D05B1C9EFBFAFE1FFA7B
:102920008EFEBEF1000FF7D10AE05B1C08E03768AD
:1029300007F1010CC6F800C04FF0200C87F800C06A
:102940001F467B1CFFB29742F1DB6D1C00E00021AB
:102950006B1E2A78002A00F08980322A64D0342A3B
:1029600062D0482A55D0582A55D0632A0CD0642A00
:102970001BD0682A4DD0702A0DD0732A0BD0752A2F
:1029800013D0782A47D021E7206A411C216258F8E9
:10299000041B01701FE700F078F818B100F072F81E
:1029A0000028F7D10020BDE8FE8F002919BF00A83C
:1029B000018858F8041B89B221B900F06AF8302068
:1029C000087008E70020642A0CD10A040AD533688D
:1029D0005A1C32602D221A70B1F5004F02D04942C4
:1029E00089B249B191FBFAF20AFB121101ABC15451
:1029F000401CC0B291B2F4E70146481EC0B20029A3
:102A000011D001A9415C303133685A1C3260197011
:102A1000F2E700F048F858F8041B0222C9B2206A15
:102A200004F030FF2062D6E615F8010F682801D0C7
:102A300048280BD100F037F8206A15F8011C32291C
:102A40000AD158F8041B042289B2E9E77828F3D0A8
:102A50005828F1D06D1EBEE658F8047B0422390CCC
:102A600004F010FF20620422B9B2D9E700288AD10D
:102A7000B0E600F00CF8002894D0707A93E700BF1D
:102A80007D0900203946204671E658F8047B20462F
:102A900058E63168481C306070473168481C306027
:102AA0007B20087070473168481C30603020087007
:102AB0003168481C30607820087070470EB410B53B
:102AC0008BB000240549097809B9002004E000F022
:102AD00015F800B9012420460BE000BF7C09002056
:102AE0000EB410B58BB0002400F008F800B9012432
:102AF00020460BB010BC5DF810FB000004490091AB
:102B0000044909788DF804100DAA014600A849E689
:102B10004D7D000858070020454A0E2809D101299B
:102B200003D11078401C10700EE09078401C90701B
:102B30000AE0162808D1012903D15078401C5070B2
:102B400002E0D078401CD070012010717047000066
:102B50002DE9F04F85B000218DF80810FF26B3460F
:102B6000806800780390324D0120287169702970C7
:102B7000E970A9702B4CDFF8B0902C4F387818B161
:102B80004946207805F0CEF809F13C01207805F09F
:102B9000C9F807E04346524609F1B80105F0C2F80A
:102BA0005646C34620789DF80810652932D002A900
:102BB00004F08EFF0398B8B928790028F2D00020DD
:102BC0002871AB782A782078397821B109F154013D
:102BD00005F0A8F8E6E7E97801916978009109F134
:102BE000740105F09FF8DDE70E2002F007FD824634
:102BF000162002F003FD8046564501D1C345CFD0D3
:102C0000207839780029C5D0524609F1A00105F095
:102C100089F8C5E702A105F085F805B0BDE8F08F99
:102C20000D0A00005807002068C900086F0F002037
:102C30006A0F002070B5504C2070614D2878274EE7
:102C4000217851B1314605F06DF806F14C01287834
:102C500005F068F806F194010AE006F1CC0105F0F0
:102C600061F806F21011287805F05CF806F25411AC
:102C7000287805F057F81A482178002916D00168FD
:102C800021F0F00141F090010160016821F47061D0
:102C900041F4106101601348002141654FF4804107
:102CA000114A116004220260C16070BD816841F068
:102CB00020018160816841F040018160016821F05C
:102CC000F00141F010010160016821F4706141F4EC
:102CD00000610160BDE8704002F056BC4CCA0008BB
:102CE00004B8004014A8004080E100E010B500F0F6
:102CF00039F81BB11368022B00D13FE012681AB1FA
:102D0000022A0DD00AD30DE0062422464C3105F0EC
:102D100009F82046BDE8104003F030B90724F4E775
:102D20001524F2E73C31E8E710B500F01BF81BB1C1
:102D30001368022B00D121E012681AB1022A0DD0CB
:102D40000AD30DE0062422465C3104F0EBFF204656
:102D5000BDE8104003F022B90724F4E71524F2E798
:102D60003C31E8E78268164800780249024B1B783C
:102D7000704700BFD8CB00086F0F0020BDE810409F
:102D800004F0D0BF10B5FFF7EDFF1BB11368022BA5
:102D900000D1F3E712681AB1022A0DD00AD30DE070
:102DA000062422466C3104F0BDFF2046BDE81040E9
:102DB00003F004B90724F4E71524F2E73C31E8E70F
:102DC00058070020054801680909090141F001017F
:102DD00001600348002101607047000000B400401A
:102DE00004D0004018B500210A2200AB84B294FB45
:102DF000F2F002FB1044CC54491C0329F6DB9DF889
:102E0000021001EB0010597801EB001080B29DF820
:102E1000001001EB001080B212BDF0B585B00A9C25
:102E20000025002904D549422D2400F8014B0BE070
:102E300054B12B24F9E70A24B1FBF4F604FB161174
:102E4000E9556D1CEDB2314600AF9542F3DB002928
:102E5000F1D129464D1EEDB249B1E95D303100F89E
:102E6000011B9D42F5D12E2100F8011BF1E70170F5
:102E700005B0F0BD70B588B0FFF7A4FF002002F0E8
:102E800029FB802809D1072309222A21012002F0E9
:102E9000A9FA01A9012002F011FB2A4D284E802831
:102EA00031D1BDF8040002F03BFB044600F038F8D5
:102EB00002AA3146287804F035FF1748A4B2AB21A6
:102EC00001FB140400F02CF802AA06F1180128787E
:102ED00004F028FF04EBC400052190FBF1F00F493A
:102EE0000C1800F01DF8642094FBF0F080B2FFF79E
:102EF00079FFADF80400034602AA06F130012878F4
:102F000004F010FF05E0024606F13C01287804F0C9
:102F100009FF08B070BD00BF4F4A180000E204006E
:102F20000120009004230522214602A875E780B500
:102F3000012002F0C9F90020BDE802409AE7000034
:102F400058CC000858070020BDE8104004F0EABE45
:102F5000DFF83402007870472DE9F84F05F090FA59
:102F6000DFF8D4B1DBF808A0DFF82042A768734E81
:102F7000D6F8088005F080FADFF80C52DFF8A4904C
:102F80005246494600F004F93A4609F1180100F0AA
:102F9000FFF8424609F1300100F0FAF805F070FA46
:102FA000DBF80CA0E768D6F80C8005F065FA52460D
:102FB00009F1480100F0ECF83A4609F1600100F02F
:102FC000E7F8424609F1780100F0E2F805F058FA16
:102FD000DBF80480DBF800A0D4F804B0276874683C
:102FE000366805F049FA4AEA084209F1900100F012
:102FF000CFF847EA0B4209F1A80100F0C9F846EA08
:10300000044209F1C00100F0C3F828785A49096860
:1030100089064CBF09F1D80109F1E801BDE8F44F78
:1030200004F080BEACCC000810B500F035F804D038
:103030000B2A07D00C2A08D00AE04122054C236055
:10304000243132E04222044CF9E74322034CF6E7F4
:103050007AE7000010B0004010B4004010B8004003
:1030600010B500F019F804D00B2A07D00C2A08D0AC
:103070000AE04122054C23603C3116E04222044C18
:10308000F9E74322034CF6E75EE700BF14B00040C7
:1030900014B4004014B8004082681379DFF8E800E7
:1030A0000078244912780A2A7047BDE8104004F0DD
:1030B00039BE000010B5FFF7EFFF04D00B2A07D090
:1030C0000C2A08D00AE04122074C23605431ECE777
:1030D0004222034CF9E74322024CF6E734E700BFF3
:1030E0000CB400400CB800400CB0004070B58268D1
:1030F0005368FFF72DFF1C0C9DB20E4912780A2A67
:1031000004D00B2A0BD00C2A0CD00EE041220A4E20
:10311000356074606C31BDE8704004F003BE42223B
:103120001A4EF5E74322054EF2E7BDE8704004F081
:10313000F9BD0000A4CD000800B0004000B8004078
:103140000246114800780B490B4B92681268D2B2C4
:10315000002A1A6807D042F020021A601A68920604
:1031600005D4103103E022F020021A60283104F067
:10317000D9BD00BF2CCE000800BC0040014804F0BF
:103180002EB900BFA0CE00085807002000B40040B0
:10319000287804F0C7BD000010B50C4C81680968A0
:1031A000C9B2012900F1110104D12046FFF798FCB2
:1031B000012104E004F12000FFF792FC002104F15A
:1031C0004000BDE8104002F079BA00BFB0CE000860
:1031D0002DE9F04182B000208DF8000000AC4020C5
:1031E00060708DF8020000F03AF800270026385D84
:1031F0000121B140084207D0334607F1410208F1EE
:103200007C01287804F08EFD761C082EEFDB7F1CF5
:10321000032FEBDB08F1900100F027F800F01CF819
:1032200006F0E0F905F056F905F02AF9044602F037
:1032300016FF032003F02EFB02F044FF204605F0AA
:103240001BF905F069F9012006F044F908F1C40101
:1032500000F00BF8BDE8F381287804F0B5BDDFF885
:103260004450DFF80C8008F14001287804F05ABD82
:1032700000CF000830BF7047704730BF70477047BD
:1032800030BF7047704730BF7047704730BF7047DE
:10329000704730BF7047704730BF7047704730BFCE
:1032A0007047000058070020F8B5DFF87C46DFF8CB
:1032B0001C56294600F035FB05F1180100F031FBE2
:1032C000DFF82435DFF8F02500F0FAFA4CF244324A
:1032D00000F02CFB05F1840100F0FCFAE7A600F0F9
:1032E0001FFBDFF80835DFF8082500F0E9FA4FF298
:1032F000640200F01BFB05F1940100F0EBFA00F012
:103300000FFBDFF8F034DFF8F02400F0D9FA4FF2C9
:10331000644200F00BFB05F1A40100F0DBFA00F0C1
:10332000FFFADFF8D834DFF8D82400F0C9FA4EF2FB
:10333000455200F0FBFA05F1B40100F0CBFA00F0C1
:10334000EFFADFF8C034DFF8C02400F0B9FA4FF22A
:103350006E4200F0EBFA05F1C80100F0BBFA00F094
:10336000DFFADFF8A834DFF8A82400F0A9FA4FF25A
:10337000424200F0DBFA05F1E00100F0ABFA00F0A8
:10338000CFFADFF89034DFF8902400F099FA4FF28A
:10339000624200F0CBFA05F1F80100F09BFA00F070
:1033A000BFFADFF87834DFF8782400F089FA4FF2BA
:1033B000742200F0BBFA05F2101100F08BFA00F055
:1033C000AFFADFF86034DFF8602400F079FA4FF2EA
:1033D000762200F0ABFA05F2201100F07BFA00F043
:1033E0009FFADFF84834DFF8482400F069FA4FF21A
:1033F000766200F09BFA05F2341100F06BFA00F0EF
:103400008FFADFF83034DFF8302400F059FA4FF249
:10341000634200F08BFA05F2481100F05BFA00F00D
:103420007FFADFF81834DFF8182400F049FA4FF675
:10343000097200F07BFA05F2581100F04BFA00F027
:103440006FFADFF80034DFF8742400F039FA4EF236
:10345000636200F06BFA05F2681100F03BFA00F0CD
:103460005FFADFF8E433DFF8E42300F029FA4EF2E4
:103470006F6200F05BFA05F27C1100F02BFA00F0AD
:103480004FFADFF8CC33DFF8CC2300F019FA4EF214
:103490006F3200F04BFA05F2881100F01BFA00F0D1
:1034A0003FFADFF8B433DFF8B42300F009FA4CF246
:1034B000563200F03BFA05F2941100F00BFA00F0DE
:1034C0002FFAE74BE74A00F0FBF94EF2453200F0E5
:1034D0002DFA05F2A81100F0FDF900F021FAE24BF7
:1034E000E24A00F0EDF94EF6735200F01FFA05F2D1
:1034F000BC1100F0EFF900F013FADD4BDD4A00F0EB
:10350000DFF94CF24E2200F011FA05F2C81100F07A
:10351000E1F900F005FAD84BD84A00F0D1F94CF6A1
:10352000441200F003FA05F2D81100F0D3F900F0CC
:10353000F7F9D34BD34A00F0C3F94DF2430200F040
:10354000F5F905F2E81100F0C5F900F0E9F9CE4B04
:10355000CE4A00F0B5F94CF24B2200F0E7F905F243
:10356000F81100F0B7F900F0DBF9C94BC94A00F0D7
:10357000A7F94CF6535200F0D9F905F2102100F0EA
:10358000A9F900F0CDF9C44BC44A00F099F94CF206
:10359000431200F0CBF905F2242100F09BF900F072
:1035A000BFF9BF4BBF4A00F08BF94CF2423200F03A
:1035B000BDF905F2342100F08DF900F0B1F9BA4BF4
:1035C000BA4A00F07DF94CF6431200F0AFF905F26B
:1035D000442100F07FF900F0A3F9B54BB54A00F0A3
:1035E0006FF94BF2542200F0A1F905F25C2100F0D2
:1035F00071F900F095F905F1480100F092F94BF2EC
:10360000346200F093F905F2742100F063F900F0E0
:1036100087F905F2802100F084F905F2B027002235
:10362000394600F085F94FF6017200F07FF900F09D
:103630004FF900F075F90122394600F079F94EF2A0
:10364000231200F073F905F2D02100F043F900F0E5
:1036500067F90222394600F06BF94EF2754200F02C
:1036600065F905F2E82100F035F900F059F9032277
:10367000394600F05DF94EF2632201E00D0A0000C8
:1036800000F054F905F2FC2100F024F900F048F9AB
:103690000422394600F04CF94EF2635200F046F92C
:1036A00005F2103100F016F900F03AF9052239461A
:1036B00000F03EF94EF2621200F038F905F22431C2
:1036C00000F008F900F02CF90622394600F030F934
:1036D0004EF6793200F02AF905F23C3100F0FAF8A2
:1036E00000F01EF90722394600F022F94EF6646216
:1036F00000F01CF905F2483100F0ECF800F010F988
:103700000822394600F014F94EF2643200F00EF946
:1037100005F2583100F0DEF800F002F909223946CE
:1037200000F006F94EF2241200F000F905F26C31B7
:1037300000F0D0F800F0F4F80A22394600F0F8F86A
:103740004EF2251200F0F2F805F2803100F0C2F8D6
:1037500000F0E6F80B22394600F0EAF84DF2452277
:1037600000F0E4F805F29C3100F0B4F800F0D8F86D
:103770000C22394600F0DCF84EF2742200F0D6F844
:1037800005F2AC3100F0A6F800F0CAF80D22394677
:1037900000F0CEF84FF60D7200F0C8F805F2C03117
:1037A00000F098F800F0BCF80E22394600F0C0F89E
:1037B0004EF2564200F0BAF805F2D43100F08AF821
:1037C00000F0AEF80F22394600F0B2F84FF465422F
:1037D00000F0ACF805F2E43100F07CF831462078D6
:1037E000BDE8F44004F09EBA950704089B0704085E
:1037F00096070408A10704089C070408A907040801
:10380000A2070408BD070408AA070408D107040892
:10381000BE070408DB070408D2070408DD07040814
:10382000DC070408DF070408DE070408E1070408D2
:10383000E0070408E3070408E2070408F5070408A2
:10384000F4070408F7070408FF070408F80704084A
:103850000F080408000804081108040810080408E8
:103860001908040812080408290804081A0804089A
:10387000390804082A0804083B0804083A08040820
:103880003D0804083C0804084D0804083E080408E4
:10389000550804084E0804087D0804085608040862
:1038A000D90804087E080408ED080408DA080408AA
:1038B000EF080408EE0804087E070408F607040869
:1038C00005F16801207804F02DBA0000F8D1000855
:1038D00005F2B821207804F0DFB9000038B5DFF830
:1038E00048400E4D01E04E2816D0294600F019F848
:1038F000022200A9207804F0A8F99DF800005928B8
:10390000F1D105F12C0100F00CF8012002F0D6FAFB
:1039100005F15C0100F005F831BD00BF48D7000893
:103920003146207804F0FEB95807002005F17C01EB
:10393000207804F0F7B9000010B5012402F0B4FAC1
:1039400004FA00F040F2A171084209D0054C207839
:1039500002F03AF8207802F0C3F8207802F0C8F9B3
:1039600010BD00BF5807002038B5DFF8485C064C92
:103970002146287804F0D6F904F110012878BDE832
:10398000344004F0CFB900BFACD70008017830292B
:1039900003D33A2901D209010CE0412903D3472975
:1039A00001D23739F7E7612903D3672901D25739A3
:1039B000F1E700214078302804D33A2802D2303889
:1039C00040180DE0412803D3472801D23738F7E7E4
:1039D000612803D3672801D25738F1E70906080F99
:1039E000C0B2704738B502F059FF02001BD0DFF8B3
:1039F000C44B20780C4D042A03D1294604F092F9D7
:103A00000DE0062A02D105F14C01F7E7072A02D1A1
:103A100005F19001F2E705F1D80104F083F905F210
:103A20000C1100F001F931BDE4D700082DE9F04F89
:103A300089B080680788FFF797FF384603F0C8F819
:103A40000446384602F09EFF8046384603F05BF994
:103A50008146DFF8606B30789F497CB34FF6FF7288
:103A600090452BD023463A460C3104F05BF90027F1
:103A70000FF2500B0FF2500A09E000A82A5C5946D9
:103A8000307804F04FF96D1CA542F6DB7F1C4F45E2
:103A900012DAB9F1010F234604D17F22414600F02A
:103AA00074F807E0FAB2414600F06FF851463078FA
:103AB00004F038F90025E7E75146307804F032F990
:103AC0005AE000BF202558000D0A00002DE9F04FF4
:103AD00089B08068B0F800900579FFF745FF484647
:103AE00003F076F88046484602F04CFF824648468E
:103AF00003F009F90646DFF8BC4A2078764FB8F1A2
:103B0000000F03D04FF6FF718A4501D1394630E0EE
:103B1000A6F1010B0EB1AB450BDA07F1180104F069
:103B200001F95B46002207F15001207804F0FAF811
:103B300021E043464A4607F10C0104F0F3F8012E58
:103B400000D17F2543462A46514600F01EF80CA6B8
:103B5000314600F069F800270FF2280A05E000A9B5
:103B60007A5C514604F0DEF87F1C20784745F6DB8E
:103B7000314604F0D7F800BF09B0BDE8F08F00BFB0
:103B80000D0A000020255800018800A802F0BEBEE2
:103B90002DE9F047C2B080680588FFF7E5FE2846AA
:103BA00003F016F88146284602F0ECFE80462846CF
:103BB00003F0A9F80546DFF8FC49DFF81CA1B9F1CC
:103BC000000F03D04FF6FF70804503D1514600F03F
:103BD0002BF87DE0002604E0F1B2404602F0A8FE9A
:103BE000761CAE42F5DA002715E04FF0FF3005FBFA
:103BF000090309FB06720AF17401207804F092F8B7
:103C0000032200A9207804F020F800A8FFF7BEFEE8
:103C100001A978547F1C4F45E7DB012D4B4601AAD3
:103C2000DAD17F21D9E73946207804F07BB82DE935
:103C3000F047C2B08068068890F804A0FFF794FEB1
:103C4000304602F0C5FF0446304602F09BFE814636
:103C5000304603F058F80646DFF858592878DFF860
:103C600078801CB14FF6FF71894503D1414604F0BD
:103C700059F82DE0771E0EB157450ADA08F1180100
:103C800004F050F83B46002208F1500100F094FC8B
:103C90001EE0002710E0631E3A4608F1740100F0B0
:103CA0008BFC032200A9287803F0CFFF00A8FFF7C0
:103CB0006DFE01A978547F1CA742ECDB012E01D1D7
:103CC0004FF07F0A234601AA5146484602F030FED3
:103CD00042B0BDE8F087000028D900082DE9F04384
:103CE000C7B0FFF741FEDFF8CC48DFF820884CF280
:103CF0004432414600F05BFC08F1080100F051FC41
:103D000018237F22DFF8080801881BA802F0FEFDB7
:103D100000270FF2A8391BA83A5C00F047FC7F1C73
:103D2000182FF8D3E6A7FFF77EFF4FF26402414653
:103D300000F03DFC08F1180100F033FC06237F225F
:103D4000DFF8D00700F029FC002501A800F02DFCC9
:103D50006D1C062DF9D3FFF766FF4FF26442414612
:103D600000F025FC08F1280100F01BFC06237F224F
:103D7000DFF8A407018810A802F0C8FD002510A8EC
:103D800000F013FC6D1C062DF9D3FFF74CFF4EF22B
:103D90004552414600F00BFC08F1380100F001FCEF
:103DA00008237F22DFF8740700F0F7FB002501A845
:103DB00000F0FBFB6D1C082DF9D3FFF734FF4FF229
:103DC0006E42414600F0F3FB08F14C0100F0E9FBC4
:103DD00014237F22DFF84807018816A802F096FD19
:103DE000002516A800F0E1FB6D1C142DF9D3FFF798
:103DF0001AFF4FF24242414600F0D9FB08F164013C
:103E000000F0CFFB14237F22DFF8180700F0B8FB87
:103E100000250BA800F0C9FB6D1C142DF9D3FFF78A
:103E200002FF4FF26242414600F0C1FB08F17C0103
:103E300000F0B7FB0A237F22DFF8EC06018808A810
:103E400002F064FD002508A800F0AFFB6D1C0A2DF0
:103E5000F9D3FFF7E8FE4FF27422414600F0A7FBCA
:103E600008F1940100F09DFB02237F22DFF8BC06DD
:103E700000F08EFB00250DF1020000F096FB6D1C9A
:103E8000022DF8D3FFF7CFFE4FF27622414600F025
:103E90008EFB08F1A40100F084FB02237F22DFF8EF
:103EA0009006FFF771FE002500F07EFB6D1C022DD1
:103EB000FAD3FFF7B8FE4FF27662414600F077FB87
:103EC00008F1B80100F06DFB02237F22DFF86406E1
:103ED00000F05EFB00250DF1020000F066FB6D1C9A
:103EE000022DF8D3FFF79FFE4FF26342414600F0E8
:103EF0005EFB08F1CC0100F054FB02237F22DFF8C7
:103F00003806FFF741FE002500F04EFB6D1C022D28
:103F1000FAD3FFF788FE4FF60972414600F047FBDF
:103F200008F1DC0100F03DFB02237F22DFF80C06E4
:103F300000F02EFB00250DF1020000F036FB6D1C99
:103F4000022DF8D3FFF76FFE4EF26362414600F098
:103F50002EFB08F1EC0100F024FB02237F22DFF8A6
:103F6000E005FFF711FE002500F01EFB6D1C022D81
:103F7000FAD3FFF758FE4EF26F62414600F017FB8E
:103F800008F2001100F00DFB08237F22DFF8B405D2
:103F900000F003FB002501A800F007FB6D1C082DB5
:103FA000F9D3FFF740FE4EF26F32414600F0FFFAC0
:103FB00008F20C1100F0F5FA10237F22DFF88805D3
:103FC00000F0E2FA002504A800F0EFFA6D1C102DB5
:103FD000F9D3FFF728FE4CF25632414600F0E7FADB
:103FE00008F2181100F0DDFA02237F22DFF85C05E9
:103FF000FFF7CAFD002500F0D7FA6D1C022DFAD399
:10400000FFF711FE4EF24532414600F0D0FA08F2B9
:104010002C1100F0C6FA08237F22DFF8340500F0E7
:10402000BCFA002501A800F0C0FA6D1C082DF9D3D8
:10403000FFF7F9FD4EF67352414600F0B8FA08F268
:10404000401100F0AEFA10237F22DFF8080500F0DF
:104050009BFA002504A800F0A8FA6D1C102DF9D3D6
:10406000FFF7E1FD4CF24E22414600F0A0FA08F2C3
:104070004C1100F096FA10237F22DFF8DC0401884F
:1040800012A802F043FC002512A800F08EFA6D1C65
:10409000102DF9D3FFF7C7FD4CF64412414600F04E
:1040A00086FA08F25C1100F07CFA02237F22DFF826
:1040B000AC04FFF769FD002504E000BF202558008F
:1040C0000D0A000000F070FA6D1C022DFAD3FFF704
:1040D000AAFD4DF24302414600F069FA08F26C1164
:1040E00000F05FFA02237F22DFF8740400F050FA38
:1040F00000250DF1020000F058FA6D1C022DF8D3D6
:10410000FFF791FD4CF24B22414600F050FA08F2C5
:104110007C1100F046FA10237F22DFF8480400F0FB
:1041200033FA002504A800F040FA6D1C102DF9D3D5
:10413000FFF779FD4CF65352414600F038FA08F289
:10414000941100F02EFA08237F22DFF81C0400F0FF
:1041500024FA002501A800F028FA6D1C082DF9D3D7
:10416000FFF761FD4CF24312414600F020FA08F2DD
:10417000A81100F016FA00260223F2B2DFF8EC03D1
:10418000FFF702FD002500F00FFA6D1C022DFAD397
:10419000761C142EF0DBFFF746FD4CF2423241460E
:1041A00000F005FA08F2B81100F0FBF95C237F2259
:1041B000DFF8BC0301882FA802F0A8FB00252FA878
:1041C00000F0F3F96D1C5C2DF9D3FFF72CFD4CF6D4
:1041D0004312414600F0EBF908F2C81100F0E1F992
:1041E00014237F22E34800F0CBF900250BA800F050
:1041F000DCF96D1C142DF9D3FFF715FD4BF2542299
:10420000414600F0D4F908F2E01100F0CAF90223A7
:104210007F22D948FFF7B8FC002500F0C5F96D1CD6
:10422000022DFAD3FFF7FFFC4BF23462414600F057
:10423000BEF908F2F81100F0B4F908237F22CF4844
:1042400000F0ABF9002501A800F0AFF96D1C082DB6
:10425000F9D3FFF7E8FC4FF60172414600F0A7F9E9
:1042600008F2042100F09DF902237F220021FFF7CC
:104270008CFC002500F098F96D1C022DFAD3FFF795
:10428000D2FC4EF22312414600F091F908F21C21B3
:1042900000F087F904237F22012103A802F036FBF6
:1042A000002503A800F081F96D1C042DF9D3FFF758
:1042B000BAFC4EF27542414600F079F908F2342119
:1042C00000F06FF911237F22022100F05AF9002536
:1042D0000BA800F06AF96D1C112DF9D3FFF7A3FCB0
:1042E0004EF26322414600F062F908F2482100F0E4
:1042F00058F902237F220321FFF747FC002500F035
:1043000053F96D1C022DFAD3FFF78DFC4EF2635268
:10431000414600F04CF908F25C2100F042F9042318
:104320007F22042103A802F0F1FA002503A800F07F
:104330003CF96D1C042DF9D3FFF775FC4EF26212A7
:10434000414600F034F908F2702100F02AF9022306
:104350007F220521FFF719FC002500F025F96D1CCF
:10436000022DFAD3FFF75FFC4EF67932414600F09A
:104370001EF908F2882100F014F911237F2206218A
:1043800000F0FFF800250BA800F00FF96D1C112DAF
:10439000F9D3FFF748FC4EF66462414600F007F996
:1043A00008F2942100F0FDF810237F22072100F08D
:1043B000ECF8002504A800F0F8F86D1C102DF9D3D6
:1043C000FFF731FC4EF26432414600F0F0F808F29B
:1043D000A42100F0E6F81A237F22082128A802F081
:1043E00095FA002528A800F0E0F86D1C1A2DF9D3E5
:1043F000FFF719FC4EF22412414600F0D8F808F2FB
:10440000B82100F0CEF81A237F22092121A802F05A
:104410007DFA002521A800F0C8F86D1C1A2DF9D3EB
:10442000FFF701FC4EF22512414600F0C0F808F2F9
:10443000CC2100F0B6F808237F220A2100F0AEF864
:10444000002501A800F0B1F86D1C082DF9D3FFF785
:10445000EAFB4DF24522414600F0A9F808F2E821B6
:1044600000F09FF800260423F2B20B2103A802F00B
:104470004DFA002503A800F098F86D1C042DF9D31F
:10448000761C102EEFDBFFF7CEFB4EF27422414676
:1044900000F08DF808F2F82100F083F8FFF7C3FB75
:1044A0004FF60D72414600F082F808F20C3100F030
:1044B00078F800260B23F2B20D2108A802F026FAA4
:1044C000002508A800F071F86D1C0B2DF9D3761C9F
:1044D000062EEFDBFFF7A7FB4EF25642414600F0F7
:1044E00066F808F2203100F05CF8FFF79CFB4FF40F
:1044F0006542414600F05BF808F2303100F051F8B7
:10450000FFF791FB47B0BDE8F08300BFB4D90008C6
:1045100004F4000806F4000808F400080AF400088F
:104520000CF400080EF4000810F4000812F400085F
:1045300014F4000816F4000818F400081AF400082F
:104540001CF400081EF4000820F4000822F40008FF
:1045500024F4000826F4000828F400082AF40008CF
:104560002CF400082EF4000830F4000832F400089F
:1045700034F4000836F4000838F400083AF400086F
:1045800001880BA802F0C2B9018804A802F0BEB9E4
:1045900001880DF1020002F0B9B9018801A802F00A
:1045A000B5B9207803F078BB00A82A5C494620788A
:1045B00003F0B8BB58070020287803F0B3BB000015
:1045C00007B52021014801F00BB900BFFCDC000851
:1045D00010B501F0CFFD044601F0C2FD23460246AE
:1045E000034904480078BDE8104003F09BBB00BFBE
:1045F0000CDD00085807002080B5002005F096F873
:10460000002005F09FF8012004F064FF04F08EFA0A
:1046100010F0060000D00120BDE80240FEF70ABB02
:1046200080B5022100F0B9F8009800F0BDFD01BD91
:104630008068006800B1012008490870DFF8F801BF
:104640000978002914BF00F21C0300F2240300F1D2
:104650000C024F49D1F81012FEF742BA800900202F
:1046600010B51E4C05F03DF8002814BF04F23803C5
:1046700004F2400304F124024548D0F860125DE0E2
:1046800038B50446DFF8B051A0680068C0B205F044
:104690002BF800280CBF05F24C0305F2540305F17A
:1046A00044023B48D0F850122846FEF719FA20463B
:1046B000BDE83240D4E710B5084C04F0FFFF0028F5
:1046C00014BF04F2380304F2400304F168023048D6
:1046D000D0F8601204F1480031E00000BCDD0008B1
:1046E00070B50446A06805782A4E2948D0F87012A3
:1046F0003046FEF7F5F915B1012D07D00CE006F1B3
:104700000800FEF7EDF904F06DFF05E006F11C006E
:10471000FEF7E6F904F0A0FF06F12C00FEF7E0F941
:104720002046BDE87040C6E710B504F077FB064CA4
:10473000034604F11C021648D0F820122046BDE8BA
:104740001040FEF7CDB900BF7CDE000870B500F068
:1047500057F80546384E0E48D0F8301206F15C0086
:10476000FEF7BEF904F078FFA0680068C0B204F05C
:104770004DFB024606F1440106F19000FEF7B0F948
:10478000012D01D104F02EFF2046BDE87040CBE79B
:10479000F8C4000830DE0008012100A805F078BB4D
:1047A00038B500F02DF8054604F056FFD02004F08F
:1047B0005DF805F06BF8034602A204F111011F48F1
:1047C00014E000BF4343410038B500F019F8054636
:1047D00004F042FFD02004F049F804F099FF0346AA
:1047E000064800F1140204F1110100BFFEF778F948
:1047F000012D01D104F0F6FE31BD00BFB8DE000886
:10480000044604F05BBF000038B5FFF7F9FF05462A
:1048100004F022FFD02004F029F804F079FF04F01E
:1048200071FC034602A204F111010248DEE700BF59
:1048300045440000D4DE00081CDD0008A0DE0008AE
:10484000002070472DE9FB4F93469DF930A00124CD
:104850000578DFF8E090B9F80060DFF890737978B8
:1048600011B1B978002962D1DFF86083802D05DAB3
:104870006A1C92B20146404600F0BAFC06F4B84603
:10488000DFF8540390F82C108D421ED10024002133
:1048900001E00124491CA94217DA01EB0802527811
:1048A0000B1893F82D3097F804C0BCF1000F04D119
:1048B00019B902F0DF0203F0DF039A42EAD00229BD
:1048C000E7D1FA78002AE5D0E3E7710402D48168E1
:1048D000491C816018490978F971B9F800207A817A
:1048E0009DF804303B72C7F818B087F806A0BDF8F1
:1048F00008307B71C3687D79EB18C3600369554646
:10490000EB180361C369C918C1610168491C0160E2
:10491000016A5118016214B14168491C416078690B
:10492000010000D08047B87808B101207870BDE858
:10493000F78F00BF3A0E00203C0E0020DFF89802EF
:10494000416A491C4162DFF8A4028189491C8181C6
:104950007047DFF88402816A491C81627047000059
:10496000F0B58DB09748D0F8D01213A213A314A4B9
:1049700014A515A615A70FF2580C1648DFF86CE21F
:104980009EF800E0BEF1000F0AD000F1740ECDF8E1
:104990002CE000F16C0ECDF828E000F01DF806E0E8
:1049A00000F16C0ECDF828E000F016F87C30FEF730
:1049B00085F80DB0F0BD00BF6E756D0073657100B8
:1049C00070657200657272006C7169006564000048
:1049D00066700000F0DE0008CDF824C000F1640C21
:1049E000CDF820C000F15C0CCDF81CC000F1540CD7
:1049F000CDF818C0059700F14C070497039602956F
:104A00000194009300F14403704700002DE9F04148
:104A10008AB06E4C2578DFF8D46196F9060004F070
:104A200071FB07462946707904F061FBDFF874805A
:104A30000995317A0891B169079171890691F179E7
:104A40000591049796F906100391029070790190F0
:104A5000707A0090338AB2895B4801884046FEF73D
:104A60003FF8307880B10CA0FEF73AF801260BA78A
:104A700005E0315D3846FEF733F8761CF6B2B542F4
:104A8000F7DA07A0FEF72CF808F134000AB0BDE809
:104A9000F041FEF725B800BF7B000000202568002C
:104AA0007D000000ACDF00082DE9F84F064600202D
:104AB0008DF8000004F002FE80464248D0F8D0A2F3
:104AC000DFF80C9151464846FEF70AF83046FFF7EA
:104AD00047FF464E002070700120B07004F0BCFD0E
:104AE00000207072F0813082374F3880B081DFF85B
:104AF000D0B0364C374D0FE06420C0F164007072C6
:104B0000FFF784FF002070709BF8000020B105F0D3
:104B100029FA08B100F0FAFA9DF80000652840D0A3
:104B2000287802F0CAFF18B100A9287802F0D0FF57
:104B300070780028E8D02078015D001910F8010C89
:104B400040EA0121F0890818328A801A431EF38155
:104B5000318238881A1892B29BB2002BCCD0002830
:104B6000CAD0338A994201DA0020C6E701216423C2
:104B700040F28A2C604502D26421012305E041F60F
:104B8000641C604501D20A210A2392FBF3F2002A39
:104B9000EAD0484390FBF2F0C0B26528ADD30020C4
:104BA000ADE7B8F1010F01D104F01CFD0020B07099
:104BB000514609F11C00FDF793FFBDE8F18F00BFDE
:104BC00081090020F8C400083E0E0020600A002081
:104BD000E8DF000858070020B0090020806800685E
:104BE00000B10120014908707047000090070020C3
:104BF000DFF850148A78CA7004F0B2BA2DE9F04197
:104C000007460D461646DFF83C44DFF8EC8240B11B
:104C1000402816D0892824D08D281AD08F2808D073
:104C200024E0A068401CA060207850B307B56F2135
:104C300024E02069401C2061207810B307B573215F
:104C40001CE06069401C60612078D0B107B5772115
:104C500014E0E068401CE060207890B107B57B214B
:104C60000CE007B58021404600F0BAFD3A4608F155
:104C70001801012003F0B8F807B58421404600F080
:104C8000AFFD6670E561402F0FD1E078401EE07007
:104C9000C0B250B1E088401CE080064804210160A9
:104CA000016B41F00101016301E001202070BDE8CA
:104CB000F08100BF30200040DFF888130A7802B985
:104CC0008861704710B504F02EF9064C034604F1D4
:104CD0000C021648D0F800132046BDE81040FDF73E
:104CE000FFBE00BFD4E1000830B583B00546A86818
:104CF00090F90040204604F097F801460A480191D7
:104D000000F120010091234600F110020749D1F87B
:104D10001013FDF7E5FE03A0FDF7E2FE2846BDE80F
:104D20003E40CFE70D0A0000ECE10008F8C400089F
:104D300000B583B00146DFF80C0383880548019372
:104D400000F12C02009200F114021131FDF7C8FEAF
:104D500007BD00BF14E2000881680968DFF8E4229B
:104D60009180E5E72DE9F04F85B001258068008846
:104D70000090401E8041C00F019004F09FFC039002
:104D80004FF0000ADFF8BC62DFF89872DFF8E881C4
:104D90000098012812D000F0A3F83878019921B1C9
:104DA00008F1140102F0BEFF03E0009A48A102F0EE
:104DB000B9FF00F09AF8414600F094F8D146454C0E
:104DC000DFF87CB2019810B90098814549DA09F101
:104DD00001001FFA80F902A9387802F079FE9DF8E7
:104DE000080065283DD04548007820B105F0BAF8A4
:104DF00008B100F08BF9B08803F038FD3648007830
:104E000060B19BF80000584400F8035C9BF8000078
:104E10005844291200F8021C6D1CADB200203070FD
:104E20005846FFF7E5FE5FEA000A17D10020216C23
:104E300089B2226C52085200226401222260327828
:104E40005AB92268D207FAD5012222600246501CC4
:104E500092B2022AF3D34FF0010A2164BAF1000F93
:104E6000B0D04A4608F1380100F042F8524608F145
:104E7000540100F03DF81948028808F1700100F073
:104E800037F808F1900100F02DF838787178002992
:104E900014BF08F1AC0108F1B40102F043FF04F0C3
:104EA00033FD20B1B26908F1BC0100F021F8F269CC
:104EB00008F1E80100F01CF8642003F0D7FC039827
:104EC000012801D104F08EFB05B0BDE8F08F00BFD2
:104ED0002575000008A00040800900205E09002020
:104EE00008F10C01387802F01DBFB28808F12001EA
:104EF000387802F017BF00005CE10008810900204B
:104F000038B500F017F800F030F804F0A5FB04F015
:104F10006DFC01E000F00AF800F004F8FAD104F0AA
:104F20006DFC1DE09DF800006528704700A92878F9
:104F300002F0CEBD00208DF8000004F0BFBB38B5F4
:104F4000FFF7F8FF00F011F804F086FB04F062FCB4
:104F500001E0FFF7EBFFFFF7E5FFFAD104F07BFC80
:104F6000012C01D104F03EFB31BD04462D4D024918
:104F7000287802F0D7BE000044E00008F8B5294CBC
:104F8000124D2946207802F0CDFE00262C4F17E066
:104F9000F25D05F10801207802F0C4FE701006EB06
:104FA00090708010B6EB800008D13878864205DA20
:104FB000324605F11001207802F0B4FE761CF6B2FC
:104FC0003878401C8642E3DBF1BD00BF58E20008A0
:104FD000806800681A490870704700002DE9F8439E
:104FE0000446A06805780026DFF854900D4FDFF8DE
:104FF00030806D1CEDB2802D06D2A06800EB8600DB
:10500000406805F8090005E0731C6A1E41463878BF
:1050100002F088FE761C042EEBDBBDE8F18300BFB6
:1050200074E20008580700200548142100F8011B0D
:10503000002100F8011B491C1429FADB704700000D
:10504000280B0020AC07002038B504460B4D0C4857
:10505000D0F8B0132846FDF743FDA0680068C0B241
:1050600003F068FD024605F1400105F13800FDF747
:1050700037FD2046BDE83240FFF756BBB4E20008DA
:10508000F8C4000838B503F051FD05460B4C03F099
:105090004DFD80074CBF04F23C0304F24803E807CF
:1050A0004CBF04F22C0204F23402214600F026F830
:1050B00001B0BDE8304002F035BE00BFFCE20008A0
:1050C00070B50446A06805780679022D01DA022E33
:1050D00003DB074900F00EF806E03046FDF7AAFDB5
:1050E00045EA460003F0C0FC2046BDE87040C9E731
:1050F00050E300080348007802F014BE014800782D
:1051000070470000580700207047704703F046BE04
:105110000000000038B50446432C2ED0442C03D1A7
:10512000BDE8314005F07ABC452C06D105F076FC8F
:1051300005F074FC05F072FCF2E74D2C1DD0462CF6
:1051400001D0472C13D10D4D2878002815D101200E
:105150002870002000F0B2FE472C0CBF40F6010082
:1051600040F6020004F018FC0020287031BD07B59D
:1051700040F29221024800F033FB31BD700F002055
:105180006CE300080A0242EA112148400106090FB7
:10519000484080EA00304101C9B20206D20E41EA1D
:1051A0000221484080B2704781B209B94BF6EF61E5
:1051B0000E4A1180000C01D14FF6CE20508070476E
:1051C00002461088030400D5484041001180704712
:1051D00038B5064C62212046FFF7F2FF054641F242
:1051E0000B01A01CFFF7ECFF684032BD68090020EE
:1051F00000E00000814231D21018401E5118491EB3
:1052000010E0121F11F8013900F8013911F80139C5
:1052100000F8013911F8013900F8013911F80139A4
:1052200000F8013992B2042AEBD292B20AB311F813
:10523000013900F80139521EF7E7121F11F8013B3E
:1052400000F8013B11F8013B00F8013B11F8013B6C
:1052500000F8013B11F8013B00F8013B92B2042A2F
:10526000EBD292B22AB111F8013B00F8013B521E79
:10527000F7E7704702E000F8011B521E92B2002AC5
:10528000F9D1704710B500E0521E92B2002A03D047
:1052900000F010F8F8D013E0002010BD10B500E0C9
:1052A000521E92B2002A03D000F004F8F8D007E0B2
:1052B000002010BD10F8013B11F8014BA3427047CC
:1052C000181B40B210BD0000AE490A89002812BF69
:1052D00042F004004FF6FB7010400881704770B533
:1052E000A84842783E490B685B0722D5032A20DA9A
:1052F00000EB420384889C810123847803FA02F244
:10530000224382700278354C82B1002502E06D1C88
:10531000032D0EDA03FA05F61642F8D045707240F6
:10532000027000EB4500808A206002E022600322C8
:1053300042704FF6FF700860BFF35F8F70BD38B5E5
:1053400003F09EF88F490A78E2B1244B1C68E40709
:1053500018D4002402E0641C032C14DA0125A540B3
:105360001542F8D04C706A400A7001EB4401898AFA
:1053700019601B494FF6FF720A604F494FF40062F3
:105380000A6000E0032403F077F8E0B232BD7D4804
:1053900000210170032141700021C17005210181AC
:1053A000002181700D4900220A604A604FF40042DA
:1053B0008A601022CA60001D4861012088610320B4
:1053C000C8600748042101644FF6FF7101603A4844
:1053D0004FF40061016003F0A1BA000004D0004066
:1053E00010A8004070B504462A2901D0012070BDE4
:1053F000644DD00040EA43302989084305EB44015D
:105400008882012000FA04F6287830420FD103F098
:1054100037F8297831432970A978B143A97003F08E
:105420002BF8FFF78CFFA04201D1812070BD8220B4
:1054300070BD00002DE9F84380460C461D4F1E4DFF
:1054400003F024F848B92868000506D5386800F04C
:105450000400461EB641F60F00E0012603F010F8E6
:1054600081463EB12868000504D53868400701D55B
:10547000FFF735FF43488178012202FA08F20A4219
:1054800007D000EB48039B89238051408170802422
:1054900009E00178114201D0822404E040784045BF
:1054A0000CBF81248424484602F0E6FF2046BDE874
:1054B000F28300BF50A8004000E100E038B5054687
:1054C0000C4621462846FFF7B5FF842801D08028E6
:1054D000F7D132BD38B50546072389222A21FFF7C7
:1054E00081FF284C04F11C012846FFF7E7FF8028C4
:1054F00009D10723B9222A212846FFF773FFA11DEE
:105500002846FFF7DBFF802805D1E188A28B891AA6
:10551000E180012101E000210120E17032BD0000A5
:1055200038B50446174DE87808B9FFF7D3FFE87897
:10553000002820D0B5F9060020B907B5FE210F4894
:1055400000F04EF9B5F90600B5F91C10611A00EB30
:10555000D072521002EB014191FBF0F403F03EF9DE
:10556000604300EB8000001442F6E161884203DBF7
:1055700042F6E06032BD024832BD00BF84E300085D
:105580000080FFFFCC0B00202DE9F041464C0020AD
:105590002065174E4FF40055356002202060E5600D
:1055A00000202065206D40F060002065DFF8FC8061
:1055B0000E2000F023F888F80000002060654FF40A
:1055C0008047376004202060E7600A4816210160A8
:1055D00000206065606D40F060006065162000F09E
:1055E0000DF888F80100044805600760BDE8F08107
:1055F00080E100E014BC004000E100E00E2802D091
:10560000162809D00AE0064800680006800F00F05E
:10561000010080F0010070470248F5E70020704764
:1056200008B4004008B8004010B51F484FF40051BE
:10563000C160022101600E20FFF7E0FF1B4C2178C2
:10564000814202D02070014607E000F008F80E20E9
:10565000FDF762FA217800F002F80E201FE0481EE4
:105660008041C00F20702178704710B50E484FF46C
:105670008041C160042101601620FFF7BFFF0B4C81
:105680006178814202D06070014607E000F010F8B6
:105690001620FDF741FA617800F00AF81620BDE8FF
:1056A0001040FDF739BA000014A80040710F002027
:1056B000481E8041C00F60706178704770B50C461D
:1056C000444D002129650521A9620121696100215C
:1056D000A961A96941F44051A9613D4E706001780A
:1056E0000D225143E962E96AA963002169620178E8
:1056F0000F2291FBF2F14078C822504390FBF1F069
:105700007080022030700020707002F0B9FE0B49EA
:1057100001220A6030490A6842F001020A60102141
:105720002962296841F00101296002F0A5FE01E02B
:1057300000F036FD70782043FAD070BD40A80040DC
:10574000F0B523484288511E41802049002A39D1B2
:105750000278456856191F4B77782FB3C827545DD8
:105760009CB14FF00D0E0EFB04F4DC62DC6A9C630E
:1057700000245C6210241C62535D0F2493FBF4F33D
:1057800074787C4394FBF3F30AE040F29314DC62F8
:1057900000245C621C6273787B4303EBD3735B1061
:1057A0004380921C02700DE00A6C520852000A6499
:1057B000094A146864086400146000221A621A60BE
:1057C000012242704FF0FF300860F0BD00A8004099
:1057D000F007002000E0004000E100E042DE7047FA
:1057E00038B505460C4600F0DBFC02F049FE2146C8
:1057F000284601F0C3FC23462A460449012002F052
:10580000F3FA21462846BDE83440E7E780E800087F
:105810002DE9F8434FF4206966490868DFF8A4745D
:105820003C1D20650A6A6265634A1268A2654A6A7D
:10583000E2658A6A2266CA6A62660A6BA266896B38
:10584000E166616B49074CBFE56BA56B40F2FF1643
:10585000DFF83885DFF83025954227D3A84525D3D2
:1058600005F2180555F8041B216455F8041B616402
:10587000304006281DD1206C00884DF642618842D8
:1058800017D107F28800796841606168816055F836
:10589000040B786055F8040B606055F8040BA060A9
:1058A00055F8040B606340F2017902E000202064A7
:1058B000606400F053FAA0640020E064002207EB6B
:1058C00080014A67401C0628F9DB206C00283BD089
:1058D00000203A4A3A4B04E0052007EB800CCCF854
:1058E0007410A8452BD358F8041D9942F9D391425E
:1058F000F7D25FEAC17CF4D54FF0000C07EB8C0EB9
:10590000DEF874E08E4504D00CF1010CBCF1060FFA
:10591000F4DBBCF1060FE4D10028DDD0401EC0B29C
:10592000DBE7216F4FF0000C07EB8C02936F53679E
:105930000CF1010CBCF1050FF6DBC7F8881001462D
:10594000481EC0B20029ECD1206D304002280AD098
:10595000032815D0042816D0052817D0062818D0FB
:105960000C281CD01EE017480168890702D540F6B4
:1059700002191CE00068C00719D540F2025916E070
:1059800040F6012913E040F6022910E040F6032911
:105990000DE0B9F5206F0AD140F6042907E040F682
:1059A000052904E018B1212801D240F6072948460C
:1059B000BDE8F28304ED00E000E300E05AB6000821
:1059C000842100081CA000402DE9F04F85B08046DE
:1059D000BC4FB86B404D410706D504953C6C3E6DFD
:1059E000002103918B4609E005F108010491FC6B4D
:1059F000FE6CDFF894130391DFF890B300074CBFFF
:105A000005F1100205F218020398BBEB000A07D05B
:105A100064204FEA5A0100FB0610B0FBFAF901E0DE
:105A20004FF000090294CDF804B003980090049B55
:105A300005F12001404602F07DF91FFA8AF001903D
:105A4000049800901FFA89F3B2B205F15001404664
:105A500002F070F9B86B400708D4AAF194008642AE
:105A600004D105F18C01404602F064F95C4502D294
:105A70000398844205D2049A05F1B801404602F029
:105A800059F9404602F0A0F9F86DD8B105F1D801F6
:105A9000404602F047F900260EA5104CF86D012192
:105AA000B140084207D054F82620107818B1294692
:105AB000404602F037F9761C112EEFDB404602F02B
:105AC0001BF904E005F20811404602F033F905B075
:105AD000BDE8F08F2025700094E8000870080020D1
:105AE0002DE9F84F0446DFF8D48108F2EC1B08F2E8
:105AF000082A744E06F24405DFF8C491012700F02D
:105B0000D7F940F20151401A16D0401E16D040F28B
:105B1000FF11401A3BD04FF44071401A3CD0401E58
:105B200058D0401E74D0401E00F0AC80401E00F0E3
:105B3000BE80401E09D04BE0414644E008F14001E0
:105B400000F0CCF800F0CDF83FE0A86C012806D0BA
:105B5000032807D0042807D0052808D00AE008F257
:105B60008C0708E053A706E008F2940703E008F268
:105B70009C0700E050A708F1A40100F0AFF8EB6C1F
:105B80003A4608F1CC01204602F0D4F81DE0EB6C57
:105B9000AA6C08F1E401F6E708F2001100F09EF8A3
:105BA000286A800703D508F2181100F097F8286AD0
:105BB000400003D508F2541100F090F8286A00283C
:105BC00003D508F2881100F089F8204602F0FCF8AD
:105BD000BDE8F18F08F2C41100F080F8E8690321F4
:105BE000084201D000F07DF8E869000601D500F018
:105BF00070F8002600F068F806D059F826201078D2
:105C000010B1514600F067F8761C082EDDDAF1E796
:105C100008F2102100F062F800F063F8E86940052E
:105C200003D508F2282100F059F8E869000401D5ED
:105C300000F04FF8082600F047F806D059F8262063
:105C4000107810B1514600F046F8761C102EF2DBA9
:105C5000E869C0B218B908F2702100F03FF80126D7
:105C6000E86A07FA06F1084208D009EB8600826E5E
:105C7000107818B108F2A02100F02DF8761C042E3F
:105C8000A3DAEDE708F2A82100F028F800F029F8DF
:105C9000102600F019F806D059F82620107810B117
:105CA000514600F018F8761C1A2E8EDAF1E708F249
:105CB000C42145E7414443003F3F0000B4E90008E8
:105CC000F807002000000020E86907FA06F1084202
:105CD0007047AA6A5946204602F02CB8204602F0C6
:105CE00029B8726C08F17001204602F023B8000058
:105CF0002DE9F0478046DFF85C90DFF85CA00AF2FF
:105D00000C04002711A612A508E03146404602F017
:105D100009F8404602F058F87F1CFFB2207898B18D
:105D200059F8043B22465146404601F0FBFF14F867
:105D3000010B0028FBD120780028E6D007F00300F3
:105D40000328E2D02946E1E7BDE8F0870D0A00000C
:105D50002C200000040000209CEC0008084800688B
:105D6000C00601D5074802E0074800E0001D074AC9
:105D7000904203D20368B3F1CD3FF7D0101A7047B9
:105D80002C00004094000020000000205807002054
:105D900005E004E003E002E001E000E0FFE772B6A6
:105DA0001EF0080F08D01EF0040F0BD0DFF848E0FB
:105DB000AEE8FF1F11480AE0DFF83CE0AEE8FF1F45
:105DC0000F4804E0DFF830E0AEE8FF1F0D486946F9
:105DD000EFF309828EE8070086460B480B4C854599
:105DE00001D3A54501D384F30888FFF711FD84F39F
:105DF000088803F0D1FD000004000020FDFFFFFF34
:105E0000F1FFFFFFF9FFFFFFD4000020580700203B
:105E10000D4800BF38B5054602F032FB04460B487A
:105E200000210160082155F8042B826055F8042BED
:105E3000C260491EF7D10121016002F037FB204604
:105E4000BDE8324002F018BBC4EE000894ED00E05B
:105E50001248006800F0DF000021002202E0521C1E
:105E6000082A17D2012393401842F8D00C4830F882
:105E7000121006290ED10B4841884FF20F029142B1
:105E800003D101880A0A0B2A01D34FF4C0614CF2F6
:105E90003C32428008480180704700BF2C0000401F
:105EA00004EF00080000002003480088000A704743
:105EB00001480088704700005E0F00202DE9F94D71
:105EC00084B01022FF2100A8FFF7D4F9DFF898B0C2
:105ED0004C22FF215846FFF7CDF920244FF010083F
:105EE0000026DFF888A02248305C411C01EBD1710C
:105EF0004F102049755CFF2804D107B56F2150462B
:105F0000FFF76EFC7F2D04D307B570215046FFF7D5
:105F100067FC1948305C00B11937781C00FB054458
:105F2000012D02D02BF81680A844761C102EDADB47
:105F3000B4F5806F10D300F033F902F0A1FA40F20B
:105F4000FE7322460AF11001012001F04DFF07B552
:105F500086215046FFF744FC00A99DF8100004F08C
:105F600023F906B0BDE8F08DEC0B002014EF00081B
:105F70008CED00089CED00087CED0008C1080329A9
:105F800008D2C1108902044A012300F0070003FA75
:105F900000F05050704700BF14B00040C108032902
:105FA00008D2C1108902044A012300F0070003FA55
:105FB00000F05050704700BF10B0004010B50446CC
:105FC00002F05EFAE10803290AD2E110064A02EB68
:105FD00081210A68012304F00704A3405A400A60A3
:105FE000BDE8104002F048BA0CB0004038B504F0EB
:105FF0006BFE002002F0C8FB494C206840F008000E
:10600000206000F0C5F802F0ADFB00F08DF8434DC4
:10601000E522EA6000F094F8286041F61400686018
:10602000206820F010002060FFF7B1F93D480078AB
:1060300058B1686820F0F00040F09000686068682F
:1060400020F4706040F410606860FFF79DFA04F07F
:10605000AFFE04F0D7FDBDE8314000F0BBB880B51D
:1060600000F0F2FF3449EF20C860344A4620D06087
:106070002A486523C36041F688030B6041F2881308
:106080004B6048F61101116048F68101516048F2F9
:106090001811016041F6180141602249097881B167
:1060A0002021416140210161416821F0F00141F06E
:1060B00010014160416821F470614FF48072114316
:1060C000416001BD10B504F0C3FD02F04BFB00F0D0
:1060D0002BF8124CE522E26000F032F8206041F625
:1060E000140060600E48016821F010010160FFF7A4
:1060F0004EF90C48007858B1606820F0F00040F08C
:1061000090006060606820F4706040F4106060602F
:1061100004F09EFEBDE8104000F0A2BF00B80040B1
:1061200000BC00406F0F00200348E821C160034914
:106130004F22CA607047000000B0004000B4004029
:1061400041F64912026041F29912426048F691000C
:10615000086049F60900486044F6191070470000CD
:1061600080B5FFF7A1FE024901EB800002BD00BF30
:106170008CEF000880B5FFF79BFEC1B20004000E53
:10618000024A52F8200000EB810002BD9CF000089A
:106190000F48012181604EF6BE21416002E00000FF
:1061A000024800BF01210160704700BF0860004045
:1061B000A52805D106484DF6AD6141600221016078
:1061C00070470348006810F0010000D001207047BC
:1061D0000060004080B50B48102101600A48022190
:1061E00001600A484FF40061016004F0D5FC0848E2
:1061F0000721016000210164064810210160002090
:1062000002BD00BF80E100E0080000400C600040DB
:1062100014A0004000E100E030B583B00446104611
:106220007F2800D10020B1F5004F19D108237F222B
:1062300040F6120100A8FFF7EFFF08220D4900A861
:10624000FFF720F830B908237F2240F2A27100A89E
:10625000FFF7E2FF082200A92046FEF7C9FF37BD7D
:106260001A46054D294300FB03112046FEF7C0FFE7
:1062700037BD00BFC8F00008000004082DE9F14F49
:106280009AB0DFF86845606818909DF868000728A4
:1062900001D1032002E0082802D102208DF8680015
:1062A000DFF8EC552868696840EA0120A96840EAEF
:1062B000014001906868400703D5E06940F00200A2
:1062C000E0612868400703D5E06940F00400E06120
:1062D0004FF0010B019829690BFA01F1084203D034
:1062E000E06940F00800E061DFF844A50020CAF84A
:1062F0000400DFF8FC749DF86800012800F0478274
:10630000022807D003281AD0042840F06682002013
:10631000606014E0386CC00703D5E06940F04000CD
:10632000E061386C400703D5E06940F02000E0618F
:10633000386C800703D5E06940F01000E06102F09E
:106340009FF8FFF73EFF17904FF00008386C16904B
:10635000786C1590DFF89C94D9F84C001490D9F81B
:1063600050001390D9F854001290D9F858001190A9
:10637000DFF8840400681090DFF87C0440680F9018
:10638000DFF8740440690E90DFF86C04406A0D90E9
:10639000DFF8686430680C9070680B90B0680A9001
:1063A000F06809903069089070690790B0690690AC
:1063B000F0690490B06B0390DFF844040068DFF8E4
:1063C00044144968029102212160DFF83C140968F5
:1063D000DFF83824126841EA0221DFF83424126819
:1063E00041EA024105914FF0FF316162DFF8581434
:1063F0000A68DAF80410D20409D56A68D20706D50B
:10640000E269D20703D5D8464FF48072114300F0F9
:1064100017FA920408D56A68520605D5E269D207D0
:1064200002D5D84641F4804100F00AFA52040AD558
:1064300000F000FA07D0E269D20704D5D846EA682E
:106440000BFA02F2114300F0FBF9120410D5019A85
:106450002B690BFA03F31A420AD0E269D20702D47D
:10646000E269120704D5D8462A690BFA02F21143F1
:1064700000F0E6F9D20305D5E269120602D5D84646
:1064800041F00061CAF8041000216A68D20701D502
:106490004FF480516A68520601D541F4005100F072
:1064A000C9F901D041F480412B690BFA03F31A4278
:1064B00001D041F40041E269D20605D4E2699206B6
:1064C00002D4E269520601D541F01001E2691206D8
:1064D00001D541F4803108400090A520FFF768FE07
:1064E0000120E063E069A16B11B1616A0142FAD059
:1064F000616A014200F0FC800020E063D846DAF8CF
:10650000040040F08040CAF8040001F0CBFF0720EF
:1065100038600F20C9F80000FFF77AFC1898606017
:1065200016983864159878641498C9F84C00139834
:10653000C9F850001298C9F854001198C9F85800C9
:10654000AD48109901600F9941600E9941610D9914
:1065500041620C9830600B9870600A98B06009989E
:10656000F06008983061079870610698B0610498EF
:10657000F0610398B063A24800990160A1480299B4
:106580004160A4484FF0FF3101609F4800680490CB
:106590009E4806689E480068616AE269114002915F
:1065A00029690391029911F0020100D00121029A98
:1065B00012F0040200D00122029B13F0080C634683
:1065C00000D00123DAF804C0CDF800C0DDF814C013
:1065D000DDF810E04EEA062646EA004080EA0C00AC
:1065E000019E304040EA812040EA8200039903FA8C
:1065F00001F1084302994FF47C72114040EA0151C5
:1066000000980843CAF8040001F03AFF01F04CFF7B
:1066100000202060179808B1FFF7BAFDDAF80400EF
:1066200077490968C90303D5010101D520212162F9
:10663000396C890703D5C10101D50221F960396C94
:10664000490703D5810101D50421F960396CC907D7
:1066500003D5410101D50121F960D9F84C10E022A0
:10666000114205D0C10503D577494FF480520A6025
:10667000D9F85010E022114205D0410403D57249E7
:106680004FF400520A60D9F85410E022114208D0A9
:10669000E9680BFA01F1084203D06B494FF48042DC
:1066A0000A60D9F85810E022114208D029690BFA83
:1066B00001F1084203D064494FF400420A60B8F186
:1066C000000F5DD154490968090559D561688907EA
:1066D00056D59DF86810042952D049490968C90661
:1066E0002DD559490968C90629D58AF800B047E06F
:1066F000B8F1000F7FF403AF3F48806940084000C5
:106700003D4988613F48C06840F004003D49C86089
:106710004248012101703B49096841F08051394AE2
:10672000116001780029FCD13B4840680004CAF898
:106730000800394989680843CAF80800E7E64FF4B9
:106740007A7100228AF80020354A536D43F0010324
:106750005365294B9B69DB0701D44FF4FA71136829
:106760002D4C64682C4DAD6845EA0444DAF80850B5
:10677000AC4205D11468E41A2403240B8C42EFD3F5
:1067800040F00040CAF8040001F088FE2BE0FFF75B
:1067900018FD0446A520FFF70BFD01F083FE01F074
:1067A0007DFE204D2E68286840084000286001F0DA
:1067B0007DFE1D4FD7F80080386820F0400038601B
:1067C00003F0E6F8C7F800802E6001F06FFE0CB110
:1067D000FFF7DEFC01F068FE05E007B540F2BA31D4
:1067E0001248FEF7FDFF1BB0BDE8F08F040000402B
:1067F00014A0004014A80040044000400050004095
:1068000000E100E004ED00E008B0004008B4004002
:1068100008B8004080E200E00C600040240E002038
:106820003820004094ED00E000800040D0F00008E7
:10683000380C0020019AEB680BFA03F31A427047F8
:10684000014A12687047000000E200E0104ACBB233
:1068500013600B0ADBB253600902090E91600B4909
:1068600000230B6013681BB953680BB992681AB107
:106870000A6842F001020A600A684FF400731A4382
:106880000A600A6842F080020A60F7E420000040D3
:1068900008BC00400049D9E70040400010B582B074
:1068A000374C012020700020FFF708FB40B100208A
:1068B000FFF704FB002803D000202070492016BDFC
:1068C00002237F22DFF8040301880DF1020000F0AB
:1068D0001DF802237F22002100A800F017F8BDF860
:1068E0000200B0F5FF7FBDF800004FF47F7103D1C7
:1068F000884207D1002016BD884201D0042002E062
:10690000062000E007200121217016BD10B54FF4CC
:106910008074A14208D21A4C2478002C06D0C9B247
:10692000BDE8104003F0E8BDFFF776FC10BD0000A5
:106930002DE9F04104460D46164698460F484FF49F
:1069400080718C4213D20E4F3978A1B1797819B188
:1069500007B5B821FEF744FF0120787043462A4668
:106960003146E0B203F030FF0020787003E007B555
:10697000C321FEF735FFBDE8F08100BFD8F0000865
:10698000730F00204BF25421401A00F0C2804FF4E4
:106990007871401A00F0BF8040F60F31401A00F0C5
:1069A000B2804FF48471401A00F0A980C01E00F03C
:1069B000A080F43800F0A980801E75D0123800F055
:1069C000928040F2ED51401A00F0A180401E00F08C
:1069D000928040F20F41401A00F093804FF43C71D6
:1069E000401A00F08A8040F20221401A00F0AB8089
:1069F00040F6DE61401A00F09280401E00F09F8059
:106A0000401E00F09E803D3800F0918040F2011160
:106A1000401A00F08880113800F09780D13864D097
:106A20001F3800F08A800B385BD0E73800F0918087
:106A30001F3876D08B3800F08E8045383BD01E381A
:106A400073D04FF48071401A47D00C3847D040F2D1
