:020000040800F2
:10000000000400205B000008710000087100000877
:10001000A70B0701000000000101A845002000080F
:1000200004050000AD060008C506000830100008F1
:1000300000000000000000000000000000000000C0
:1000400009480068202100EA010028B1074801683A
:1000500042685FEA010D10477047FFF7F1FF00F0BB
:100060000FF800F041F800002C00004000200008CC
:1000700002E05FEA000D70474FF4017000F0ACBC85
:1000800038B54FF20F044A4D00F06CFA002804D046
:1000900040F2052028806C8031BD44480068C006CD
:1000A00013D56888A0421BD1288840F202218842DB
:1000B00016D040F20621884212D040F20111884247
:1000C0000ED040F2111188420AD0064C208A40F628
:1000D000A721884204D12068FFF7CBFF60688047E2
:1000E00031BD00BF0020000810B572B62548016878
:1000F0004908490001602448592101602B480068E3
:1001000010F0100000D0012008B1204905E020497E
:1001100003E04FF0CD3241F8042B1E4A9142F8D350
:100120001D491E4A1E4B03E051F8044B42F8044B94
:100130009A42F9D31B491C4A002301E041F8043BD1
:100140009142FBD31A494A884FF20F039A420AD1CF
:100150000A8840F205239A4206D020B1100A0128ED
:1001600002D0022800D00022124802804CF23C301B
:10017000488000F063FA4FF40170BDE8104000F0D1
:100180002BBC00BFFCED00E000800040940000208C
:10019000000000200004002044100008000400209B
:1001A00008040020080400202D0C00202C00004032
:1001B00000000020280C0020C108032908D2C1102B
:1001C0008902044A012300F0070003FA00F05050AE
:1001D000704700BF14B00040C108032908D2C11005
:1001E0008902044A012300F0070003FA00F050508E
:1001F000704700BF10B00040C10803290BD2C110E6
:10020000054A02EB81210A68012300F0070003FA86
:1002100000F05040086070470CB0004030B583B02B
:10022000044610467F2800D10020B1F5004F19D1B7
:1002300008237F2240F6120100A8FFF7EFFF0822F3
:100240000D4900A800F07DF830B908237F2240F264
:10025000A27100A8FFF7E2FF082200A9204600F0E3
:1002600057F837BD1A46054D294300FB03112046B8
:1002700000F04EF837BD00BF280F0008000004084A
:100280000748012181604EF6BE21416002E0000076
:10029000024800BF01210160704700BF08600040B4
:1002A0000060004010B58208074B53F82220136805
:1002B00000F0030080000F248440A34301FA00F003
:1002C0001843106010BD00BF300F00080A0242EA58
:1002D000112148400106090F484080EA00304101E1
:1002E000C9B20206D20E41EA0221484080B27047EC
:1002F0000A0A4840C0B208214308C00746BF034865
:1003000058401846491EF7D1504070472083B8ED39
:1003100000E00000814210D21018401E5118491E02
:1003200092B26AB111F8013900F80139521EF7E7AB
:1003300011F8013B00F8013B521E92B2002AF7D19E
:10034000704710B500E0521E92B2002A03D000F0B0
:1003500004F8F8D007E0002010BD10F8013B11F8B8
:10036000014BA3427047181B40B210BD2DE9F84362
:10037000FFF78EFF00F0EEF8002000F00FF9444C7C
:1003800041A542A6DFF80C91DFF80C8113E040464E
:1003900000F0A0F8B9F81A70380A00F0A6F8304654
:1003A00000F098F8F8B200F0A0F808F11C0000F096
:1003B00091F800F0CFF8FFF76BFF022000F0EEF8A5
:1003C00000A800F0B9F80028F5D19DF8000000F071
:1003D0007BF89DF800000A28D9D00D28D7D0312805
:1003E00004D032282ED0332831D0E2E708F15C0067
:1003F00000F070F8012000F0FBF8074608F17000EB
:1004000000F068F82FB9052000F0C8F808F1840062
:10041000CDE7042000F0C2F808F1900000F05AF88F
:10042000B80602D508F19C0005E078064CBF08F13B
:10043000B40008F1D00000F04DF8384600F069F83B
:100440002846B4E7012000F0A9F8BDE8F1830027B1
:10045000284600F03FF8208A40F6A721884202D0C3
:1004600008F14C00A3E7222000F02EF8381990F88C
:1004700024007F1C18B100F027F8202FF6DB222083
:1004800000F022F8DCE700BF0D0A00002062000047
:100490000020000800000008480F000880B5094847
:1004A0006821416100218161022181600121016097
:1004B00009210920FFF7F6FE04210A20BDE80440C7
:1004C000FFF7F0BE54C800402149CA685207FCD566
:1004D0000860704710B5044603E014F8010BFFF7FD
:1004E000F3FF20780028F8D110BD10B5044620098C
:1004F0000A28ACBF37303030C0B2FFF7E5FF04F058
:100500000F000A28ACBF37303030C0B2BDE8104011
:10051000DAE710B50446200AFFF7E7FFE0B2BDE8CE
:100520001040E2E70348006810F0020000D001200C
:100530007047000048C8004010B50446FFF7F2FFBE
:1005400020B1034800682070002010BD012010BDBC
:100550003CC8004080B500A8FFF7EEFF0028FAD0A5
:1005600001BD00000020704780B5FFF789FE012122
:100570000620FFF797FE0620FFF72EFE0121072039
:10058000FFF790FE0720FFF717FE0348016821F0F0
:100590001001016001BD00BF00BC004010B505287E
:1005A00021D8DFE800F0032008151D030620BDE870
:1005B0001040FFF701BE0C4C2088411E218000280E
:1005C00011D10720FFF718FE42F21070208010BDF5
:1005D0000720FFF701FE0620BDE81040FFF70CBE24
:1005E0000620FFF7F9FD10BD2A0C002000787047A7
:1005F00030B5CFB0044621462AA800F011FB0020F8
:1006000000904FF402630B4A2AA901A800F04EF8AB
:10061000094A01A902F10C0000F054F80546FFF761
:1006200037FE1DB12146284600F046FB28464FB054
:1006300030BD00BF080400202410000880B500F081
:10064000D5FAFFF791FFFFF729FFFFF78FFE40F282
:10065000012000F0C1F9002002BD80B5012A01D1BE
:10066000FFF732FF01BD000038B50D46144605E026
:10067000014615F8010BFFF73BFE641EA4B2002CE7
:10068000F6D132BDF8B507460E4615461C46224641
:10069000294630683B689847070005D1224629461D
:1006A000F068FFF7E1FFF0603846F2BD10B5029C3C
:1006B00084720381426001604FF0FF31C16000210C
:1006C000017410BD2DE9F54F83B00E467468B6F87D
:1006D00008A006F21400009000F110075046C00771
:1006E00004D4BAF1800FDFF8C89201DA4F2082E01B
:1006F00000F06CF90100FAD12078617801EB00205C
:100700001FFA80FBA078E17801EB0025ADB2E80785
:1007100001D546206FE0B5F5026F01DD4E206AE09D
:10072000002DE5D05FEA0B000AD04FF60441BBEB89
:10073000010000F0B280FF3860D0FE385ED034E1B6
:10074000307C08B1452056E0912DCFD22B46009841
:10075000021D31460398FFF795FF01004BD100F0D1
:100760002BF901980C308542ECD10098808800F07C
:10077000C3FB00F47F404FF400718842E2D100983F
:10078000C08800F0B9FB4EF250318842DAD1388A85
:1007900040F6A7218842D5D1788A00F47F404FF4F3
:1007A00080718842CED100F00DF9D9F81C10884232
:1007B000C8D14FF6FF703882019A92B2009800F1CA
:1007C00010014FF0FF30FFF74FFF05460098C0685B
:1007D00000F09CFBC0438542B4D1387E0428B1D1DF
:1007E000787E052801D00628ACD101203074B07A7B
:1007F000002896D0502005B0BDE8F08F307C08B9B5
:100800004120F8E700F0E2F80100F4D120786178A7
:10081000090441EA0060A17840EA0120E17841EA58
:1008200000082D1FADB2D9F81C00804501D2482028
:10083000E1E705EB0800796D884201D34920DAE74A
:100840004FF6035083450DD1049858B1414602201C
:10085000049A1268904728B14A20CCE7A5EB0B0513
:10086000ADB2D844002DC2D0AB46554500DDD346CD
:100870001FFA8BF300F0ABF80100BCD104980028FC
:10088000ECD00BEBDB70421021464046049B5B68CA
:1008900098470028E2D04B20ADE7307C0028AFD04D
:1008A000042D01D04C20A6E700F090F80028A2D13A
:1008B00000F082F8F0683F49884234D1049800285B
:1008C0006BD084684FF0FF3A002502E06D1C062DC6
:1008D00024DA07EB4500029090F8488016E0FFF715
:1008E000D7FC4FEAC82040F0006B4FF4006958462F
:1008F000A0475146FFF7FCFC82460BF1010BB9F112
:100900000109F4D108F101005FFA80F8029890F82B
:1009100049004045DADBB8F1FF0FE0D1786C6FEAAF
:100920000A01884201D0432065E700F04BF80199A5
:100930004A083946049B5B689847F0B90098C0683C
:1009400000F0E4FA044600F03DF8019D80464FF0C7
:10095000FF390498D0F808B008E04046D847494627
:10096000FFF7C6FC81466D1E08F10108ADB2002DEF
:10097000F3D16FEA0900844201D042203BE740F600
:10098000A720388200F01EF8012207F11001103074
:10099000049B5B6898470028EFD130680399496849
:1009A0008847172800D1002025E7442023E700BF0F
:1009B00000000008E320BBDEF87E802800D3802002
:1009C000019070470098806800F0A0BA0423224686
:1009D0003146039856E600000D4930220A600D4961
:1009E0000A600D490A600D4910220A60010A00D10F
:1009F00000020E4908804FF20F004880BFF35F8F5E
:100A000007480021016041600648074901607047BE
:100A10003020004030C8004030C0004010D00040BE
:100A20001C4000400CED00E00400FA05000000202E
:100A30002848018A40F6A772914209D1418A4FF4B1
:100A40007F40014204D102298041C043C00F70475A
:100A500000207047F8B505460C460E4E0120307058
:100A6000FFF7E6FF18B94FF40170FFF7B5FF19481B
:100A7000876A21464FF480702843B84700213170BF
:100A8000154E20B921464FF400702843B847805DC9
:100A9000F2BD00002C0C00202DE9F04180460C46F0
:100AA0005500FFF7C5FF18B94FF40170FFF794FF29
:100AB0000848466A00232A4621464046B047064F6A
:100AC00020B92B46002221464046B047C05DBDE814
:100AD000F081000000000408381000080648016892
:100AE00041F0010101600121416002485121016092
:100AF000704700BF008000401C400040F8B5394CF2
:100B0000454D4FF6FF77454EB088B84229D10223B4
:100B10007F2233480188301DFFF780FBB088B84240
:100B200001D10220B080A069800703D4A06940F001
:100B30000200A06101203070B0882060072028608A
:100B400000206860A86028484FF000710160A0692B
:100B5000C00732D5E06900282FD048F69F40686072
:100B60000AE0A0698007E1D52868C00301D500F03C
:100B700047F83078002801D00020F2BDA06810F0BE
:100B80000100A168B28803D10F2A08D2521C06E0E6
:100B9000890704D5B17811B1032A00D3521EB07071
:100BA00092B2022A00D20222B2802068B188884222
:100BB000C0D1FFF793FF0120F2BDA069C00705D5A2
:100BC000E069002802D144F24F60C8E7A069C0077D
:100BD00002D4E0690028F6D142F22730BFE700BF17
:100BE000401000080440004004ED00E080B5FFF72D
:100BF00085FF00B101BD40F2DC5000F065F9F6E779
:100C00000548002141608160016821F00201016016
:100C1000024800210170704710E000E0000400204D
:100C2000017001224270827001290CBF8021402195
:100C300081800021C18001811E4801600E218162F6
:100C4000016821F010010160002141634162704799
:100C5000F8B506460C46154615484FF0FF310160C1
:100C6000144FFD6200207862386840F0010038605F
:100C7000FFF70EFB012E19D16CB9FFF753FC78B9C1
:100C8000786AA842F4D3002DF2D0386840084000BA
:100C900038601620F2BD2046FFF74EFC0028EFD149
:100CA00038684008400038600020F2BD0120F2BDE5
:100CB00000A8004000E0004038B505460C4600F0B2
:100CC00009F800F007F8224629461820BDE8384008
:100CD000FFF7C3BC224629461820FFF7BEBC38B533
:100CE0000446002020814AF6B43200A92078FFF79C
:100CF000AFFF002801D01C2032BD9DF80000032862
:100D000001D1182032BD1828FBD0042801D11720AA
:100D100032BD012801D0212032BD002501E06D1C2B
:100D2000EDB2A088001D85420BDA40F2DD222819C1
:100D300000F10A012078FFF78BFF0028EFD0262072
:100D400032BD0025002006E001462819007BFFF790
:100D5000BDFA6D1CEDB2A1888D42F5DBA17AE27A75
:100D6000511889B2FF2901D0222032BDA18809196A
:100D7000097B0212D2B2914201D0232032BDA18858
:100D80000919497BC0B2814201D0242032BDA07A2A
:100D9000A178884207D0491EC9B2884201D12720D4
:100DA00032BD252032BDA088801C20810220E08039
:100DB000002032BD38B504466078012804D00228EE
:100DC00032D0032838D039E02078012811D13B25D2
:100DD00004E02846451EC0B2002823D04320FFF778
:100DE00073FB40F2DD2200212078FFF731FF00285D
:100DF000EFD1022060702046FFF771FF050001D09F
:100E0000FFF7A8FB272D1BD12278A078411EC9B27D
:100E10000620FFF722FC002DEDD10320FFF7BEFBDB
:100E2000002032BD1B2032BDFFF794FB00F023F8F9
:100E3000A078401CA070DEE7172032BD182032BD1C
:100E4000A80603D52278A1781520E2E7680603D426
:100E5000182D01D01C2D07D121782846FFF72CFF33
:100E600004206070284632BD172DD4D100F003F85D
:100E700003206070E0E72278A1780620FFF7EDBB41
:100E8000F8B506460C461546002706E0F088411CDA
:100E9000F1808019807A38557F1CAF4209DAF088DA
:100EA00031898842F2D33046FFF784FF0100EDD04C
:100EB000F2BD0020F2BD10B504462046FFF77AFFD0
:100EC0000028FAD010BD000009490A68094B1B68C8
:100ED000DB0700D44008032809D34B6D43F001031E
:100EE0004B650B689B1A1B031B0B8342F9D370479E
:100EF000382000401C40004001B49DF800009DF8DF
:100F0000011001EB002080B201B0704711B581B033
:100F1000BDF80400FFF7F0FF0446BDF80600FFF738
:100F2000EBFF40EA044016BDFFFFFFFFFFFFFFFF9E
:100F300000B0004004B0004000B4004004B40040E1
:100F400000B8004004B800400D0A454D333531204B
:100F500053657269616C20426F6F746C6F61646578
:100F6000722076000D0A0D0A312E2075706C6F61AB
:100F7000642065626C0D0A322E2072756E0D0A3384
:100F80002E2065626C20696E666F0D0A424C203E11
:100F900020000000202A2A206E6F20617070202A15
:100FA0002A0D0A000D0A626567696E2075706C6F04
:100FB00061640D0A000000000D0A53657269616CDE
:100FC0002075706C6F61642000000000636F6D70AD
:100FD0006C6574650D0A000061626F727465640D62
:100FE0000A0000000D0A584D6F64656D20626C6F39
:100FF000636B206572726F72203078000D0A646F27
:10100000776E6C6F61642066696C65206572726FC3
:1010100072203078000000000D0A6572726F722035
:1010200030780000550A0008990A0008ED0500080C
:10103000810E0008B70E0008000202024B4B464723
:10104000EE08000000000100FFFFFFFFFFFFFFFFB1
:10105000FFFFFFFFFFFFFFFFFFFFFFFFFFFFFFFFA0
:10106000FFFFFFFFFFFFFFFFFFFFFFFFFFFFFFFF90
:10107000FFFFFFFFFFFFFFFFFFFFFFFFFFFFFFFF80
:10108000FFFFFFFFFFFFFFFFFFFFFFFFFFFFFFFF70
:1020000058070020C56B0008C1500008C3500008E5
:10201000A70A0401002100080405039CA84500004C
:10202000399E034E00000000000000000000000088
:1020300000000000000000000000000000000000A0
:1020400000000000A8BC1EC40435FFFFFFFFFFFF17
:10205000FFFFFFFF00E00108FFFFFFFFFFFFFFFFA3
:10206000FFFFFFFFFFFFFFFFFFFFFFFFFFFFFFFF80
:10207000FFFFFFFFFFFFFFFFFFFFFFFFFFFFFFFF70
:10208000E02F002000000000FC270020980F002017
:1020900058070020D3AA0108529B0108FFFFFFFF49
:1020A000FFFFFFFFFFFFFFFFFFFFFFFFFFFFFFFF40
:1020B000FFFFFFFFFFFFFFFFFFFFFFFFFFFFFFFF30
:1020C000FFFFFFFFFFFFFFFFFFFFFFFFFFFFFFFF20
:1020D000FFFFFFFFFFFFFFFFFFFFFFFFFFFFFFFF10
:1020E000FFFFFFFFFFFFFFFFFFFFFFFFFFFFFFFF00
:1020F000FFFFFFFFFFFFFFFFFFFFFFFFFFFFFFFFF0
:1021000058070020C56B0008C1500008C3500008E4
:10211000C7500008C5500008C95000089452000874
:1021200094520008945200089452000894520008F7
:10213000CB50000894520008413401085532010880
:10214000114E000894520008FD2201089452000824
:10215000052201085D5F00089452000894520008AF
:10216000E98F00087904010821650108D14A0008B7
:10217000945200087D4D0008BF4D0008945200089D
:10218000B16C01082DE9F047044694F800A0834D96
:10219000204E30782A7890420CBF0127002721700A
:1021A00000F03CF85FEA0009DFF86C8009D084F8A1
:1021B00000A000F033F820B107B54F21404602F0EF
:1021C00077FE75487749D1F880100A1A47B192B264
:1021D000002102F05FFC06F081FD287830700FE0EE
:1021E0006F490B68D11A421892B20021184602F0CA
:1021F00051FCAC4204D107B55B21404602F058FEC9
:1022000005F02AF904F090FD05F05AF94846BDE8BA
:10221000F08700BFA9090020549B010870B55E48F3
:102220003E4908605D490A78510109183C4B196024
:1022300051183C4B196051183B4B196051183B4BDE
:10224000196053183A494B60D418554A1460394AFA
:1022500013781A46551C6D042D0C2C19364D2C6024
:1022600055002C19354D2C601C19354D2C60354D01
:102270002D786B431B19344C2360344C2478E418BC
:10228000334B1C600623334D2D785D432C19324DA2
:102290002C60324D2D78ED002C19314D2C60314DD4
:1022A0002D78AD002C19304D2C60304D2D780E2638
:1022B0006E4334192E4E346052199204120C1219C6
:1022C0002C4C22602C4C24786500AA182B4D2A60D7
:1022D000A2182B4C22602B4C24780C256C43A2189E
:1022E000294C2260294C247863439A18284B1A60A1
:1022F000284B1B789B009A188A60097889008918F6
:10230000284AD2F88020121A12188A4201D3814238
:1023100001D2352070BD002070BD00BF6C070020C9
:102320007007002074070020780700207C07002039
:10233000E0090020AB090020840700208807002066
:102340008C0700206D0F0020900700206E0F0020EA
:1023500094070020AC09002098070020AD09002058
:102360009C070020AE090020A0070020AF09002034
:10237000A4070020A80700206F0F0020AC07002052
:10238000B0070020B0090020B4070020B1090020E8
:10239000B8070020710F0020980F0020A809002026
:1023A0008007002000200008F8B5274CFFF736FF13
:1023B00020B107B53421204602F07AFD02F090FFEB
:1023C00006F05AFD04F0F6FB012300220A2100204A
:1023D00004F0FAFA06F026FE20B107B53F212046A8
:1023E00002F066FD012006F0D3F91849087002F0EA
:1023F0009BF9174D174E184F02F0ECFF3878FF2865
:1024000007D004F0ADFA20B1387802F05DFCFF206F
:10241000387006F049FE04F1280006F090FF04F140
:10242000080006F08CFF02F097F908B100F016F8EA
:10243000307808B900F068FF00212888203080B289
:1024400001F088F9D8E700BF689B010868090020FF
:102450006C090020A00900209A0900202DE9F04F06
:102460009DB0002502F0A8F902F0C6F9044600F07C
:1024700045FF4178877801F003020492B846DFF8FF
:10248000D8290378137000F20302DFF8D0391A60FC
:1024900000F20300DFF88C2D1060080603D54FF022
:1024A00058083220D6E2DFF8B009407820B91FB1D1
:1024B0004FF058083020CDE201F09EFD002840F09A
:1024C0009A86DFF894094078DFF85CBDDFF85C6D30
:1024D0004FF00C0ADFF8589DAB2F00F28786DFE83B
:1024E00017F0AC00E2049F01850685068702920280
:1024F000850685069B029B02BA0285068506C202F6
:10250000850685068506000385061D06F004F6048B
:10251000E204E20485062B0385068506E204FB043B
:102520000205E2040D0517058506850685063803B4
:102530002D053E034103E204630366056303E204E1
:102540007A057F0585068506900393038506930328
:1025500085069303EC0385068506850685068506B4
:102560008506850689051304850685068506850684
:1025700085068506BD024E03850685068506E602AC
:10258000850685068506C600FA008506B401B401F5
:102590008506850685063104E20492059B05A5059E
:1025A000AB05BF05C505850657046C041A0307066D
:1025B0008506CD05E1058A0485068506850685061E
:1025C0008E0485068A04EB0523062906FE051306FC
:1025D0002E0685063005E204480585068506B00509
:1025E000B9058506870254049B04E204E204E20470
:1025F000E204E204A8047706E2047C06E20485060D
:10260000AB04C204D40485068506BF04E204820438
:10261000850685066005E20485061C0526038506F9
:102620003706850648066506550634064D069804A5
:10263000850691049104DE01160201F077FF05463C
:10264000042001F079FF022001F076FF44F2A85047
:1026500001F07EFFDFF800084078002800D1042D4B
:1026600040F0C985DFF8F00701214170D3E101F0A6
:102670005DFF0024052807D1DFF8B80B0078DFF8EC
:10268000B81B0978441A20E0182805D1DFF8AC0BF4
:102690000078D0B9012418E0122801D1348814E060
:1026A0001F2802D1BBF800400FE0002101E0491CC7
:1026B000C9B211F80920FF2A01D1372505E090425F
:1026C000F5D109EB8100C06B047800F019FFA0B2CE
:1026D00001F03EFF9FE1012801D038259EE001F086
:1026E00025FF044601F03BFF0746012C10D0052CC6
:1026F00035D0122C62D0172C4DD0182C54D0192C58
:102700002DD01F2C57D0242C5ED0292CE5D060E092
:10271000DFF8A40B00880028DFD1DFF8246B3078C5
:1027200006F09DF802F002F878B1F9B2DFF8140B68
:10273000FFF728FD054602F003F800F0DFFD00F288
:102740000300DFF8E01A086000E03825012006F0F9
:102750001FF83070DFF8F00A002101805EE0DFF83A
:10276000D80A0678DFF8CC0A0078801B5FFA80F977
:10277000F8B2052C0CBF8146064606EB0901C9B22A
:10278000DFF8B00AFFF7FEFC050047D131464846A6
:1027900001F08EFE42E009F06BFB18B9DFF8B806D5
:1027A000C7703BE0362539E0781E8041C00FDFF866
:1027B0008C1A087032E0ABF800702FE047F231500D
:1027C0008742EFDA378029E00B2FEBDADFF87C0A5B
:1027D00023E0002101E0491CC9B211F80900FF28DB
:1027E00001D137251AE08442F5D1062905DA01EB3B
:1027F000090090F82000B842D4DB2B2CD2D009EB92
:102800008100C06B0C2908DAF9B2FFF7BBFC0500A8
:1028100004D1112C02D1DFF8380A0770284619E1DB
:1028200001287FF45AAFE11EC9B2032001F0D0FFA6
:102830000646FF2E01D13525F0E701F0B5FA00B9C3
:102840003625304606F00BF8E8E701F06FFE064645
:1028500009EB8600D0F8B49099F80040072E01DB10
:102860003725002400F04CFE562F0AD1052E02D148
:1028700044F0500403E0062E01D144F06004E0B2BD
:10288000E8E0002D40F0B78401F050FE052E01D0A5
:10289000062E01D100F00F0089F80000BBE001F026
:1028A00045FE012808D002280ED0032815D007289D
:1028B0001AD008281FD025E000F004FE00F002FD29
:1028C000DFF890090078C5E000F0FCFD022001F07F
:1028D00033FEDFF884090088FAE600F0F3FD00F02B
:1028E000F1FCDFF87809EDE700F0ECFD00F0EAFC20
:1028F0000FF062FBAEE000F0E5FD00F0E3FC06F057
:1029000019FEA7E0372001F017FE0020A2E001F039
:102910000DFE0546082869D8DFE800F0052D376868
:10292000434D4D5B650001F001FE102821D101F0FF
:1029300016FEADF8000001F0F9FD8DF8020001F07F
:10294000F5FD8DF8030001F0F1FD8DF8040001F0B4
:10295000EDFD8DF8050001F002FEADF8060002A9BC
:1029600000F0B7FE102300AA7F21072003F058F9DA
:10297000CBE736206EE001F0D9FD0128F9D101F056
:10298000D5FDDFF8D0180870BFE701F0CFFD0228B1
:1029900005D101F0E4FDDFF8C0180880B5E7362066
:1029A00058E001F0C3FD0128E3D101F0BFFDDFF8DD
:1029B000A8140871A9E701F0B9FD0228EFD101F0D0
:1029C000CEFD052D0CBFDFF89818DFF898180880A9
:1029D0009BE701F0ABFD10B10FF0BFFA01E00FF083
:1029E000CDFA01F0A9FD362001F0A6FD372031E037
:1029F000042C10DBDFF82C0800682018C01EDFF85C
:102A00002418086007E0012000F07EFC002840F058
:102A100005844FF00708EEE301F088FD0546082D18
:102A200017DA092F08D100F053FE082300AA29461F
:102A3000102003F0F5F868E708232A46102100A8C3
:102A400003F0C2F800F03EFD00A9082001F0A2FD4D
:102A5000D1E37020CDE300F0CBFCCCE300F032FDFD
:102A600001F0C6FF34E601F061FD074601F077FD95
:102A700000F041FC064601F059FD8146DFF8E80709
:102A80000AFB0704B5F5004FE3DA042EE1DA022F62
:102A90000BDA32462946204601F06AFA2581B9F15F
:102AA000000F00D10026A6722FE77020A1E301F0ED
:102AB0003DFDADF802508DF80050DFF8AC170AFB71
:102AC0000016022808DA00AA0DF10201304601F0D2
:102AD00061FAB07A00B1012500F0F7FB00F0EEFCDE
:102AE0009CE601F023FD064600F007FD0546FF2D9C
:102AF00001D118207DE3002E14BF4FF6FF70022095
:102B00002A46D4A107F0FCFE002001F015FD28465E
:102B100005F0A5FE6FE3DFF8546736F8150001F005
:102B200017FD6D1C1E2DF8DB04F044F863E301F083
:102B300016FD01F0E8FE5EE301F0F8FC064601F048
:102B400021FD00F0D8FB0246294630460EF0D0FFAA
:102B50004FE3DFF81C17082001F01CFD4BE300F0E9
:102B600035FD48E3DFF80C07007801F0E5FCDFF8FD
:102B70000817082001F00EFDDFF80007ABE601F0B2
:102B8000D5FC054608F04DF9064600AA01A92846DD
:102B900008F055F901F0D0FC304601F0D9FC00F006
:102BA0008DFB9DF8000024E301F0C0FC054601F018
:102BB00063FA08B1752622E02B2F18D101F0B6FC7C
:102BC0008DF8000001F0B2FC8DF8010001F0C7FCA7
:102BD000ADF8020001F0AAFC8DF804000DF105012A
:102BE00000F077FD00A9284604F005FB02E0284626
:102BF00004F048FB064616B9284601F059FA30465B
:102C0000F7E20AF000FAF4E2342F03D101F08EFC6F
:102C1000009001E0362F02D101F0A1FC054601A889
:102C200001F0FBFC362F01D0382F02D101F07EFCE1
:102C30008146382F02D101F079FC044601F076FC80
:102C4000834600F05AFC0646FF2E03D1182001F0FF
:102C500073FC5AE6342F04D0362F0DD0382F13D002
:102C60001AE0334601AA29460098C0B209F09AFF3B
:102C7000824601F0ECFA0FE033465FFA89F201A9CF
:102C8000284609F0DBFF06E0334622465FFA89F169
:102C900001A809F0DFFF8246504601F04DFC9DF887
:102CA0000E0001F049FCBAF1000F04D1DFF8D005A5
:102CB000006806F800B030462AE701F050FCDFF863
:102CC000C415088000A801F0A8FCBDF80600410664
:102CD00004D561498978202902D100047FF5B9AE75
:102CE000DFF8A45500A8286000F007FC0646FF2E78
:102CF0004AD03146286840880AF090F9054601F02C
:102D0000A6FA00F0FDFBD6E7DFF8805501F027FCBE
:102D10002880DFF87C6501F009FC307001F006FCCA
:102D2000DFF8701508702988B1F5004F01D23278AC
:102D3000042ABFF48EAEDFF8600501F019F905F042
:102D4000B9F956E201F00BFC0546012001F08CFBBD
:102D50000646FF2E13D0DFF844050068345CA11C42
:102D6000C9B2304605F0CBFE28B92A462146304686
:102D700005F0D7FF03E0304605F071FDFF26304631
:102D800001F05EFAFF2E2DD1B3E600F06AFC32E2CC
:102D900001F0CCFB00F0A2FA13DA00F093FBDFF8AD
:102DA0000005006830F8250001F0D2FBDFF8F004E0
:102DB000006800EB850080781BE201F0B7FB00F0B3
:102DC0008DFABFF646AE01F0CAFBDFF8D4140968ED
:102DD00021F8250001F0AAFBDFF8C414096801EB13
:102DE0008501887091E500F088FB0546FF2DCBD06A
:102DF0000EF002FD89E6384600F085FBFBE100F0AD
:102E0000AEFBF8E1A82F0CBF0120002000F064FC0D
:102E1000F1E100F05AFBEEE101F088FB0E49497840
:102E200001297FF416AE08B1DFF878040FF0CEF870
:102E3000DFE100F0CFFADEE1012501F077FF4FF688
:102E4000FF71884205D0002501F070FBDFF85814AF
:102E50000870E3E4620000009C090020100A0020D2
:102E600000F09CFBC7E101F061FB00F04DFC00F0BD
:102E700044FB0646FF2E3FF43CAE324600A92846EE
:102E80000EF05AFB01F058FB15E701F04FFF01F07F
:102E90005FFB042001F050FB052001F04DFB0320F7
:102EA000A7E16D1CEDB205EB090090F82800B842CF
:102EB000F7D101F03BFB09EB8501D1F8D010884731
:102EC00097E101F04CFBDFF8E413088093E101F097
:102ED00046FBDFF8DC13F8E705A801F07FFB05A847
:102EE00006F0A9FB85E101F021FB054605A801F0EC
:102EF00075FB05A9284606F00BFC7AE101F016FBEC
:102F0000054601F03FFB0146284606F0D7FC70E17C
:102F100001F00CFB06F0CCFB6BE101F020FB04465A
:102F200001F030FB00F0E7F9064601F018FB03461C
:102F30003246294620460BF015FD5AE10DF028FDDA
:102F400090E501F0F3FA00A90DF025F901F0F4FA8B
:102F500000F001FB00F0AEFA9DF8030001F0ECFA7E
:102F600000F0B7F99DF8050001F0E6FA0DF1060151
:102F70006BE501F0DBFA00A90DF048FF01F0DCFA87
:102F800000F0E9FA00F0A1F900F0A3F99DF80500BE
:102F900001F0D2FA9DF8060001F0CEFA9DF8070084
:102FA00027E101F0C3FA40B209F028F921E101F06C
:102FB000BDFA00A904F014F901F0BEFA00F07EFA9F
:102FC0009DF8010001F0B8FA00F07FF900F081F9F6
:102FD0000DF1050139E501F0A9FA04F0E5F841E544
:102FE00001F0A4FA054601F0BAFA0146284604F0B9
:102FF000E0F800E101F0B3FA00F07DF9014628465F
:1030000004F0DAFBF5E001F091FA00F07DFB00A995
:10301000284603F093FEECE001F088FA054601F043
:103020009EFA0146284603F0B8FEE4E001F07EFA7D
:1030300000A903F0BDFE07E501F078FA03F0C6FE33
:1030400010E500F045FB01F071FA014600A803F01D
:10305000D5FFD0E000F03CFB00A803F0ABFFC8E0D8
:1030600000F036FB00A806F0ABF8FBE401F077FABD
:1030700000A906F0B7F801F05FFAE5E401F06FFA95
:10308000ADF814000DF1160100F099FA0DF12601CA
:1030900000F095FA01F04AFA8DF8360005A80BF019
:1030A000A9FDA6E000A80BF00CFE01F045FA00F027
:1030B00052FA0DF10201C8E401F038FA064601A9FE
:1030C00000F007FB01F032FA00F010F905A80090BB
:1030D0002B4601AA314600200AF006F989E000F0EB
:1030E000F7FA01F023FA014600A80AF0C3F880E0DD
:1030F00000F0EEFA01F01AFA00F0F8F805AA2946F5
:1031000000A80AF09EF874E001F010FA0095002380
:103110002A46014601200AF0E7F86AE000F0D8FAF2
:1031200000A80CF0EDFC64E000F04CFA00A809F0F7
:103130008DF95EE04FF6FF7009F0F4F959E000F008
:1031400041FA00A80AF09CFD53E00AF0D5FD50E0DA
:1031500001F0ECF905460BA9302001F02FFA05A982
:10316000162001F02BFA05AA0BA928460AF0D1FD7A
:103170003FE001F0DBF90AF013FE3AE005A80BF09E
:10318000B1FC01F0D9F905A930205FE400F01AFA8A
:1031900010A9302001F012FA05A92A2001F00EFA38
:1031A00005AA10A900A80AF0EFFF22E00BA916203B
:1031B00001F004FA11A9302001F000FA05A9152048
:1031C00001F0FCF905AA11A90BA80EF027FC10E0EC
:1031D00001F0ACF90EF0D2FF0BE001F0C0F900F005
:1031E0008AF841B228460EF0D3FF02E04FF05808AB
:1031F000312001F0A1F900F081F82E490978017021
:1032000000F07CF880F80280B8F1070F0CBF0122B3
:10321000002201210498C0B200F08AF81DB0BDE878
:10322000F08F00BF140A00206E09002070090020F2
:10323000A89B0108B00900206A0F0020AA090020FD
:1032400068090020A80900206A090020750F0020E5
:10325000B70900208E09002090090020A90900204C
:103260008009002082090020F8090020C40B0020FA
:103270002C0C002076090020800800207C0800200B
:10328000E4090020220C0020240C0020EE0900207C
:10329000EC090020680F0020F009002070070020D2
:1032A0009C070020473C00089A0900207C09002068
:1032B0007E0900209C0900206C09002001A908203B
:1032C00001F068B9012001F037B9BDF8020001F042
:1032D0003FB99DF8040001F02FB9000005460248EF
:1032E00000788542704700BFAE090020054605A959
:1032F000102001F063B9054601F018B901480068D3
:10330000704700BF6807002010B5044606480088D3
:1033100048B101F07FFA30B101222146034800781C
:1033200000F006F8012010BD6C090020660F002097
:103330002DE9F04106460C46904680251F4F204857
:1033400000683968401A80B2812804DB802001F0CF
:103350005BFA822502E0C0B201F056FA1948017802
:1033600019B145F00205002101701748017821B11B
:1033700045F00101CDB2002101701448018811B15E
:1033800045F00401CDB2B8F1000F06D0002C14BFF7
:1033900045F0080145F01001CDB239684D70012E9D
:1033A00001D0022E02D1008800B100260848067024
:1033B0002046BDE8F04101F0F0B900BF68070020E9
:1033C000140A0020670F0020690900206C09002002
:1033D000660F002000B5A1B000A801F083FA00211B
:1033E00000A80EF099FE01F0A7F821B000BD000082
:1033F00030B599B001F09AF80446062C12D1282075
:1034000001F09AF800240223E2B22848018801A8BA
:1034100002F0DAFBBDF8040001F09AF8641C142CE9
:1034200042DAF0E7082C19D1402001F085F8002499
:103430000423E2B20B2100A802F0C6FB00F03EF824
:103440009DF8010001F078F800F034F89DF80300D1
:1034500001F072F8641C102C26DAE9E70B2C02D17B
:1034600000F030F820E00020114902E0401C09285B
:10347000F6D201EBC0052A789442F7D1687801F0C2
:103480005BF86B7800226868018802A802F09CFB58
:10349000092C05D1152200210DF14E0001F0FAFA98
:1034A00002A9687801F076F819B030BD40A801088B
:1034B000C09C01089DF8020001F03EB89DF8000094
:1034C00001F03AB8002001F037B830B58BB02A22AD
:1034D000FF2100A801F0DEFA00F00FF80446FF2CEF
:1034E00001D1182505E016F0B6FA0546204605F08C
:1034F000B6F900F005F80BB030BD002000F0B4BF05
:10350000284601F019B810B58AB0044601F00EF84B
:103510006A2C00A902D10CF0F9F801E009F04AFE8A
:1035200001F00AF800F017F8FFF7C4FF0DF10301EE
:10353000102001F02FF8059801F01BF8069801F013
:1035400018F89DF81C0000F0F7FF0DF11D01FFF7C2
:10355000B6FE0AB010BDBDF8000000F0F9BF30B5EE
:10356000A1B000A801F07CF800F0E0FF044600F0F4
:10357000DDFF054605A901F021F8002C05AA294622
:1035800000A802D016F00FFA01E016F0F0F900F0F2
:10359000D3FF00A801F05AF821B030BD00B589B0C2
:1035A00000F010F804A900F00AF804A900A807F038
:1035B00005F900A9102000F0EDFF09B000BD1020B2
:1035C00000F0FCBF00A9102000F0F8BF00B58BB0E0
:1035D00000208DF8000000A807F04CF800F0ACFFC8
:1035E000FFF76CFF10237F22072107A802F0ECFAF7
:1035F000082209A901A801F00BFABDF81C00ADF8DA
:103600000C009DF81E008DF80E009DF81F008DF82F
:103610000F0000208DF8100006A905A807F0EFFDA7
:10362000ADF81200FFF74AFEBDF80C0000F090FF65
:103630009DF80E0000F080FF9DF80F0000F07CFF69
:103640009DF8100000F078FFBDF8120000F080FF38
:103650009DF8140000F070FF069800F08AFF0BB090
:1036600000BD2DE9F04385B000F060FF044600A9DD
:1036700003F09EFB204603F0A9FB054600A803F0DB
:1036800099FC064602A900F024F800F068FF814684
:1036900000F04CFF804602A9204603F04FFB07468E
:1036A0003FB94946204603F078FB414602A803F0A3
:1036B000A5FC384600F040FF00A9FFF700FE2846B1
:1036C00000F046FF304600F037FF05B0BDE8F0835C
:1036D00000A9082000F072BF30B587B0044600F0A2
:1036E0003EFF00F011F802A9FFF769FF002C02AAC3
:1036F00000A9284602D008F067FE01E008F0B0FEFD
:1037000000F01AFF07B030BD054600A9082000F000
:1037100055BF000070B582B0044600F0C9FA255CC0
:10372000DFF8646530788DF800007088411E89B23A
:1037300000A805F01FFA9DF80010054A12688C5485
:1037400005B9202571881F31081A2818708073BDAB
:103750007807002038B50446DFF82C55688809B191
:10376000A04206D222460146287805F094F908B115
:103770006C80012032BD10B582B0DFF80C150978DD
:103780008DF80010014600A805F0F4F904469DF8F4
:10379000000004F0EFFF201816BD80B5FFF7EBFF27
:1037A000007802BD10B50C46FFF7E5FF047010BDB0
:1037B0002DE9FC478146884614460025DFF8C86499
:1037C00030788DF80400FF2C05D0204605F03AF83B
:1037D00000F06EFA255C374F3878FF2812D005F0DC
:1037E00073F8FF2801D005F03AF8387832490968B3
:1037F000425C02F07F024254387805F023F83878B2
:10380000FFF788FF47460121B0883818C01C80B2F6
:10381000FFF7A0FF40B901207070FF2C02D02046B6
:1038200005F01DF8002043E0B088FFF7A4FF05EB8A
:103830000801891C0170214890F800A0B088401C44
:1038400080B2FFF798FF80F800A0B088801C80B29B
:10385000FFF791FF80210170B088C11C89B201A8D7
:1038600005F088F902460120009043469DF80410B7
:10387000484605F0B4F8FF2C0CD02046FFF74AFF6D
:10388000009500232246B0883818C11C89B23078D0
:1038900005F058FAB088E919C91C0818B080084822
:1038A0000178012901D0022901D1002101700120F4
:1038B000BDE8F687C2090020740700209C0900209B
:1038C000660F002038B505460C0008D0241FA0B2B2
:1038D00000E02046FFF74FFF0078401C0419DFF896
:1038E000A8038088A4B2844209D2E01C80B2FFF70A
:1038F00042FF0078A842ECD1201D80B232BD4FF6C5
:10390000FF7032BD10B582B0044619208DF800005A
:103910008DF80140FF22022100F0F7F9902C02D12E
:1039200001480221017013BD9D09002080B5482285
:1039300026E010B586B004461B208DF80000A07864
:103940008DF8010021880DF1020005F0D5F908225B
:10395000211D01A801F05CF800A8E1780173217B2A
:103960004173607B8DF80E000DF10F0000F012FA2C
:10397000FF22112100F0C9F906B010BD80B51C224C
:1039800000F0F5F98DF80210FF22032100A8FFF7DF
:103990000FFF01BD2DE9F04385B004468846164669
:1039A00006F06EFF81460DF1010006F071FF30B99F
:1039B00062208DF80000FF22092100F0A6F9FF2EF9
:1039C0000FBF0025DFF8B0030068355C45208DF897
:1039D000000000AF7C700DF10201404600F066F877
:1039E0000DF10D0000F0D6F949460DF10F0005F07C
:1039F00083F909F03BFB8DF811000020124909689A
:103A000000E0401C114A1278114B1B78D21A9042E8
:103A100004DA31F80C2B4A45F3D100E0FF20B874EA
:103A20008DF813503246142100F06FF918B109488F
:103A30000078212804D10848017841F00401017080
:103A400005B0BDE8F08300BFB0070020B00900203A
:103A50006A0F00209E090020200C0020F0B585B0E0
:103A600015461C460A9EC44A1268A75C3F2200F015
:103A7000E2F801A9284600F019F80A480068205C1D
:103A80008DF80F008DF8106007480078402801D1AC
:103A90000027FF248DF811702246122100F035F91D
:103AA00005B0F0BDE4090020A409002038B50446A3
:103AB0000D462188284605F01FF96188A81C05F0ED
:103AC0001BF92079287160796871E188A81D05F0DB
:103AD00013F9218905F1080005F00EF9A07AA87202
:103AE00031BD0000F0B585B00D4616461C46012ECE
:103AF00001D0052E01D1012100E00021032E01D0CB
:103B0000072E01D1012200E00022022711B90AB9D3
:103B1000032710E0144B1B7863B1012B04D0022B58
:103B200004D0042B04D006E0002704E01AB1FBE720
:103B30000F0000D00127242100F04CF8082229466C
:103B40000DF1030000F064FF8DF80B608DF80C7030
:103B500021460DF10D0005F0CFF8FF220F2100F0F6
:103B6000D4F8F8B205B0F0BDA109002080B56E21EF
:103B700000F009F90AE710B584B00C469B2100F06B
:103B80009AF88DF80940FF220A211AE070471FB504
:103B9000044623208DF800008DF801408DF80210B6
:103BA000204607F03EF901460DF1030005F0A4F8A8
:103BB0000DF10D020DF10501204607F040F9FF223D
:103BC0000E2100A8FFF7F4FD1FBD80B57C2100F099
:103BD00001F8D9E68DF8001001460DF1010005F05D
:103BE0008BB870B586B004460E4615467D208DF81C
:103BF000000021460DF1010005F07EF80822314653
:103C00000DF1030000F004FF8DF80B50FF220C2192
:103C100000F07BF803A806F03BFE18B903A9204684
:103C200000F04CFC06B070BD80B5802200F003F8B7
:103C3000FF220421AAE68DF800208DF801000DF185
:103C4000020005F059B8F8B50D46144610F8017B8E
:103C5000394604F084FE0646FF2E03D10A480121AE
:103C60004170F1BD8E208DF800008DF801508DF867
:103C700002408DF803703246042100F046F83046C9
:103C800004F0EDFDF1BD00006809002010B584B01E
:103C90000C46922100F00FF80DF1090000F07AF8BF
:103CA00000F006F8205C8DF80B0022460C2188E716
:103CB0003148006870478DF80010082201460DF168
:103CC000010000F0A5BE80B52B4A1268825C9323E8
:103CD0008DF800308DF801108DF80220024654E670
:103CE0001CB50C4697218DF800108DF801000DF1E0
:103CF000020000F04FF8FFF7DBFF205C8DF80400B6
:103D00002246052100F001F813BD00A850E580B55A
:103D100098208DF800008DF80110FF22022135E671
:103D200000B593B09E2200F022F816220DF1020099
:103D300000F06EFEFF221821FFF7E7FF13B000BD71
:103D400010B58AB01446A02200F011F810220DF12F
:103D5000020000F05DFE102221460DF1120000F07D
:103D600057FEFF222221FFF7D0FF0AB010BD8DF8C9
:103D700000208DF8010070477007002080B5782181
:103D800000F001F802E68DF800108DF80100FF2226
:103D90000221704710B5044606F066FD601CBDE8C0
:103DA000104006F065BD000038B5044604F0E2FCA2
:103DB0008179C2795118490001F10805EDB2017805
:103DC00000F047F8FF2804D109480068205CA842A9
:103DD00001D0002032BD434D2146281D04F0E3FFF1
:103DE0002878401C2870204604F02CFD012032BDAC
:103DF0007007002010B50146012000F04FF804467E
:103E0000FF2C04D107B54021234801F051F80021CF
:103E10002046BDE8104004F0B9BE38B50C4600F0AD
:103E200017F8FF2801D1002032BD04F0A3FC05469D
:103E3000681C04F05BFF2080E81C04F057FF6080E2
:103E400068792071A8796071E879A071012032BD8C
:103E50000146002022E0F8B50E4614460827FFF779
:103E6000F7FF0546FF2D04D107B55B210A4801F095
:103E70001FF8284604F07EFC012E04D18079400012
:103E800000F10807FFB207EB4401C9B22846BDE8BC
:103E9000F44004F035BF0000089D01082DE9F84307
:103EA0000446884600260F480079FF2815D00C4F9D
:103EB0003968455CA946002C11BF304600214846B0
:103EC00004F064FE404501D1484607E0761CF6B296
:103ED000386819F80090A945EDD1FF20BDE8F283BC
:103EE0007C0700205807002080B504F0E3F808B1F3
:103EF00000F00AF8034802784188001DBDE8084038
:103F000000F036B8EC09002080B50D494A7808B1B8
:103F1000312801D1002200E0521C4A704A780B7807
:103F20009A420BD300224A7043218DF800108DF87D
:103F30000100FF22022100A8FFF73AFC01BD00BFEB
:103F4000680F002080B50949097831290CD1442136
:103F50008DF8001001460DF1010004F0CDFEFF22A6
:103F6000032100A8FFF724FC01BD00BFA309002026
:103F700000290CD0012A04D0022A04D0032A04D03C
:103F800005E005F078B905F07DB905F088B90021A4
:103F90000170704770B506460C46154605F08CF961
:103FA0003178012907D0022902D0032902D070BD3F
:103FB000000A00E0000C20803078287070BD0000FE
:103FC00010B582B004460C20084900FB0410827A28
:103FD0000189FFF7CDFF0F208DF800008DF801401B
:103FE000FF22022100A8FFF7E3FB13BDF809002020
:103FF0000020E5E70120E3E770B51D4C20688078DC
:104000002B38022801D90D382FD100F08FFA054640
:10401000206800F203001749086000213120FFF7F3
:1040200051FC04464FF6FF7604E021463120FFF7AD
:1040300049FC0446B4420BD004F10D0080B2FFF7F6
:10404000ACFBA842F1D1A42000F076FA012070BDAB
:10405000002104E0FFF7A1FBA842F4D02146322062
:10406000FFF730FC0446B442F4D1002070BD00BF1D
:1040700068070020100A002038B50546002100E03E
:1040800021463F20FFF71EFC04464FF6FF70844296
:104090000CD02046FFF781FB0228F1D1601C80B2D2
:1040A000FFF77BFBA842EBD1012032BD002032BDDF
:1040B0002DE9F84380464FF0000900214520FFF725
:1040C00001FC04461B4D4FF6FF7609E0FF21B8B214
:1040D000FFF768FBA14621464520FFF7F3FB0446A6
:1040E000B44224D004F11007B8B2FFF756FB4045A4
:1040F000F0D12046FFF751FB022801D00328E5D17B
:10410000201F84B22046FFF748FB01462888401A4A
:1041100032182A800848007892B2009261184B1C2D
:104120009BB20246214604F00DFE4C46D2E7BDE8A4
:10413000F18300BF6C09002068090020F0B58BB046
:104140000646294F3D7800F073F82BD104A970780A
:10415000FFF763FE88B1BDF8100040F209118842F4
:104160000BD17088B0F5006F07D1701D09F08EFE7D
:10417000B52802D0B0B9002414E00124002501E0E4
:104180006D1CEDB2387885420CDA06A9284603F09A
:1041900027F89DF818000028F2D13146284603F090
:1041A0002AF8044631208DF8000000AF307878708E
:1041B0007078B87071880DF1030004F09DFD3079BE
:1041C00078710822711D0DF1060000F021FC8DF8B8
:1041D0000E508DF80F40FF22102100A8FFF7E8FADB
:1041E00020460BB0F0BD00BF6F0F002038B505466C
:1041F00000F01EF80DD12846FFF73EFF08B17524E8
:1042000007E0284603F03EF8040002D12846FFF7F5
:104210004FFF32208DF800008DF801508DF80240DC
:10422000FF22032100A8FFF7C3FA204632BD000099
:104230006C24024800781128704700BFA2090020B2
:1042400010B5044600F003F84848047010BD10B5DE
:10425000464C2078FF2803D004F001FBFF2020709B
:1042600010BD2DE9F04387B08146884615461E46AD
:104270000E9C6F00FFB2009400F07AF80DF105007B
:1042800006F0F2FA01A806F0F3FA59208DF80800BA
:1042900049460DF1090004F02FFD082241460DF1B9
:1042A0000B0000F0B5FB9DF805008DF813009DF89C
:1042B00004008DF814008DF81550009723463246FF
:1042C0000021304604F03EFD3946304604F017FC2C
:1042D00032460E2102A8FFF76BFA07B0BDE8F08363
:1042E0002DE9F84381460C46DFF8808098F80000FD
:1042F000FF2832D01C4E3168415C8F1EFFB2394618
:1043000004F0FEFC484528D13068265C7810C5B220
:10431000FF2C02D1A81CC0B223E0B819811CC9B27D
:10432000204604F0ECFBC0B92A463146204604F092
:1043300032FC6A1ED2B2711CC9B2204604F02BFCBA
:104340000097002398F80020B11C89B2204604F0A1
:10435000F9FCFFF77CFF002003E02146484600F00F
:104360002FF8BDE8F28300BF70070020A5090020E8
:104370002DE9F0470646894614469A46089D0F489F
:104380000078C8B10C2C17D2FF21304600F084F918
:10439000804600270AE005EB4701C9B2504604F009
:1043A000AFFC414600F078F980467F1CA742F2DB63
:1043B0004946304600F082F8BDE8F087E009002069
:1043C0002DE9F0470C4600F055F90026244909680C
:1043D000615CFF2801D1002040E08246D046214D9B
:1043E00002E09046761CF6B2286800EB88008278DE
:1043F000FF2AF6D10C2EEEDA7000801C5FFA80F9ED
:10440000FF2C2AD00F464944C9B2204604F077FB5E
:104410000028E0D132463946204604F0BCFB7F1C20
:10442000FFB2012EACBF721E0022D2B23946204626
:1044300004F0B1FB7F1CFFB2D04608E0904631F893
:1044400028203946204604F06CFCBF1CFFB22968C6
:1044500001EB88008278FF2AF0D14846BDE8F0875A
:1044600070070020E809002010B5044600F05EF84F
:104470000CB14006000E0B490978062901D2FF2035
:1044800010BD18B9BDE8104004F04ABA014606480C
:104490000068064A1268801AC0B2BDE8104000F0F9
:1044A00097B900BFA9090020100A00206807002062
:1044B0001D4A507011700020907070472DE9FC412A
:1044C00004468846184EB778307858B3002501E086
:1044D000681CC5B2307885420DDA00A970782818BA
:1044E000C0B202F065FC0822414600A800F0DAFAEA
:1044F0000028EDD12F46B0780146874205D1491CEE
:104500003078C9B2814200D10021B1707078C719EA
:10451000FFB24146384602F011FC18B92146384630
:1045200002F03BFCBDE8F3816A0F00202A480268D4
:10453000511C0160107870471E490A681E4B1B68A9
:10454000D31A802B00DA10700868401C086070478E
:1045500010B50446C0B2FFF7EFFF200A5AE010B5CD
:10456000FFF7E4FF0446FFF7E1FF04EB002080B211
:1045700010BD10B5044680B2FFF7EAFF200CBDE87D
:104580001040E5E710B5FFF7EAFF00F05DF804EB37
:10459000004010BD38B50446064D2B68064A126827
:1045A0009A1AA218812A03DA0246184600F030FA55
:1045B0000CE00000140A00206807002038B504460B
:1045C0000846054D2246296800F022FA286820187E
:1045D000286031BD00000000100A002010B504461C
:1045E00021460820FFF7EAFFFFF7B9FF2081FFF718
:1045F0009DFFA072FFF79AFFE072FFF797FF20730D
:10460000FFF7ADFFE081FFF791FF2074FFF7BAFFDE
:10461000606110BDBDE810408EE710B500F014F8E1
:104620002080FFF79CFF6080FFF780FF2071FFF77D
:104630007DFF6071FFF793FFE080FFF790FF20811F
:10464000FFF774FFA07210BD044688E710B504465A
:1046500021461020FFF79EFF2069BDE8104088E743
:1046600010B5044621461020FFF7A8FFFFF78AFF88
:10467000206110BD0146002000E0401C284A12784D
:10468000904207DA274A126832F820208A42F4D191
:10469000C0B27047FF207047F8B505460C46FFF7DB
:1046A000E9FF1F4A53781F490E68FF280FD1107881
:1046B0001A4F3F78B84202D2471C177007E01846DD
:1046C00000E0384606EB8007FF78FF2FF9D19842CB
:1046D00016D0002700E07F1C92F800C067450ADA78
:1046E00006EB870C9CF803E08645F4D106EB8006C8
:1046F000F6788CF803600E6806EB8006F370507055
:104700000A6822F8205002EB8002FF239370FF2CEE
:1047100003D0096801EB84018870F2BDE009002034
:10472000A6090020E809002001F090BD80B501F045
:1047300079FD20B17848007804F091F8012002BD9D
:1047400010B501F067FD744C207004F07BF8207800
:1047500004F010F8A06010BD10B501F0D7FE6E4C4B
:104760002078FF2801D0012010BDA08838B10DF0BD
:1047700023FDA1886288801A80B2814204D2002081
:10478000A080204601F0DCFD2078FF2803D003F054
:10479000F1FFA060E7E7002010BD38B5044600F047
:1047A0000BF85D4D2146287801F09EFDFF20287012
:1047B000BDE8314001F0AABE80B557480278FF2A13
:1047C00003D002A13C2006F09BF801BD620000006E
:1047D00070B582B005460C46002004F0C0F80646CD
:1047E000FF2E07D000942B464B480278002130461C
:1047F00004F0A8FA304676BD4748007801490968B8
:10480000405C70477007002001464348007803F081
:10481000B9BF00002DE9F8430020FEF7BEFF0446B3
:10482000651CEDB2DFF8A88098F80060012003F065
:10483000AFFF8146B9F1FF0F01D1002045E0364FAF
:104840003878FF2809D004F00AF806E0365C203DED
:10485000EDB220480188203901801F490868212DC8
:10486000F4DA325CFF233354086809F80020202072
:104870000090002332460021484604F063FA98F87D
:104880000000387003F076FFB86088F800903A783E
:10489000009401230021104604F054FA2146387890
:1048A00003F070FF0D480188091B491E018098F82C
:1048B000000089B200912B460246002104F042FA22
:1048C000B8682018064908600120BDE8F28300BFDF
:1048D000680900206A090020780700206C09002080
:1048E000140A002038B504460B4D0321287804F043
:1048F0004DF900210091431CDBB2032229782046A8
:1049000004F04AF831BD38B50446034D0DF054FCAF
:104910006880AC8031BD000060070020704781785E
:104920004078FFF7DDB9704770470020704707F007
:104930001FBC000038B50446432C2ED0442C03D1B4
:10494000BDE831400EF03CBA452C06D10EF038FAE5
:104950000EF036FA0EF034FAF2E74D2C1DD0462C4C
:1049600001D0472C13D10D4D2878002815D10120F6
:104970002870002000F03AFC472C0CBF40F60100E4
:1049800040F602000DF08CFC0020287031BD07B508
:1049900040F29221024800F08BFA31BD760F0020E0
:1049A000189D01080A0242EA112148400106090F38
:1049B000484080EA00304101C9B20206D20E41EA05
:1049C0000221484080B2704781B209B94BF6EF61CD
:1049D0000E4A1180000C01D14FF6CE205080704756
:1049E00002461088030400D54840410011807047FA
:1049F00038B5064C62212046FFF7F2FF054641F22A
:104A00000B01A01CFFF7ECFF684032BD72090020CB
:104A100000E00000814231D21018401E5118491E9A
:104A200010E0121F11F8013900F8013911F80139AD
:104A300000F8013911F8013900F8013911F801398C
:104A400000F8013992B2042AEBD292B20AB311F8FB
:104A5000013900F80139521EF7E7121F11F8013B26
:104A600000F8013B11F8013B00F8013B11F8013B54
:104A700000F8013B11F8013B00F8013B92B2042A17
:104A8000EBD292B22AB111F8013B00F8013B521E61
:104A9000F7E7704702E000F8011B521E92B2002AAD
:104AA000F9D1704710B500E0521E92B2002A03D02F
:104AB00000F004F8F8D007E0002010BD10F8013B2A
:104AC00011F8014BA3427047181B40B210BD000003
:104AD00070B57C4842783E490B685B0722D5032AB3
:104AE00020DA00EB420384889C810123847803FA56
:104AF00002F2224382700278344C82B1002502E037
:104B00006D1C032D0EDA03FA05F61642F8D0457037
:104B10007240027000EB4500808A206002E0226053
:104B2000032242704FF6FF700860BFF35F8F70BDC5
:104B300038B504F093F963490A78E2B1234B1C6855
:104B4000E40718D4002402E0641C032C14DA0125C5
:104B5000A5401542F8D04C706A400A7001EB440140
:104B6000898A19601A494FF6FF720A604E494FF45C
:104B700000620A6000E0032404F06CF9E0B232BD88
:104B8000504800210170032141700021C1700521AE
:104B90000181002181700D4900220A604A604FF4B2
:104BA00000428A601022CA60001D486101208861AD
:104BB0000320C8600648042101644FF6FF710160BC
:104BC00039484FF40061016007F0ACB804D00040F0
:104BD00010A8004070B504462A2901D0012070BDFC
:104BE000384DD00040EA43302989084305EB4401A1
:104BF0008882012000FA04F6287830420FD104F0B0
:104C00002DF9297831432970A978B143A97004F0AE
:104C100021F9FFF78DFFA04201D1812070BD8220D4
:104C200070BD00002DE9F84380460C461D4F1E4D17
:104C300004F01AF948B92868000506D5386800F06C
:104C40000400461EB641F60F00E0012604F006F906
:104C500081463EB12868000504D53868400701D573
:104C6000FFF736FF17488178012202FA08F20A425C
:104C700007D000EB48039B8923805140817080243A
:104C800009E00178114201D0822404E040784045D7
:104C90000CBF81248424484604F0DCF82046BDE89B
:104CA000F28300BF50A8004000E100E038B505469F
:104CB0000C4621462846FFF7B5FF842801D08028FE
:104CC000F7D132BD3C0A002038B51D4A118B090AC4
:104CD000012924D140F2022101281CD1508AB0F5CB
:104CE000837F19D307F084FAA0F10B04E4B2042304
:104CF00022460B2100A800F067FF0A4D0A48006811
:104D0000A880AC7107F0F9FAE8719DF803002872E9
:104D100040F2062001E010B908460DF0C1FA01206A
:104D200032BD00BF00000020902000400448008BEE
:104D3000000A012801D100F005B84FF6FF70704756
:104D4000000000080148408B704700000000000888
:104D50000E2802D0162809D00AE00648006800068E
:104D6000800F00F0010080F0010070470248F5E775
:104D70000020704708B4004008B8004010B51F4834
:104D80004FF40051C160022101600E20FFF7E0FFE7
:104D90001B4C2178814202D02070014607E000F0D0
:104DA00008F80E20FFF7BFFD217800F002F80E2072
:104DB0001FE0481E8041C00F20702178704710B559
:104DC0000E484FF48041C160042101601620FFF7B6
:104DD000BFFF0B4C6178814202D06070014607E052
:104DE00000F010F81620FFF79EFD617800F00AF839
:104DF0001620BDE81040FFF796BD000014A8004043
:104E0000770F0020481E8041C00F607061787047A6
:104E1000F0B523484288511E41802049002A39D1EB
:104E20000278456856191F4B77782FB3C827545D11
:104E30009CB14FF00D0E0EFB04F4DC62DC6A9C6347
:104E400000245C6210241C62535D0F2493FBF4F376
:104E500074787C4394FBF3F30AE040F29314DC6231
:104E600000245C621C6273787B4303EBD3735B109A
:104E70004380921C02700DE00A6C520852000A64D2
:104E8000094A146864086400146000221A621A60F7
:104E9000012242704FF0FF300860F0BD00A80040D2
:104EA000BC07002000E0004000E100E042DE704767
:104EB00038B505460C4600F08DFA03F0CFFF2146C9
:104EC000284605F015FD21462846BDE83440EDE7AB
:104ED0002DE9F8434FF4206966490868DFF8A871A6
:104EE0003C1D20650A6A6265634A1268A2654A6AC7
:104EF000E2658A6A2266CA6A62660A6BA266896B82
:104F0000E166616B49074CBFE56BA56B40F2FF168C
:104F1000DFF8A881DFF8A021954227D3A84525D343
:104F200005F2180555F8041B216455F8041B61644B
:104F3000304006281DD1206C00884DF64261884221
:104F400017D107F28800796841606168816055F87F
:104F5000040B786055F8040B606055F8040BA060F2
:104F600055F8040B606340F2017902E000202064F0
:104F7000606400F08BF8A0640020E064002207EB7E
:104F800080014A67401C0628F9DB206C00283BD0D2
:104F900000203A4A3A4B04E0052007EB800CCCF89D
:104FA0007410A8452BD358F8041D9942F9D39142A7
:104FB000F7D25FEAC17CF4D54FF0000C07EB8C0E02
:104FC000DEF874E08E4504D00CF1010CBCF1060F44
:104FD000F4DBBCF1060FE4D10028DDD0401EC0B2E6
:104FE000DBE7216F4FF0000C07EB8C02936F5367E8
:104FF0000CF1010CBCF1050FF6DBC7F88810014677
:10500000481EC0B20029ECD1206D304002280AD0E1
:10501000032815D0042816D0052817D0062818D044
:105020000C281CD01EE017480168890702D540F6FD
:1050300002191CE00068C00719D540F2025916E0B9
:1050400040F6012913E040F6022910E040F603295A
:105050000DE0B9F5206F0AD140F6042907E040F6CB
:10506000052904E018B1212801D240F60729484655
:10507000BDE8F28304ED00E000E300E0529B01088C
:10508000842100081CA0004000000020084800689F
:10509000C00601D5074802E0074800E0001D074AA6
:1050A000904203D20368B3F1CD3FF7D0101A704796
:1050B0002C00004094000020000000205807002031
:1050C00005E004E003E002E001E000E0FFE772B683
:1050D0001EF0080F08D01EF0040F0BD0DFF848E0D8
:1050E000AEE8FF1F11480AE0DFF83CE0AEE8FF1F22
:1050F0000F4804E0DFF830E0AEE8FF1F0D486946D6
:10510000EFF309828EE8070086460B480B4C854575
:1051100001D3A54501D384F30888FFF7D9FE84F3B2
:1051200008880DF0BDF8000004000020FDFFFFFF1F
:10513000F1FFFFFFF9FFFFFFD40000205807002018
:105140000D4800BF38B5054603F088FE04460B48FD
:1051500000210160082155F8042B826055F8042BCA
:10516000C260491EF7D10121016003F08DFE204687
:10517000BDE8324003F06EBEB09E010894ED00E041
:105180001248006800F0DF000021002202E0521CFB
:10519000082A17D2012393401842F8D00C4830F85F
:1051A000121006290ED10B4841884FF20F0291428E
:1051B00003D101880A0A0B2A01D34FF4C0614CF2D3
:1051C0003C32428008480180704700BF2C000040FC
:1051D000F09E01080000002003480088000A704784
:1051E0000148008870470000380F00202DE9F94D74
:1051F00086B01122FF2100A8FFF74CFCDFF880B039
:10520000EA22FF215846FFF745FC22244FF01108FF
:105210000026DFF870A01C48305C411C01EBD17106
:105220004F101A49755CFF2804D107B56F2150460D
:10523000FFF73EFE7F2D04D307B570215046FFF7E0
:1052400037FE1348305C00B11937781C00FB054469
:10525000012D02D02BF81680A844761C112EDADB23
:10526000B4F5806F04D307B586215046FFF720FEC2
:1052700000A99DF818000DF015F908B0BDE8F08DF3
:105280005C0A0020009F0108689D01087C9D0108C0
:10529000549D0108C108032908D2C1108902044A9B
:1052A000012300F0070003FA00F05050704700BFE0
:1052B00014B00040C108032908D2C1108902044A71
:1052C000012300F0070003FA00F05050704700BFC0
:1052D00010B0004008B10620DCE70620EAE7000035
:1052E00010B50DF019FF00200DF0C6FD0F4C206821
:1052F00040F00800206000F065F80DF0ABFD00F014
:1053000017F8206820F010002060FFF739FC00F04B
:10531000E9FD0DF075FF0DF0B5FEBDE8104000F0A1
:1053200073B840F201600CF0BBBF000000BC00404D
:105330000D48E821C1600D494F22CA600C4A8523FF
:10534000D36041F64913036041F29913436048F674
:105350009100086049F60900486044F61910106091
:1053600041F694105060704700B0004000B4004017
:1053700000B80040032000F07BBC000010B5FFF730
:105380002BFF0446FFF72CFFC0B218B9012C01D047
:10539000002010BD072C11D801A109578F4400BF70
:1053A000F01C080C0C101418092010BD022010BDB0
:1053B000032010BD0B2010BD062010BD44F080005E
:1053C00010BD00000F48012181604EF6BE214160F2
:1053D00002E00000024800BF01210160704700BFE9
:1053E00008600040A52805D106484DF6AD61416032
:1053F0000221016070470348006810F0010000D0EE
:10540000012070470060004080B50B48102101600A
:105410000A48022101600A484FF4006101600DF062
:10542000FBFD0848072101600021016406481021A6
:105430000160002002BD00BF80E100E008000040E4
:105440000C60004014A0004000E100E030B583B0E3
:10545000044610467F2800D10020B1F5004F19D135
:1054600008237F2240F6120100A8FFF7EFFF082271
:105470000D4900A8FFF716FB30B908237F2240F240
:10548000A27100A8FFF7E2FF082200A92046FFF75B
:10549000BFFA37BD1A46254D294300FB03112046AC
:1054A000FFF7B6FA37BD00BF309F01082DE9F04283
:1054B0000D4614461D4941EA0006DFF86490C00716
:1054C00003D507B5572100F033F8E00703D507B53A
:1054D000582100F02DF81348864204D3A019401E2D
:1054E0001149884203D307B5592100F021F800275C
:1054F00007E0B85DFF2803D007B5602100F018F879
:105500007F1CA742F5D36208294630460DF058FFAC
:1055100018B107B5662100F00BF8BDE8F08200BFB6
:10552000249F010800080408001004080000040873
:105530004846FFF7BDBC00002DE9F14F9AB0DFF8F7
:105540006845606818909DF86800072801D103201D
:1055500002E0082802D102208DF86800DFF8EC553F
:105560002868696840EA0120A96840EA0140019082
:105570006868400703D5E06940F00200E0612868F0
:10558000400703D5E06940F00400E0614FF0010BF3
:10559000019829690BFA01F1084203D0E06940F053
:1055A0000800E061DFF844A50020CAF80400DFF835
:1055B000FC749DF86800012800F04782022807D09B
:1055C00003281AD0042840F066820020606014E0AE
:1055D000386CC00703D5E06940F04000E061386CEA
:1055E000400703D5E06940F02000E061386C800797
:1055F00003D5E06940F01000E06103F02FFCFFF7F5
:10560000FAFE17904FF00008386C1690786C1590E1
:10561000DFF89C94D9F84C001490D9F850001390FE
:10562000D9F854001290D9F858001190DFF884048A
:1056300000681090DFF87C0440680F90DFF8740475
:1056400040690E90DFF86C04406A0D90DFF86864E2
:1056500030680C9070680B90B0680A90F068099000
:105660003069089070690790B0690690F0690490FD
:10567000B06B0390DFF844040068DFF84414496815
:10568000029102212160DFF83C140968DFF8382418
:10569000126841EA0221DFF83424126841EA02412B
:1056A00005914FF0FF316162DFF858140A68DAF8AB
:1056B0000410D20409D56A68D20706D5E269D20778
:1056C00003D5D8464FF48072114300F017FA9204C4
:1056D00008D56A68520605D5E269D20702D5D846D0
:1056E00041F4804100F00AFA52040AD500F000FAB1
:1056F00007D0E269D20704D5D846EA680BFA02F26D
:10570000114300F0FBF9120410D5019A2B690BFA32
:1057100003F31A420AD0E269D20702D4E2691207FF
:1057200004D5D8462A690BFA02F2114300F0E6F9D3
:10573000D20305D5E269120602D5D84641F00061D0
:10574000CAF8041000216A68D20701D54FF48051CD
:105750006A68520601D541F4005100F0C9F901D040
:1057600041F480412B690BFA03F31A4201D041F452
:105770000041E269D20605D4E269920602D4E269E8
:10578000520601D541F01001E269120601D541F43B
:10579000803108400090A520FFF724FE0120E0633F
:1057A000E069A16B11B1616A0142FAD0616A0142FC
:1057B00000F0FC800020E063D846DAF8040040F0F6
:1057C0008040CAF8040003F05BFB072038600F201C
:1057D000C9F80000FFF7B4FC1898606016983864A8
:1057E000159878641498C9F84C001398C9F85000BB
:1057F0001298C9F854001198C9F85800AD4810998A
:1058000001600F9941600E9941610D9941620C98B8
:1058100030600B9870600A98B0600998F060089842
:105820003061079870610698B0610498F061039840
:10583000B063A24800990160A14802994160A44860
:105840004FF0FF3101609F48006804909E48066851
:105850009E480068616AE2691140029129690391DA
:10586000029911F0020100D00121029A12F0040203
:1058700000D00122029B13F0080C634600D00123E4
:10588000DAF804C0CDF800C0DDF814C0DDF810E08F
:105890004EEA062646EA004080EA0C00019E3040AF
:1058A00040EA812040EA8200039903FA01F10843AB
:1058B00002994FF47C72114040EA0151009808436C
:1058C000CAF8040003F0CAFA03F0DCFA00202060F2
:1058D000179808B1FFF776FDDAF8040077490968F0
:1058E000C90303D5010101D520212162396C890743
:1058F00003D5C10101D50221F960396C490703D5EF
:10590000810101D50421F960396CC90703D5410132
:1059100001D50121F960D9F84C10E022114205D0DF
:10592000C10503D577494FF480520A60D9F8501069
:10593000E022114205D0410403D572494FF40052D0
:105940000A60D9F85410E022114208D0E9680BFA35
:1059500001F1084203D06B494FF480420A60D9F844
:105960005810E022114208D029690BFA01F10842CF
:1059700003D064494FF400420A60B8F1000F5DD1D2
:1059800054490968090559D56168890756D59DF8B4
:105990006810042952D049490968C9062DD55949CA
:1059A0000968C90629D58AF800B047E0B8F1000FA8
:1059B0007FF403AF3F488069400840003D4988615B
:1059C0003F48C06840F004003D49C860424801219A
:1059D00001703B49096841F08051394A11600178F2
:1059E0000029FCD13B4840680004CAF80800394946
:1059F00089680843CAF80800E7E64FF47A71002284
:105A00008AF80020354A536D43F001035365294B52
:105A10009B69DB0701D44FF4FA7113682D4C64685D
:105A20002C4DAD6845EA0444DAF80850AC4205D183
:105A30001468E41A2403240B8C42EFD340F0004096
:105A4000CAF8040003F018FA2BE0FFF7D4FC044670
:105A5000A520FFF7C7FC03F013FA03F00DFA204D61
:105A60002E68286840084000286003F00DFA1D4F9A
:105A7000D7F80080386820F0400038600DF004FD51
:105A8000C7F800802E6003F0FFF90CB1FFF79AFC15
:105A900003F0F8F905E007B540F2BA311248FFF714
:105AA00007FA1BB0BDE8F08F0400004014A00040CE
:105AB00014A80040044000400050004000E100E015
:105AC00004ED00E008B0004008B4004008B8004011
:105AD00080E200E00C600040940C00203820004080
:105AE00094ED00E000800040389F0108480B002042
:105AF000019AEB680BFA03F31A427047014A1268E5
:105B00007047000000E200E0104ACBB213600B0ABD
:105B1000DBB253600902090E91600B4900230B6050
:105B200013681BB953680BB992681AB10A6842F03E
:105B300001020A600A684FF400731A430A600A6897
:105B400042F080020A60F7E42000004008BC0040F8
:105B50000049D9E70040400010B582B0484C012010
:105B600020700020FFF742FB40B10020FFF73EFB12
:105B7000002803D000202070492016BD02237F2278
:105B8000DFF8000101880DF1020000F01DF802238A
:105B90007F22002100A800F017F8BDF80200B0F540
:105BA000FF7FBDF800004FF47F7103D1884207D119
:105BB000002016BD884201D0042002E0062000E04B
:105BC00007200021217016BD10B54FF48074A1424A
:105BD00008D22B4C2478002C06D0C9B2BDE8104066
:105BE0000CF008BEFFF732FC10BD000010B54FF4FA
:105BF0008074A14208D2224C2478002C0CD0C9B267
:105C0000BDE810400CF033BE7F2A00D10022034CC7
:105C1000214302FB0311016010BD00BF0000040816
:105C20002DE9F04104460D46164698460F484FF4BC
:105C300080718C4213D2124F3978A1B1797819B1A1
:105C400007B5B821FFF734F90120787043462A469A
:105C50003146E0B20CF046FF0020787003E007B553
:105C6000C321FFF725F9BDE8F08100BF409F01087F
:105C700080B50349097809B10DF050F801BD000065
:105C8000790F00202EA8010810B501283DD1132955
:105C900006D21F4830F911004FF0FF34A04201D165
:105CA000202010BD8D4C002804D519B14042606100
:105CB000012001E060610020A061180907280CBFE5
:105CC00000200220012A02D140F0180003E0022A3D
:105CD00001D140F0080003F00F01022901DB40F080
:105CE0000400A06001202060DFF8A002016C46F2F1
:105CF0000902114301644FF6FF71016078482021C9
:105D0000016000F017F9002010BD212010BD00BF78
:105D1000489F010810B5012810D17048006801287B
:105D20000CD103F09BF804460548016841F00601D8
:105D3000016000F095F8204603F08CF810BD0000DB
:105D400048A80040704700002DE9F84FDFF8E0A1B7
:105D5000DAF80440DFF80082DFF8C0B0DFF8C09066
:105D6000304F5A4D0EE0891A8180A088242809D32B
:105D700098F90000002805D4132088F801000120BC
:105D8000FFF7C8FFE868800745D5E86810F03800DD
:105D90002968C9B213D1A0883F281AD21129E4D0AA
:105DA0001329E2D02088001981712088401C1E49E7
:105DB00000F08EF82080A088401CA080D5E7010765
:105DC0000BD4C1060DD524260021132000F0D0FEEF
:105DD0000BE0232600211220F8E7272600211420BB
:105DE000F4E780064CBF25260126DAF8040079780E
:105DF00021B90088A9F802007E70B6E7B9F8021050
:105E000001807E70428801889142ACD2BBF802309A
:105E10009A1A8918A8E7BDE8F18F00BF9C9F010876
:105E20003408002030080020989F010870474A4835
:105E300090F90000032801D101207047002070472D
:105E40000648C168012905D1006810F0400002D061
:105E500001207047002070470000000048C8004043
:105E600070B5184844683C4E7078184D20B3E96806
:105E7000490721D52860132807D14FF0FF30307033
:105E80000021172000F074FE06E096F900000028BB
:105E90004CBF0120401C3070002070700CE0608806
:105EA0000019807928606088401C074900F010F8CC
:105EB0006080A088401EA080A08810B1E8684007DC
:105EC000EDD470BD38080020949F01083CC8004004
:105ED000498890FBF1F201FB1200704754C8004062
:105EE00000E100E07047F8B5012820D11048406873
:105EF00085880CF066F9C6B2174F05B1BE7002F086
:105F0000ADFF044697F900004FF0FF31884201D100
:105F1000092D07DB45B9B978711AC9B2082903D32D
:105F2000032801DA00F006F8204602F093FFF1BDE5
:105F30004008002010B5084C6078132803D10020D9
:105F40006070207004E0112060700120FFF7E2FE15
:105F50000CF037F9A07010BD7B0F002038B50B4C4A
:105F60000DE0256046F22970054202D0A8B2FFF785
:105F7000EBFE41F6D600054201D0FFF771FF206825
:105F8000216C01EA0005002DEBD131BD08A80040CD
:105F900070B50D461446274E40B1F07000202070B9
:105FA000B07030704FF6FF70B08008E03078002895
:105FB00003D000203070707870BDB07888B9B18897
:105FC0002846FEF7EFFCB080F078401EF070C0B2BB
:105FD00010B90120B07002E02078401C20702846E3
:105FE0000CE0012804D10220B070B088000A05E05E
:105FF000022806D10320B070B088C0B2BDE870405E
:1060000003E0FF2020707E2070BD112809D01328E6
:1060100007D0182805D01A2803D07D2801D07E2863
:1060200006D1044901220A7080F0200048707D20CA
:1060300070470000460F00202DE9F04105468846D4
:1060400014462027294E307830B97070F0703071C6
:10605000B0704FF6FF70F0803079F1887278182DAB
:1060600026D01A2D22D07D2D1ED07E2D23D112B9FF
:106070000020B07038E0FF2A05D17727002030706B
:106080003846BDE8F081F37803EB0020814201D06F
:106090007627F3E7032A01D27927EFE7842A01D391
:1060A0007A27EBE70027E9E7B7701DE07427E5E7FB
:1060B000FF20707018E0B3785D400023B370842A2D
:1060C00001D2521C72707278032A0AD3FEF76AFC5E
:1060D000F0807078842804D2317988F80010801E0E
:1060E0002070F0783071F5700120C8E73E0F002075
:1060F00010B518B9422001E083F0B80013465A1ECB
:10610000DBB24BB10B46591C1C7844401C70430851
:10611000C007F1D41846F1E7C0B210BD80B50CF04D
:106120004BF808B94FF6FF702249088001BD10B541
:10613000204C208800280BD00CF03EF8B4F9001059
:10614000401A00B26188884201DB012010BD0020A6
:1061500010BD0000F8B516494FF6FF724B88934208
:1061600014BF1C464FF448640B88934214BF1D466D
:106170004FF4C8750F4E778808B178000BE030886F
:1061800050B10CF019F8C7EBC7013288801A80B201
:1061900001EB8000C00870807088844201DA74804E
:1061A00002E0A84200DA758000203080F1BD00BF17
:1061B000620804083A0F002080B50BF0FDFF084983
:1061C0000A884FF6FF739A4214BF11464FF47A7152
:1061D00008180005000E00D1FF200D49087001BD10
:1061E0007208040810B50A4C2078002809D00BF07A
:1061F000E3FF21780009401A40B2002803D40020B0
:106200002070012010BD481E8041C00F10BD00004D
:106210007E0F002080B5042002F0BAFADFF8A41740
:10622000C87302BD80B508480078001D434909784D
:10623000884201D0002002BDDFF88807C07B02F051
:106240000EFB012002BD00BFA9090020F8B54FF6E2
:10625000FF74DFF808572888A04214BF01460C21BC
:1062600001230022C9B2012000F0AEFB20B107B526
:10627000E921A548FEF71CFEFFF7CCFFA88AA04243
:1062800000D13220174E3080DFF82875002038808A
:10629000FFF744FFFFF74BFF0028FBD06889A042BF
:1062A00001D14FF4C860308000203880FFF766F8D5
:1062B000DFF810476071012805D0022803D00928B3
:1062C00001D00B2807D1FF206071D02060737020AF
:1062D000BDE8F24028E3702000F026FBA0206073A8
:1062E000F1BD00BF3C0F002070B504460D46864E40
:1062F00012480078844205D307B540F21D1130469C
:10630000FEF7D6FDDFF8E0150968625C032A01D3C9
:10631000812A05D307B54FF48F713046FEF7C8FDCB
:10632000204600F0BBFADFF89C06002D214614BF82
:1063300020302430BDE8704002F035BDA8090020AF
:1063400010B50446204600F003F82028FAD010BD0E
:10635000F8B50446FF2525706B4E00F04DFA070096
:106360001CD020281AD027283AD0742808D07628A4
:1063700009D0772807D0792805D07A2803D007E0FC
:1063800000F0D2FA0AE000F0CFFA00F015FA05E0CA
:1063900007B540F25D113046FEF78AFD002FDCD1D3
:1063A000DFF82066307C317DC02905D101282AD153
:1063B0000427FEF7B6FF0DE00B0612D4042822D303
:1063C0000127707B400605D501F070000011B17AFD
:1063D000884220D0B573707B400616D4202070739D
:1063E000F2BD01F0E001802903D101280BD1022781
:1063F000F0E7A02903D1012805D10327EAE77B2094
:1064000000F092FAE6E77C20FAE7012F03D0022F92
:1064100001D0032F2AD1307D00F00705B079317A01
:10642000091A01F007012A1A02F00702914201DA63
:1064300078205EE0854219D0B57100203073707B02
:10644000800709D5DFF86C0300210180707A85424E
:106450000CD0FFF763FE09E00020FFF77BFE307AE7
:10646000854201D0FFF75AFE00F0B3F9022F01D0A8
:10647000032F08D1307D000702D5FFF79DFE02E013
:10648000204800210170B7B3012F02D0032F35D06F
:1064900036E0707B40F00801327D02F00803B57AE7
:1064A00002F070021209AA421CD1B07BFF2806D16B
:1064B00000F082F9262000F037FA2620F2BD03B161
:1064C0007173717B01F0FA017173691C01F00701AE
:1064D000B17200F0E3F9B07B02F0B4F9B07B207048
:1064E0000020F2BD002B01D0717309E0C00702D477
:1064F000752000F019FA00F05FF901E000F048F9AA
:106500002020F2BD7E0F0020709F01082DE9F84F7A
:10651000DFF874A24FF6FF7BA64DDFF8A864FFF703
:1065200006FE98B3707B410630D580074CBF707A69
:10653000307AB17981421AD00120FFF70BFE732027
:1065400000F0F2F9BAF80A00584500D10320317B77
:10655000491C3173C9B2884206DA51207071722029
:1065600000F0E2F9202010E000F012F90EE0002027
:1065700028800BE0022905D10020288030711A20E4
:1065800000F0B4F9707B00F07F00707300F0B2F996
:10659000002840F0F6803179727B100603D5302058
:1065A0000242E7D0EBE7307A737AB77C39B102293F
:1065B00002D0C0F0B480032900F0BB80E6E7910769
:1065C00012D5B179C21A02F00702CB1A03F0070301
:1065D0009A4200DB7172717A814205D1707B00F0C2
:1065E000FD00707300F0F5F8707B302108421CD07C
:1065F000800603D5C2203070707903E0C12030706E
:10660000FEF7BCFEB07002207070707B00F0C3001B
:10661000707303200121317106F112023178C0B28A
:10662000FFF7B6FC00F062F9B0E70C21084213D086
:10663000B17A400706D5A1F160003070707B00F0A0
:10664000F30005E0A1F180003070707B00F0F700EE
:106650007073F1710120DDE7A34FDFF8308180070F
:106660001FD5707AF17A401A00F0070902F0F6FBA4
:10667000347ED8F80010645C4946A1F10109C9B222
:106680000029F6D102F0E6FB74743968605C401CA6
:10669000B17A727A41EA021141F0080131700321A6
:1066A000B9E7BAF80000584500D10520401E00F0B7
:1066B0000700317AB279891A01F00701884226DB96
:1066C00006F1200002F0BEFB38B106F1240002F012
:1066D000B9FBE0B9FFF786FDC8B106F1200002F072
:1066E000B1FB002814BF06F2240006F12000F0617F
:1066F0000078D8F80010405C70743968405C401C29
:10670000317AB27A42EA01113170022183E7F079DD
:10671000B17A884235D0707B40F0080035E7FF2F12
:1067200004D006F11202B95D002079E70020307133
:106730002CE7FF2F0BD00FB9317805E0791EC9B2D5
:10674000707C02F023FA014606F11202ECE70229FE
:106750000CD1401C00F007003072F06902F038FBE9
:10676000717C06F1180002F01EFB03E0581C00F0DB
:1067700007007072288808B9FFF7D0FCB07AF07172
:10678000D4E7BDE8F18F00BF5C0804087C07002057
:1067900010B58C48417B8A070AD48279037A9A42E1
:1067A00006D0044B00241C80427241F082014173E8
:1067B00010BD00003A0F00208248017D090607D471
:1067C000417B01F04102402A02D141F005014173B1
:1067D000704710B57B4C0AE004F1180002F0F8FA9B
:1067E00002F03DF8E07A401C00F00700E072A0796A
:1067F000E17A8842F0D110BDF0B583B0FF24714D2D
:106800006F48007808B92874AC730DF1050000F0EA
:106810007AF80646272E3DD02F7C05F1100201A9FB
:106820009DF80500FFF708FC0646202E02D00EB1A9
:10683000AC732FE0287CB8422AD0032804D2781900
:106840009DF80410017523E011D1E87B1249096815
:10685000415C01290BD1A87301F094FF0120009045
:1068600001230022A97B05F1150002F095F8E87BD1
:10687000A97B81420CD11C490968475C791CC9B2CB
:1068800001F080FF9DF804203946E87B02F083F98F
:10689000202EBAD03046FEBD74070020F8B504465D
:1068A0000025104801884FF6FF72914200D0C1B117
:1068B00000270BE03946204602F03EF932460146F9
:1068C0002846FFF715FC0546F719FFB20648006891
:1068D000215C8F4205DAC81BC6B2202EEADB2026D7
:1068E000E8E7F1BD5E0804087007002001460120BA
:1068F00000F0F6B880B5012000F0E1F808B1002002
:1069000002BD252002BD10B504462146012000F03D
:106910008BF8002806D0262803D0182020700020ED
:1069200010BD272010BD000000B583B003460A4902
:10693000702B05D10948019028200090022206E022
:106940002048027C0192007D0090022208313D2007
:1069500003F0D6FF07BD00BF7C9F0108560804085E
:1069600010B51548007818B9FFF761FA002821D052
:106970001348007800281DD1124CE079A17A884292
:1069800018D10E480088002814D104F1240002F028
:1069900059FA00280ED004F1200002F053FA002822
:1069A00008D02079002805D1FFF74AFA002802D044
:1069B000012010BD002010BD660F00206C090020D2
:1069C0003E0F0020080800202DE9F04706468A46C1
:1069D000904699462EB3022E23D022D2DFF88801AA
:1069E000305C01281DD1DFF8844104EB8605AF68D7
:1069F00002F034FA0021B9803980798002F02AFA55
:106A00002D6902F02BFA0021A98029806980315577
:106A100002F020FA4B46424651463046FFF734F921
:106A200000E02120BDE8F0872DE9F84605468A46BA
:106A3000DFF8387107EB85000669DFF82C9115F84F
:106A4000090008B9012038E007EB4504E85D60B1B2
