S01D000073657269616C2D756172742D626F6F746C6F616465722E73333716
S31508000000000400205B000008710000087100000869
S31508000010A70B0701000000000101A8450020000801
S3150800002004050000AD060008C506000830100008E3
S3150800003000000000000000000000000000000000B2
S3150800004009480068202100EA010028B1074801682C
S3150800005042685FEA010D10477047FFF7F1FF00F0AD
S315080000600FF800F041F800002C00004000200008BE
S3150800007002E05FEA000D70474FF4017000F0ACBC77
S3150800008038B54FF20F044A4D00F06CFA002804D038
S3150800009040F2052028806C8031BD44480068C006BF
S315080000A013D56888A0421BD1288840F202218842CD
S315080000B016D040F20621884212D040F20111884239
S315080000C00ED040F2111188420AD0064C208A40F61A
S315080000D0A721884204D12068FFF7CBFF60688047D4
S315080000E031BD00BF0020000810B572B6254801686A
S315080000F04908490001602448592101602B480068D5
S3150800010010F0100000D0012008B1204905E0204970
S3150800011003E04FF0CD3241F8042B1E4A9142F8D342
S315080001201D491E4A1E4B03E051F8044B42F8044B86
S315080001309A42F9D31B491C4A002301E041F8043BC3
S315080001409142FBD31A494A884FF20F039A420AD1C1
S315080001500A8840F205239A4206D020B1100A0128DF
S3150800016002D0022800D00022124802804CF23C300D
S31508000170488000F063FA4FF40170BDE8104000F0C3
S315080001802BBC00BFFCED00E000800040940000207E
S31508000190000000200004002044100008000400208D
S315080001A008040020080400202D0C00202C00004024
S315080001B000000020280C0020C108032908D2C1101D
S315080001C08902044A012300F0070003FA00F05050A0
S315080001D0704700BF14B00040C108032908D2C110F7
S315080001E08902044A012300F0070003FA00F0505080
S315080001F0704700BF10B00040C10803290BD2C110D8
S31508000200054A02EB81210A68012300F0070003FA78
S3150800021000F05040086070470CB0004030B583B01D
S31508000220044610467F2800D10020B1F5004F19D1A9
S3150800023008237F2240F6120100A8FFF7EFFF0822E5
S315080002400D4900A800F07DF830B908237F2240F256
S31508000250A27100A8FFF7E2FF082200A9204600F0D5
S3150800026057F837BD1A46054D294300FB03112046AA
S3150800027000F04EF837BD00BF280F0008000004083C
S315080002800748012181604EF6BE21416002E0000068
S31508000290024800BF01210160704700BF08600040A6
S315080002A00060004010B58208074B53F822201368F7
S315080002B000F0030080000F248440A34301FA00F0F5
S315080002C01843106010BD00BF300F00080A0242EA4A
S315080002D0112148400106090F484080EA00304101D3
S315080002E0C9B20206D20E41EA0221484080B27047DE
S315080002F00A0A4840C0B208214308C00746BF034857
S3150800030058401846491EF7D1504070472083B8ED2B
S3150800031000E00000814210D21018401E5118491EF4
S3150800032092B26AB111F8013900F80139521EF7E79D
S3150800033011F8013B00F8013B521E92B2002AF7D190
S31508000340704710B500E0521E92B2002A03D000F0A2
S3150800035004F8F8D007E0002010BD10F8013B11F8AA
S31508000360014BA3427047181B40B210BD2DE9F84354
S31508000370FFF78EFF00F0EEF8002000F00FF9444C6E
S3150800038041A542A6DFF80C91DFF80C8113E0404640
S3150800039000F0A0F8B9F81A70380A00F0A6F8304646
S315080003A000F098F8F8B200F0A0F808F11C0000F088
S315080003B091F800F0CFF8FFF76BFF022000F0EEF897
S315080003C000A800F0B9F80028F5D19DF8000000F063
S315080003D07BF89DF800000A28D9D00D28D7D03128F7
S315080003E004D032282ED0332831D0E2E708F15C0059
S315080003F000F070F8012000F0FBF8074608F17000DD
S3150800040000F068F82FB9052000F0C8F808F1840054
S31508000410CDE7042000F0C2F808F1900000F05AF881
S31508000420B80602D508F19C0005E078064CBF08F12D
S31508000430B40008F1D00000F04DF8384600F069F82D
S315080004402846B4E7012000F0A9F8BDE8F1830027A3
S31508000450284600F03FF8208A40F6A721884202D0B5
S3150800046008F14C00A3E7222000F02EF8381990F87E
S3150800047024007F1C18B100F027F8202FF6DB222075
S3150800048000F022F8DCE700BF0D0A00002062000039
S315080004900020000800000008480F000880B5094839
S315080004A06821416100218161022181600121016089
S315080004B009210920FFF7F6FE04210A20BDE80440B9
S315080004C0FFF7F0BE54C800402149CA685207FCD558
S315080004D00860704710B5044603E014F8010BFFF7EF
S315080004E0F3FF20780028F8D110BD10B5044620097E
S315080004F00A28ACBF37303030C0B2FFF7E5FF04F04A
S315080005000F000A28ACBF37303030C0B2BDE8104003
S31508000510DAE710B50446200AFFF7E7FFE0B2BDE8C0
S315080005201040E2E70348006810F0020000D00120FE
S315080005307047000048C8004010B50446FFF7F2FFB0
S3150800054020B1034800682070002010BD012010BDAE
S315080005503CC8004080B500A8FFF7EEFF0028FAD097
S3150800056001BD00000020704780B5FFF789FE012114
S315080005700620FFF797FE0620FFF72EFE012107202B
S31508000580FFF790FE0720FFF717FE0348016821F0E2
S315080005901001016001BD00BF00BC004010B5052870
S315080005A021D8DFE800F0032008151D030620BDE862
S315080005B01040FFF701BE0C4C2088411E2180002800
S315080005C011D10720FFF718FE42F21070208010BDE7
S315080005D00720FFF701FE0620BDE81040FFF70CBE16
S315080005E00620FFF7F9FD10BD2A0C00200078704799
S315080005F030B5CFB0044621462AA800F011FB0020EA
S3150800060000904FF402630B4A2AA901A800F04EF89D
S31508000610094A01A902F10C0000F054F80546FFF753
S3150800062037FE1DB12146284600F046FB28464FB046
S3150800063030BD00BF080400202410000880B500F073
S31508000640D5FAFFF791FFFFF729FFFFF78FFE40F274
S31508000650012000F0C1F9002002BD80B5012A01D1B0
S31508000660FFF732FF01BD000038B50D46144605E018
S31508000670014615F8010BFFF73BFE641EA4B2002CD9
S31508000680F6D132BDF8B507460E4615461C46224633
S31508000690294630683B689847070005D1224629460F
S315080006A0F068FFF7E1FFF0603846F2BD10B5029C2E
S315080006B084720381426001604FF0FF31C1600021FE
S315080006C0017410BD2DE9F54F83B00E467468B6F86F
S315080006D008A006F21400009000F110075046C00763
S315080006E004D4BAF1800FDFF8C89201DA4F2082E00D
S315080006F000F06CF90100FAD12078617801EB00204E
S315080007001FFA80FBA078E17801EB0025ADB2E80777
S3150800071001D546206FE0B5F5026F01DD4E206AE08F
S31508000720002DE5D05FEA0B000AD04FF60441BBEB7B
S31508000730010000F0B280FF3860D0FE385ED034E1A8
S31508000740307C08B1452056E0912DCFD22B46009833
S31508000750021D31460398FFF795FF01004BD100F0C3
S315080007602BF901980C308542ECD10098808800F06E
S31508000770C3FB00F47F404FF400718842E2D1009831
S31508000780C08800F0B9FB4EF250318842DAD1388A77
S3150800079040F6A7218842D5D1788A00F47F404FF4E5
S315080007A080718842CED100F00DF9D9F81C10884224
S315080007B0C8D14FF6FF703882019A92B2009800F1BC
S315080007C010014FF0FF30FFF74FFF05460098C0684D
S315080007D000F09CFBC0438542B4D1387E0428B1D1D1
S315080007E0787E052801D00628ACD101203074B07A6D
S315080007F0002896D0502005B0BDE8F08F307C08B9A7
S315080008004120F8E700F0E2F80100F4D12078617899
S31508000810090441EA0060A17840EA0120E17841EA4A
S3150800082000082D1FADB2D9F81C00804501D248201A
S31508000830E1E705EB0800796D884201D34920DAE73C
S315080008404FF6035083450DD1049858B1414602200E
S31508000850049A1268904728B14A20CCE7A5EB0B0505
S31508000860ADB2D844002DC2D0AB46554500DDD346BF
S315080008701FFA8BF300F0ABF80100BCD104980028EE
S31508000880ECD00BEBDB70421021464046049B5B68BC
S3150800089098470028E2D04B20ADE7307C0028AFD03F
S315080008A0042D01D04C20A6E700F090F80028A2D12C
S315080008B000F082F8F0683F49884234D1049800284D
S315080008C06BD084684FF0FF3A002502E06D1C062DB8
S315080008D024DA07EB4500029090F8488016E0FFF707
S315080008E0D7FC4FEAC82040F0006B4FF40069584621
S315080008F0A0475146FFF7FCFC82460BF1010BB9F104
S315080009000109F4D108F101005FFA80F8029890F81D
S3150800091049004045DADBB8F1FF0FE0D1786C6FEAA1
S315080009200A01884201D0432065E700F04BF8019997
S315080009304A083946049B5B689847F0B90098C0682E
S3150800094000F0E4FA044600F03DF8019D80464FF0B9
S31508000950FF390498D0F808B008E04046D847494619
S31508000960FFF7C6FC81466D1E08F10108ADB2002DE1
S31508000970F3D16FEA0900844201D042203BE740F6F2
S31508000980A720388200F01EF8012207F11001103066
S31508000990049B5B6898470028EFD13068039949683B
S315080009A08847172800D1002025E7442023E700BF01
S315080009B000000008E320BBDEF87E802800D38020F4
S315080009C0019070470098806800F0A0BA0423224678
S315080009D03146039856E600000D4930220A600D4953
S315080009E00A600D490A600D4910220A60010A00D101
S315080009F000020E4908804FF20F004880BFF35F8F50
S31508000A0007480021016041600648074901607047B0
S31508000A103020004030C8004030C0004010D00040B0
S31508000A201C4000400CED00E00400FA050000002020
S31508000A302848018A40F6A772914209D1418A4FF4A3
S31508000A407F40014204D102298041C043C00F70474C
S31508000A5000207047F8B505460C460E4E012030704A
S31508000A60FFF7E6FF18B94FF40170FFF7B5FF19480D
S31508000A70876A21464FF480702843B84700213170B1
S31508000A80154E20B921464FF400702843B847805DBB
S31508000A90F2BD00002C0C00202DE9F04180460C46E2
S31508000AA05500FFF7C5FF18B94FF40170FFF794FF1B
S31508000AB00848466A00232A4621464046B047064F5C
S31508000AC020B92B46002221464046B047C05DBDE806
S31508000AD0F081000000000408381000080648016884
S31508000AE041F0010101600121416002485121016084
S31508000AF0704700BF008000401C400040F8B5394CE4
S31508000B00454D4FF6FF77454EB088B84229D10223A6
S31508000B107F2233480188301DFFF780FBB088B84232
S31508000B2001D10220B080A069800703D4A06940F0F3
S31508000B300200A06101203070B0882060072028607C
S31508000B4000206860A86028484FF000710160A0691D
S31508000B50C00732D5E06900282FD048F69F40686064
S31508000B600AE0A0698007E1D52868C00301D500F02E
S31508000B7047F83078002801D00020F2BDA06810F0B0
S31508000B800100A168B28803D10F2A08D2521C06E0D8
S31508000B90890704D5B17811B1032A00D3521EB07063
S31508000BA092B2022A00D20222B2802068B188884214
S31508000BB0C0D1FFF793FF0120F2BDA069C00705D594
S31508000BC0E069002802D144F24F60C8E7A069C0076F
S31508000BD002D4E0690028F6D142F22730BFE700BF09
S31508000BE0401000080440004004ED00E080B5FFF71F
S31508000BF085FF00B101BD40F2DC5000F065F9F6E76B
S31508000C000548002141608160016821F00201016008
S31508000C10024800210170704710E000E0000400203F
S31508000C20017001224270827001290CBF8021402187
S31508000C3081800021C18001811E4801600E218162E8
S31508000C40016821F01001016000214163416270478B
S31508000C50F8B506460C46154615484FF0FF310160B3
S31508000C60144FFD6200207862386840F00100386051
S31508000C70FFF70EFB012E19D16CB9FFF753FC78B9B3
S31508000C80786AA842F4D3002DF2D0386840084000AC
S31508000C9038601620F2BD2046FFF74EFC0028EFD13B
S31508000CA038684008400038600020F2BD0120F2BDD7
S31508000CB000A8004000E0004038B505460C4600F0A4
S31508000CC009F800F007F8224629461820BDE83840FA
S31508000CD0FFF7C3BC224629461820FFF7BEBC38B525
S31508000CE00446002020814AF6B43200A92078FFF78E
S31508000CF0AFFF002801D01C2032BD9DF80000032854
S31508000D0001D1182032BD1828FBD0042801D117209C
S31508000D1032BD012801D0212032BD002501E06D1C1D
S31508000D20EDB2A088001D85420BDA40F2DD222819B3
S31508000D3000F10A012078FFF78BFF0028EFD0262064
S31508000D4032BD0025002006E001462819007BFFF782
S31508000D50BDFA6D1CEDB2A1888D42F5DBA17AE27A67
S31508000D60511889B2FF2901D0222032BDA18809195C
S31508000D70097B0212D2B2914201D0232032BDA1884A
S31508000D800919497BC0B2814201D0242032BDA07A1C
S31508000D90A178884207D0491EC9B2884201D12720C6
S31508000DA032BD252032BDA088801C20810220E0802B
S31508000DB0002032BD38B504466078012804D00228E0
S31508000DC032D0032838D039E02078012811D13B25C4
S31508000DD004E02846451EC0B2002823D04320FFF76A
S31508000DE073FB40F2DD2200212078FFF731FF00284F
S31508000DF0EFD1022060702046FFF771FF050001D091
S31508000E00FFF7A8FB272D1BD12278A078411EC9B26F
S31508000E100620FFF722FC002DEDD10320FFF7BEFBCD
S31508000E20002032BD1B2032BDFFF794FB00F023F8EB
S31508000E30A078401CA070DEE7172032BD182032BD0E
S31508000E40A80603D52278A1781520E2E7680603D418
S31508000E50182D01D01C2D07D121782846FFF72CFF25
S31508000E6004206070284632BD172DD4D100F003F84F
S31508000E7003206070E0E72278A1780620FFF7EDBB33
S31508000E80F8B506460C461546002706E0F088411CCC
S31508000E90F1808019807A38557F1CAF4209DAF088CC
S31508000EA031898842F2D33046FFF784FF0100EDD03E
S31508000EB0F2BD0020F2BD10B504462046FFF77AFFC2
S31508000EC00028FAD010BD000009490A68094B1B68BA
S31508000ED0DB0700D44008032809D34B6D43F0010310
S31508000EE04B650B689B1A1B031B0B8342F9D3704790
S31508000EF0382000401C40004001B49DF800009DF8D1
S31508000F00011001EB002080B201B0704711B581B025
S31508000F10BDF80400FFF7F0FF0446BDF80600FFF72A
S31508000F20EBFF40EA044016BDFFFFFFFFFFFFFFFF90
S31508000F3000B0004004B0004000B4004004B40040D3
S31508000F4000B8004004B800400D0A454D333531203D
S31508000F5053657269616C20426F6F746C6F6164656A
S31508000F60722076000D0A0D0A312E2075706C6F619D
S31508000F70642065626C0D0A322E2072756E0D0A3376
S31508000F802E2065626C20696E666F0D0A424C203E03
S31508000F9020000000202A2A206E6F20617070202A07
S31508000FA02A0D0A000D0A626567696E2075706C6FF6
S31508000FB061640D0A000000000D0A53657269616CD0
S31508000FC02075706C6F61642000000000636F6D709F
S31508000FD06C6574650D0A000061626F727465640D54
S31508000FE00A0000000D0A584D6F64656D20626C6F2B
S31508000FF0636B206572726F72203078000D0A646F19
S31508001000776E6C6F61642066696C65206572726FB5
S3150800101072203078000000000D0A6572726F722027
S3150800102030780000550A0008990A0008ED050008FE
S31508001030810E0008B70E0008000202024B4B464715
S30F08001040EE08000000000100FFFFA3
S7050800005B97
