:020000040800F2
:10000000000400205B000008710000087100000877
:10001000A70B0701000000000401A845002000080C
:1000200004050000390A0008510A000840130008BE
:1000300000000000000000000000000000000000C0
:1000400009480068202100EA010028B1074801683A
:1000500042685FEA010D10477047FFF7F1FF00F0BB
:100060000FF800F041F800002C00004000200008CC
:1000700002E05FEA000D70474FF4017001F0F2B842
:1000800038B54FF20F044A4D00F08CFB002804D025
:1000900040F2052028806C8031BD44480068C006CD
:1000A00013D56888A0421BD1288840F202218842DB
:1000B00016D040F20621884212D040F20111884247
:1000C0000ED040F2111188420AD0064C208A40F628
:1000D000A721884204D12068FFF7CBFF60688047E2
:1000E00031BD00BF0020000810B572B62548016878
:1000F0004908490001602448592101602B480068E3
:1001000010F0100000D0012008B1204905E020497E
:1001100003E04FF0CD3241F8042B1E4A9142F8D350
:100120001D491E4A1E4B03E051F8044B42F8044B94
:100130009A42F9D31B491C4A002301E041F8043BD1
:100140009142FBD31A494A884FF20F039A420AD1CF
:100150000A8840F205239A4206D020B1100A0128ED
:1001600002D0022800D00022124802804CF23C301B
:10017000488000F09FFB4FF40170BDE8104001F093
:1001800071B800BFFCED00E000800040940000204A
:100190000000002000040020581300080004002084
:1001A0000804002008040020980D00202C000040C6
:1001B00000000020880D0020C108032908D2C110CA
:1001C0008902044A012300F0070003FA00F05050AE
:1001D000704700BF14B00040C108032908D2C11005
:1001E0008902044A012300F0070003FA00F050508E
:1001F000704700BF10B00040C10803290BD2C110E6
:10020000054A02EB81210A68012300F0070003FA86
:1002100000F05040086070470CB0004030B583B02B
:10022000044610467F2800D10020B1F5004F19D1B7
:1002300008237F2240F6120100A8FFF7EFFF0822F3
:100240000D4900A800F07DF830B908237F2240F264
:10025000A27100A8FFF7E2FF082200A9204600F0E3
:1002600057F837BD1A46054D294300FB03112046B8
:1002700000F04EF837BD00BFEC1200080000040883
:100280000748012181604EF6BE21416002E0000076
:10029000024800BF01210160704700BF08600040B4
:1002A0000060004010B58208074B53F82220136805
:1002B00000F0030080000F248440A34301FA00F003
:1002C0001843106010BD00BFF41200080A0242EA91
:1002D000112148400106090F484080EA00304101E1
:1002E000C9B20206D20E41EA0221484080B27047EC
:1002F0000A0A4840C0B208214308C00746BF034865
:1003000058401846491EF7D1504070472083B8ED39
:1003100000E00000814210D21018401E5118491E02
:1003200092B26AB111F8013900F80139521EF7E7AB
:1003300011F8013B00F8013B521E92B2002AF7D19E
:10034000704710B500E0521E92B2002A03D000F0B0
:1003500004F8F8D007E0002010BD10F8013B11F8B8
:10036000014BA3427047181B40B210BDDFF8BC031D
:10037000002141718171DFF8B803016C490849001F
:100380000164016C21F400710164134910220A63B5
:1003900020220A6300224A650A664A668A650222AA
:1003A0004A65C54A0A608D324A60C24A0A618D3286
:1003B0004A61BF4A126812070AD5026C42F0010274
:1003C0000264026C4FF400731A43026401220A6350
:1003D0004FF6FF710160704700C0004038B5DFF88C
:1003E0004C03002181700121C17001710021017055
:1003F00009214170FFF7BAFF1C4848F2944101609F
:10040000082101611A484FF4005303601949002282
:100410000A65194A546824F4706444F40064546012
:100420004024146102240C60144C236040230B65AB
:10043000136823F4704343F4804313604FF4804304
:100440000360002048650E4803250560042008600D
:1004500023602020486504201061106820F470603B
:100460004FF480710843106031BD00BF00B0004000
:1004700080E100E014A8004000B4004080E200E009
:1004800014BC004058B189480168490605D588491F
:100490000968090701D50421C160002000E001209E
:1004A000A249C8707047A1490A7922B901220A718C
:1004B000087000204870704710B504460620FFF70A
:1004C0007BFE0948102101600620FFF785FE7A486F
:1004D0004078A72807BF774804700320FFF7E3FFA1
:1004E0000120BDE81040F1E030C000402DE9F041AE
:1004F00082B06E4D6E498D4C227922B10A68120786
:1005000001D50422EA60A27892B10420E86028684C
:100510004006FCD50420A8600020A070E07820B937
:10052000322000F087FE0420E8600020BDE8F6815C
:100530007F4E5D4FDFF87C8100283FD06079002836
:100540003CD00620FFF738FE207930B10020207122
:10055000022221464046FFF7DBFEE07808B1042086
:10056000A86098F80000052804D2A72088F80200A7
:10057000032010E0FE2801D0FD2808D198F80100E2
:100580004044A721817098F80100C01C03E0A72017
:1005900088F801000220A071A0794044401E386014
:1005A000012030600420F861306C40F001003064BC
:1005B0000420E8600620FFF70FFEB6E74FF4007056
:1005C000BA69D20713D40968090710D500F076F884
:1005D00000F074F8012131603060316C41F00101AC
:1005E0003164316C0246114331640121F961F968CB
:1005F00011B93168890598D5012161710421A9607B
:100600002D4D3168890501D530601FE0F86802285A
:100610008BD328780A2806D00B2808D0FD2808D0CC
:10062000FE2806D081E78220FFF746FF7DE7C12044
:10063000FAE76878862805D3FFF798FE0120FFF7D0
:1006400032FF72E7F968C01C8142FAD30620FFF737
:10065000B3FD306C400840003064306C20F4007012
:1006600030641020F8610620FFF7B6FD207918B13C
:10067000012000F02BF858E7687840198078A72807
:1006800003D00320FFF70FFFF2E72878FE2806D1FA
:100690000420FFF708FF012000F018F845E7FD20CF
:1006A00088F80000012041E714C0004008B4004071
:1006B00008B000409804002008040020B96A8DF8B2
:1006C0000010B96A8DF800107047000070B504463C
:1006D000164D144E16480168C90703D50421316030
:1006E000012169718168890703D502218160012197
:1006F000A9708168490710D50421816031600A48DA
:100700000068A979884202D00220FFF7CCFEFFF7EB
:100710002DFEE87808B9042070602046BDE87040DE
:10072000E4E600BF10B4004028C000408A0D00205D
:100730000CA80040FFF752BE10B5044600F012F8B6
:1007400000280AD015488178054A891889782170CF
:100750008178491C8170002010BD012010BD00BFB0
:100760000804002010B50D4C2078002813D1FFF7A5
:10077000ADFF002810D06078002808D00020FFF7D7
:1007800081FE0120FFF7A2FF0020607010BD012054
:1007900020700020A070012010BD0000940D0020EA
:1007A0007047000010B5002408210E20FFF77AFDE5
:1007B0000A48402181600A2100BF491EFCD1002166
:1007C0000268520601D4012402E0491CC829F7D36B
:1007D00004210E20FFF766FD204610BD08B400403E
:1007E00080B5FFF74DFD01210620FFF75BFD0620D8
:1007F000FFF7F2FC01210720FFF754FD0720FFF768
:10080000DBFC0348016821F01001016001BD00BF5D
:1008100000BC004010B5052821D8DFE800F0032017
:1008200008151D030620BDE81040FFF7C5BC0C4CA1
:100830002088411E2180002811D10720FFF7DCFC11
:1008400042F21070208010BD0720FFF7C5FC062083
:10085000BDE81040FFF7D0BC0620FFF7BDFC10BD7F
:10086000920D00200078704730B5CFB00446214685
:100870002AA800F077FA002000904FF402630B4A98
:100880002AA901A800F0D8F8094A01A902F10C0030
:1008900000F0DEF80546FFF7FBFC1DB121462846B7
:1008A00000F0ACFA28464FB030BD00BF680500200C
:1008B0003413000880B500F04DFCFFF791FFFFF7FF
:1008C00039FFFFF7E5FCFFF76BFF0020FFF7A2FF02
:1008D00007E01A2000F096FB01220021522000F0D0
:1008E00025F8FFF7D5FC0220FFF794FF00A8FFF7DB
:1008F00023FF0028F5D19DF800005128E9D00A48CF
:10090000002101700120FFF7AFFF20B90520FFF79C
:1009100081FF012000E00420FFF77CFF40F201206E
:1009200000F0A0FC002002BD960D00202DE9F04152
:1009300004460F461546284EDFF8A0801D2241468A
:100940003046FFF7E5FC0A2206F13401301DFFF7BF
:10095000DFFC08237F222248018806F10E00FFF702
:100960005DFCB476522C1BD135203070062208F184
:10097000200106F12E00FFF7CBFC0120F0760223C8
:100980007F221848018806F11C00FFF747FC10235E
:100990007F221548018806F11E00FFF73FFC02E0A8
:1009A0001D203070F776012D13D13078A0F11B0493
:1009B000E4B20120FFF766FD0C48FD210170447090
:1009C000224606F11A01801CFFF7A2FC084801210B
:1009D0000170BDE8F08100BF280500200C1300085D
:1009E0005613000852130008501300089804002002
:1009F000950D002038B50D46144605E0014615F862
:100A0000010BFFF775FC641EA4B2002CF6D132BDB9
:100A1000F8B507460E4615461C462246294630685C
:100A20003B689847070005D122462946F068FFF742
:100A3000E1FFF0603846F2BD10B5029C847203817C
:100A4000426001604FF0FF31C1600021017410BDB0
:100A50002DE9F54F83B00E467468B6F808A006F28B
:100A60001400009000F110075046C00704D4BAF1FA
:100A7000800FDFF8C89201DA4F2082E000F06CF9B5
:100A80000100FAD12078617801EB00201FFA80FB89
:100A9000A078E17801EB0025ADB2E80701D546204A
:100AA0006FE0B5F5026F01DD4E206AE0002DE5D064
:100AB0005FEA0B000AD04FF60441BBEB010000F0E7
:100AC000B280FF3860D0FE385ED034E1307C08B1AF
:100AD000452056E0912DCFD22B460098021D31467D
:100AE0000398FFF795FF01004BD100F02BF9019817
:100AF0000C308542ECD10098808800F0DFFB00F4D8
:100B00007F404FF400718842E2D10098C08800F025
:100B1000D5FB4EF250318842DAD1388A40F6A7210F
:100B20008842D5D1788A00F47F404FF480718842A2
:100B3000CED100F00DF9D9F81C108842C8D14FF67B
:100B4000FF703882019A92B2009800F110014FF0C4
:100B5000FF30FFF74FFF05460098C06800F0B8FB74
:100B6000C0438542B4D1387E0428B1D1787E0528AF
:100B700001D00628ACD101203074B07A002896D07C
:100B8000502005B0BDE8F08F307C08B94120F8E76F
:100B900000F0E2F80100F4D120786178090441EA1C
:100BA0000060A17840EA0120E17841EA00082D1FA9
:100BB000ADB2D9F81C00804501D24820E1E705EB31
:100BC0000800796D884201D34920DAE74FF60350D7
:100BD00083450DD1049858B141460220049A126809
:100BE000904728B14A20CCE7A5EB0B05ADB2D8441D
:100BF000002DC2D0AB46554500DDD3461FFA8BF31E
:100C000000F0ABF80100BCD104980028ECD00BEB4D
:100C1000DB70421021464046049B5B6898470028E1
:100C2000E2D04B20ADE7307C0028AFD0042D01D0BE
:100C30004C20A6E700F090F80028A2D100F082F83E
:100C4000F0683F49884234D1049800286BD084680A
:100C50004FF0FF3A002502E06D1C062D24DA07EB69
:100C60004500029090F8488016E0FFF711FB4FEA2C
:100C7000C82040F0006B4FF400695846A047514629
:100C8000FFF736FB82460BF1010BB9F10109F4D1F4
:100C900008F101005FFA80F8029890F84900404599
:100CA000DADBB8F1FF0FE0D1786C6FEA0A01884215
:100CB00001D0432065E700F04BF801994A08394616
:100CC000049B5B689847F0B90098C06800F000FB8F
:100CD000044600F03DF8019D80464FF0FF3904982E
:100CE000D0F808B008E04046D8474946FFF700FB77
:100CF00081466D1E08F10108ADB2002DF3D16FEAF7
:100D00000900844201D042203BE740F6A720388208
:100D100000F01EF8012207F110011030049B5B68FF
:100D200098470028EFD13068039949688847172809
:100D300000D1002025E7442023E700BF0000000881
:100D4000E320BBDEF87E802800D38020019070472E
:100D50000098806800F0BCBA04232246314603980C
:100D600056E60000017001224270827001290CBF1A
:100D70008021402181800021C18001811E480160C5
:100D80000E218162016821F01001016000214163A0
:100D900041627047F8B506460C46154615484FF0B7
:100DA000FF310160144FFD6200207862386840F026
:100DB00001003860FFF76CFA012E19D16CB9FFF70A
:100DC000D1FC78B9786AA842F4D3002DF2D0386803
:100DD0004008400038601620F2BD2046FFF7ACFC0A
:100DE0000028EFD138684008400038600020F2BD8C
:100DF0000120F2BD00A8004000E0004080B50A4696
:100E000001461820FFF792FD0120FFF73BFBBDE8EC
:100E10000140FBE038B50446002020814AF6B43298
:100E200000A92078FFF7B6FF002801D01C2032BDB2
:100E30009DF80000032801D1182032BD1828FBD0EE
:100E4000042801D1172032BD012801D0212032BD54
:100E5000002501E06D1CEDB2A088001D85420BDA73
:100E600040F2DD22281900F10A012078FFF792FFF5
:100E70000028EFD0262032BD0025002006E00146E4
:100E80002819007BFFF722FA6D1CEDB2A1888D4274
:100E9000F5DBA17AE27A511889B2FF2901D022202C
:100EA00032BDA1880919097B0212D2B2914201D048
:100EB000232032BDA1880919497BC0B2814201D0EB
:100EC000242032BDA07AA178884207D0491EC9B239
:100ED000884201D1272032BD252032BDA088801C48
:100EE00020810220E080002032BD38B504466078C1
:100EF000012804D0022821D0032827D028E002208E
:100F000060702046FFF786FF05462078012802D151
:100F1000284600F077F80DB1FFF742FC272D19D1D4
:100F20002278A078411EC9B20620FFF7FFFC002DF1
:100F3000E7D10320FFF76EFC002032BDFFF730FC45
:100F400000F048F8A078401CA070DAE7172032BD06
:100F5000182032BDA80603D52278A1781520E4E731
:100F6000680603D4182D01D01C2D07D121782846FE
:100F7000FFF744FF04206070284632BD172DD6D1FC
:100F800000F028F803206070E0E7F8B506460C464C
:100F90001546002706E0F088411CF1808019807A10
:100FA00038557F1CAF4209DAF08831898842F2D384
:100FB0003046FFF79AFF0100EDD0F2BD0020F2BDF0
:100FC00010B50446FFF791FF00F004F800F01EF89A
:100FD000172010BD2278A1780620FFF7A7BC0000DB
:100FE00080B50649FD220A7001224A7088700120EE
:100FF000FFF76CFB02480021017001BD980400203E
:10100000940D002000B91920EAE7000010B582B065
:101010000B4C207860B10020FFF758FB0028F8D077
:101020000020FFF72FFA0120FFF750FB002020706F
:1010300040F2DD2200A90120FFF7ACFE13BD00BF86
:10104000950D00200648016841F001010160012171
:101050004160024851210160704700BF008000409C
:101060001C400040F8B5394C454D4FF6FF77454ED2
:10107000B088B84229D102237F2233480188301D2D
:10108000FFF7CCF8B088B84201D10220B080A06947
:10109000800703D4A06940F00200A06101203070F5
:1010A000B08820600720286000206860A860284879
:1010B0004FF000710160A069C00732D5E0690028D7
:1010C0002FD048F69F4068600AE0A0698007E1D50C
:1010D0002868C00301D500F047F83078002801D017
:1010E0000020F2BDA06810F00100A168B28803D111
:1010F0000F2A08D2521C06E0890704D5B17811B135
:10110000032A00D3521EB07092B2022A00D20222E9
:10111000B2802068B1888842C0D1FFF793FF0120D8
:10112000F2BDA069C00705D5E069002802D144F2EC
:101130004F60C8E7A069C00702D4E0690028F6D173
:1011400042F22730BFE700BF5413000804400040BC
:1011500004ED00E080B5FFF785FF00B101BD40F26E
:10116000DC5000F067F8F6E7054800214160816037
:10117000016821F0020101600248002101707047FE
:1011800010E000E0000400202848018A40F6A77221
:10119000914209D1418A4FF47F40014204D1022992
:1011A0008041C043C00F704700207047F8B5054626
:1011B0000C460E4E01203070FFF7E6FF18B94FF4D1
:1011C000017000F04FF81948876A21464FF480708B
:1011D0002843B84700213170154E20B921464FF4FD
:1011E00000702843B847805DF2BD0000970D0020D5
:1011F0002DE9F04180460C465500FFF7C5FF18B9B0
:101200004FF4017000F02EF80848466A00232A4681
:1012100021464046B047064F20B92B4600222146C2
:101220004046B047C05DBDE8F08100000000040802
:101230004813000809490A68094B1B68DB0700D4FA
:101240004008032809D34B6D43F001034B650B683D
:101250009B1A1B031B0B8342F9D3704738200040B5
:101260001C4000400D4930220A600D490A600D49BA
:101270000A600D4910220A60010A00D100020E49DD
:1012800008804FF20F004880BFF35F8F07480021AE
:101290000160416006480749016070473020004006
:1012A00030C8004030C0004010D000401C4000401A
:1012B0000CED00E00400FA050000002001B49DF8E8
:1012C00000009DF8011001EB002080B201B07047D2
:1012D00011B581B0BDF80400FFF7F0FF0446BDF87A
:1012E0000600FFF7EBFF40EA044016BDFFFFFFFFDB
:1012F000FFFFFFFF00B0004004B0004000B400401A
:1013000004B4004000B8004004B800400063CC00C2
:10131000FFFF0000000000000000FFFFFFFFFFFFD5
:10132000FFFF7C656D010000000000000004050067
:1013300045A80000AD110008F1110008650800087B
:101340008B0F0008C10F0008000202024B4B4647FA
:101350002A083A08EE08008000000100FFFFFFFFA6
:10136000FFFFFFFFFFFFFFFFFFFFFFFFFFFFFFFF8D
:10137000FFFFFFFFFFFFFFFFFFFFFFFFFFFFFFFF7D
:10138000FFFFFFFFFFFFFFFFFFFFFFFFFFFFFFFF6D
:10139000FFFFFFFFFFFFFFFFFFFFFFFFFFFFFFFF5D
:1020000058070020395F0008C94E0008CB4E000871
:10201000A70A0401002100080405039CA84500004C
:10202000BD9C034E00000000000000000000000006
:1020300000000000000000000000000000000000A0
:1020400000000000EB4060E7042FFFFFFFFFFFFFF1
:10205000FFFFFFFF00E00108FFFFFFFFFFFFFFFFA3
:10206000FFFFFFFFFFFFFFFFFFFFFFFFFFFFFFFF80
:10207000FFFFFFFFFFFFFFFFFFFFFFFFFFFFFFFF70
:10208000E02F002000000000C42700205D0F00208A
:1020900058070020F07901080A700108FFFFFFFFD0
:1020A000FFFFFFFFFFFFFFFFFFFFFFFFFFFFFFFF40
:1020B000FFFFFFFFFFFFFFFFFFFFFFFFFFFFFFFF30
:1020C000FFFFFFFFFFFFFFFFFFFFFFFFFFFFFFFF20
:1020D000FFFFFFFFFFFFFFFFFFFFFFFFFFFFFFFF10
:1020E000FFFFFFFFFFFFFFFFFFFFFFFFFFFFFFFF00
:1020F000FFFFFFFFFFFFFFFFFFFFFFFFFFFFFFFFF0
:1021000058070020395F0008C94E0008CB4E000870
:10211000CF4E0008CD4E0008D14E00089C5000085C
:102120009C5000089C5000089C5000089C500008DF
:10213000D34E00089C500008FD210108791F0108BA
:102140009C5000089C500008950F01089C50000806
:102150002DA000089C500008E55D00089C50000878
:10216000718300087DF70008DD520108354A000838
:102170009C5000088D5E00089D5E00089C50000881
:10218000055D01082DE9F047044694F800A0834D51
:10219000204E30782A7890420CBF0127002721700A
:1021A00000F03CF85FEA0009DFF86C8009D084F8A1
:1021B00000A000F033F820B107B54F21404602F0EF
:1021C0007BFD75487749D1F880100A1A47B192B261
:1021D000002102F011FC05F03BFF287830700FE081
:1021E0006F490B68D11A421892B20021184602F0CA
:1021F00003FCAC4204D107B55B21404602F05CFD14
:1022000004F0E4FA03F04AFF04F014FB4846BDE88A
:10221000F08700BF6F0900200C70010870B55E48A0
:102220003E4908605D490A78510109183C4B196024
:1022300051183C4B196051183B4B196051183B4BDE
:10224000196053183A494B60D418554A1460394AFA
:1022500013781A46551C6D042D0C2C19364D2C6024
:1022600055002C19354D2C601C19354D2C60354D01
:102270002D786B431B19344C2360344C2478E418BC
:10228000334B1C600623334D2D785D432C19324DA2
:102290002C60324D2D78ED002C19314D2C60314DD4
:1022A0002D78AD002C19304D2C60304D2D780E2638
:1022B0006E4334192E4E346052199204120C1219C6
:1022C0002C4C22602C4C24786500AA182B4D2A60D7
:1022D000A2182B4C22602B4C24780C256C43A2189E
:1022E000294C2260294C247863439A18284B1A60A1
:1022F000284B1B789B009A188A60097889008918F6
:10230000284AD2F88020121A12188A4201D3814238
:1023100001D2352070BD002070BD00BF60070020D5
:1023200064070020680700206C0700207007002069
:10233000A009002071090020780700207C070020F8
:1023400080070020370F002084070020380F00206E
:1023500088070020720900208C07002073090020E4
:1023600090070020740900209407002075090020C0
:10237000980700209C070020390F0020A0070020AC
:10238000A407002076090020A80700207709002074
:10239000AC0700203B0F0020600F00206E090020DA
:1023A000740700200020000810B5144CFFF736FF1A
:1023B00020B107B53421204602F07EFC02F094FEE5
:1023C00005F01EFF03F0B0FD012300220A210020CA
:1023D00003F084FD07F0A2FB20B107B53F212046A2
:1023E00002F06AFC012005F08DFB0549087002F03F
:1023F000B3F900F007F8002010BD00BF20700108FD
:102400002E0900202DE9F04182B0334C334DDFF826
:10241000D080344F1FE0022808D102F0B9F928B16A
:1024200006F069F810B14FF0FF30009007F03AFC69
:1024300002F07DFE00A807F089FE02F097FE07F08B
:1024400045FC02F0A5F900B9387000212088203041
:1024500080B201F0BFF902F0F3FE7878FF2807D0D0
:1024600002F094F920B1787802F0E0FBFF20787058
:1024700007F096FB08F1200007F01BFD404607F02F
:1024800018FD02F095F908B100F02EF8387803280D
:10249000DBD005F0A7FE06F0B9F90146404607F08B
:1024A000EEFC009007F0D0FB064602F071F938B15F
:1024B00016F0030004D12878042804D3700702D54D
:1024C0000020009004E0009810B138780028A2D1D4
:1024D00000A807F0B2FDB4E732090020320800205E
:1024E00028700108600900202DE9F04F9DB00025FB
:1024F00002F074F902F087F9044600F03BFF4178DE
:10250000877801F003020492B846DFF88C2D037837
:10251000137000F20302DFF8843D1A6000F203003A
:10252000DFF87C2D1060080603D54FF058083220E4
:10253000D1E2DFF8640D407820B91FB14FF05808A0
:102540003020C8E201F070FD002840F08E86DFF8F0
:10255000480D4078DFF84CBDDFF84C6D4FF00C0AA9
:10256000DFF8489DAB2F00F27B86DFE817F0AC0068
:10257000D6049F017906790682028D0279067906D2
:1025800096029602B50279067906BD0279067906A9
:102590007906FB0279061106E404EA04D604D6049F
:1025A0007906210379067906D604EF04F604D604E9
:1025B00001050B057906790679062E0321053403FA
:1025C0003703D60459035A055903D6046E0573051B
:1025D00079067906860389037906890379068903D2
:1025E000E20379067906790679067906790679068D
:1025F0007D050A0479067906790679067906790651
:10260000B8024403790679067906E102790679066B
:102610007906C600FA007906B401B4017906790694
:1026200079062804D60486058F0599059F05B3050C
:10263000B90579064E0463041503FB057906C10547
:10264000D505810479067906790679068504790627
:102650008104DF0517061D06F20507062206790626
:102660002405D6043C0579067906A405AD0579064E
:1026700082024B049204D604D604D604D604D604AF
:10268000A0046B06D6047006D6047906A304B7042A
:10269000C80479067906B104D60479047906790666
:1026A0005405D60479061005790679062B067906B5
:1026B0003C0659064906280641068F047906880417
:1026C0008804DE01160201F049FF0546042001F0EE
:1026D0004BFF022001F048FF44F2A85001F050FFE8
:1026E000DFF8B40B4078002800D1042D40F0BD8500
:1026F000DFF8A40B01214170CEE101F02FFF00248F
:10270000052807D1DFF8A80B0078DFF8A81B0978A7
:10271000441A20E0182805D1DFF89C0B0078D0B9C6
:10272000012418E0122801D1348814E01F2802D1B6
:10273000BBF800400FE0002101E0491CC9B211F8CC
:102740000920FF2A01D1372505E09042F5D109EB98
:102750008100C06B047800F013FFA0B201F010FFFD
:102760009AE1012801D038259EE001F0F7FE0446E9
:1027700001F00DFF0746012C10D0052C35D0122C8E
:1027800062D0172C4DD0182C54D0192C2DD01F2CC2
:1027900057D0242C5ED0292CE5D060E0DFF8900BD8
:1027A00000880028DFD1DFF8146B307805F011FACB
:1027B00001F0DCFF78B1F9B2DFF8040BFFF7E2FCBF
:1027C000054601F0E1FF00F0D5FD00F20300DFF85F
:1027D000D01A086000E03825012005F093F9307028
:1027E000DFF8E00A002101805EE0DFF8C80A067821
:1027F000DFF8BC0A0078801B5FFA80F9F8B2052C7C
:102800000CBF8146064606EB0901C9B2DFF8A00AF3
:10281000FFF7B8FC050047D13146484601F060FE9D
:1028200042E009F051F818B9DFF86C0AC7703BE0D4
:10283000362539E0781E8041C00FDFF87C1A087019
:1028400032E0ABF800702FE047F231508742EFDA08
:10285000378029E00B2FEBDADFF86C0A23E0002148
:1028600001E0491CC9B211F80900FF2801D1372540
:102870001AE08442F5D1062905DA01EB090090F847
:102880002000B842D4DB2B2CD2D009EB8100C06BE6
:102890000C2908DAF9B2FFF775FC050004D1112CF8
:1028A00002D1DFF8280A0770284614E101287FF4D6
:1028B0005AAFE11EC9B2032001F0A0FF0646FF2E69
:1028C00001D13525F0E701F087FA00B93625304609
:1028D00005F07FF9E8E701F041FE064609EB8600C6
:1028E000D0F8B49099F80040072E01DB372500247A
:1028F00000F046FE562F0AD1052E02D144F05004B6
:1029000003E0062E01D144F06004E0B2E3E0002DC4
:1029100040F0AB8401F022FE052E01D0062E01D13D
:1029200000F00F0089F80000B6E001F017FE012862
:1029300008D002280ED0032815D007281AD008285E
:102940001FD025E000F0FEFD00F0F8FCDFF8800964
:102950000078C0E000F0F6FD022001F005FEDFF88F
:1029600074090088FAE600F0EDFD00F0E7FCDFF8FE
:102970006809EDE700F0E6FD00F0E0FC0EF0DCF9A0
:10298000A9E000F0DFFD00F0D9FC05F0E3FFA2E0D4
:10299000372001F0E9FD00209DE001F0DFFD054654
:1029A000082864D8DFE800F0052D3763434848560F
:1029B000600001F0D3FD102821D101F0E8FDADF851
:1029C000000001F0CBFD8DF8020001F0C7FD8DF88D
:1029D000030001F0C3FD8DF8040001F0BFFD8DF888
:1029E000050001F0D4FDADF8060002A900F0B1FE2B
:1029F000102300AA7F21072003F004F8CBE736203C
:102A000069E001F0ABFD0128F9D101F0A7FDDFF885
:102A1000C0180870BFE701F0A1FD022805D101F040
:102A2000B6FDDFF8B0180880B5E7362053E001F0B6
:102A300095FD0128E3D1AEE701F090FD0228F4D125
:102A400001F0A5FD052D0CBFDFF89018DFF89018F8
:102A50000880A0E701F082FD10B10EF03EF901E020
:102A60000EF04CF901F080FD362001F07DFD37209D
:102A700031E0042C10DBDFF8280800682018C01EA5
:102A8000DFF81C18086007E0012000F079FC00283E
:102A900040F0FE834FF00708E7E301F05FFD0546D5
:102AA000082D17DA092F08D100F052FE082300AADA
:102AB0002946102002F0A6FF6DE708232A461021C0
:102AC00000A802F073FF00F03DFD00A9082001F00E
:102AD00079FDCAE37020C6E300F0CAFCC5E300F04C
:102AE00031FD01F037FF39E601F038FD074601F00E
:102AF0004EFD00F03CFC064601F030FD8146DFF85B
:102B0000E4070AFB0704B5F5004FE3DA042EE1DA27
:102B1000022F0BDA32462946204601F041FA258180
:102B2000B9F1000F00D10026A67234E770209AE3B5
:102B300001F014FDADF802508DF80050DFF8A41735
:102B40000AFB0016022808DA00AA0DF1020130463D
:102B500001F038FAB07A00B1012500F0F2FB00F084
:102B6000EDFCA1E601F0FAFC064600F006FD054684
:102B7000FF2D01D1182076E3002E14BF4FF6FF7011
:102B800002202A46D4A107F0E7FB002001F0ECFC6C
:102B9000284605F01EF868E3DFF84C6736F81500A4
:102BA00001F0EEFC6D1C1E2DF8DB03F0BDF95CE3BB
:102BB00001F0D4FC064601F0FDFC00F0D8FB024613
:102BC000294630460DF054FE4DE3DFF8201708206B
:102BD00001F0F8FC49E300F039FD46E3DFF81007A7
:102BE000007801F0C1FCDFF80C17082001F0EAFCC6
:102BF000DFF80407B5E601F0B1FC054607F03DFE3D
:102C0000064600AA01A9284607F045FE01F0ACFCE3
:102C1000304601F0B5FC00F08DFB9DF8000022E38A
:102C200001F09CFC054601F03FFA08B1752622E050
:102C30002B2F18D101F092FC8DF8000001F08EFCD2
:102C40008DF8010001F0A3FCADF8020001F086FC54
:102C50008DF804000DF1050100F07BFD00A9284668
:102C600003F083FC02E0284603F0C6FC064616B9D2
:102C7000284601F035FA3046F5E209F0F0FEF2E2BE
:102C8000342F03D101F06AFC009001E0362F02D10D
:102C900001F07DFC054601A801F0D7FC362F01D0DC
:102CA000382F02D101F05AFC8146382F02D101F0B1
:102CB00055FC044601F052FC834600F05EFC0646DB
:102CC000FF2E03D1182001F04FFC64E6342F04D00E
:102CD000362F0DD0382F13D01AE0334601AA2946DB
:102CE0000098C0B209F08AFC824601F0C8FA0FE0F1
:102CF00033465FFA89F201A9284609F0CBFC06E0C9
:102D0000334622465FFA89F101A809F0CFFC8246DA
:102D1000504601F029FC9DF80E0001F025FCBAF1A7
:102D2000000F04D1DFF8D405006806F800B0304683
:102D30002FE701F02CFCDFF8C815088000A801F08F
:102D400084FCBDF80600410605D5DFF84C158978EE
:102D5000202902D100047FF5BDAEDFF8A85500A8F8
:102D6000286000F00AFC0646FF2E4AD0314628684B
:102D7000408809F07FFE054601F081FA00F000FC72
:102D8000D5E7DFF8845501F002FC2880DFF87C6588
:102D900001F0E4FB307001F0E1FBDFF8741508701E
:102DA0002988B1F5004F01D23278042ABFF492AEDF
:102DB000DFF8600501F0F4F804F036FB53E201F0AF
:102DC000E6FB0546012001F067FB0646FF2E13D007
:102DD000DFF844050068345CA11CC9B2304605F038
:102DE00048F828B92A462146304605F054F903E050
:102DF000304604F0EEFEFF26304601F039FAFF2E91
:102E00002DD1B7E600F06DFC2FE201F0A7FB00F03A
:102E1000A1FA13DA00F096FBDFF80005006830F83D
:102E2000250001F0ADFBDFF8F404006800EB85003D
:102E3000807818E201F092FB00F08CFABFF64AAEFF
:102E400001F0A5FBDFF8D414096821F8250001F092
:102E500085FBDFF8C814096801EB850188709AE5E5
:102E600000F08BFB0546FF2DCBD005F07DFB8DE6FA
:102E7000384600F088FBF8E100F0B1FBF5E1A82F3F
:102E80000CBF0120002000F067FCEEE100F05DFBCC
:102E9000EBE101F063FBDFF80014497801297FF4CE
:102EA00019AE08B1DFF878040DF050FFDBE100F057
:102EB000D1FADAE1012501F0EBFE4FF6FF7188420D
:102EC00005D0002501F04AFBDFF858140870EBE448
:102ED00000F0A4FBC9E100BF6200000001F03EFB6E
:102EE00000F052FC00F049FB0646FF2E89D0324626
:102EF00000A928460DF03AFC01F036FB17E701F077
:102F0000C7FE01F03DFB042001F02EFB052001F07F
:102F10002BFB0320A7E16D1CEDB205EB090090F837
:102F20002800B842F7D101F019FB09EB8501D1F86F
:102F3000D010884797E101F02AFBDFF8EC130880F6
:102F400093E101F024FBDFF8E413F8E705A801F0B2
:102F50005DFB05A805F07FFD85E101F0FFFA054660
:102F600005A801F053FB05A9284605F0E1FD7AE12B
:102F700001F0F4FA054601F01DFB0146284605F074
:102F8000ADFE70E101F0EAFA05F0A2FD6BE101F09F
:102F9000FEFA044601F00EFB00F0E9F9064601F0E6
:102FA000F6FA03463246294620460AF001FF5AE166
:102FB0000CF070FE97E501F0D1FA00A90CF06DFA63
:102FC00001F0D2FA00F007FB00F0B4FA9DF803001C
:102FD00001F0CAFA00F0B9F99DF8050001F0C4FA51
:102FE0000DF1060172E501F0B9FA00A90DF090F8B3
:102FF00001F0BAFA00F0EFFA00F0A3F900F0A5F939
:103000009DF8050001F0B0FA9DF8060001F0ACFA59
:103010009DF8070027E101F0A1FA40B208F01AFE7E
:1030200021E101F09BFA00A903F094FA01F09CFA67
:1030300000F084FA9DF8010001F096FA00F081F9A1
:1030400000F083F90DF1050140E501F087FA03F086
:1030500065FA48E501F082FA054601F098FA014662
:10306000284603F060FA00E101F091FA00F07FF9E0
:103070000146284603F05AFDF5E001F06FFA00F032
:1030800083FB00A9284603F013F8ECE001F066FA90
:10309000054601F07CFA0146284603F038F8E4E0E2
:1030A00001F05CFA00A903F03DF80EE501F056FAD4
:1030B00003F046F817E500F04BFB01F04FFA01462C
:1030C00000A803F055F9D0E000F042FB00A803F09F
:1030D0002BF9C8E000F03CFB00A806F02BFE02E54F
:1030E00001F055FA00A906F037FE01F03DFAECE4D4
:1030F00001F04DFAADF814000DF1160100F09FFA41
:103100000DF1260100F09BFA01F028FA8DF8360047
:1031100005A80AF00DFFA6E000A80AF070FF01F074
:1031200023FA00F058FA0DF10201CFE401F016FA8B
:10313000064601A900F00DFB01F010FA00F012F9AB
:1031400005A800902B4601AA3146002009F0F8FDA1
:1031500089E000F0FDFA01F001FA014600A809F04B
:10316000B5FD80E000F0F4FA01F0F8F900F0FAF8AB
:1031700005AA294600A809F090FD74E001F0EEF9D7
:10318000009500232A460146012009F0D9FD6AE096
:1031900000F0DEFA00A80BF035FE64E000F052FA11
:1031A00000A808F07FFE5EE04FF6FF7008F0E6FE34
:1031B00059E000F047FA00A80AF08EFA53E013F045
:1031C00094FE50E001F0CAF905460BA9302001F049
:1031D0000DFA05A9162001F009FA05AA0BA928463F
:1031E00013F085FE3FE001F0B9F913F082FE3AE0FA
:1031F00005A813F083FE01F0B7F905A9302066E4B5
:1032000000F020FA10A9302001F0F0F905A92A20D9
:1032100001F0ECF905AA10A900A813F075FE22E050
:103220000BA9162001F0E2F911A9302001F0DEF916
:1032300005A9152001F0DAF905AA11A90BA813F0C8
:103240005BFE10E001F08AF90DF058FE0BE001F092
:103250009EF900F08CF841B228460DF059FE02E0CC
:103260004FF05808312001F07FF900F083F80A4947
:103270000978017000F07EF880F80280B8F1070F3D
:103280000CBF0122002201210498C0B200F094F882
:103290001DB0BDE8F08F00BF63090020D0090020F9
:1032A000D40900203409002036090020607001088C
:1032B00076090020330F0020700900202E0900201D
:1032C0006E09002030090020400F00207C090020FA
:1032D00054090020560900206F09002046090020EB
:1032E00048090020B8090020A80B0020180C002075
:1032F0003C0900204408002040080020A4090020C8
:103300000E0C0020100C0020AE090020AC0900209B
:10331000310F0020B0090020640700209007002032
:10332000CF3C000861090020420900204409002028
:103330003209002001A9082001F044B9012001F060
:1033400013B9BDF8020001F01BB99DF8040001F0AB
:103350000BB900000546024800788542704700BF5F
:1033600074090020054605A9102001F03FB9054663
:1033700001F0F4B801480068704700BFD809002088
:1033800038B504460A4D2888002801D1002032BDF6
:1033900001F044FA0028F9D0288808B901F02CFA85
:1033A000012221460348007800F006F8012032BDD2
:1033B00032090020600900202DE9F04106460C4644
:1033C000904680251D4F1E4800683968401A80B21B
:1033D000812804DB802001F01AFA822502E0C0B2C5
:1033E00001F015FA1748017819B145F002050021DE
:1033F00001701548017821B145F00101CDB20021DD
:1034000001701248018811B145F00401CDB2B8F144
:10341000000F03D014B145F00801CDB239684D70EA
:10342000012E01D0022E02D1008800B100260848EA
:1034300006702046BDE8F04101F0C6B9D809002069
:10344000D4090020300F00202F090020320900206D
:103450006009002000B5A1B000A801F009FA002120
:1034600000A80DF019FD01F07FF821B000BD0000AB
:1034700030B599B001F072F80446062C12D128201C
:1034800001F072F800240223E2B22848018801A862
:1034900002F08CFABDF8040001F072F8641C142CE0
:1034A00042DAF0E7082C19D1402001F05DF8002441
:1034B0000423E2B20B2100A802F078FA00F03EF8F3
:1034C0009DF8010001F050F800F034F89DF8030079
:1034D00001F04AF8641C102C26DAE9E70B2C02D123
:1034E00000F030F820E00020114902E0401C0928DB
:1034F000F6D201EBC0052A789442F7D1687801F042
:1035000033F86B7800226868018802A802F04EFA4E
:10351000092C05D1152200210DF14E0001F06CFAA5
:1035200002A9687801F04EF819B030BD9E77010805
:10353000787101089DF8020001F016B89DF80000AE
:1035400001F012B8002001F00FB830B58BB02A227C
:10355000FF2100A801F050FA00F00FF80446FF2CFC
:1035600001D1182505E013F0CBFC0546204604F0F8
:1035700030FB00F005F80BB030BD002000F08CBF30
:10358000284600F0F1BF10B58AB0044600F0E6FF0F
:103590006A2C00A902D10BF057FA01E009F036FBC2
:1035A00000F0E2FF00F017F8FFF7C4FF0DF1030190
:1035B000102001F007F8059800F0F3FF069800F0DE
:1035C000F0FF9DF81C0000F0CFFF0DF11D01FFF78B
:1035D000B2FE0AB010BDBDF8000000F0D1BF30B59A
:1035E000A1B000A801F054F800F0B8FF044600F0C4
:1035F000B5FF054605A900F0F9FF002C05AA2946EC
:1036000000A802D013F014FC01E013F0F5FB00F069
:10361000ABFF00A801F032F821B030BD00B589B091
:1036200000F010F804A900F00AF804A900A806F0B8
:10363000F1FD00A9102000F0C5FF09B000BD102069
:1036400000F0D4BF00A9102000F0D0BF00B58BB0AF
:1036500000208DF8000000A806F01CFA00F084FF9E
:10366000FFF76CFF10237F22072107A802F09EF9C5
:10367000082209A901A801F07DF9BDF81C00ADF8E8
:103680000C009DF81E008DF80E009DF81F008DF8AF
:103690000F0000208DF8100006A905A807F0DBFA3E
:1036A000ADF81200FFF746FEBDF80C0000F068FF11
:1036B0009DF80E0000F058FF9DF80F0000F054FF39
:1036C0009DF8100000F050FFBDF8120000F058FF08
:1036D0009DF8140000F048FF069800F062FF0BB060
:1036E00000BD2DE9F04385B000F038FF044600A985
:1036F00002F018FD204602F023FD054600A802F066
:1037000013FE064602A900F024F800F040FF8146AF
:1037100000F024FF804602A9204602F0C9FC0746BB
:103720003FB94946204602F0F2FC414602A802F0A9
:103730001FFE384600F018FF00A9FFF7FCFD2846E1
:1037400000F01EFF304600F00FFF05B0BDE8F0832B
:1037500000A9082000F04ABF30B587B0044600F049
:1037600016FF00F011F802A9FFF769FF002C02AA6A
:1037700000A9284602D008F053FB01E008F09CFBAA
:1037800000F0F2FE07B030BD054600A9082000F0A9
:103790002DBF000070B582B0044600F0CDFA255C64
:1037A000DFF86C6530788DF800007088411E89B2B2
:1037B00000A804F099FB9DF80010054A12688C548B
:1037C00005B9202571881F31081A2818708073BD2B
:1037D0006C07002038B50446DFF83455688809B115
:1037E000A04206D222460146287804F00EFB08B11A
:1037F0006C80012032BD10B582B0DFF81415097855
:103800008DF80010014600A804F06EFB04469DF8F8
:10381000000004F069F9201816BD80B5FFF7EBFF32
:10382000007802BD10B50C46FFF7E5FF047010BD2F
:103830002DE9FC478146884614460025DFF8D06410
:1038400030788DF80400FF2C05D0204604F0B4F940
:1038500000F072FA255C394F3878FF2812D004F056
:10386000EDF9FF2801D004F0B4F93878344909683B
:10387000425C02F07F024254387804F09DF93878B7
:10388000FFF788FF47460121B0883818C01C80B276
:10389000FFF7A0FF40B901207070FF2C02D0204636
:1038A00004F097F9002046E0B088FFF7A4FF05EB8D
:1038B0000801891C0170234890F800A0B088401CC2
:1038C00080B2FFF798FF80F800A0B088801C80B21B
:1038D000FFF791FF80210170B088C11C89B201A857
:1038E00004F002FB02460120009043469DF80410BC
:1038F000484604F02EFAFF2C0CD02046FFF74AFF72
:10390000009500232246B0883818C11C89B230784F
:1039100004F0D2FBB088E919C91C0818B080012056
:1039200000F06AFF08480178012901D0022901D17D
:10393000002101700120BDE8F68700BF8709002043
:1039400068070020630900206009002038B505469B
:103950000C0008D0241FA0B200E02046FFF74BFF68
:103960000078401C0419DFF8A8038088A4B28442C0
:1039700009D2E01C80B2FFF73EFF0078A842ECD1EC
:10398000201D80B232BD4FF6FF7032BD10B582B03F
:10399000044619208DF800008DF80140FF22022115
:1039A00000F0F7F9902C02D101480221017013BDFB
:1039B0006409002080B5482226E010B586B0044690
:1039C0001B208DF80000A0788DF8010021880DF1F2
:1039D000020004F04BFB0822211D01A800F0CAFFE1
:1039E00000A8E1780173217B4173607B8DF80E00A4
:1039F0000DF10F0000F0E7F9FF22112100F0C9F9E5
:103A000006B010BD80B51C2200F0CEF98DF8021072
:103A1000FF22032100A8FFF70BFF01BD2DE9F043B2
:103A200085B004468846164606F056FC81460DF1E0
:103A3000010006F059FC30B962208DF80000FF2229
:103A4000092100F0A6F9FF2E0FBF0025DFF864035F
:103A50000068355C45208DF8000000AF7C700DF1EA
:103A60000201404600F066F80DF10D0000F0ABF9E0
:103A700049460DF10F0004F0F9FA09F023F88DF82A
:103A8000110000201249096800E0401C114A127818
:103A9000114B1B78D21A904204DA31F80C2B4A45AC
:103AA000F3D100E0FF20B8748DF813503246142192
:103AB00000F06FF918B109480078212804D10848AE
:103AC000017841F00401017005B0BDE8F08300BF4A
:103AD000A407002076090020330F0020650900208C
:103AE0000C0C0020F0B585B015461C460A9EB14A64
:103AF0001268A75C3F2200F0E2F801A9284600F016
:103B000019F80A480068205C8DF80F008DF81060E5
:103B100007480078402801D10027FF248DF8117054
:103B20002246122100F035F905B0F0BDA4090020AD
:103B30006A09002038B504460D462188284604F05D
:103B400095FA6188A81C04F091FA207928716079AF
:103B50006871E188A81D04F089FA218905F108003F
:103B600004F084FAA07AA87231BD0000F0B585B0E7
:103B70000D4616461C46012E01D0052E01D101210D
:103B800000E00021032E01D0072E01D1012200E028
:103B90000022022711B90AB9032710E0144B1B7841
:103BA00063B1012B04D0022B04D0042B04D006E017
:103BB000002704E01AB1FBE70F0000D00127242101
:103BC00000F04CF8082229460DF1030000F0D2FE67
:103BD0008DF80B608DF80C7021460DF10D0004F08E
:103BE00045FAFF220F2100F0D4F8F8B205B0F0BD7D
:103BF0006709002080B56E2100F0DEF80AE710B5F5
:103C000084B00C469B2100F09AF88DF80940FF2201
:103C10000A211AE070471FB5044623208DF80000E2
:103C20008DF801408DF80210204606F026FE014670
:103C30000DF1030004F01AFA0DF10D020DF105016A
:103C4000204606F028FEFF220E2100A8FFF7F0FD17
:103C50001FBD80B57C2100F001F8D9E68DF8001079
:103C600001460DF1010004F001BA70B586B00446BA
:103C70000E4615467D208DF8000021460DF101000D
:103C800004F0F4F9082231460DF1030000F072FE51
:103C90008DF80B50FF220C2100F07BF803A806F0F2
:103CA00023FB18B903A9204600F020FC06B070BD24
:103CB00080B5802200F003F8FF220421AAE68DF8E7
:103CC00000208DF801000DF1020004F0CFB9F8B525
:103CD0000D46144610F8017B394603F0FAFF0646FC
:103CE000FF2E03D10A4801214170F1BD8E208DF8CD
:103CF00000008DF801508DF802408DF803703246B7
:103D0000042100F046F8304603F063FFF1BD0000E7
:103D10002E09002010B584B00C46922100F00FF857
:103D20000DF1090000F04FF800F006F8205C8DF866
:103D30000B0022460C2188E71E48006870478DF86A
:103D40000010082201460DF1010000F013BE80B5FD
:103D5000184A1268825C93238DF800308DF80110A8
:103D60008DF80220024654E61CB50C4697218DF8CA
:103D700000108DF801000DF1020000F024F8FFF7AB
:103D8000DBFF205C8DF804002246052100F001F8DD
:103D900013BD00A84CE580B598208DF800008DF883
:103DA0000110FF22022135E68DF800208DF8010078
:103DB00070470000640700208DF800108DF80100A6
:103DC000FF220221704710B5044606F079FA601C04
:103DD000BDE8104006F078BA38B5044603F084FE1A
:103DE0008179C2795118490001F10805EDB20178D5
:103DF00000F047F8FF2804D109480068205CA84279
:103E000001D0002032BD434D2146281D04F085F924
:103E10002878401C2870204603F0CEFE012032BDD9
:103E20006407002010B50146012000F04FF8044659
:103E3000FF2C04D107B54021234800F03DFF0021AD
:103E40002046BDE8104004F05BB838B50C4600F0E1
:103E500017F8FF2801D1002032BD03F045FE0546CA
:103E6000681C04F0FDF82080E81C04F0F9F860807C
:103E700068792071A8796071E879A071012032BD5C
:103E80000146002022E0F8B50E4614460827FFF749
:103E9000F7FF0546FF2D04D107B55B210A4800F066
:103EA0000BFF284603F020FE012E04D1807940004C
:103EB00000F10807FFB207EB4401C9B22846BDE88C
:103EC000F44004F0D7B80000C07101082DE9F843B0
:103ED0000446884600260F480079FF2815D00C4F6D
:103EE0003968455CA946002C11BF30460021484680
:103EF00004F006F8404501D1484607E0761CF6B2CA
:103F0000386819F80090A945EDD1FF20BDE8F2838B
:103F1000700700205807002080B503F085FA08B12B
:103F200000F00AF8034802784188001DBDE8084007
:103F300000F036B8AC09002080B50D494A7808B1C8
:103F4000312801D1002200E0521C4A704A780B78D7
:103F50009A420BD300224A7043218DF800108DF84D
:103F60000100FF22022100A8FFF762FC01BD00BF93
:103F7000310F002080B50949097831290CD144213D
:103F80008DF8001001460DF1010004F06FF8FF22DA
:103F9000032100A8FFF74CFC01BD00BF6909002008
:103FA00000290CD0012A04D0022A04D0032A04D00C
:103FB00005E005F01ABF05F01FBF05F02ABF00217C
:103FC0000170704770B506460C46154605F02EFF89
:103FD0003178012907D0022902D0032902D070BD0F
:103FE000000A00E0000C20803078287070BD0000CE
:103FF00010B582B004460C20084900FB0410827AF8
:104000000189FFF7CDFF0F208DF800008DF80140EA
:10401000FF22022100A8FFF70BFC13BDB809002006
:104020000020E5E70120E3E770B51D4C20688078AB
:104030002B38022801D90D382FD100F08FFA054610
:10404000206800F203001749086000213120FFF7C3
:104050007DFC04464FF6FF7604E021463120FFF751
:1040600075FC0446B4420BD004F10D0080B2FFF79A
:10407000D4FBA842F1D1A42000F076FA012070BD53
:10408000002104E0FFF7C9FBA842F4D0214632200A
:10409000FFF75CFC0446B442F4D1002070BD00BFC1
:1040A000D8090020D009002038B50546002100E0DD
:1040B00021463F20FFF74AFC04464FF6FF7084423A
:1040C0000CD02046FFF7A9FB0228F1D1601C80B27A
:1040D000FFF7A3FBA842EBD1012032BD002032BD87
:1040E0002DE9F84380464FF0000900214520FFF7F5
:1040F0002DFC04461B4D4FF6FF7609E0FF21B8B2B8
:10410000FFF790FBA14621464520FFF71FFC044620
:10411000B44224D004F11007B8B2FFF77EFB40454B
:10412000F0D12046FFF779FB022801D00328E5D122
:10413000201F84B22046FFF770FB01462888401AF2
:1041400032182A800848007892B2009261184B1CFD
:104150009BB20246214603F0AFFF4C46D2E7BDE8D2
:10416000F18300BF320900202E090020F0B58BB08A
:104170000646294F3D7800F073F82BD104A97078DA
:10418000FFF763FE88B1BDF8100040F209118842C4
:104190000BD17088B0F5006F07D1701D12F0BAFE18
:1041A000B52802D0B0B9002414E00124002501E0B4
:1041B0006D1CEDB2387885420CDA06A9284602F06B
:1041C000C9F99DF818000028F2D13146284602F0BE
:1041D000CCF9044631208DF8000000AF30787870BB
:1041E0007078B87071880DF1030003F03FFF3079EB
:1041F00078710822711D0DF1060000F0BBFB8DF8EF
:104200000E508DF80F40FF22102100A8FFF710FB81
:1042100020460BB0F0BD00BF390F002038B5054671
:1042200000F01EF80DD12846FFF73EFF08B17524B7
:1042300007E0284602F0E0F9040002D12846FFF723
:104240004FFF32208DF800008DF801508DF80240AC
:10425000FF22032100A8FFF7EBFA204632BD000041
:104260006C24024800781128704700BF68090020BC
:1042700010B5044600F003F84848047010BD10B5AE
:10428000464C2078FF2803D003F0A3FCFF202070C9
:1042900010BD2DE9F04387B08146884615461E467D
:1042A0000E9C6F00FFB2009400F07AF80DF105004B
:1042B00006F006F801A806F007F859208DF8080066
:1042C00049460DF1090003F0D1FE082241460DF1E7
:1042D0000B0000F04FFB9DF805008DF813009DF8D2
:1042E00004008DF814008DF81550009723463246CF
:1042F0000021304603F0E0FE3946304603F0B9FDB8
:1043000032460E2102A8FFF793FA07B0BDE8F0830A
:104310002DE9F84381460C46DFF8808098F80000CC
:10432000FF2832D01C4E3168415C8F1EFFB23946E7
:1043300003F0A0FE484528D13068265C7810C5B24D
:10434000FF2C02D1A81CC0B223E0B819811CC9B24D
:10435000204603F08EFDC0B92A463146204603F0C0
:10436000D4FD6A1ED2B2711CC9B2204603F0CDFD45
:104370000097002398F80020B11C89B2204603F072
:104380009BFEFFF77CFF002003E02146484600F03B
:104390002FF8BDE8F28300BF640700206B090020FE
:1043A0002DE9F0470646894614469A46089D0F486F
:1043B0000078C8B10C2C17D2FF21304600F084F9E8
:1043C000804600270AE005EB4701C9B2504603F0DA
:1043D00051FE414600F078F980467F1CA742F2DB8F
:1043E0004946304600F082F8BDE8F087A009002079
:1043F0002DE9F0470C4600F055F9002624490968DC
:10440000615CFF2801D1002040E08246D046214D6A
:1044100002E09046761CF6B2286800EB88008278AD
:10442000FF2AF6D10C2EEEDA7000801C5FFA80F9BC
:10443000FF2C2AD00F464944C9B2204603F019FD8B
:104440000028E0D132463946204603F05EFD7F1C4D
:10445000FFB2012EACBF721E0022D2B239462046F6
:1044600003F053FD7F1CFFB2D04608E0904631F8C0
:1044700028203946204603F00EFEBF1CFFB22968F3
:1044800001EB88008278FF2AF0D14846BDE8F0872A
:1044900064070020A809002010B5044600F05EF86B
:1044A0000CB14006000E0B490978062901D2FF2005
:1044B00010BD18B9BDE8104003F0ECBB014606483A
:1044C0000068064A1268801AC0B2BDE8104000F0C9
:1044D00095B900BF6F090020D0090020D80900203D
:1044E0001D4A507011700020907070472DE9FC41FA
:1044F00004468846184EB778307858B3002501E056
:10450000681CC5B2307885420DDA00A97078281889
:10451000C0B201F007FE0822414600A800F074FA7C
:104520000028EDD12F46B0780146874205D1491CBD
:104530003078C9B2814200D10021B1707078C719BA
:10454000FFB24146384601F0B3FD18B9214638465E
:1045500001F0DDFDBDE8F381330F00202A48026839
:10456000511C0160107870471E490A681E4B1B6879
:10457000D31A802B00DA10700868401C086070475E
:1045800010B50446C0B2FFF7EFFF200A5AE010B59D
:10459000FFF7E4FF0446FFF7E1FF04EB002080B2E1
:1045A00010BD10B5044680B2FFF7EAFF200CBDE84D
:1045B0001040E5E710B5FFF7EAFF00F05DF804EB07
:1045C000004010BD38B50446064D2B68064A1268F7
:1045D0009A1AA218812A03DA0246184600F0CAF98C
:1045E0000CE00000D4090020D809002038B50446AA
:1045F0000846054D2246296800F0BCF928682018B5
:10460000286031BD00000000D009002010B504462C
:1046100021460820FFF7EAFFFFF7B9FF2081FFF7E7
:104620009DFFA072FFF79AFFE072FFF797FF2073DC
:10463000FFF7ADFFE081FFF791FF2074FFF7BAFFAE
:10464000606110BDBDE810408EE710B500F014F8B1
:104650002080FFF79CFF6080FFF780FF2071FFF74D
:104660007DFF6071FFF793FFE080FFF790FF2081EF
:10467000FFF774FFA07210BD044688E710B504462A
:1046800021461020FFF79EFF2069BDE8104088E713
:1046900010B5044621461020FFF7A8FFFFF78AFF58
:1046A000206110BD0146002000E0401C284A12781D
:1046B000904207DA274A126832F820208A42F4D161
:1046C000C0B27047FF207047F8B505460C46FFF7AB
:1046D000E9FF1F4A53781F490E68FF280FD1107851
:1046E0001A4F3F78B84202D2471C177007E01846AD
:1046F00000E0384606EB8007FF78FF2FF9D198429B
:1047000016D0002700E07F1C92F800C067450ADA47
:1047100006EB870C9CF803E08645F4D106EB800697
:10472000F6788CF803600E6806EB8006F370507024
:104730000A6822F8205002EB8002FF239370FF2CBE
:1047400003D0096801EB84018870F2BDA009002044
:104750006C090020A809002080B501F0C7F92E4897
:104760000068401C4649086001BD0000044800780C
:1047700004490978884201D1012070470020704720
:104780006F0900206E0900207047000000BF00BFC5
:1047900080B506480078002805D100F009F8401ED1
:1047A0008041C00F02BD002002BD00BF100F0020DD
:1047B00010B5104C207820B901F005FB08B101209C
:1047C0002070207810BD000080B50A4800210170DB
:1047D000012001F0F8FABDE8014000BF2848036855
:1047E0000D480068027802A13C2005F0B5BD00BF6D
:1047F0006C700000360F002001F0DDB9204A12680D
:10480000801803F066BA04480068007870470249CF
:104810000968087070470000F407002070B582B086
:104820000020FEF7FAFF0446154D0E4E00200090C2
:10483000234601223178286803F08BFA0A48018860
:10484000091B491E0180307889B20091631C9BB21C
:104850000246002103F030FC286820180349086054
:10486000012076BD2E09002032090020D409002045
:1048700003490968CA78521C92B2C91C00F07AB880
:10488000D8090020704781784078FFF76DBA7047EB
:104890000020704707F098B938B50446432C2ED055
:1048A000442C03D1BDE831400DF0D6B8452C06D1DB
:1048B0000DF0D2F80DF0D0F80DF0CEF8F2E74D2C57
:1048C0001DD0462C01D0472C13D10D4D287800283F
:1048D00015D101202870002000F08CFB472C0CBF64
:1048E00040F6010040F602000CF026FB0020287084
:1048F00031BD07B540F29221024800F0DDF931BD2B
:10490000410F0020D07101080A0242EA11214840FB
:104910000106090F484080EA00304101C9B2020691
:10492000D20E41EA0221484080B2704781B209B9F3
:104930004BF6EF610E4A1180000C01D14FF6CE20EC
:104940005080704702461088030400D5484041005B
:104950001180704738B5064C62212046FFF7F2FF00
:10496000054641F20B01A01CFFF7ECFF684032BD89
:104970003809002000E00000814231D21018401EAA
:104980005118491E10E0121F11F8013900F80139C1
:1049900011F8013900F8013911F8013900F801392D
:1049A00011F8013900F8013992B2042AEBD292B21F
:1049B0000AB311F8013900F80139521EF7E7121F46
:1049C00011F8013B00F8013B11F8013B00F8013BF5
:1049D00011F8013B00F8013B11F8013B00F8013BE5
:1049E00092B2042AEBD292B22AB111F8013B00F83C
:1049F000013B521EF7E7704702E000F8011B521E10
:104A000092B2002AF9D1704710B500E0521E92B25E
:104A1000002A03D000F004F8F8D007E0002010BD11
:104A200010F8013B11F8014BA3427047181B40B22C
:104A300010BD000070B57C4842783E490B685B07AA
:104A400022D5032A20DA00EB420384889C810123CB
:104A5000847803FA02F2224382700278344C82B1E5
:104A6000002502E06D1C032D0EDA03FA05F616424E
:104A7000F8D045707240027000EB4500808A2060DB
:104A800002E02260032242704FF6FF700860BFF31D
:104A90005F8F70BD38B503F0A5FB63490A78E2B1BA
:104AA000234B1C68E40718D4002402E0641C032C88
:104AB00014DA0125A5401542F8D04C706A400A70FE
:104AC00001EB4401898A19601A494FF6FF720A60A6
:104AD0004E494FF400620A6000E0032403F07EFBBD
:104AE000E0B232BD50480021017003214170002125
:104AF000C17005210181002181700D4900220A60E9
:104B00004A604FF400428A601022CA60001D48616A
:104B1000012088610320C8600648042101644FF623
:104B2000FF71016039484FF40061016006F026BE54
:104B300004D0004010A8004070B504462A2901D0D6
:104B4000012070BD384DD00040EA43302989084328
:104B500005EB44018882012000FA04F628783042EF
:104B60000FD103F03FFB297831432970A978B14375
:104B7000A97003F033FBFFF78DFFA04201D1812024
:104B800070BD822070BD00002DE9F84380460C46C0
:104B90001D4F1E4D03F02CFB48B92868000506D5B3
:104BA000386800F00400461EB641F60F00E001260A
:104BB00003F018FB81463EB12868000504D538682B
:104BC000400701D5FFF736FF17488178012202FA26
:104BD00008F20A4207D000EB48039B89238051402A
:104BE0008170802409E00178114201D0822404E020
:104BF000407840450CBF81248424484603F0EEFAF7
:104C00002046BDE8F28300BF50A8004000E100E06C
:104C100038B505460C4621462846FFF7B5FF8428DF
:104C200001D08028F7D132BD000A002038B51D4AD6
:104C3000118B090A012924D140F2022101281CD13B
:104C4000508AB0F5837F19D306F0FEFFA0F10B0464
:104C5000E4B2042322460B2100A800F0A7FE0A4D6F
:104C60000A480068A880AC7107F073F8E8719DF8F5
:104C70000300287240F2062001E010B908460CF04B
:104C80005BF9012032BD00BF0000002090200040F1
:104C90000448008B000A012801D100F005B84FF646
:104CA000FF707047000000080148408B704700000B
:104CB0000000000842DE704738B505460C4600F09B
:104CC000BFFA03F08FFA2146284605F03DFB214646
:104CD0002846BDE83440EDE72DE9F8434FF420695C
:104CE00066490868DFF8A8713C1D20650A6A62659C
:104CF000634A1268A2654A6AE2658A6A2266CA6ADB
:104D000062660A6BA266896BE166616B49074CBFFC
:104D1000E56BA56B40F2FF16DFF8A881DFF8A02154
:104D2000954227D3A84525D305F2180555F8041B4D
:104D3000216455F8041B6164304006281DD1206CA5
:104D400000884DF64261884217D107F288007968E1
:104D500041606168816055F8040B786055F8040B78
:104D6000606055F8040BA06055F8040B606340F2D6
:104D7000017902E000202064606400F08BF8A064F8
:104D80000020E064002207EB80014A67401C0628EF
:104D9000F9DB206C00283BD000203A4A3A4B04E073
:104DA000052007EB800CCCF87410A8452BD358F8DD
:104DB000041D9942F9D39142F7D25FEAC17CF4D540
:104DC0004FF0000C07EB8C0EDEF874E08E4504D03B
:104DD0000CF1010CBCF1060FF4DBBCF1060FE4D1C1
:104DE0000028DDD0401EC0B2DBE7216F4FF0000C81
:104DF00007EB8C02936F53670CF1010CBCF1050FAC
:104E0000F6DBC7F888100146481EC0B20029ECD175
:104E1000206D304002280AD0032815D0042816D06F
:104E2000052817D0062818D00C281CD01EE01748DB
:104E30000168890702D540F602191CE00068C00726
:104E400019D540F2025916E040F6012913E040F668
:104E5000022910E040F603290DE0B9F5206F0AD1D0
:104E600040F6042907E040F6052904E018B121289E
:104E700001D240F607294846BDE8F28304ED00E080
:104E800000E300E00A700108842100081CA0004033
:104E90000000002008480068C00601D5074802E06D
:104EA000074800E0001D074A904203D20368B3F1AF
:104EB000CD3FF7D0101A70472C000040940000201E
:104EC000000000205807002005E004E003E002E0B5
:104ED00001E000E0FFE772B61EF0080F08D01EF0F8
:104EE000040F0BD0DFF848E0AEE8FF1F11480AE0DE
:104EF000DFF83CE0AEE8FF1F0F4804E0DFF830E0E9
:104F0000AEE8FF1F0D486946EFF309828EE80700FF
:104F100086460B480B4C854501D3A54501D384F348
:104F20000888FFF7D9FE84F308880CF005F8000024
:104F300004000020FDFFFFFFF1FFFFFFF9FFFFFF6F
:104F4000D4000020580700200D4800BF38B50546A2
:104F500003F048F904460B4800210160082155F888
:104F6000042B826055F8042BC260491EF7D1012141
:104F7000016003F04DF92046BDE8324003F02EB940
:104F80006873010894ED00E01248006800F0DF004B
:104F90000021002202E0521C082A17D2012393406C
:104FA0001842F8D00C4830F8121006290ED10B48E0
:104FB00041884FF20F02914203D101880A0A0B2A5D
:104FC00001D34FF4C0614CF23C324280084801806A
:104FD000704700BF2C000040A873010800000020AB
:104FE00003480088000A70470148008870470000A5
:104FF0000C0F00202DE9F94D86B01122FF2100A8E9
:10500000FFF7FAFCDFF880B0EA22FF215846FFF7ED
:10501000F3FC22244FF011080026DFF870A01C4892
:10502000305C411C01EBD1714F101A49755CFF28AF
:1050300004D107B56F215046FFF73EFE7F2D04D304
:1050400007B570215046FFF737FE1348305C00B1BA
:105050001937781C00FB0544012D02D02BF816806F
:10506000A844761C112EDADBB4F5806F04D307B5A3
:1050700086215046FFF720FE00A99DF818000CF08D
:105080005DF808B0BDE8F08D200A0020B873010873
:1050900020720108347201080C720108C10803294A
:1050A00008D2C1108902044A012300F0070003FA64
:1050B00000F05050704700BF14B00040C1080329F1
:1050C00008D2C1108902044A012300F0070003FA44
:1050D00000F05050704700BF10B0004008B10620EB
:1050E000DCE70620EAE7000010B50CF0A7FE002080
:1050F0000CF00EFD284C206840F00800206000F005
:1051000097F80CF0F3FC00F049F8206820F010004C
:10511000206000F0FBFCFFF7E5FC00F0E7FC0CF082
:1051200001FF0CF029FEBDE8104000F0A3B810B557
:1051300000F09DFC00F036FD2648EF21C1602649B5
:105140005E22CA60254A0523D36048F688030360BF
:1051500041F28814446048F6810008604B6048F2D0
:105160001810106041F21810506010BD80B50CF09E
:1051700029FE0CF0BBFC00F011F80748016821F093
:105180001001016000F0C2FCFFF7ACFC0CF01AFF4C
:10519000BDE8014000F06CBC00BC00400D48EB21B4
:1051A000C1600D494D22CA600C4A0523D36048F204
:1051B0009443036041F29913436044F24110086044
:1051C00049F68900486044F61910106041F69410C1
:1051D0005060704700B0004000B4004000B800408C
:1051E000032000F037BC000010B5FFF7F9FE0446BD
:1051F000FFF7FAFEC0B218B9012C01D0002010BD93
:10520000072C11D801A109578F4400BFF01C080CCE
:105210000C101418092010BD022010BD032010BD71
:105220000B2010BD062010BD44F0800010BD000012
:105230000F48012181604EF6BE21416002E000006E
:10524000024800BF01210160704700BF08600040B4
:10525000A52805D106484DF6AD61416002210160E7
:1052600070470348006810F0010000D0012070472B
:105270000060004080B50B48102101600A480221FF
:1052800001600A484FF4006101600CF03FFD0848DE
:1052900007210160002101640648102101600020FF
:1052A00002BD00BF80E100E0080000400C6000404B
:1052B00014A0004000E100E030B583B00446104681
:1052C0007F2800D10020B1F5004F19D108237F229B
:1052D00040F6120100A8FFF7EFFF08220D4900A8D1
:1052E000FFF792FB30B908237F2240F2A27100A899
:1052F000FFF7E2FF082200A92046FFF73BFB37BD7E
:105300001A46054D294300FB03112046FFF732FBE7
:1053100037BD00BFDC730108000004082DE9F14F20
:105320009AB0DFF86845606818909DF86800072813
:1053300001D1032002E0082802D102208DF8680084
:10534000DFF8EC552868696840EA0120A96840EA5E
:10535000014001906868400703D5E06940F0020011
:10536000E0612868400703D5E06940F00400E0618F
:105370004FF0010B019829690BFA01F1084203D0A3
:10538000E06940F00800E061DFF844A50020CAF8B9
:105390000400DFF8FC749DF86800012800F04782E3
:1053A000022807D003281AD0042840F06682002083
:1053B000606014E0386CC00703D5E06940F040003D
:1053C000E061386C400703D5E06940F02000E061FF
:1053D000386C800703D5E06940F01000E06102F00E
:1053E00001FFFFF73EFF17904FF00008386C169052
:1053F000786C1590DFF89C94D9F84C001490D9F88B
:1054000050001390D9F854001290D9F85800119018
:10541000DFF8840400681090DFF87C0440680F9087
:10542000DFF8740440690E90DFF86C04406A0D9058
:10543000DFF8686430680C9070680B90B0680A9070
:10544000F06809903069089070690790B06906901B
:10545000F0690490B06B0390DFF844040068DFF853
:1054600044144968029102212160DFF83C14096864
:10547000DFF83824126841EA0221DFF83424126888
:1054800041EA024105914FF0FF316162DFF85814A3
:105490000A68DAF80410D20409D56A68D20706D57A
:1054A000E269D20703D5D8464FF48072114300F069
:1054B00017FA920408D56A68520605D5E269D20740
:1054C00002D5D84641F4804100F00AFA52040AD5C8
:1054D00000F000FA07D0E269D20704D5D846EA689E
:1054E0000BFA02F2114300F0FBF9120410D5019AF5
:1054F0002B690BFA03F31A420AD0E269D20702D4ED
:10550000E269120704D5D8462A690BFA02F2114360
:1055100000F0E6F9D20305D5E269120602D5D846B5
:1055200041F00061CAF8041000216A68D20701D571
:105530004FF480516A68520601D541F4005100F0E1
:10554000C9F901D041F480412B690BFA03F31A42E7
:1055500001D041F40041E269D20605D4E269920625
:1055600002D4E269520601D541F01001E269120647
:1055700001D541F4803108400090A520FFF768FE76
:105580000120E063E069A16B11B1616A0142FAD0C8
:10559000616A014200F0FC800020E063D846DAF83E
:1055A000040040F08040CAF8040002F02DFE0720FD
:1055B00038600F20C9F80000FFF7C6FC189860603B
:1055C00016983864159878641498C9F84C001398A4
:1055D000C9F850001298C9F854001198C9F8580039
:1055E000AD48109901600F9941600E9941610D9984
:1055F00041620C9830600B9870600A98B06009980E
:10560000F06008983061079870610698B06104985E
:10561000F0610398B063A24800990160A148029923
:105620004160A4484FF0FF3101609F48006804903A
:105630009E4806689E480068616AE26911400291CE
:1056400029690391029911F0020100D00121029A07
:1056500012F0040200D00122029B13F0080C6346F2
:1056600000D00123DAF804C0CDF800C0DDF814C082
:10567000DDF810E04EEA062646EA004080EA0C001B
:10568000019E304040EA812040EA8200039903FAFB
:1056900001F1084302994FF47C72114040EA015134
:1056A00000980843CAF8040002F09CFD02F0AEFD29
:1056B00000202060179808B1FFF7BAFDDAF804005F
:1056C00077490968C90303D5010101D52021216269
:1056D000396C890703D5C10101D50221F960396C04
:1056E000490703D5810101D50421F960396CC90747
:1056F00003D5410101D50121F960D9F84C10E02210
:10570000114205D0C10503D577494FF480520A6094
:10571000D9F85010E022114205D0410403D5724956
:105720004FF400520A60D9F85410E022114208D018
:10573000E9680BFA01F1084203D06B494FF480424B
:105740000A60D9F85810E022114208D029690BFAF2
:1057500001F1084203D064494FF400420A60B8F1F5
:10576000000F5DD154490968090559D56168890759
:1057700056D59DF86810042952D049490968C906D0
:105780002DD559490968C90629D58AF800B047E0DE
:10579000B8F1000F7FF403AF3F4880694008400034
:1057A0003D4988613F48C06840F004003D49C860F9
:1057B0004248012101703B49096841F08051394A52
:1057C000116001780029FCD13B4840680004CAF808
:1057D0000800394989680843CAF80800E7E64FF429
:1057E0007A7100228AF80020354A536D43F0010394
:1057F0005365294B9B69DB0701D44FF4FA71136899
:105800002D4C64682C4DAD6845EA0444DAF8085024
:10581000AC4205D11468E41A2403240B8C42EFD364
:1058200040F00040CAF8040002F0EAFC2BE0FFF769
:1058300018FD0446A520FFF70BFD02F0E5FC02F081
:10584000DFFC204D2E68286840084000286002F0E8
:10585000DFFC1D4FD7F80080386820F0400038602A
:105860000CF0F0FCC7F800802E6002F0D1FC0CB107
:10587000FFF7DEFC02F0CAFC05E007B540F2BA31E2
:105880001248FFF719FA1BB0BDE8F08F0400004082
:1058900014A0004014A80040044000400050004004
:1058A00000E100E004ED00E008B0004008B4004072
:1058B00008B8004080E200E00C600040700C00205E
:1058C0003820004094ED00E000800040E4730108BF
:1058D0000C0B0020019AEB680BFA03F31A42704795
:1058E000014A12687047000000E200E0104ACBB2A3
:1058F00013600B0ADBB253600902090E91600B4979
:1059000000230B6013681BB953680BB992681AB176
:105910000A6842F001020A600A684FF400731A43F1
:105920000A600A6842F080020A60F7E42000004042
:1059300008BC00404FF48041D8E7000010B582B0A9
:10594000484C012020700020FFF754FB40B100209C
:10595000FFF750FB002803D000202070492016BD1F
:1059600002237F22DFF8000101880DF1020000F020
:105970001DF802237F22002100A800F017F8BDF8CF
:105980000200B0F5FF7FBDF800004FF47F7103D136
:10599000884207D1002016BD884201D0042002E0D1
:1059A000062000E007200021217016BD10B54FF43D
:1059B0008074A14208D22B4C2478002C06D0C9B2A6
:1059C000BDE810400BF062BDFFF776FC10BD000093
:1059D00010B54FF48074A14208D2224C2478002CD8
:1059E0000CD0C9B2BDE810400BF08DBD7F2A00D1AC
:1059F0000022034C214302FB0311016010BD00BFD4
:105A0000000004082DE9F04104460D46164698466C
:105A10000F484FF480718C4213D2124F3978A1B1E4
:105A2000797819B107B5B821FFF746F901207870E8
:105A300043462A463146E0B20BF0A0FE00207870C3
:105A400003E007B5C321FFF737F9BDE8F08100BFD8
:105A5000EC73010880B50349097809B10BF0AAFF7E
:105A600001BD0000420F00208E770108704770478B
:105A700070470000DFF86004002141718171DFF898
:105A80000404016C490849000164016C21F40071AF
:105A90000164154910220A6320220A6300224A6524
:105AA0000A664A668A6502224A65DFF8DC230A60D4
:105AB00002F18D034B600A614B61BE4A1268120706
:105AC0000AD5026C42F001020264026C4FF40073CA
:105AD0001A43026401220A634FF6FF7101603048E5
:105AE00040210160704700BF00C0004010B5DFF8E2
:105AF000E8430020A0700120E07020710020207099
:105B0000FFF772FB6070BDE8104000BF70B5FFF793
:105B1000B1FF1E4848F294410160082101611C4810
:105B20004FF400550560DFF8A81300220A65194AF2
:105B3000536823F4706343F400635360402313619C
:105B400002230B60144B1D60154C256040250D652C
:105B5000156825F4704545F4804515604FF480457F
:105B60000560002048650D48032606600420086093
:105B70001D6025602020486504201061106820F415
:105B800070604FF480710843106070BD00B0004039
:105B900080E100E000B4004080E200E014BC00407E
:105BA00000E100E080B501E0FFF74AFB81480068B2
:105BB0000007F9D501BD58B17D480168490605D5F2
:105BC0007C490968090701D50421C160002000E073
:105BD0000120C149C8707047BF490A7922B9012222
:105BE0000A710870002048707047000080B50749AE
:105BF00010220A60A4494A78A72A0EBF0870032021
:105C0000FFF7EAFF0120BDE80240DCE030C00040C1
:105C10002DE9F04182B0B04C2179DFF89481654ADA
:105C200029B113681B0702D50423C8F80C30A378E8
:105C3000B3B10420C8F80C00D8F800004006FBD52A
:105C40000420C8F808000020A070E07828B93220AD
:105C50000BF0D0FF0420C8F80C000020BDE8F6814E
:105C6000514E884F884D00283BD06079002838D0AD
:105C700031B100202071022221462846FEF77AFE2B
:105C8000E07810B10420C8F808002878052803D26D
:105C9000A720A87003201AE0FE2801D0FD2813D108
:105CA0006878862805D307B54FF4C1713F48FFF7E0
:105CB00003F868784019A721817068784019FF219E
:105CC000C1706878C01C02E0A72068700220A07133
:105CD0000120386004203061386C40F001003864E5
:105CE000B8E74FF40070F368DB0713D412681207AB
:105CF00010D500F061F800F05FF801223A603860DA
:105D00003A6C42F001023A643A6C03461A433A6430
:105D100001223261326812B93A6892059DD501229A
:105D200062710422C8F808206B781A463C68A40502
:105D300001D5386012E0306802288ED32878FD380B
:105D400001288AD8862B05D3FFF794FE0120FFF7A0
:105D500043FF82E73068D31C9842FAD3386C40087E
:105D600040003864386C20F40070386410203061D2
:105D700019B1012000F027F86FE750198078A728A3
:105D800003D00320FFF728FFF3E72878FD2806D18A
:105D90000420FFF721FF012000F015F85DE7FE2049
:105DA000287001205AE700BF20C00040F4730108AA
:105DB00008B4004008B00040F2698DF80020F26994
:105DC0008DF80020704738B5044602F00BFA0546FE
:105DD0002046FFF71DFF0446284602F0FFF9204643
:105DE00032BD000038B527480121016001688905EE
:105DF00003D5016C21F400713FE0364904220A60AA
:105E00001F498A6A520735D4334A01235371CA693C
:105E1000022A33D31C4A13780A2B06D00B2B0CD042
:105E2000FD2B10D0FE2B0ED031BD016C490849006E
:105E300001648220BDE83240D8E6016C490849007F
:105E40000164C120F6E75378862B05D3FFF712FED5
:105E50000120BDE83240BFE6DC1CCD69641B64B2A2
:105E6000052C03DB9A18921C0A6003E0C969DA1C4E
:105E7000914203D3016C49084900016431BD00BF60
:105E800004C000400CA80040180B0020104802215C
:105E900001601148012181707047000038B50C483D
:105EA000042101600B4C21600B4D08480068A97962
:105EB000091D884202D00220FFF78EFEFFF7DAFDAF
:105EC000E87808B90420606031BD00BF28C00040F8
:105ED00014A8004010B400400E0F00200028FFD08E
:105EE0002120704730B50246124B33F812404FF66E
:105EF000FF75AC4202D0641C23F81240032801D085
:105F0000052803D118890818188130BD092801D047
:105F10000B2803D1988A0818988230BD1D2802D119
:105F2000588F0818588730BD3C2200210148FEF7E1
:105F300063BD0000A80B002010B5364840F20731C1
:105F40000160354901220A6072B634490A68520874
:105F500052000A60324959220A604169890620D4F8
:105F60004169C90601D52F4905E02F4903E04FF0EB
:105F7000CD3241F8042B2D4A9142F8D32C492D4AB9
:105F80002D4B00F083F82D492D4A002300F078F8BE
:105F90002C492D4A00F074F82C492D4A2D4B00F065
:105FA00075F82D492D4A4A604FF078424A612C4AD3
:105FB0008A612C4ACA612C4A2C4B13604FF0803303
:105FC00053602B4C9460D360E0231361294A8A60AC
:105FD00010220A614FF4E0220A624069800608D567
:105FE000254800220270086840F0805008600CF0DC
:105FF00021F9FEF7A9FFFEF7C7FF02F0F3F862B63A
:10600000FCF7D2F907B5E7211C48BDE81040FEF7C0
:1060100053BE00BF1800004020400040FCED00E0EF
:10602000008000409400002000000020580700205D
:10603000B877010858070020900900209009002037
:106040005D0F0020600F0020C4270020000000002A
:10605000000000000000000004ED00E00021000846
:10606000F8F8F88080F8404000E400E0808040804C
:10607000408080800004FA05700C00200474010840
:1060800001E041F8043B9142FBD3704703E051F833
:10609000044B42F8044B9A42F9D370479748007872
:1060A0000C2101FB00F2FF21B0480068FEF7A4BC00
:1060B00070B505460C4691480078854201D36A20A8
:1060C00070BD284607F002FB002801D0762070BD85
:1060D000204603F02FFE4FF6FF71884201D14FF6A4
:1060E000FD700C214D43A14E31686852204600F0EE
:1060F0001BF900B101203168691888720822214615
:1061000030682818801CFEF735FC002070BD7B4AE3
:106110001278904205D20C22944B1B6802FB00308F
:106120000180704710B50B4608220C218F4C246863
:1061300001FB0040811C1846BDE81040FEF71ABC68
:106140000C218A4A126801FB002000887047F8B5CC
:1061500007460C46694D854E01E007F20C0728788A
:106160000C21326801FB002087420DD238884FF69F
:10617000FF718842F1D008222146B81CFEF744FC8A
:106180000028EAD13846F2BD0020F2BD10B5044621
:1061900000F032F9002075490968584A09E00B8877
:1061A000A34202D14FF6FD730B80401CC0B201F236
:1061B0000C0113789842F2DB10BD70B504460D4611
:1061C0002846FFF7E3FF2946204600F03AF900F0A1
:1061D000C9F805E0358006F0BEFE214606F10C0048
:1061E000FFF7B5FF0646002EF4D170BD70B582B042
:1061F000054608223E49FEF707FC18B9BDE8734082
:1062000009F048BD08223C492846FEF7FDFB00285E
:1062100002D13848008876BD4FF6FF740020009008
:10622000002301222946204600F033FA4FF6FC767F
:10623000FF2805D00849096831F81000B0420ADB90
:1062400029464A480068FFF782FF002802D00088EC
:10625000B04200D3204676BD9C0700207FB504469F
:106260000D4609F017FD844206D108222049284630
:10627000FEF780FB012038E01E480088844209D1E7
:106280001D4E00220821304602F0E8FA10B908221B
:106290003146ECE700200090002301220146204611
:1062A00000F0F7F9FF280AD000A900F053F930B93F
:1062B00008220DF105012846FEF75CFBDAE7002015
:1062C0002A4909684FF6FC7302E0401C01F20C01F8
:1062D0000A4A1278904207DA0A889A42F5D2A24214
:1062E000F3D10822891CC2E7002004B070BD000071
:1062F000180C0020400800204408002076090020E7
:1063000010B50446002004F0E0F9FF2806D0054946
:10631000096831F8100000F0040010BD04F001001D
:1063200010BD00BF7807002038B50446002500F0F6
:1063300019F8FFF70CFF08B1857A0CE000900023F4
:10634000012221464FF6FF7000F0A3F9FF2802D08A
:1063500003490968455C21462846BDE83440CFE73B
:10636000A00700202146014800687047A4070020CC
:1063700038B504460D0000D00125294600F0A6F8E6
:10638000FFF7F0FF02E0857221460C30FFF7DFFED9
:106390000028F8D131BD000010B504462146002088
:1063A00000F050F9FF2801D0012010BD002008495D
:1063B000096807E00A88A24202D18A78002AF3D14C
:1063C000401C091D034A12789042F3DB002010BDE7
:1063D000900700207409002010B50C460D230246DA
:1063E0000C212046BDE81040FFF7E0BA0D230A4615
:1063F00001460C20FFF706BBF0B585B0044600F05F
:106400001AF813E0306830F81500A0420CD100A94A
:10641000284600F09FF89DF80000022804D030685C
:106420004FF6FD7120F815106D1CEDB238788542DD
:10643000E8DB05B0F0BD0025DFF83863DFF8F07366
:1064400070472DE9F04385B080460C464FF6FF7942
:106450004C4505D100F0B3F910B909F01BFC34E04C
:106460000026C44FDFF8C8530CE04C4508D038680C
:1064700030F81610A14203D14FF6FD7120F8161026
:10648000761CF6B2287886421EDA386830F8160094
:1064900000F0FBF8F4D201A800900D23324600F082
:1064A00038F9082241460098401DFEF7ADFA002851
:1064B000DBD138684C4502D130F8160005E020F8F1
:1064C000164006F048FDDBE7484624E02DE9F0439E
:1064D00085B0814688460024464DFFF7ADFF17E0A2
:1064E000306830F8140000F0D0F80FD201A8009006
:1064F0000D23224600F00DF9082249460098401D60
:10650000FEF782FA10B9286804F80080641CE4B22F
:1065100038788442E4DB05B0BDE8F083954909682A
:1065200031F8100070471FB50C46C1490978884200
:106530000FD29049096831F810104FF6FE7291425F
:1065400007D200A900F006F821460DF10500FFF77B
:1065500078FF1FBD80B5B64A1278904201D36920FA
:1065600002BDFFF739FF002002BD70B505460E469B
:10657000307818B92846BDE870403DE0AC48007856
:10658000854201D3692070BD284607F09DF8002898
:1065900001D0752070BD701DFFF7C6FE040000D04D
:1065A00001244FF6FF71701DFFF74BFF2346024693
:1065B0003178284600F006F831462846FFF716FFE6
:1065C000002070BD10B54FF6FF7409B9224608E0EF
:1065D000032902D14FF6FE7203E0A24201D14FF629
:1065E000FD726449096821F8102002490968435482
:1065F00010BD0000A00700201FB504468C4800789D
:10660000844201D3692015E0204607F05DF808B107
:1066100075200FE000A92046FFF7DEFE9DF8000080
:1066200008B100F009F8534800684FF6FF7120F8F0
:106630001410002004B010BD00208DF8000000A947
:106640002046D3E6F0B585B007460C46494D784E56
:1066500001E07F1CFFB23078874213DA286830F8F7
:10666000170000F012F8F4D100F04FF800984079CC
:10667000E1B28842EDD100988079210A8842E8D1C0
:10668000384600E0FF2005B0F0BD4FF6FE718842AD
:1066900070472DE9F04F85B083460C4692469946E7
:1066A000DDF83880FFF7C7FE08E008220098411D9A
:1066B0002046FEF7A9F910B36D1CEDB2387885427B
:1066C0001FDA306830F81500FFF7DFFFF4D201A8B9
:1066D00000900D232A4600F01CF8BAF1000F07D1F4
:1066E000009840784845E7D1009800794045E3D1CB
:1066F000002CDAD1306830F815005845DCD1284636
:1067000000E0FF2005B0BDE8F08F01A800900D2348
:106710003A460C2100A8FFF75BB910B51446FFF705
:106720005BFE082228492046BDE81040FEF722B94A
:10673000F0B585B0044600270E4D3D4E01E07F1CAC
