S00F00006E6F6465746573742E7333377F
S3150800000000080020D9840008678600086B86000867
S315080000106F860008738600087786000800000000CF
S315080000200000000000000000000000007B860008B9
S315080000307F8600080000000083860008878600087F
S315080000408B8600088F860008938600089786000826
S315080000509B8600089F860008A3860008A7860008D6
S31508000060AB860008AF860008812C0008B786000812
S31508000070BB860008BF860008C3860008C786000836
S31508000080CB860008CF860008D3860008D7860008E6
S31508000090DB860008DF860008E3860008E786000896
S315080000A0EB860008EF860008F3860008F786000846
S315080000B0352C0008715200080387000807870008D6
S315080000C00B8700080F8700081387000817870008A2
S315080000D01B870008DF4D00082387000827870008CC
S315080000E0916600082F8700083387000837870008BD
S315080000F03B8700083F8700084387000847870008B2
S315080001004B8700084F870008538700085787000861
S315080001105B8700085F870008638700086787000811
S315080001206B8700086F8700087387000877870008C1
S3150800013080B5DFF89C16884244D0B0F1804F4AD08B
S31508000140DFF8881688424DD0DFF87C16884250D0F2
S31508000150DFF87016884256D0AB4988425AD0AB4968
S3150800016088425ED0DFF85816884261D0DFF84C1610
S31508000170884266D0DFF85C1688426BD0DFF85816DE
S31508000180884270D0DFF83016884275D0DFF84C16F2
S31508000190884278D0DFF8481688427BD0DFF81416F4
S315080001A0884200F080804F49884200F085804E4999
S315080001B0884200F08A807C21DFF8F405BDE8044017
S315080001C005F00EBE01214FF4006004F023FF002164
S315080001D04FF4006081E00121012004F03DFF002179
S315080001E001200CE00121022004F036FF0021022044
S315080001F005E00121042004F02FFF00210420BDE8BA
S31508000200044004F029BF0121082004F025FF00213D
S315080002100820F4E70121102004F01EFF0021102019
S31508000220EDE70121202004F017FF00212020E6E752
S3150800023001214FF4005004F0EDFE00214FF4005068
S315080002404BE001214FF4002004F0E4FE00214FF4B6
S31508000250002042E001214FF4801004F0DBFE00216B
S315080002604FF4801039E001214FF4001004F0D2FE5B
S3150800027000214FF4001030E00121402004F0ECFE8C
S3150800028000214020BBE70121802004F0E5FE002183
S315080002908020B4E701214FF4807004F0DDFE0021D0
S315080002A04FF48070ABE701214FF4803004F0B2FEC2
S315080002B000214FF4803010E001214FF4003004F0A3
S315080002C0A9FE00214FF4003007E001214FF48020F9
S315080002D004F0A0FE00214FF48020BDE8044004F09D
S315080002E099BE000000440140004801402DE9F84F3E
S315080002F004460D46DFF8B864DFF8C474DFF8C4B402
S31508000300DFF8C4A4DFF8C484DFF8C4944C452ED0C3
S31508000310B4F1804F2BD0444529D0544527D05C45AD
S3150800032025D000F0C3FC22D000F0BAFC1FD0BC4296
S315080003301DD000F097FC1AD000F0ACFC17D000F0E6
S31508000340A3FC14D000F088FC11D000F097FC0ED066
S3150800035000F08EFC0BD000F0F7FB08D000F0E8FBAD
S3150800036005D000F0DFFB02D0E52100F0BCFB688871
S3150800037050B1102808D0202806D0402804D060287C
S3150800038002D0E62100F0AFFBE88840B100F0F7F8AC
S3150800039005D000F0EFF802D0E72100F0A4FB208892
S315080003A04C450AD0BC4208D0B4F1804F05D044452C
S315080003B003D0544501D05C4503D100F0F3FA6988AF
S315080003C0084311498C4207D010498C4204D04FF695
S315080003D0FF410840E98808432080A888A085288826
S315080003E020854C450AD0BC4208D000F0ADFB05D0AC
S315080003F000F09EFB02D000F095FB01D1287A2086FA
S315080004000120A082BDE8F18F0010004000140040D2
S315080004102DE9F84F00F0C4F8DFF898B300F0B6F805
S315080004202BD0B4F1804F28D000F076FB25D000F011
S315080004306DFB22D000F064FB1FD054451DD000F0A0
S3150800044011FC1AD000F026FC17D000F01DFC14D0C1
S3150800045000F002FC11D000F011FC0ED000F008FCF0
S315080004600BD05C4509D000F063FB06D000F05AFBC0
S3150800047003D04FF48D7100F063FA288868B110280C
S315080004800BD0202809D0302807D0602805D070283E
S3150800049003D040F21B1100F053FA688828B10128EE
S315080004A003D04FF48E7100F04BFA288928B1022840
S315080004B003D040F21D1100F043FA208C4FF6FE716E
S315080004C000F06AF8A688218B4FF68C7211402A88AC
S315080004D01143ADF800104FF6FD710840298908430D
S315080004E0698841EA00074C4509D0544507D05C4560
S315080004F005D000F01DFB02D000F014FB32D1A8880D
S3150800050028B1042803D04FF49D7100F019FA6889C0
S3150800051028B1082803D040F23B1100F011FA00F088
S3150800052028F804D018B14FF49E7100F009FA00F0CB
S3150800053025F804D018B140F23D1100F001FA4FF643
S31508000540F7703840698908434FF6FB710840A98857
S3150800055041EA00074FF6FF403040A9890843E98978
S3150800056041EA0006A680BDF800002083E888A08638
S3150800057009E0E8894FF4007188427047A8894FF46A
S315080005808071884270472784BDE8F18FDFF830A272
S31508000590DFF83C924C45704708402084208C704711
S315080005A004460D46DFF8088270472DE9F8430446ED
S315080005B00D4628887E4E48B1042807D0082805D05D
S315080005C00C2803D04FF4137100F08DFA688828B10F
S315080005D0022803D040F24D2100F085FAA8880128A8
S315080005E007D0022805D0032803D040F24E2100F098
S315080005F07AFAE88848B1042807D0082805D00C28D4
S3150800060003D040F24F2100F06EFA2889102803D350
S315080006104FF4147100F067FA29886648664A674BF2
S31508000620674FDFF8A0C1DFF8A0E1DFF8A081DFF8A7
S31508000630A091002933D14C4526D0B4F1804F23D060
S31508000640444521D074451FD064451DD0BC421BD0FB
S315080006509C4219D05F498C4216D05F498C4213D010
S31508000660944211D05D498C420ED05D498C420BD024
S31508000670844209D000F05CFA06D000F053FA03D0A1
S315080006804FF4157100F02FFA2B89AA88698820463D
S3150800069000F059FDE988204600F0C4FB84E00429EF
S315080006A021D14C4514D0B4F1804F11D044450FD018
S315080006B074450DD064450BD0BC4209D09C4207D086
S315080006C0944205D0844203D040F25E2100F00BFA32
S315080006D02B89AA886988204600F04CFDE9882046BF
S315080006E000F0E5FB60E008292FD14C450ED0B4F1A7
S315080006F0804F0BD0444509D0744507D0644505D0D2
S31508000700BC4203D04FF41A7100F0EDF92989AA8882
S315080007106888238C4FF6FF6633402384A38B268C88
S315080007204FF60C773B401A4342EA0111A1834FF674
S31508000730FF51314041EA00204FF48071084320847C
S31508000740E988204600F0E6FB2EE04C450ED0B4F1D1
S31508000750804F0BD0444509D0744507D0644505D071
S31508000760BC4203D040F2722100F0BDF92989AA885B
S315080007706888238C4EF6FF7633402384A38B268C19
S3150800078040F6FF473B4043EA022242EA0131A18391
S315080007904DF6FF71314041EA003040F48050208424
S315080007A0E988204600F0E0FBBDE8F1830000000080
S315080007B0588400080040014000180040004C0140E1
S315080007C000340140000C00400008004000040040CE
S315080007D0002C01400050014000540140001C00401C
S315080007E0002000400021018041808180C180018174
S315080007F041818181C181704770B500F077F933D0A6
S31508000800B4F1804F30D000F087F92DD000F07EF992
S315080008102AD000F075F927D000F048FA24D000F065
S315080008203FFA21D000F08AF91ED000F01BFA1BD03F
S3150800083000F030FA18D000F027FA15D000F00CFABC
S3150800084012D000F01BFA0FD000F012FA0CD000F00C
S315080008507BF909D000F06CF906D000F063F903D0F3
S3150800086040F21F3100F03FF94DB1012D03D04FF48E
S31508000870487100F038F9208840F0010003E020882C
S315080008804FF6FE710840208070BDF8B500F04CF8B0
S3150800089033D0B5F1804F30D000F068F82DD000F095
S315080008A05FF82AD000F056F827D000F075F824D063
S315080008B000F06CF821D000F047F81ED000F0BCF923
S315080008C01BD000F0B3F918D000F0A4F915D000F049
S315080008D0A7F912D000F098F90FD000F08FF90CD0D4
S315080008E000F04EF809D000F083F906D000F07AF946
S315080008F003D040F2613100F03FF84FF47F400642E2
S3150800090000D11EB940F2623100F036F844B1012C2C
S3150800091003D040F2633100F02FF8A889304301E094
S31508000920A889B043A881F1BD05460E461446024F74
S31508000930024885427047000058840008002C014090
S31508000940404605F04DBA000001488542704700BF91
S315080009500034014001488542704700BF000C004042
S3150800096001488542704700BF00080040014885429B
S31508000970704700BF00040040384605F031BA000051
S3150800098001488542704700BF004001400148854242
S31508000990704700BF0014004001488542704700BFF9
S315080009A0001000404FF68F7108407047000070B580
S315080009B000F09CF833D0B4F1804F30D000F0ACF89A
S315080009C02DD000F0A3F82AD000F09AF827D000F02E
S315080009D06DF924D000F064F921D000F0AFF81ED0EC
S315080009E000F040F91BD000F055F918D000F04CF98A
S315080009F015D000F031F912D000F040F90FD000F010
S31508000A0037F90CD000F0A0F809D000F091F806D01C
S31508000A1000F088F803D040F27A5100F064F84DB13E
S31508000A20012D03D040F27B5100F05DF8208840F09C
S31508000A30800003E020884FF67F710840208070BD53
S31508000A4070B500F053F82DD0B4F1804F2AD000F0DD
S31508000A5063F827D000F05AF824D000F051F821D0D6
S31508000A6000F06CF81ED000F0FDF81BD000F012F96B
S31508000A7018D000F009F915D000F0EEF812D000F001
S31508000A80FDF80FD000F0F4F80CD000F05DF809D0AE
S31508000A9000F04EF806D000F045F803D040F2DF51DA
S31508000AA000F021F8082D04D01DB14FF4BC6100F008
S31508000AB01AF8208B00F00EF808402843208370BDF2
S31508000AC0084040EA0520208370BD08402843A083DB
S31508000AD070BD00004FF6F7717047084040EA0520E0
S31508000AE0A08370BD0000304605F07AB904460D466D
S31508000AF0014E02488442704758840008002C014081
S31508000B0001488442704700BF000C004001488442F7
S31508000B10704700BF0008004001488442704700BF84
S31508000B200004004001488442704700BF0048014065
S31508000B3001488442704700BF00440140014884428E
S31508000B40704700BF0034014001488442704700BF27
S31508000B5000400140F8B5FFF7E7FE2DD0B5F1804F0C
S31508000B602AD0FFF703FF27D0FFF7FAFE24D0FFF7B6
S31508000B70F1FE21D0FFF7E8FE1ED000F05DF81BD08D
S31508000B8000F054F818D000F045F815D000F048F8F1
S31508000B9012D000F039F80FD000F030F80CD0FFF77B
S31508000BA0EFFE09D000F024F806D000F01BF803D0B9
S31508000BB040F2B171FFF7E0FE4EB1042E07D0082EC1
S31508000BC005D00C2E03D040F2B271FFF7D5FE012CEA
S31508000BD004D01CB140F2B371FFF7CEFE288C012178
S31508000BE030E0000001488542704700BF00480140D8
S31508000BF001488542704700BF0044014001488542CC
S31508000C00704700BF0020004001488542704700BF7A
S31508000C10001C004001488542704700BF005401404F
S31508000C2001488542704700BF0018004001488542C8
S31508000C30704700BF0050014001488542704700BF19
S31508000C40004C0140B14088432884288C04FA06F1F8
S31508000C5008432884F1BD000001488442704700BF5C
S31508000C600018004001488442704700BF004C01400C
S31508000C7001488442704700BF002000400148844272
S31508000C80704700BF001C004001488442704700BFFF
S31508000C900054014001488442704700BF005001409B
S31508000CA001488442704700BF00140040014884424E
S31508000CB0704700BF0010004038B500F0A5F833D0E3
S31508000CC0B4F1804F30D0FFF727FF2DD0FFF71EFF76
S31508000CD02AD0FFF715FF27D0FFF7E8FF24D0FFF744
S31508000CE0DFFF21D0FFF72AFF1ED0FFF7BBFF1BD07F
S31508000CF0FFF7D0FF18D0FFF7C7FF15D0FFF7ACFFF7
S31508000D0012D0FFF7BBFF0FD0FFF7B2FF0CD0FFF7EB
S31508000D101BFF09D0FFF70CFF06D0FFF703FF03D030
S31508000D2040F6D10100F078F8A58431BD38B500F059
S31508000D306BF833D0B4F1804F30D0FFF7EDFE2DD0ED
S31508000D40FFF7E4FE2AD0FFF7DBFE27D0FFF7AEFF5A
S31508000D5024D0FFF7A5FF21D0FFF7F0FE1ED0FFF73E
S31508000D6081FF1BD0FFF796FF18D0FFF78DFF15D030
S31508000D70FFF772FF12D0FFF781FF0FD0FFF778FF5A
S31508000D800CD0FFF7E1FE09D0FFF7D2FE06D0FFF739
S31508000D90C9FE03D040F6DF0100F03EF8A58531BD57
S31508000DA038B500F031F82DD0B4F1804F2AD0FFF7CE
S31508000DB0B3FE27D0FFF7AAFE24D0FFF7A1FE21D065
S31508000DC0FFF7BCFE1ED0FFF74DFF1BD0FFF762FFF3
S31508000DD018D0FFF759FF15D0FFF73EFF12D0FFF7DF
S31508000DE04DFF0FD0FFF744FF0CD0FFF7ADFE09D03B
S31508000DF0FFF79EFE06D0FFF795FE03D040F6ED01FD
S31508000E0000F00AF8A58631BD04460D46014884421D
S31508000E10704700BF002C0140014804F0E1BF00BF45
S31508000E205884000870B5FFF761FE2DD0B4F1804FE5
S31508000E302AD0FFF771FE27D0FFF768FE24D0FFF708
S31508000E405FFE21D0FFF77AFE1ED0FFF70BFF1BD0FF
S31508000E50FFF720FF18D0FFF717FF15D0FFF7FCFEA6
S31508000E6012D0FFF70BFF0FD0FFF702FF0CD0FFF7EA
S31508000E706BFE09D0FFF75CFE06D0FFF753FE03D0E2
S31508000E8040F62A11FFF72FFE4DB1042D07D0082D85
S31508000E9005D00C2D03D040F62B11FFF724FE208B2E
S31508000EA04FF6F37108402083208BFFF706BE70B516
S31508000EB0FFF71CFE1BD0B4F1804F18D0FFF72CFEAD
S31508000EC015D0FFF723FE12D0FFF71AFE0FD0FFF753
S31508000ED035FE0CD0FFF7C6FE09D0FFF7BDFE06D0DB
S31508000EE0FFF732FE03D04FF41461FFF7FCFD4DB156
S31508000EF0042D07D0082D05D00C2D03D040F641113E
S31508000F00FFF7F1FD208B4FF2FF3108402083208B3D
S31508000F10FFF7D7BD70B5FFF7E9FD12D0B4F1804FE2
S31508000F200FD0FFF7F9FD0CD0FFF7F0FD09D0FFF75A
S31508000F30E7FD06D0FFF702FE03D040F65611FFF78D
S31508000F40D2FD4DB1042D07D0082D05D00C2D03D0A8
S31508000F5040F65711FFF7C7FDA08B4FF6F37108400F
S31508000F60A083A08BFFF7B2BD70B5FFF7BFFD12D007
S31508000F70B4F1804F0FD0FFF7CFFD0CD0FFF7C6FDB9
S31508000F8009D0FFF7BDFD06D0FFF7D8FD03D040F620
S31508000F906C11FFF7A8FD4DB1042D07D0082D05D01B
S31508000FA00C2D03D040F66D11FFF79DFDA08B4FF277
S31508000FB0FF310840A083A08BFFF790BD0446014887
S31508000FC084427047002C014010B5FFF7F7FF12D096
S31508000FD0B4F1804F0FD0FFF79FFD0CD0FFF796FDB9
S31508000FE009D0FFF78DFD06D0FFF7A8FD03D040F620
S31508000FF0B911FFF711FFB4F8400010BD70B5FFF73F
S3150800100075FD33D0B4F1804F30D0FFF785FD2DD074
S31508001010FFF77CFD2AD0FFF773FD27D0FFF746FEC2
S3150800102024D0FFF73DFE21D0FFF788FD1ED0FFF73D
S3150800103019FE1BD0FFF72EFE18D0FFF725FE15D098
S31508001040FFF70AFE12D0FFF719FE0FD0FFF710FEC2
S315080010500CD0FFF779FD09D0FFF76AFD06D0FFF738
S3150800106061FD03D040F6F611FFF73DFD012D1ED0B8
S31508001070022D1CD0042D1AD0082D18D0102D16D0EC
S31508001080202D14D0402D12D0802D10D04FF4007092
S3150800109085420CD0B5F5806F09D0B5F5006F06D03E
S315080010A0B5F5805F03D040F6F711FFF71CFD208ADF
S315080010B0284000D00120C0B270BD70B5FFF716FDFC
S315080010C033D0B4F1804F30D0FFF726FD2DD0FFF78F
S315080010D01DFD2AD0FFF714FD27D0FFF7E7FD24D022
S315080010E0FFF7DEFD21D0FFF729FD1ED0FFF7BAFD79
S315080010F01BD0FFF7CFFD18D0FFF7C6FD15D0FFF7B9
S31508001100ABFD12D0FFF7BAFD0FD0FFF7B1FD0CD03B
S31508001110FFF71AFD09D0FFF70BFD06D0FFF702FD12
S3150800112003D040F62121FFF7DEFC4FF4614005426B
S3150800113000D11DB940F62221FFF7D5FC00E00000DA
S31508001140E843208270BD70B5048C4FF6FE752C40BE
S315080011500484048B058C4FF60C763440224342EA0D
S31508001160031202834FF6FD722A40114341F0010132
S31508001170018470BD70B5048C4FF6EF752C4004845D
S31508001180048B058C40F6FF46344044EA033343EAB1
S31508001190022202834FF6DF722A4042EA011141F029
S315080011A01001018470BD00002DE9F04FA1B015466D
S315080011B01C46029002AE71600020B0620DF144092F
S315080011C06FF0004B02E0B06A401CB062287818B98C
S315080011D0B06A21B0BDE8F08F252807D1002030611C
S315080011E07061B061F061306270620CE015F8011B45
S315080011F07068029A904770600028E4D14FF0FF307B
S31508001200E7E740F0010015F8011F2029F9D0232946
S315080012100DD02B2904D02D2906D030290AD00CE070
S3150800122040F0020080B2EEE740F00400FAE740F032
S315080012300800F7E740F01000F4E72A290DD12268E4
S31508001240111D216011683163002904D549423163B3
S3150800125040F0040080B26D1C11E00021316309E002
S31508001260316B594505D001EB810302EB4301303957
S3150800127031636D1C2A78302A01D33A2AF0D32978AB
S315080012802E2903D04FF0FF31F1621CE015F8011F3B
S315080012902A2906D12268111D21601168F1626D1C88
S315080012A011E00021F16209E0F16A594505D001EB28
S315080012B0810302EB43013039F1626D1C2A78302A2A
S315080012C001D33A2AF0D3B0862978DFF8CC0306F0A2
S315080012D0F5FF08B115F8010B8DF83E009DF83E00A4
S315080012E0682804D1287868280AD1622005E06C2885
S315080012F006D128786C2803D171208DF83E006D1C24
S3150800130011A8F0602A781046413800F0B080001F16
S31508001310022840F2AC8013386DD0093800F0A78057
S31508001320801E17D0401E1FD0401E022840F29F8004
S31508001330001F19D0401F00F0C680401E5BD0401E1B
S3150800134000F0EF80C01E00F0F780801E53D0C01E4C
S3150800135051D006E13069411C31612268111D2160B6
S31508001360116800F8091003E19DF83E006C280FD0BB
S3150800137071280BD12068C01D20F0070020600346A5
S3150800138003F108002060D3E9000106E06A28F1D0DD
S315080013902168081D20600868C1179DF83E30682B33
S315080013A001D100B207E0622B01D140B203E0742BF1
S315080013B001D07A2B00D1C117002902DA33692D270B
S315080013C009E0B38E9F0702D533692B2703E0DB07B5
S315080013D006D53369202703F8097033695B1C336126
S315080013E0336911AF3B44B360CDE90001114600A84B
S315080013F000F054F9BCE09DF83E006C280FD0712827
S315080014000BD12068C01D20F007002060034603F1B9
S3150800141008002060D3E9000106E06A28F1D02168B7
S31508001420081D2060086800219DF83E30682B01D110
S3150800143080B207E0622B01D1C0B203E0742B01D061
S315080014407A2B00D10021B38E1B07C9D509B900280C
S31508001450C6D042F02003782BC2D13369302703F86F
S31508001460097033695B1C336103F80920B5E7206806
S31508001470C01D20F007002060034603F10800206025
S31508001480D3E90001CDE90001BDF80600000402D544
S3150800149030692D2109E0B08E810702D530692B21EC
S315080014A003E0C00706D53069202100F80910306925
S315080014B0401C3061306911A94018B060114600A877
S315080014C000F072F954E09DF83E0062280BD06828B7
S315080014D020D06A280ED06C2815D071280AD0742816
S315080014E011D07A280FE0B06A2268111D21601168B0
S315080014F008703DE0B06AC11723681A1D22601A6891
S31508001500C2E9000134E02168081D20600868B16A54
S3150800151001602DE0B06A2268111D216011680880FB
S3150800152026E02168081D2060086811A9B16000211D
S31508001530CDE9000178215AE72168081D206008686E
S31508001540B060F26A002A02D506F0FEFB07E0002129
S3150800155006F0D2F900281ABFB168401AF06A70611D
S3150800156006E03069411C316102B9252200F80920DC
S315080015706D1C306B3169401AF169401A7169401A5D
S31508001580316A401AB169401A716AA0EB0108B08E37
S31508001590400711D420208DF840000027B8F1010F2C
S315080015A00ADB012210A900A800F02EFC00287FF40F
S315080015B025AE7F1C4745F4DB326911A900A800F067
S315080015C023FC00287FF41AAE30208DF84000D6F8A8
S315080015D01CA00027BAF1010F0ADB012210A900A8F6
S315080015E000F012FC00287FF409AE7F1C5745F4DB97
S315080015F07269B16800A800F007FC00287FF4FEAD08
S3150800160030208DF84000D6F820A00027BAF1010F47
S315080016100ADB012210A900A800F0F6FB00287FF4D7
S31508001620EDAD7F1C5745F4DBB2697069B1684118A6
S3150800163000A800F0E9FB00287FF4E0AD30208DF823
S315080016404000D6F824A00027BAF1010F0ADB0122D0
S3150800165010A900A800F0D8FB00287FF4CFAD7F1CA6
S315080016605745F4DBB08E40077FF5B0AD20208DF8E6
S3150800167040000027B8F1010FFFF6A8AD012210A916
S3150800168000A800F0C1FB00287FF4B8AD7F1C4745D1
S31508001690BFF69CADF2E700BF448600082DE9FA477D
S315080016A086B00546686900909DF818006F2801D134
S315080016B0082605E040F02000782814BF0A261026E0
S315080016C03C27D5E90001044688469DF81820642A77
S315080016D001D0692A04D1002902DA644268EB480875
S315080016E0B8F1000F02D10CB9686B60B3A7F1010914
S315080016F04F46F017CDE9046020464146DDE904234C
S3150800170005F0A8F9CDE90201A246DDE90223DDE9E3
S315080017100401A0FB02485046001B3030C0B23A28EC
S3150800172003D39DF8181051390818009909F80100D3
S31508001730DDE90248B8F1000F00D124B12869009903
S3150800174079188842D2D3082E0AD1A88F000707D560
S315080017500098385C302803D07F1E00983021395411
S31508001760C7F13C00E861009979182961696B8842DC
S3150800177007DA081A6862A88F4FF6EF710840A8873B
S315080017800FE000290DD5A98F01F01401102908D101
S31508001790A96BAA69891A6A6A891A0F1A012F00DBC6
S315080017A06F6208B0BDE8F0872DE9F24F8EB00646A5
S315080017B004AFD6E90001CDE902019DF8380040F0F2
S315080017C020008DF8000061280BD0706B002801D529
S315080017D0062005E005D19DF80000672801D1012003
S315080017E07063F18847F6F0700840001140F2FF7206
S315080017F090421CD10F20014205D1B08818B97088D3
S3150800180008B9308848B10320F0619DF8380061288E
S3150800181036D37B2834D2D3A133E00320F0619DF878
S315080018203800612832D37B2830D2CFA129E001289D
S3150800183004DA304605F0F8FD01281EDAF18848F288
S315080018400F02114043F6E0721143F18040F2FE3177
S31508001850451A4FF0FF309DF8001061291DD13269F5
S31508001860511C31613021117031694A1C32619DF871
S315080018703820612A0CD178220BE000250020EAE7FF
S31508001880C9A10322306905F06BFF8AE1C7A1F8E711
S3150800189058220A70B169891CB16110B90024002563
S315080018A076E19DF80000612840F09780706B00286B
S315080018B04EBF2124441C24B204F10108D6E900AB2A
S315080018C0DDE902010022002306F01EFB3ABF8BF079
S315080018D00040CDE902A0CDE902AB2D1F8DF81020FE
S315080018E00DF11109B8F1010F35DBDDE9020100221E
S315080018F0002306F021FB2ED21C2102A805F038F998
S31508001900DDE9020106F024F80746A8F10708B8F150
S31508001910010F09DB06F028FB02460B46DDE902014A
S3150800192004F0CEFFCDE9020109F207000721012FD5
S315080019300ADB491E08D407F00F0200F8012D3F11F3
S31508001940F5E7002200F8012D491EFAD500F207092D
S31508001950B8F1010FC9DA0DF11100A9EB00000DF17C
S315080019601107A04200DA04B2002C2FD4844206DA0A
S3150800197004A820184078082801D30F2000E000208A
S31508001980214604AA8A1801E0641E24B2491E12F8E8
S3150800199001398342F8D00F2804D104A808184278E0
S315080019A0521C4270002903D504AF641C24B22D1DB5
S315080019B0204609E0C15D3031C9B23A2903D39DF802
S315080019C038203A3A5118C155401EF3D5706B002895
S315080019D040F1DE80601E7063DAE0DDE90201002274
S315080019E0002306F091FA05D2DDE9020181F00041F3
S315080019F0CDE902012DB247F2975068436C4990FB36
S31508001A00F1F52DB2C5F107049046DFF8A891012C2F
S31508001A1019DBDDE902ABE00707D5504659464246D1
S31508001A204B4604F0EFFC82468B4664104046494616
S31508001A3042464B4604F0E6FC80468946002CEAD12D
S31508001A40CDE902AB21E064429246DFF86CB114D0CE
S31508001A50E00707D55046594642464B4604F0D2FCA5
S31508001A6082468B4664104046494642464B4604F039
S31508001A70C9FC80468946002CEAD1DDE902015246B6
S31508001A805B4603F00DFFCDE902019DF800006628CC
S31508001A900CBF05F10A000620716B4418142C00DBF4
S31508001AA0132430208DF810000DF11107012C2BDBC3
S31508001AB0DFF8089111E0DDE9020105F05FFF06F0A5
S31508001AC05DFA02460B46DDE9020104F0F9FE002242
S31508001AD04B4604F097FCCDE90201DDE9020105F069
S31508001AE04DFF07F1080108220A270346B0FBF7F065
S31508001AF007FB1033303301F8013D521EF5D101F1D1
S31508001B000807083C012CD6DA0DF11100381A0DF138
S31508001B1011079DF81110302905D1401E6D1E17F8C2
S31508001B20011F3029F9D09DF80010662902D12DB27F
S31508001B30691C03E065290CBF01210021726B8C1812
S31508001B4024B2A04200DA04B2002C21D4844204DA7A
S31508001B50E05D352801D3392000E030202146CA1936
S31508001B60521E05E06E616E00696E6600641E24B240
S31508001B70491E12F801398342F8D0392802D1C85DC6
S31508001B80401CC855002903D57F1E641C24B26D1C51
S31508001B902DB2009523463A469DF83810304600F097
S31508001BA00FF80FB0BDE8F08F4E414E00494E460083
S31508001BB0A0860100000024400000F03F84D797412A
S31508001BC02DE9F04385B00446884691461F46BDF97F
S31508001BD03060656B012F02DA01270FF2282948F0D9
S31508001BE02000662807D0672876D16FF003018E4259
S31508001BF078DBAE4276DA761C662809D0A08F000715
S31508001C0002D4AF4200DA3D4636B2AD1B00D50025F8
S31508001C102069E16936B2012E20DA4A1C30230B54BA
S31508001C20012D02DAA18F090702D52E211154521C63
S31508001C30E261F54200DA6E4232B25142A1625519AA
S31508001C40BD4200DA2F463FB227623A464946E36963
S31508001C50181805F085FDE81BE062BCE00818B742D5
S31508001C6015DA3A46494605F07BFDE1697918E161DE
S31508001C70F01BA062012D02DAA08F000705D52069A6
S31508001C802E220A54206A401C2062E562A3E03246EE
S31508001C90494605F065FDE0693044E061BF1B012D4A
S31508001CA002DAA18F090704D5411CE16121692E22B8
S31508001CB042543FB2BD4200DA2F463FB23A4606EBDF
S31508001CC00901E0692369C01805F04AFDE06938187A
S31508001CD0E061E81BA0627EE0B8F1610F14D14FF015
S31508001CE0700816E0AF4203DAA18F090700D43D4613
S31508001CF06D1E00D50025B8F1670F02D14FF06508B3
S31508001D0007E04FF0450804E0B8F1410F01D14FF064
S31508001D105008E1694A1C206919F8013B0B54012D4A
S31508001D2002DAA18F090702D52E211154521CE2614D
S31508001D30012D10DB7F1E3FB2BD4200DA2F463FB2AF
S31508001D403A464946E369181805F00AFDE069381865
S31508001D50E061E81BA062E069216900EB010909F866
S31508001D60018B002E03D42B2009F8010B03E02D204C
S31508001D7009F8010B7642002702AD36B2012E0EDBBA
S31508001D800A22314600A806F0BFFB019805F8010BA8
S31508001D9000987F1C06B2012EF2DA022F06DA48F006
S31508001DA02000652802D1302009F8010B1FB9302020
S31508001DB009F8010B09E0012F07DB7F1E02A8385C32
S31508001DC0303009F8010B012FF7DAE069216940186C
S31508001DD0A9EB00002062A08F00F0140010280DD196
S31508001DE0A069E1690818A16A0818216A0818E16A51
S31508001DF00818A16B884201DA081A606205B0BDE8C6
S31508001E00F08300BF30000000F8B505460E461446BC
S31508001E1000208CB14FF0FF3705E0286B401C286383
S31508001E200020641E08D016F8011BE868AA689047C7
S31508001E30E8600028F1D13846F2BD000010B52FE160
S31508001E4030B587B000F076F900F096F900F0CFF9D2
S31508001E5000F09FF900F082F900F072F900F0A7F996
S31508001E600121284603F05CFB44F6206004F00AF8DA
S31508001E7000F05AF9AB20FFF7E1FF00F0B8F900F0DF
S31508001E8053F99F20FFF7DAFFFF20FFF7D7FF00F08F
S31508001E90ADF91F2D03D07221A24803F0A1FF07B0A8
S31508001EA030BD10B500F0B7F9B920FFF7C7FFAAE1B2
S31508001EB038B500F0B0F9D720FFF7C0FFFF20FFF7CD
S31508001EC0BDFFB8E1F8B507460C461546FFF7F0FF23
S31508001ED08028FBD3DFF88C6400224FF4805130460B
S31508001EE001F0B4F8D220FFF7A9FFF80BC0B2FFF74C
S31508001EF0A5FF380A4006000EFFF7A0FFF8B2FFF765
S31508001F009DFF00F018F800F016F800F014F800F03D
S31508001F1012F806E003F054FFFF20FFF78FFF04F8DE
S31508001F20010B2846451E80B20028F3D101224FF442
S31508001F3080513046B7E1002080E72DE9F843044692
S31508001F4089461646FFF7B4FF8028FBD3200A4500CA
S31508001F50E70BDFF810844FF48070864213D200F046
S31508001F602FF85320FFF76AFFF8B2FFF767FFE8B2CA
S31508001F70FFF764FFE0B2FFF761FF00F027F8FFF70D
S31508001F8097FF8028FBD300F01BF88220FFF756FF47
S31508001F90F8B2FFF753FFE8B2FFF750FFE0B203E0ED
S31508001FA003F00EFF19F8010BFFF748FF3046461EEF
S31508001FB080B20028F4D100F009F80020BDE8F283C9
S31508001FC000224FF48051404601F040B801224FF4F8
S31508001FD08051404601F03AB82DE9F84300F059F827
S31508001FE002D27119814201D385200CE000F04BF82A
S31508001FF020B100F016F803D3471B02E0464504D289
S3150800200037461EB90020BDE8F2834F46BAB22146CC
S315080020102846FFF757FF0100F5D100F02DF8F4D256
S31508002020EEE7280A000200F20010814270472DE907
S31508002030F84300F02EF802D27119814201D38520A7
S315080020400CE000F020F820B1FFF7EBFF03D3471BA5
S3150800205002E0464504D237461EB90020BDE8F283A1
S315080020604F46BAB221462846FFF767FF0100F5D169
S3150800207000F002F8F4D2EEE7F01BB9B20D440C44B6
S3150800208086B24645704740F201184FF48079E8B2A7
S31508002090704705460C461646B1488542704710B546
S315080020A0514C0146204603F05AFA0121204603F016
S315080020B08EFA0028F9D0204603F063FAC0B210BDA4
S315080020C030B587B000F036F800F056F800F08FF813
S315080020D000F05FF800F042F800F032F800F067F818
S315080020E00121284603F01CFA42F2107003F0CAFEDA
S315080020F000F01AF8AB20FFF7D2FF00F078F800F0EE
S3150800210013F89F20FFF7CBFFFF20FFF7C8FF00F06B
S315080021106DF8202D03D07321024803F061FE07B045
S3150800212030BD00003883000800224FF48051204655
S3150800213000F08CBF8B4C01228021204600F086BF20
S3150800214048208DF803004FF48040ADF800000320C6
S315080021508DF8020000A9204600F028BE18208DF848
S3150800216003004FF42040ADF8000003208DF802006C
S3150800217000A9204600F01ABE10208DF80300802022
S31508002180ADF8000003208DF8020000A9204600F0F3
S315080021900DBE10208DF803004FF48050ADF80000F6
S315080021A003208DF8020000A9204600F0FFBD00209C
S315080021B0ADF804004FF48270ADF8060000200290D6
S315080021C0ADF80C004FF40070ADF80E001020ADF815
S315080021D010000020ADF812000720ADF81400024DDB
S315080021E001A9284603F01DB900380040054601221A
S315080021F04FF48051204600F029BF10B500F00BF8C7
S31508002200B920FFF74CFF01224FF480512046BDE864
S31508002210104000F01BBF534C00224FF4805120465B
S3150800222000F014BF38B5FFF7F6FF0520FFF737FFB4
S31508002230FF20FFF734FFFFF7D9FF284632BDF8B570
S3150800224006460C4615464648864202D2A9198142D8
S3150800225001D38520F2BDFFF7E5FFC007FBD4414F48
S3150800226000224FF48051384600F0F0FE0320FFF7B5
S3150800227016FF300C00F078F8300A00F075F8F0B266
S31508002280FFF70DFF06E003F09BFDFF20FFF707FFB2
S3150800229004F8010B2846451E80B20028F3D1012216
S315080022A04FF48051384600F0D1FE0020F2BD2DE9EA
S315080022B0F84F04468A4615462948844202D2291907
S315080022C0814201D3852010E04FF4807BE0B228B12B
S315080022D0200AFFF7A7FE05D3061B04E040F201100B
S315080022E0854204D22E461DB90020BDE8F28F5E460F
S315080022F03746D046FFF796FFC007FBD4DFF8649051
S3150800230000F034F80620FFF7CAFE00F035F800F0B2
S315080023102DF80A20FFF7C3FE200C00F025F8200A46
S3150800232000F022F8E0B203E003F04AFD18F8010BCA
S31508002330FFF7B5FE3846471E80B20028F4D100F0F4
S315080023401BF8FFF76FFFC007FBD4AD1BB6B23419F5
S31508002350B24440F20110ADB28542C8D2C2E70000CD
S3150800236001000400000C0140C0B298E600224FF4B8
S315080023708051484600F06ABE01224FF48051484613
S3150800238000F064BE38B5104C944D00F0BBF8C0B2EE
S3150800239010B1012808D010E001202870204605F069
S315080023A007FFBDE831404BE50220287004F13000F4
S315080023B005F0FEFEBDE8314082E604F15C00BDE8AA
S315080023C0324005F0F5BE00BF7C7500082DE9F041E6
S315080023D000F098F800F048F886B280480078DFF8F0
S315080023E0008208B9404639E0B6F5806F06DD4FF43D
S315080023F0806108F1400005F0DBFE31E0664F0128F8
S315080024000BD13246294608F1780005F0D1FE32464E
S3150800241039462846FFF7E0FD0CE002280BD1324684
S31508002420294608F1AC0005F0C3FE3246394628466F
S31508002430FFF705FF04461CB1214608F1E000DAE77C
S3150800244008F2081005F0B4FE05E0E15D08F23C105C
S3150800245005F0AEFE641CB442F7DB02A005F0A8FE48
S31508002460BDE8F0810D0A00000546012001F0AFBE67
S315080024702DE9F84300F046F88046FFF7F6FF84B2E8
S3150800248000F08CF808B9484638E0B4F5806F06DDE8
S315080024904FF4806109F1400005F08AFE30E009F248
S315080024A0441005F085FE00203B4E01E08055401C97
S315080024B0A042FBDB387801280BD12246414609F2B7
S315080024C08C1005F075FE224631464046FFF7AFFDF3
S315080024D00CE002280BD12246414609F2C01005F04D
S315080024E067FE224631464046FFF7E1FE05461DB126
S315080024F0294609F1E000CFE709F2F81005F058FE81
S31508002500BDE8F183002001F062BE2DE9F843FFF72C
S31508002510F9FFFFF7A9FF86B200F040F808B9484668
S3150800252036E0B6F5806F06DD4FF4806109F14000AC
S3150800253005F03EFE2EE0DFF86080012E04DBFF2268
S315080025403146404605F0E4FB387801280BD132467F
S31508002550294609F2242005F02BFE32464146284634
S31508002560FFF765FD0CE002280BD13246294609F231
S315080025705C2005F01DFE324641462846FFF797FEC9
S3150800258004461CB1214609F1E000D1E709F2F8102A
S3150800259005F00EFEBDE8F18300080020DFF8409044
S315080025A00E4F3878704780B50C4801780C4819B931
S315080025B0BDE8024005F0FCBD012906D100F29420D1
S315080025C005F0F6FDBDE801406BE4022905D100F2ED
S315080025D0B82005F0EDFDFFF710FE01BD1B0E00202B
S315080025E0D04800084109014A04E000BF80E100E044
S315080025F04109044A012300F01F0003FA00F042F8DB
S315080026002100704780E200E010B5DFF84C4501462E
S31508002610204602F0A4FF0121204602F0D8FF002838
S31508002620F9D0204602F0ADFFC0B210BD10B58CB08F
S31508002630DFF86C450122102100F038F910208DF8DA
S31508002640030000F039F9182000F033F918208DF846
S315080026500300802000F030F900F01EF9402000F059
S315080026602BF90020ADF81C004FF48270ADF81E005F
S3150800267000200890ADF824004FF40070ADF826004D
S315080026802020ADF828000020ADF82A000720ADF874
S315080026902C00DFF8C44407A9204602F0C2FE012137
S315080026A0204602F03DFF42F22830ADF81000002027
S315080026B0ADF812004FF6FF70ADF814000020ADF823
S315080026C016008DF8180004A94FF08040FDF70EFE9D
S315080026D001214FF08040FEF78FF800F0F6F81C2035
S315080026E000F043F88DF8060001208DF8070001A8D0
S315080026F004F076FDDFF8CC050021817000F0CCF8F7
S31508002700102000F038F8DFF8DC4500F0DAF804218C
S31508002710022000F0FDFD1020029000208DF80C002C
S315080027200C208DF80D0001208DF80E0002A804F08B
S315080027300FF800F06FF90A2000F017F8ADF8060058
S3150800274001A804F04DFD0122202100F0AFF8102069
S3150800275000F0AFF800F0A0F8012000F00CF800A98E
S315080027604C4800F023FB0CB010BD8DF80400002087
S315080027708DF805007047ADF8000003208DF80200BB
S31508002780704710B51021DFF85C0500F0AAFB401E63
S315080027908041C00FDFF82C158870EFF3108400F025
S315080027A097FA04E010B5EFF3108400F0D5F800F0BE
S315080027B031F900F02DF984F3108810BD70B582B098
S315080027C00646344C012200F070F810208DF80300FC
S315080027D0012000F071F8002200F067F8DFF80455D0
S315080027E0002E14BF002201222021284600F02EFCCC
S315080027F01A2003F047FB00F04FF8012000F05CF8C0
S31508002800DFF8C0040021817003F0DAFAEFF31084D0
S3150800281000F099F84EF6602100F0B7F900F0A9F932
S3150800282000F053F800F0C3F900F0A1F900F04CFAF3
S3150800283000F0F0F800F0ECF886F3108884F31088BE
S3150800284000F0A7F9012809D003F0BAFA00F0AAF9AE
S315080028500128F5D100F024F81B2076BD00F020F8F9
S31508002860EFF3108400F034FA00F0D4F800F0D0F852
S3150800287084F3108800F0C8F9002807D100F0C4F9DD
S31508002880012803D100F0ADF9012801D01C2076BD3E
S31508002890002076BD000C014048208DF803007047E3
S315080028A001222021284600F0D1BB0121204600F054
S315080028B0CDBB8DF803002020ADF8000003208DF86D
S315080028C0020000A9204600F071BA002201214FF04B
S315080028D08040FDF7DABF002070E770B5DFF8E44303
S315080028E000F057F9012801D0A07828B1012001F09D
S315080028F073FC0120607070BDEFF3108500F023F8BB
S31508002900502100F042F900F034F90122FFF7DEFF0A
S3150800291000F04DF900F02BF986F31088EFF31086D6
S3150800292000F01AF800F076F800F072F886F31088CE
S315080029300020A07002462021DFF8A80300F086FBDD
S3150800294085F3108870BD012080F31088EFF3108698
S3150800295080F3108870470000012080F31088024831
S315080029604FF480610160704700E100E02DE9F04115
S31508002970DFF850431020E0707E2704E0082003F0BB
S3150800298081FA7F1EFFB2607808B9012FF6DAEFF3F5
S31508002990108800F0E8F8002200F0FEF800206070C9
S315080029A0A34E3078FE2806D17078851C862805DB6C
S315080029B01720E07028E0FD28F6D001250020E070F9
S315080029C0002703E0B85DFFF71FFE7F1CEDB2AF429C
S315080029D0F8DBA720FFF718FE00F0C3F84FF4C8612C
S315080029E000F0D3F800F0C5F8FFF76FFF00F0DFF846
S315080029F000F0BDF800F068F900F00CF800F008F8EF
S31508002A0086F310880020A07088F31088BDE8F0814E
S31508002A100A20EDE5102003F033BF0000F8B5EFF308
S31508002A20108400F0A0F8A74DE87817286CD010207D
S31508002A30E87000F0B7F8012802D11520E87063E0C5
S31508002A4000F0A7F8012802D01920E8707DE000F010
S31508002A5086F80746FF2FFAD057B900F080F8287095
S31508002A6000F07DF8A72801D01620E7E71120E5E752
S31508002A70052F17DA00F073F82870012F01D11220FC
S31508002A800AE0022F01D1132006E0032F01D11420FA
S31508002A9002E0042F01D11D20E87000F060F8A72895
S31508002AA032D0E1E7624EFE2F01D0FD2F19D100F09A
S31508002AB055F87070862801D31820BFE7022704E06E
S31508002AC000F04DF8B8557F1CFFB27078801C87421D
S31508002AD0F6DB00F044F8A72801D01620AEE7002060
S31508002AE0ACE707F0C000802805D100F037F8A72822
S31508002AF0BAD10020A2E7C02801D13770E9E740F231
S31508002B00E111144803F06CF900F02BF8082100F0E5
S31508002B103CF800F02EF80122FFF7D8FE00F047F83F
S31508002B2000F025F800F0D0F8FFF774FFFFF770FF04
S31508002B3086F310880020A8708021074802F047FD18
S31508002B400128F9D0012200F027F884F31088E878E4
S31508002B50F2BD00BFF8830008003001403770FF203F
S31508002B6052E5EFF31086012080F3108870471C2089
S31508002B703EE500214FF08040FEF79EB8EFF3108542
S31508002B80012080F310884FF6FF714FF08040FEF762
S31508002B90CDB8102003F032BE1021014800F056BA15
S31508002BA00008014001214FF08040FEF727BA0121B5
S31508002BB04FF08040FEF781BA80B52021494800F0E1
S31508002BC090F900280CD03F488178002903D00021CD
S31508002BD08170012002BDFFF7DCFF012800D000202C
S31508002BE002BD10B5124C0A202070FFF7BFFEFFF792
S31508002BF015FF1928FBD0002804D12078822801D196
S31508002C00012010BD002010BD10B5094C0B20207006
S31508002C10FFF7ACFEFFF702FF1928FBD0002804D106
S31508002C202078C12801D1012010BD002010BD000068
S31508002C30000C002038B5234C4FF08040808D50287A
S31508002C400FD1EFF3108500F043F8FFF7E3FEFFF727
S31508002C50DFFE85F3108800F040F80020A07001F030
S31508002C60BBFAFFF78BFFFFF784FFFFF72EFEFFF790
S31508002C709EFFFFF77CFF85F310880120607031BD49
S31508002C8038B5EFF3108400F023F8FFF7C3FEFFF71B
S31508002C90BFFE84F310880B4C0020A07000F01DF8CE
S31508002CA0FFF76CFFFFF765FFFFF70FFEFFF77FFFE4
S31508002CB0FFF75DFF85F3108801206070BDE832409C
S31508002CC001F08ABA800E002086F31088EFF310868A
S31508002CD0012080F310880A2084E40122202101487B
S31508002CE000F0B4B90010014080B5DFF8141488422A
S31508002CF01ED0DFF81014884221D0DFF80C14884261
S31508002D0024D0DFF80814884227D0DFF80414884254
S31508002D102AD0DFF8001488422DD0DFF8FC13884249
S31508002D2030D06E21DFF8E405BDE8044003F058B85A
S31508002D300121042002F06EF9002104202AE0012175
S31508002D40082002F067F90021082023E0012110205D
S31508002D5002F060F9002110201CE00121202002F079
S31508002D6059F90021202015E00121402002F052F9EE
S31508002D70002140200EE00121802002F04BF90021BD
S31508002D80802007E001214FF4807002F043F900210A
S31508002D904FF4807006E080B50121012002F03AF96F
S31508002DA000210120BDE8044002F034B92DE9F041C4
S31508002DB004460D46DFF8547500F0DEF814D000F02E
S31508002DC03BF911D000F035F90ED000F02FF90BD0F1
S31508002DD000F029F908D000F023F905D000F01DF914
S31508002DE002D0B12100F09AF9E87880B104280ED013
S31508002DF028280CD048280AD0142808D0102806D02D
S31508002E001C2804D0182802D0B22100F087F9288897
S31508002E1010B9B32100F082F9E87800F00F06C00671
S31508002E200BD5A878012806D0022804D0032802D09A
S31508002E30BA2100F073F9A8780643288801210F22E1
S31508002E40C3B213B3D4F800C0002301FA03F707EAA4
S31508002E500008B84514D14FEA830E02FA0EF82CEA98
S31508002E60080C06FA0EFE4EEA0C0C95F803E0BEF1C5
S31508002E70280F01D1676103E0BEF1480F00D1276131
S31508002E805B1C082BE1D3C4F800C04FF4807398424A
S31508002E9025D3D4F804C0002303F1080701FA07F77D
S31508002EA007EA0008B84515D14FEA830E02FA0EF86C
S31508002EB02CEA080C06FA0EFE4EEA0C0C95F803E00E
S31508002EC0BEF1280F00D1676195F803E0BEF1480FFF
S31508002ED000D127615B1C082BDED3C4F804C0BDE80B
S31508002EE0F08170B500F0ABF815D000F0A5F812D057
S31508002EF000F09FF80FD000F099F80CD000F093F886
S31508002F0009D000F08DF806D000F087F803D040F21B
S31508002F101D1100F006F9012D2BD0022D29D0042D04
S31508002F2027D0082D25D0102D23D0202D21D0402D97
S31508002F301FD0802D1DD04FF48070854219D04FF4D4
S31508002F400070854215D0B5F5806F12D0B5F5006FC3
S31508002F500FD0B5F5805F0CD0B5F5005F09D0B5F593
S31508002F60804F06D0B5F5004F03D04FF48F7100F0AF
S31508002F70D8F8A0684CE0044661488442704770B5AA
S31508002F8000F05DF815D000F057F812D000F051F8AF
S31508002F900FD000F04BF80CD000F045F809D000F03F
S31508002FA03FF806D000F039F803D040F2431100F09C
S31508002FB0B8F8012D2BD0022D29D0042D27D0082DA5
S31508002FC025D0102D23D0202D21D0402D1FD0802D87
S31508002FD01DD04FF48070854219D04FF40070854299
S31508002FE015D0B5F5806F12D0B5F5006F0FD0B5F5D1
S31508002FF0805F0CD0B5F5005F09D0B5F5804F06D0D7
S31508003000B5F5004F03D04FF4A27100F08AF8E068D6
S31508003010284000D00120C0B270BD3F4884427047A6
S315080030203C48844270473A4884427047374884424D
S315080030307047354884427047324884427047044690
S315080030400D46DFF8C8622E4884427047F8B5054633
S315080030500E461446DFF8B4722948854215D0294829
S31508003060854212D0284885420FD0284885420CD080
S315080030702748854209D02748854206D026488542F2
S3150800308003D04FF4C67100F049F8012E2BD0022E5A
S3150800309029D0042E27D0082E25D0102E23D0202E56
S315080030A021D0402E1FD0802E1DD04FF4807086422E
S315080030B019D04FF40070864215D0B6F5806F12D03D
S315080030C0B6F5006F0FD0B6F5805F0CD0B6F5005F89
S315080030D009D0B6F5804F06D0B6F5004F03D040F2BA
S315080030E08D1100F01BF8002C07D0012C03D04FF4EB
S315080030F0C77100F013F82E61F1BD6E61F1BD0000D5
S3150800310000080140000C0140001001400014014075
S3150800311000180140001C014000200140384602F01A
S315080031205FBE304602F05CBE70B500F0EBF8012CCD
S3150800313078D0022C76D0042C74D0082C72D0514842
S3150800314084426FD0504884426CD05048844269D03B
S315080031504F48844266D04F48844263D04E488442E2
S3150800316060D04E4884425DD04D4884425AD04D487E
S31508003170844257D0B4F5805F54D0B4F5EA1F51D0D5
S31508003180B4F5EB1F4ED0B4F5004F4BD046488442F9
S3150800319048D04648844245D04548844242D04548AE
S315080031A084423FD0444884423CD0B4F1201F39D0F1
S315080031B04248844236D04248844233D04148844209
S315080031C030D0414884422DD0404884422AD04048D5
S315080031D0844227D0B4F5011F24D03E48844221D02A
S315080031E03D4884421ED03D4884421BD03C48844218
S315080031F018D03C48844215D03B48844212D03B48FC
S3150800320084420FD03A4884420CD03A48844209D0C6
S315080032103948844206D03948844203D040F22221F4
S31508003220FFF77FFF2DB1012D03D040F22321FFF7D1
S3150800323078FF3348002C4CBF8269026804F4702179
S315080032400B0CA1B2660D3601B14004F44016B6F572
S31508003250401F06D122F07062036823F07063036092
S3150800326008E0E60243BF032606FA03F39A438A43B5
S3150800327042F0706205B10A43002C4CBF82610260BD
S3150800328070BD00BF10001400300014004000160086
S31508003290C0001600000118000002180000031800FC
S315080032A000081A00000C1A00010020000200200085
S315080032B00400200008002000100020004000200024
S315080032C00001300000023000000430000010200029
S315080032D00020200001000080020000800400008019
S315080032E00800008010000080200000804000008058
S315080032F08000008000010080000200800004008039
S315080033000400014004460D46004E7047108300082D
S3150800331070B5FFF7F7FF7CB1012C0DD0022C0BD04E
S31508003320032C09D0042C07D0052C05D0062C03D075
S3150800333040F25D21FFF7F5FE0DB3012D1FD0022DDA
S315080033401DD0032D1BD0042D19D0052D17D0062D01
S3150800335015D0072D13D0082D11D0092D0FD00A2D01
S315080033600DD00B2D0BD00C2D09D00D2D07D00E2D01
S3150800337005D00F2D03D040F25E21FFF7D2FE05F0EF
S3150800338003008000A910084A52F821300F2585400D
S31508003390AB4342F8213052F8213004FA00F01843C2
S315080033A042F8210070BD00BF0800014080B5DFF873
S315080033B07414884216D0DFF8681488421ED0DFF8E5
S315080033C05C14884223D0DFF8B813884228D0DFF887
S315080033D0A41388422DD08321DFF83C04BDE80440BD
S315080033E002F0FEBC01214FF4804001F013FE0021DB
S315080033F04FF48040BDE8044001F00CBE01214FF4B3
S31508003400003001F029FE00214FF4003019E00121B7
S315080034104FF4802001F020FE00214FF4802010E0B8
S3150800342001214FF4002001F017FE00214FF400207F
S3150800343007E001214FF4801001F00EFE00214FF441
S315080034408010BDE8044001F007BE00002DE9F043F6
S3150800345085B000F0D7F90CD044450AD0BC4208D054
S3150800346000F08AF905D000F080F902D0B52100F005
S3150800347089F9286810B14949884202D3B62100F073
S3150800348081F9A88828B1B0F5805F02D0B72100F08D
S3150800349079F9E88858B1B0F5805F08D0B0F5005FD3
S315080034A005D0B0F5405F02D0B82100F06BF9288945
S315080034B040B1B0F5806F05D0B0F5C06F02D0B92124
S315080034C000F060F968894FF6F371084200D110B927
S315080034D0BA2100F057F9A889C8B14FF4807188421B
S315080034E00CD04FF40071884208D04FF440718842DE
S315080034F004D0BB2100F046F9A88940B14C4506D056
S31508003500444504D0BC4202D0BF2100F03BF9208AD2
S315080035104CF6FF710840E98808432082A0894EF6D8
S31508003520F3110840A988084329890843698908438B
S31508003530A081A08A4FF6FF410840A9890843A082C6
S3150800354000A801F0E9FC4C450CBF039802982968CD
S3150800355019225043A28912044CBF49008900B0FBC6
S31508003560F1F16422B1FBF2F00001030902FB131129
S31508003570A3891B0406D5C9003231B1FBF2F101F06B
S31508003580070105E009013231B1FBF2F101F00F0143
S315080035900843208105B0BDE8F08300BF21AA440096
S315080035A070B500F0B4F80FD000F0D7F80CD000F0E2
S315080035B0D0F809D000F0E0F806D000F0D6F803D02D
S315080035C040F25F1100F0DEF84DB1012D03D04FF443
S315080035D0B07100F0D7F8A08940F4005003E0A08944
S315080035E04DF6FF710840A08170BD2DE9F84F00F037
S315080035F065F8DFF828B2DFF828A2DFF82882454503
S315080036000FD055450DD05D450BD0DFF874018542C6
S3150800361007D0DFF86001854203D04FF4C37100F08C
S3150800362053F840F66A19282E1BD040F227708642B6
S3150800363017D040F22660864213D040F225508642C3
S315080036400FD040F2244086420BD040F64600864210
S3150800365007D04E4505D0602E03D040F2871100F002
S3150800366033F82CB1012C03D04FF4C47100F02CF8B8
S315080036704E4509D1454507D0554505D05D4503D08A
S315080036804FF4C67100F020F83006400F012106F00D
S315080036901F029140012802D105F10C0005E002281D
S315080036A00CBF05F1100005F11400002C026814BFC8
S315080036B0114322EA01010160BDE8F18F05460E4675
S315080036C01446DFF854717047384602F089BB70B566
S315080036D000F01DF80FD000F040F80CD000F039F8D3
S315080036E009D000F049F806D000F03FF803D040F2C0
S315080036F04F2100F047F84FF40070854203D34FF48A
S31508003700147100F03FF8E805C00DA08070BD0446AE
S315080037100D46DFF80461DFF80C018442704710B5E6
S315080037200446DFF8000184420FD000F016F80CD0EA
S3150800373000F00FF809D000F01FF806D000F015F8D1
S3150800374003D04FF4187100F00CF8A088C005C00D1E
S3150800375010BDDFF8C80084427047DFF8C400844211
S315080037607047DFF8B40002F03BBB0248844270475A
S3150800377000000000005000400148844270470000E5
S31508003780004C0040304602F02BBB2DE9F84300F010
S3150800379039F80DD044450BD0BC4209D0FFF7ECFFF1
S315080037A006D0FFF7E2FF03D040F26A31FFF7EAFFDF
S315080037B0012D22D0802D20D0402D1ED0202D1CD0AA
S315080037C0102D1AD04FF48070854216D04FF4007031
S315080037D0854208D0082D10D0042D0ED0022D0CD00D
S315080037E040F26B3107E04C4507D0444505D0BC4252
S315080037F003D040F26F31FFF7C5FF2088284000D07C
S3150800380001206FE004460D46034E044FDFF8108092
S31508003810DFF810904C4570472483000800480040A4
S3150800382000440040003801402DE9F843FFF7EAFF5D
S315080038300DD044450BD0BC4209D0FFF79DFF06D0FA
S31508003840FFF793FF03D040F2BD31FFF79BFF282D0A
S3150800385030D040F2277085422CD040F2266085424F
S3150800386028D040F22550854224D040F22440854293
S3150800387020D040F6460085421CD040F66A108542A4
S315080038800ED04FF45870854214D04FF41870854204
S3150800389010D04FF4B07085420CD040F2BE3107E02C
S315080038A04C4507D0444505D0BC4203D040F2C2314E
S315080038B0FFF768FF2806400F012105F01F0201FAED
S315080038C002F2012801D1A08903E002280CBF208A50
S315080038D0A08A10402A0A91402288114010B1080097
S315080038E000D00120C0B2BDE8F283000080B5DFF841
S315080038F0181488420ED0DFF82814884213D0DFF84F
S315080039001414884218D0B521DFF86004BDE80440D5
S3150800391002F066BA01214FF4007001F07BFB00212A
S315080039204FF4007010E001214FF4806001F072FB43
S3150800393000214FF4806007E001214FF4004001F0B8
S3150800394069FB00214FF40040BDE8044001F062BB6A
S3150800395070B500F0A9F908D000F09EF905D000F07E
S315080039609FF902D0DE2100F0A6F92868E8B1B0F583
S31508003970803F1AD0B0F5003F17D0B0F5403F14D0BD
S31508003980B0F5802F11D0B0F5A02F0ED0B0F5C02F0E
S315080039900BD0B0F5E02F08D0B0F5002F05D0B0F564
S315080039A0102F02D0DF2100F086F9287920B10128EE
S315080039B002D0E02100F07FF9687920B1012802D011
S315080039C0E12100F078F9A868B8B1B0F5003F14D045
S315080039D0B0F5802F11D0B0F5C02F0ED0B0F5002F5E
S315080039E00BD0B0F5202F08D0B0F5402F05D0B0F594
S315080039F0602F02D0E22100F05EF9E86828B1B0F540
S31508003A00006F02D0E32100F056F9287C08B111288E
S31508003A1002D3E42100F04FF960680E49084029688E
S31508003A200843297940EA01206060A0680A490840ED
S31508003A30E9680843A9680843697940EA4100A06033
S31508003A40E06A20F47000297C491EC9B240EA015098
S31508003A50E06270BDFFFEF0FFFDF7F1FF70B500F004
S31508003A6023F909D000F018F906D000F019F903D0A7
S31508003A7040F22D1100F01FF94DB1012D03D04FF47E
S31508003A80977100F018F9A06840F0010002E0A068FC
S31508003A9040084000A06070BDDFF86C0285427047A0
S31508003AA010B500F049F809D000F0F6F806D000F095
S31508003AB0F7F803D040F27D1100F061F8A06840F0F5
S31508003AC00800A06010BD10B500F036F809D000F067
S31508003AD0E3F806D000F0E4F803D040F28B1100F0CA
S31508003AE04EF8A0680006C00E23E010B500F024F8D2
S31508003AF009D000F0D1F806D000F0D2F803D040F291
S31508003B00A31100F03CF8A06840F00400A06010BDC6
S31508003B1010B500F011F809D000F0BEF806D000F094
S31508003B20BFF803D040F2B11100F029F8A0680006EA
S31508003B30800E00F0010010BD0446DFF8CC01844277
S31508003B40704770B500F0B0F809D000F0A5F806D0B7
S31508003B5000F0A6F803D040F2CB1100F0ACF84DB156
S31508003B60012D03D04FF4E67100F0A5F8A06840F4E3
S31508003B70A00002E0A06820F4A000A06070BDDFF8F5
S31508003B80EC0102F02DB92DE9F04100F097F80BD0C1
S31508003B90DFF88C01864207D0DFF87801864203D029
S31508003BA040F2512100F0ADF82FB3012F23D0022F98
S31508003BB021D0032F1FD0042F1DD0052F1BD0062F71
S31508003BC019D0072F17D0082F15D0092F13D00A2F71
S31508003BD011D00B2F0FD00C2F0DD00D2F0BD00E2F71
S31508003BE009D00F2F07D0102F05D0112F03D040F280
S31508003BF0522100F086F80CB1112C03D340F2532160
S31508003C0000F07FF88DB1012D0FD0022D0DD0032DB8
S31508003C100BD0042D09D0052D07D0062D05D0072D6C
S31508003C2003D04FF4157100F06CF800F050F81F201F
S31508003C300521072C06D2621E5143726B00F014F858
S31508003C4070630FE00D2C06D2E21F5143326B00F071
S31508003C500BF8306306E0A4F10D025143F26A00F056
S31508003C6003F8F062BDE8F081884022EA000007FA0E
S31508003C7001F10843704710B5FFF75EFF09D000F061
S31508003C800BF806D000F00CF803D040F2C621FFF777
S31508003C9076FFE06C80B210BDDFF88400844270477E
S31508003CA0DFF870008442704704460D46DFF8BC60B2
S31508003CB0154884427047304602F092B806460F46C9
S31508003CC014461D46DFF8A4800F4886427047072031
S31508003CD003210A2F0BD3A7F10A025143F268884041
S31508003CE022EA000005FA01F10843F06070477943BB
S31508003CF03269884022EA000005FA01F1084330617A
S31508003D007047404602F06CB80024014001488542DD
S31508003D1070470000003C014001488542704700009A
S31508003D200028014070B505460C46104EFFF7B4FE54
S31508003D3009D0FFF7F1FF06D0FFF7E8FF03D040F2FE
S31508003D40AE41FFF7B8FF012C0BD0022C09D0042C8A
S31508003D5007D0082C05D0102C03D040F2AF41FFF74E
S31508003D60AAFF2868204000D0012070BD08840008FA
S31508003D70DFF860040021017000F2650100224A7331
S31508003D8080F865200A738A73FF22CA7300220A74B0
S31508003D9082677047612801D3572107E0412801D37C
S31508003DA0372103E03A2834BF30210021401AC0B237
S31508003DB07047DFF82014401890F8661090F86500F0
S31508003DC0081AC0B27047DFF80C14401890F865005E
S31508003DD04018401C704700002DE9F84F8346884676
S31508003DE00026DFF8F04304F2710702E05A480A2178
S31508003DF00170BBF1000F17D100A95FFA88F001F036
S31508003E0005FDD8B1262802D13046BDE8F28F01203B
S31508003E10B87004202070002EEBD0B87808B102F0F4
S31508003E202DF9FFF7A5FFE4E75FFA88F10029EBD043
S31508003E301BF8010B8DF80000A1F10108464800782F
S31508003E400D2803D19DF800000A28CFD042489DF8D6
S31508003E50001001709DF800000D2801D00A2801D134
S31508003E60012600E0002620280ED101250020217811
S31508003E7031B1022946D03CD30429CCD048D3B8E77F
S31508003E802EB300F0B7F8B4E700252228EED10120BA
S31508003E90EDE7401C84F87100C0B20019797880F803
S31508003EA0651000202070002EA3D0EAE720780128AC
S31508003EB005D19DF8000000F051F88DF8000028198A
S31508003EC09DF8001041707878401C787091E7002DB5
S31508003ED08FD130B1022020707D78642DE6D106207E
S31508003EE096E79DF800007B2801D10320F3E701201F
S31508003EF0F1E70EB9002DEFD094F871000B28C8D160
S31508003F00032085E70028F7D1002EE5D005207FE7B6
S31508003F1097F80390B9F1FF0F14BF4FF0010A4FF05D
S31508003F20000A9DF800007D2803D1BAF1000FEDD1F3
S31508003F30E2E7FFF72FFF10280BDABAF1000F06D0D9
S31508003F4000EB09108DF80000FF20F870C4E7F87040
S31508003F504FE7002DFCD1D9E71C0E0020412803D3DA
S31508003F605B2801D22030C0B270479A4991F8752073
S31508003F701018C0B2401890F865004018407870478D
S31508003F802DE9F84F05460C46002760B2FFF71BFFE0
S31508003F9082462046FFF70DFF834600240BE019F8FA
S31508003FA0010BFFF7DBFF804616F8010BFFF7D6FF7C
S31508003FB0804503D010352E68AEB1D146A9EB0A006C
S31508003FC058450CBF012000203278511E8941C90F7F
S31508003FD010B119B128460AE00029E0D00FB1012432
S31508003FE0E8E72F46E6E7002C14BF00203846BDE870
S31508003FF0F28F00002DE9F047554C4FF00009DFF825
S31508004000D4A19AF8710070B352480078C0071DD53C
S3150800401000264DA5504F11E070B2FFF7D4FE80463A
S315080040203046FFF7C6FE02464146387801F010FCD6
S315080040302946387801F004FC761CF6B29AF8710025
S315080040408642E9DB41A1387801F0FAFB4946204669
S31508004050FFF796FF04000AF2710607D10220B07036
S31508004060B07802F00BF8BDE8F04781E6CAF8784068
S3150800407009F101005FFA80F93079401C3071A068B7
S3150800408061680A0006D104469AF871008145DDDBAD
S315080040900320E4E702786E2A01D10C46F4E73F2AAA
S315080040A04CD00027B84613E00720B070A06838182F
S315080040B040782A2801D07F1CFFB2B07800283DD16D
S315080040C009F101005FFA80F908F101005FFA80F84A
S315080040D0A0689AF8711089452ADA3D5C4046FFF7D0
S315080040E044FF294611B362391AD0113902D0891E04
S315080040F00229D9D8752D01D1FF2509E0762D02D1DF
S315080041004FF6FF7504E0732D0CBF7F254FF0FF3582
S315080041100121404600F022F88542C7D20420C4E7B0
S315080041202228C3D07B28C1D00520BEE70320BCE7E0
S31508004130395C19B1381840782A28A9D1B0780028EE
S315080041408ED1606880478EE7200000000D0A0000C7
S31508004150C06000081D0E0020200E00202DE9F04743
S315080041608846DFF8709099F875100818C0B200EB09
S31508004170090191F8651049444E1CFFF71AFE82465C
S3150800418000240A25002706E094B9012F01D0022F42
S315080041900ED110257F1C574516DAB85DB8F1000F09
S315080041A002D00FB92D28F5D07828EDD05828EBD0B5
S315080041B0FFF7F0FDA84202DA05FB0404EAE705204A
S315080041C089F87300002000E02046BDE8F08700214A
S315080041D0C4E70000880D00200F49487001200870C8
S315080041E07047000010B50B4C00F0D2F8FEF775FBCF
S315080041F0094801780029FCD0002101704078002880
S3150800420014BF04F1180004F12800BDE8104003F0BB
S31508004210CFBF00BFA07C0008190E002030B587B0BC
S3150800422001465A48214A072939D8DFE801F0040E21
S31508004230111A20272A3102A913880B800A780270DE
S315080042404A784270012007B030BD02A9921CF3E7F4
S3150800425000A9121D18CA18C1062200A903F080FA7F
S31508004260F0E700A90C3218CA18C10522F5E703A918
S31508004270143238CA38C10A2203A9EFE700A9203246
S31508004280F1E700A9283218CA18C1052200A9E5E7EE
S3150800429003A9303238CA38C10A2203A9DEE702F177
S315080042A03C0003F085FF0020CDE700BF9C7800089E
S315080042B0F8B5FFF7B3FF002860D0324CFEF77CFC58
S315080042C008B100F065F8FEF751FBFEF7A7FB1928C1
S315080042D0FBD02E4D70B92878FE2807D16878861C41
S315080042E004F2901003F064FF002741E0FD28F5D0A2
S315080042F00126F5E70226102802D104F120003BE04A
S31508004300152802D104F1380036E0112807D11E48D5
S31508004310017804F15C00BDE8F44003F049BF1228B7
S3150800432002D104F1840027E0132802D104F1A80081
S3150800433022E0142802D104F1CC001DE01D2802D188
S3150800434004F1F40018E0162802D104F21C1013E058
S31508004350172802D104F240100EE01828C0D104F242
S31508004360681009E0795D04F29C1003F021FF7F1CB8
S31508004370F6B2B742F6DB02A003F01AFFF1BD00BFA2
S315080043800D0A000060620008800E0020000C002064
S31508004390204603F00DBF000070B50020FFF717FF99
S315080043A004460120FFF713FF85B2574EA4B28CB11D
S315080043B0012C11D0022C1FD0032C26D0042C2DD072
S315080043C0052C34D0062C35D0072C46D0B4F5827F80
S315080043D055D090E0E8B24FE005F00100FEF7EEF99F
S315080043E005F0010128B102463046BDE8704003F0E9
S315080043F0DFBE06F13000BFE0FEF706FC10B106F19D
S315080044005C007AE006F1840077E0FEF7EAFB10B17B
S3150800441006F1B00071E006F1DC006EE0FEF7CCFBB9
S3150800442010B106F2081068E006F2201065E0BDE853
S315080044307040D7E606F23C1003F0BAFE0320FFF7F9
S3150800444037FF0720FFF734FF0620FFF731FF03F099
S3150800445009FCFFF7C7FE03200EE006F2881003F0FA
S31508004460A7FE0320FFF724FF0620FFF721FF03F02E
S31508004470F9FBFFF7B7FE0320BDE8704018E721A453
S31508004480FFF786FF06F2C41003F092FEFEF723FA42
S31508004490010004D006F2102003F08AFE03E006F2BB
S315080044A0302003F085FEFFF773FF06F24C2003F079
S315080044B07FFE0220FFF7FCFEFFF76AFF06F2902058
S315080044C003F076FEFFF78EFEFFF762FF06F2C420C2
S315080044D003F06EFE0120FFF7EBFEFFF759FF06F229
S315080044E0EC2003F065FE0420FFF7E2FEFEF764FB0E
S315080044F00028FBD0AFE706F22830BDE8704003F08D
S3150800450057BE00BF0D0A00008845000870B502F0C6
S3150800451028FC0446EFF31085012080F310884FF439
S31508004520C8614FF08040FCF701FC00214FF0804045
S31508004530FCF7C2FB002201214FF08040FCF7A5F9E9
S3150800454001214FF08040FCF7B8FD0D484FF080512F
S31508004550016085F3108801214FF08040FCF74EFD7D
S315080045600128F8D102F0FDFB0546064E304603F059
S315080045701FFE291B06F12800BDE8704003F018BE8F
S3150800458080E200E0DC7A00084552524F523A206831
S31508004590616C4E63704861726452657365745265E6
S315080045A071426F6F746C6F616428256429203078B6
S315080045B025780D0A0000000068616C4E637048613A
S315080045C072645265736574526571426F6F746C6F6D
S315080045D061642825642920737563636573730D0AFE
S315080045E00000000068616C4E6370566572696679F2
S315080045F053706950726F746F636F6C416374697638
S315080046006520697320545255450D0A0068616C4E41
S31508004610637056657269667953706950726F746F04
S31508004620636F6C4163746976652069732046414CF3
S3150800463053450D0A0000000068616C4E63705665AC
S315080046407269667953706950726F746F636F6C56CE
S31508004650657273696F6E20697320545255450D0A49
S315080046600000000068616C4E637056657269667971
S3150800467053706950726F746F636F6C5665727369A5
S315080046806F6E2069732046414C53450D0A000000A1
S3150800469068616C4E63704861734461746120697324
S315080046A020545255450D0A0068616C4E6370486186
S315080046B073446174612069732046414C53450D0A61
S315080046C000000000496E766F6B696E672064656549
S315080046D07020736C656570206F6620626F74682041
S315080046E06D6963726F732E202053657474696E67E3
S315080046F0204E435020666F722035732074696D65AD
S31508004700722063616C6C6261636B2E0D0A00000097
S31508004710496E766F6B696E67206465657020736C89
S31508004720656570206F6620626F7468206D696372B4
S315080047306F732E2020286E6F204E43502063616CC5
S315080047406C6261636B73290D0A000000496E766F0F
S315080047506B652068616C4E6370486172645265735C
S31508004760657420746F20766572696679204D4F539B
S31508004770492C204D49534F2C2053434B2C206E5324
S31508004780532C206E484F53545F494E542C206E527A
S31508004790455345540D0A00004552524F523A206877
S315080047A0616C4E637048617264526573657420303B
S315080047B07825780D0A00000068616C4E63704861C0
S315080047C07264526573657420737563636573730DDC
S315080047D00A0000005465737420455A535020277602
S315080047E0657273696F6E2720636F6D6D616E642CD9
S315080047F020657870656374696E6720464520303792
S3150800480020303020383020303020303420303220EC
S3150800481031302034350D0A0054657374206E5741C3
S315080048204B452068616E647368616B6520746F2000
S31508004830766572696679206E57414B452C206E481D
S315080048404F53545F494E540D0A0000005465737463
S31508004850205350492050726F746F636F6C205361F8
S315080048607475732C20657870656374696E67204368
S31508004870310D0A0054657374206E484F53545F49CE
S315080048804E542F68616C4E6370486173446174615D
S31508004890207573696E672061203171732074696DA4
S315080048A06572206F6E20746865204E43500D0A00AD
S315080048B04F4F5053212020556E6B6E6F776E2074C4
S315080048C0657374206E756D6265720D0A00000000CE
S315080048D06466696E6974206D7573742062652063F9
S315080048E0616C6C656420666972737420746F2063EA
S315080048F0686F6F7365207468652044617461466CDF
S31508004900617368206465766963650D0A00000000B6
S315080049104D6178696D756D206C656E677468207079
S315080049206172616D6574657220666F72207468695C
S3150800493073207465737420636F6D6D616E6420698E
S31508004940732025640D0A00005B41746D656C5D205B
S3150800495043616C6C696E672068616C456570726F3F
S315080049606D52656164283078253038582C202664C5
S315080049706174612C202564290D0A00005B4D69636A
S31508004980726F6E5D2043616C6C696E672068616C3E
S31508004990456570726F6D52656164283078253038C8
S315080049A0582C2026646174612C202564290D0A0080
S315080049B068616C456570726F6D52656164207265D9
S315080049C07475726E656420726573756C74203078C0
S315080049D0253032580D0A000068616C456570726FA3
S315080049E06D526561642072657475726E65642045E2
S315080049F04550524F4D5F53554343455353207769AE
S31508004A00746820646174613A0D0A000025303258D2
S31508004A102000000046696C6C696E6720696E7075C7
S31508004A2074206461746120776974682073696D7095
S31508004A306C6520696E6372656D656E74696E672054
S31508004A40627974652028307830302C2030783031FF
S31508004A502C20657463290D0A000000005B41746D03
S31508004A60656C5D2043616C6C696E672068616C4596
S31508004A706570726F6D57726974652830782530389D
S31508004A80582C2026646174612C202564290D0A009F
S31508004A905B4D6963726F6E5D2043616C6C696E670E
S31508004AA02068616C456570726F6D57726974652808
S31508004AB03078253038582C2026646174612C2025DE
S31508004AC064290D0A0000000068616C456570726F04
S31508004AD06D526561642072657475726E65642045F1
S31508004AE04550524F4D5F535543434553532E0D0A78
S31508004AF0000000005B41746D656C5D2043616C6C61
S31508004B00696E672068616C456570726F6D5772696A
S31508004B107465283078253038582C205B307846461E
S31508004B205D2C202564290D0A000000005B4D696391
S31508004B30726F6E5D2043616C6C696E672068616C8C
S31508004B40456570726F6D57726974652830782530BF
S31508004B5038582C205B307846465D2C202564290D74
S31508004B600A0000005B41746D656C5D2043616C6CE6
S31508004B70696E672068616C456570726F6D536875FC
S31508004B8074646F776E0D0A005B4D6963726F6E5DB4
S31508004B902043616C6C696E672068616C456570724C
S31508004BA06F6D53687574646F776E0D0A00000000A8
S31508004BB02DE9F04186B006460F4614461D46A8481C
S31508004BC0002141808180C180018141818181182035
S31508004BD08DF803004FF40070ADF8000003208DF83F
S31508004BE00200DFF87C8000A94046FEF7DFF80420C3
S31508004BF08DF803004FF48060ADF8000000A9404628
S31508004C00FEF7D4F80296ADF80C70ADF81040ADF882
S31508004C100E500020ADF814000C20ADF81200914C8F
S31508004C2002A92046FEF712FC01212046FEF7B8FC31
S31508004C30012240F225512046FEF7D7FC25208DF8A3
S31508004C40040000208DF805008DF8060001208DF877
S31508004C50070001A802F0C4FA06B0BDE8F08100BF5B
S31508004C600008014080B5082906D00A290DD00C296C
S31508004C700ED00F290FD011E04FF49640012A0FD01D
S31508004C80022A10D14FF480620EE04FF41640F5E781
S31508004C904FF46140F2E74FF4E130EFE7202002BD20
S31508004CA04FF4C06200E00022022B0CBF4FF4005301
S31508004CB000230021FFF77CFF002002BD2DE9F84301
S31508004CC00C4615460026012805D0022803D04FF0C9
S31508004CD0FF30BDE8F283DFF88C81614F3878A0B1E8
S31508004CE0002709E000F049F80028FBD0395D404666
S31508004CF0FEF7EDFC761C7F1CAF42F3D3402100F093
S31508004D003DF80028FAD03046E3E740F2277914B395
S31508004D10002DF8D0B8897F2818D2EFF3108001212A
S31508004D2081F310883989514A14F8013B8B54491C80
S31508004D308A1101EB5262D211A1EBC2113981B989EC
S31508004D40491CB9816D1E761C80F3108800F010F896
S31508004D50DEE700F00DF8B8890028FAD100F00DF862
S31508004D600028F6D0402100F009F80028F1D0CAE75B
S31508004D70012249464046FEF738BC80214046FEF7E8
S31508004D8004BD00220021012098E7354908707047C4
S31508004D90F0B5002802D04FF0FF30F0BD324B304C52
S31508004DA017E0EFF31085012686F31088A688F65CCF
S31508004DB001F8016BA688761CB71106EB5767FF1139
S31508004DC0A6EBC716A680E688761EE68085F31088C9
S31508004DD0401CE588002D01D09042E2D3F0BD70B5A5
S31508004DE01F4E204D40F225512846FEF71DFD01288D
S31508004DF012D12846FEF793FCF1887F290CD27288D7
S31508004E00194BD054501C821100EB5262D211A0EB00
S31508004E10C2107080481CF08040F22774214628464C
S31508004E20FEF702FD012819D1B08990B170890F49A2
S31508004E30415C2846FEF74BFC7089401C811100EB4B
S31508004E405161C911A0EBC1107081B089401EB081B3
S31508004E5070BD002221462846FEF7C7FB70BD00003C
S31508004E60040E002000380140880C0020080D0020A0
S31508004E702143016010BD4A480168704710B5040017
S31508004E800CD0B4F5804F09D0B4F5004F06D0B4F570
S31508004E90404F03D040F20B3100F005F8FFF7EBFF67
S31508004EA021F44041E4E77D4800F09ABF0000000085
S31508004EB010B5040005D0012C03D040F26A31FFF783
S31508004EC0F2FF0148046010BD8004424210B5044652
S31508004ED04FF4807084420BD04FF40070844207D0A0
S31508004EE04FF44070844203D040F27B31FFF7DBFF7A
S31508004EF001480168BCE700002010024010B5040014
S31508004F0005D0012C03D040F28931FFF7CCFF0148C8
S31508004F10046010BD3C04424230B521490B681D4A65
S31508004F2003F00C03082B0FD10B680C6803F47013FD
S31508004F309B0C9B1C184D5D43E40301D42A4603E0F1
S31508004F400C68A403FAD45A4302600B68134A04682F
S31508004F5003F0F0031B099B5C24FA03F343600C6817
S31508004F6004F4E064240AA45CE34083600B684468A4
S31508004F7003F46053DB0A9B5C24FA03F3C3600968F5
S31508004F8001F4404102EB9131097CB3FBF1F1016177
S31508004F9030BD00BF00127A0000093D00600E0020F7
S31508004FA004100240F8B500F04FF800D11CB940F2E1
S31508004FB0514100F02BF8074D46B1012E03D040F2BF
S31508004FC0524100F023F82868204301E02868A043EE
S31508004FD02860F1BD18100240F8B500F057F800D166
S31508004FE01CB94FF48E6100F011F8074D46B1012E39
S31508004FF003D040F2714100F009F82868204301E027
S315080050002868A0432860F1BD1C100240384600F00D
S31508005010E7BE0000F8B500F017F800D11CB940F259
S31508005020AB41FFF7F3FF074D46B1012E03D040F21F
S31508005030AC41FFF7EBFF2868204301E02868A0434E
S315080050402860F1BD0C10024004460E46134F014875
S31508005050044270470200C0FFF8B500F017F800D107
S315080050601CB940F2CA41FFF7D1FF074D46B1012EE0
S3150800507003D040F2CB41FFF7C9FF2868204301E07F
S315080050802868A0432860F1BD1010024004460E4669
S31508005090024F0148044270470036018128840008FF
S315080050A010B5040005D0012C03D040F2DF41FFF70C
S315080050B0FAFE0148046010BD4004424210B5044699
S315080050C0212C17D0312C15D0392C13D0412C11D0C6
S315080050D0612C0FD07A2C0DD07B2C0BD07C2C09D0D0
S315080050E07D2C07D07E2C05D07F2C03D040F23B5177
S315080050F0FFF7D9FE60090949012801D1086803E0CC
S3150800510002280CBF086A486A012104F01F02914070
S31508005110084000D00120C0B210BD000000100240B7
S315080051200248016841F0807101607047241002400E
S3150800513010B58AB04020ADF8040018208DF8070095
S3150800514003208DF8060001A91F48FDF72FFE01214F
S315080051501E48FDF7E9FF4820ADF808004FF6FF7036
S31508005160ADF80C000020ADF80E00ADF80A008E4C24
S3150800517002A92046FBF7BAF805A8FBF733FB30204F
S31508005180ADF814000120ADF8160005A92046FBF776
S315080051903FF908212046FBF753FC01212046FBF77F
S315080051A006FC002202212046FBF76FFB1D208DF826
S315080051B0000000208DF80100ADF8020000A802F0FA
S315080051C00FF80AB010BD00BF00100140000C1A000D
S315080051D02DE9F04107460C46FFF7AAFF554D6F60CB
S315080051E0DFF8C481544E00F03DF8FBF79FFD00F050
S315080051F039F8FBF7D5FD00214046FBF75DFD387809
S3150800520079784843642148437D2190FBF1F0688012
S315080052100220287000206870EFF31087012080F3C1
S315080052201088012202214046FBF72FFB4FF000565B
S315080052300A48066002214046FBF73FFF0848066019
S3150800524001214046FBF7D8FA87F3108801E000F001
S31508005250B7FD68782043FAD0BDE8F08100E100E0A8
S3150800526080E200E0387896FBF0F189B24046704754
S31508005270F8B54D4C02212046FBF71FFF2D4D6888D7
S31508005280411E6980002854D12878696842185278E6
S31508005290002A40D06426425C1AB3274F97FBF2F1E6
S315080052A089B22046FBF742FD28786968405C97FB7F
S315080052B0F0F189B22046FBF773FD00212046FBF783
S315080052C0FBFC012200212046FBF744FC287869688C
S315080052D0425C40184078504370437D2190FBF1F0C2
S315080052E014E04FF47A712046FBF720FD4FF47A71EB
S315080052F02046FBF755FD00212046FBF7DDFC00F0B4
S3150800530055F8287869684018407870436880287886
S31508005310801C2870F1BD02212046FBF7B6FA00F082
S3150800532031F800F043F800212046FBF765FA012022
S315080053306870F1BD740E002048E8010038B50446CF
S31508005340FFF7F6FE184D002202212846FBF79DFAC4
S3150800535000F018F80A4890FBF4F4A1B22846FBF7C7
S31508005360E5FCA1B22846FBF71BFD00212846FBF702
S31508005370A3FC01212846BDE83440FBF73DBA00BF2F
S3150800538020A1070002484FF000510160704700BF96
S3150800539080E100E010B5044C00F008F80021204632
S315080053A0BDE81040FBF728BA00040040002200219F
S315080053B02046FBF7CFBB000080B5DFF86C128842A9
S315080053C00ED0DFF86812884216D0DFF864128842D9
S315080053D01BD07921DFF84C02BDE8044000F000BD7F
S315080053E001214FF48050FFF715FE00214FF480503D
S315080053F0BDE80440FFF70EBE01214FF48040FFF7D9
S315080054002BFE00214FF4804007E001214FF40040B5
S31508005410FFF722FE00214FF40040BDE80440FFF7E5
S315080054201BBE70B500F0CDF808D000F0BDF805D069
S3150800543000F0B7F802D0A22100F0C0F8288858B1C9
S31508005440B0F5806F08D0B0F5004F05D0B0F5404FE5
S3150800545002D0A52100F0B2F868884FF4827188421C
S3150800546003D010B1A62100F0A9F8A888B0F5006FFE
S3150800547003D010B1A72100F0A1F8E88820B10228CE
S3150800548002D0A82100F09AF8288920B1012802D074
S31508005490A92100F093F868894FF40071884203D077
S315080054A010B1AA2100F08AF8A88980B108280ED080
S315080054B010280CD018280AD0202808D0282806D06A
S315080054C0302804D0382802D0AB2100F077F8E889D4
S315080054D020B1802802D0AC2100F070F8288A10B9D3
S315080054E0AD2100F06BF8208800F441502988084364
S315080054F069880843A9880843E9880843298908432D
