S010000073696E6B2D686F73742E73333744
S31508000000000800203D750008D1750008D575000860
S31508000010D9750008DD750008E175000800000000C4
S31508000020000000000000000000000000E575000860
S31508000030E975000800000000ED750008F175000874
S31508000040F5750008F9750008FD75000801760008C1
S3150800005005760008097600080D760008117600086E
S31508000060157600081976000841320008217600083E
S3150800007025760008297600082D76000831760008CE
S3150800008035760008397600083D760008417600087E
S3150800009045760008497600084D760008517600082E
S315080000A055760008597600085D76000861760008DE
S315080000B0F5310008BD5300086D7600087176000812
S315080000C075760008797600087D760008817600083E
S315080000D085760008174500088D7600089176000891
S315080000E0915E0008997600089D760008A1760008BA
S315080000F0A5760008A9760008AD760008B17600084E
S31508000100B5760008B9760008BD760008C1760008FD
S31508000110C5760008C9760008CD760008D1760008AD
S31508000120D5760008D9760008DD760008E17600085D
S3150800013080B5DFF89C16884244D0B0F1804F4AD08B
S31508000140DFF8881688424DD0DFF87C16884250D0F2
S31508000150DFF87016884256D0AB4988425AD0AB4968
S3150800016088425ED0DFF85816884261D0DFF84C1610
S31508000170884266D0DFF85C1688426BD0DFF85816DE
S31508000180884270D0DFF83016884275D0DFF84C16F2
S31508000190884278D0DFF8481688427BD0DFF81416F4
S315080001A0884200F080804F49884200F085804E4999
S315080001B0884200F08A807C21DFF8F405BDE8044017
S315080001C005F0ACBC01214FF4006004F0BFFA002131
S315080001D04FF4006081E00121012004F0D9FA0021E2
S315080001E001200CE00121022004F0D2FA00210220AD
S315080001F005E00121042004F0CBFA00210420BDE823
S31508000200044004F0C5BA0121082004F0C1FA00210F
S315080002100820F4E70121102004F0BAFA0021102082
S31508000220EDE70121202004F0B3FA00212020E6E7BB
S3150800023001214FF4005004F089FA00214FF40050D0
S315080002404BE001214FF4002004F080FA00214FF41E
S31508000250002042E001214FF4801004F077FA0021D3
S315080002604FF4801039E001214FF4001004F06EFAC3
S3150800027000214FF4001030E00121402004F088FAF4
S3150800028000214020BBE70121802004F081FA0021EB
S315080002908020B4E701214FF4807004F079FA002138
S315080002A04FF48070ABE701214FF4803004F04EFA2A
S315080002B000214FF4803010E001214FF4003004F0A3
S315080002C045FA00214FF4003007E001214FF4802061
S315080002D004F03CFA00214FF48020BDE8044004F005
S315080002E035BA000000440140004801402DE9F84FA6
S315080002F004460D46DFF8B864DFF8C474DFF8C4B402
S31508000300DFF8C4A4DFF8C484DFF8C4944C452ED0C3
S31508000310B4F1804F2BD0444529D0544527D05C45AD
S3150800032025D000F0C3FC22D000F0BAFC1FD0BC4296
S315080003301DD000F097FC1AD000F0ACFC17D000F0E6
S31508000340A3FC14D000F088FC11D000F097FC0ED066
S3150800035000F08EFC0BD000F0F7FB08D000F0E8FBAD
S3150800036005D000F0DFFB02D0E52100F0BCFB688871
S3150800037050B1102808D0202806D0402804D060287C
S3150800038002D0E62100F0AFFBE88840B100F0F7F8AC
S3150800039005D000F0EFF802D0E72100F0A4FB208892
S315080003A04C450AD0BC4208D0B4F1804F05D044452C
S315080003B003D0544501D05C4503D100F0F3FA6988AF
S315080003C0084311498C4207D010498C4204D04FF695
S315080003D0FF410840E98808432080A888A085288826
S315080003E020854C450AD0BC4208D000F0ADFB05D0AC
S315080003F000F09EFB02D000F095FB01D1287A2086FA
S315080004000120A082BDE8F18F0010004000140040D2
S315080004102DE9F84F00F0C4F8DFF898B300F0B6F805
S315080004202BD0B4F1804F28D000F076FB25D000F011
S315080004306DFB22D000F064FB1FD054451DD000F0A0
S3150800044011FC1AD000F026FC17D000F01DFC14D0C1
S3150800045000F002FC11D000F011FC0ED000F008FCF0
S315080004600BD05C4509D000F063FB06D000F05AFBC0
S3150800047003D04FF48D7100F063FA288868B110280C
S315080004800BD0202809D0302807D0602805D070283E
S3150800049003D040F21B1100F053FA688828B10128EE
S315080004A003D04FF48E7100F04BFA288928B1022840
S315080004B003D040F21D1100F043FA208C4FF6FE716E
S315080004C000F06AF8A688218B4FF68C7211402A88AC
S315080004D01143ADF800104FF6FD710840298908430D
S315080004E0698841EA00074C4509D0544507D05C4560
S315080004F005D000F01DFB02D000F014FB32D1A8880D
S3150800050028B1042803D04FF49D7100F019FA6889C0
S3150800051028B1082803D040F23B1100F011FA00F088
S3150800052028F804D018B14FF49E7100F009FA00F0CB
S3150800053025F804D018B140F23D1100F001FA4FF643
S31508000540F7703840698908434FF6FB710840A98857
S3150800055041EA00074FF6FF403040A9890843E98978
S3150800056041EA0006A680BDF800002083E888A08638
S3150800057009E0E8894FF4007188427047A8894FF46A
S315080005808071884270472784BDE8F18FDFF830A272
S31508000590DFF83C924C45704708402084208C704711
S315080005A004460D46DFF8088270472DE9F8430446ED
S315080005B00D4628887E4E48B1042807D0082805D05D
S315080005C00C2803D04FF4137100F08DFA688828B10F
S315080005D0022803D040F24D2100F085FAA8880128A8
S315080005E007D0022805D0032803D040F24E2100F098
S315080005F07AFAE88848B1042807D0082805D00C28D4
S3150800060003D040F24F2100F06EFA2889102803D350
S315080006104FF4147100F067FA29886648664A674BF2
S31508000620674FDFF8A0C1DFF8A0E1DFF8A081DFF8A7
S31508000630A091002933D14C4526D0B4F1804F23D060
S31508000640444521D074451FD064451DD0BC421BD0FB
S315080006509C4219D05F498C4216D05F498C4213D010
S31508000660944211D05D498C420ED05D498C420BD024
S31508000670844209D000F05CFA06D000F053FA03D0A1
S315080006804FF4157100F02FFA2B89AA88698820463D
S3150800069000F059FDE988204600F0C4FB84E00429EF
S315080006A021D14C4514D0B4F1804F11D044450FD018
S315080006B074450DD064450BD0BC4209D09C4207D086
S315080006C0944205D0844203D040F25E2100F00BFA32
S315080006D02B89AA886988204600F04CFDE9882046BF
S315080006E000F0E5FB60E008292FD14C450ED0B4F1A7
S315080006F0804F0BD0444509D0744507D0644505D0D2
S31508000700BC4203D04FF41A7100F0EDF92989AA8882
S315080007106888238C4FF6FF6633402384A38B268C88
S315080007204FF60C773B401A4342EA0111A1834FF674
S31508000730FF51314041EA00204FF48071084320847C
S31508000740E988204600F0E6FB2EE04C450ED0B4F1D1
S31508000750804F0BD0444509D0744507D0644505D071
S31508000760BC4203D040F2722100F0BDF92989AA885B
S315080007706888238C4EF6FF7633402384A38B268C19
S3150800078040F6FF473B4043EA022242EA0131A18391
S315080007904DF6FF71314041EA003040F48050208424
S315080007A0E988204600F0E0FBBDE8F1830000000080
S315080007B00C7500080040014000180040004C01403C
S315080007C000340140000C00400008004000040040CE
S315080007D0002C01400050014000540140001C00401C
S315080007E0002000400021018041808180C180018174
S315080007F041818181C181704770B500F077F933D0A6
S31508000800B4F1804F30D000F087F92DD000F07EF992
S315080008102AD000F075F927D000F048FA24D000F065
S315080008203FFA21D000F08AF91ED000F01BFA1BD03F
S3150800083000F030FA18D000F027FA15D000F00CFABC
S3150800084012D000F01BFA0FD000F012FA0CD000F00C
S315080008507BF909D000F06CF906D000F063F903D0F3
S3150800086040F21F3100F03FF94DB1012D03D04FF48E
S31508000870487100F038F9208840F0010003E020882C
S315080008804FF6FE710840208070BDF8B500F04CF8B0
S3150800089033D0B5F1804F30D000F068F82DD000F095
S315080008A05FF82AD000F056F827D000F075F824D063
S315080008B000F06CF821D000F047F81ED000F0BCF923
S315080008C01BD000F0B3F918D000F0A4F915D000F049
S315080008D0A7F912D000F098F90FD000F08FF90CD0D4
S315080008E000F04EF809D000F083F906D000F07AF946
S315080008F003D040F2613100F03FF84FF47F400642E2
S3150800090000D11EB940F2623100F036F844B1012C2C
S3150800091003D040F2633100F02FF8A889304301E094
S31508000920A889B043A881F1BD05460E461446024F74
S3150800093002488542704700000C750008002C0140EB
S31508000940404605F0EBB8000001488542704700BFF5
S315080009500034014001488542704700BF000C004042
S3150800096001488542704700BF00080040014885429B
S31508000970704700BF00040040384605F0CFB80000B5
S3150800098001488542704700BF004001400148854242
S31508000990704700BF0014004001488542704700BFF9
S315080009A0001000404FF68F7108407047000070B580
S315080009B000F09CF833D0B4F1804F30D000F0ACF89A
S315080009C02DD000F0A3F82AD000F09AF827D000F02E
S315080009D06DF924D000F064F921D000F0AFF81ED0EC
S315080009E000F040F91BD000F055F918D000F04CF98A
S315080009F015D000F031F912D000F040F90FD000F010
S31508000A0037F90CD000F0A0F809D000F091F806D01C
S31508000A1000F088F803D040F27A5100F064F84DB13E
S31508000A20012D03D040F27B5100F05DF8208840F09C
S31508000A30800003E020884FF67F710840208070BD53
S31508000A4070B500F053F82DD0B4F1804F2AD000F0DD
S31508000A5063F827D000F05AF824D000F051F821D0D6
S31508000A6000F06CF81ED000F0FDF81BD000F012F96B
S31508000A7018D000F009F915D000F0EEF812D000F001
S31508000A80FDF80FD000F0F4F80CD000F05DF809D0AE
S31508000A9000F04EF806D000F045F803D040F2DF51DA
S31508000AA000F021F8082D04D01DB14FF4BC6100F008
S31508000AB01AF8208B00F00EF808402843208370BDF2
S31508000AC0084040EA0520208370BD08402843A083DB
S31508000AD070BD00004FF6F7717047084040EA0520E0
S31508000AE0A08370BD0000304605F018B804460D46D0
S31508000AF0014E0248844270470C750008002C0140DC
S31508000B0001488442704700BF000C004001488442F7
S31508000B10704700BF0008004001488442704700BF84
S31508000B200004004001488442704700BF0048014065
S31508000B3001488442704700BF00440140014884428E
S31508000B40704700BF0034014001488442704700BF27
S31508000B5000400140F8B5FFF7E7FE2DD0B5F1804F0C
S31508000B602AD0FFF703FF27D0FFF7FAFE24D0FFF7B6
S31508000B70F1FE21D0FFF7E8FE1ED000F05DF81BD08D
S31508000B8000F054F818D000F045F815D000F048F8F1
S31508000B9012D000F039F80FD000F030F80CD0FFF77B
S31508000BA0EFFE09D000F024F806D000F01BF803D0B9
S31508000BB040F2B171FFF7E0FE4EB1042E07D0082EC1
S31508000BC005D00C2E03D040F2B271FFF7D5FE012CEA
S31508000BD004D01CB140F2B371FFF7CEFE288C012178
S31508000BE030E0000001488542704700BF00480140D8
S31508000BF001488542704700BF0044014001488542CC
S31508000C00704700BF0020004001488542704700BF7A
S31508000C10001C004001488542704700BF005401404F
S31508000C2001488542704700BF0018004001488542C8
S31508000C30704700BF0050014001488542704700BF19
S31508000C40004C0140B14088432884288C04FA06F1F8
S31508000C5008432884F1BD000001488442704700BF5C
S31508000C600018004001488442704700BF004C01400C
S31508000C7001488442704700BF002000400148844272
S31508000C80704700BF001C004001488442704700BFFF
S31508000C900054014001488442704700BF005001409B
S31508000CA001488442704700BF00140040014884424E
S31508000CB0704700BF0010004038B500F0A5F833D0E3
S31508000CC0B4F1804F30D0FFF727FF2DD0FFF71EFF76
S31508000CD02AD0FFF715FF27D0FFF7E8FF24D0FFF744
S31508000CE0DFFF21D0FFF72AFF1ED0FFF7BBFF1BD07F
S31508000CF0FFF7D0FF18D0FFF7C7FF15D0FFF7ACFFF7
S31508000D0012D0FFF7BBFF0FD0FFF7B2FF0CD0FFF7EB
S31508000D101BFF09D0FFF70CFF06D0FFF703FF03D030
S31508000D2040F6D10100F078F8A58431BD38B500F059
S31508000D306BF833D0B4F1804F30D0FFF7EDFE2DD0ED
S31508000D40FFF7E4FE2AD0FFF7DBFE27D0FFF7AEFF5A
S31508000D5024D0FFF7A5FF21D0FFF7F0FE1ED0FFF73E
S31508000D6081FF1BD0FFF796FF18D0FFF78DFF15D030
S31508000D70FFF772FF12D0FFF781FF0FD0FFF778FF5A
S31508000D800CD0FFF7E1FE09D0FFF7D2FE06D0FFF739
S31508000D90C9FE03D040F6DF0100F03EF8A58531BD57
S31508000DA038B500F031F82DD0B4F1804F2AD0FFF7CE
S31508000DB0B3FE27D0FFF7AAFE24D0FFF7A1FE21D065
S31508000DC0FFF7BCFE1ED0FFF74DFF1BD0FFF762FFF3
S31508000DD018D0FFF759FF15D0FFF73EFF12D0FFF7DF
S31508000DE04DFF0FD0FFF744FF0CD0FFF7ADFE09D03B
S31508000DF0FFF79EFE06D0FFF795FE03D040F6ED01FD
S31508000E0000F00AF8A58631BD04460D46014884421D
S31508000E10704700BF002C0140014804F07FBE00BFA8
S31508000E200C75000870B5FFF761FE2DD0B4F1804F40
S31508000E302AD0FFF771FE27D0FFF768FE24D0FFF708
S31508000E405FFE21D0FFF77AFE1ED0FFF70BFF1BD0FF
S31508000E50FFF720FF18D0FFF717FF15D0FFF7FCFEA6
S31508000E6012D0FFF70BFF0FD0FFF702FF0CD0FFF7EA
S31508000E706BFE09D0FFF75CFE06D0FFF753FE03D0E2
S31508000E8040F62A11FFF72FFE4DB1042D07D0082D85
S31508000E9005D00C2D03D040F62B11FFF724FE208B2E
S31508000EA04FF6F37108402083208BFFF706BE70B516
S31508000EB0FFF71CFE1BD0B4F1804F18D0FFF72CFEAD
S31508000EC015D0FFF723FE12D0FFF71AFE0FD0FFF753
S31508000ED035FE0CD0FFF7C6FE09D0FFF7BDFE06D0DB
S31508000EE0FFF732FE03D04FF41461FFF7FCFD4DB156
S31508000EF0042D07D0082D05D00C2D03D040F641113E
S31508000F00FFF7F1FD208B4FF2FF3108402083208B3D
S31508000F10FFF7D7BD70B5FFF7E9FD12D0B4F1804FE2
S31508000F200FD0FFF7F9FD0CD0FFF7F0FD09D0FFF75A
S31508000F30E7FD06D0FFF702FE03D040F65611FFF78D
S31508000F40D2FD4DB1042D07D0082D05D00C2D03D0A8
S31508000F5040F65711FFF7C7FDA08B4FF6F37108400F
S31508000F60A083A08BFFF7B2BD70B5FFF7BFFD12D007
S31508000F70B4F1804F0FD0FFF7CFFD0CD0FFF7C6FDB9
S31508000F8009D0FFF7BDFD06D0FFF7D8FD03D040F620
S31508000F906C11FFF7A8FD4DB1042D07D0082D05D01B
S31508000FA00C2D03D040F66D11FFF79DFDA08B4FF277
S31508000FB0FF310840A083A08BFFF790BD0446014887
S31508000FC084427047002C014010B5FFF7F7FF12D096
S31508000FD0B4F1804F0FD0FFF79FFD0CD0FFF796FDB9
S31508000FE009D0FFF78DFD06D0FFF7A8FD03D040F620
S31508000FF0B911FFF711FFB4F8400010BD70B5FFF73F
S3150800100075FD33D0B4F1804F30D0FFF785FD2DD074
S31508001010FFF77CFD2AD0FFF773FD27D0FFF746FEC2
S3150800102024D0FFF73DFE21D0FFF788FD1ED0FFF73D
S3150800103019FE1BD0FFF72EFE18D0FFF725FE15D098
S31508001040FFF70AFE12D0FFF719FE0FD0FFF710FEC2
S315080010500CD0FFF779FD09D0FFF76AFD06D0FFF738
S3150800106061FD03D040F6F611FFF73DFD012D1ED0B8
S31508001070022D1CD0042D1AD0082D18D0102D16D0EC
S31508001080202D14D0402D12D0802D10D04FF4007092
S3150800109085420CD0B5F5806F09D0B5F5006F06D03E
S315080010A0B5F5805F03D040F6F711FFF71CFD208ADF
S315080010B0284000D00120C0B270BD70B5FFF716FDFC
S315080010C033D0B4F1804F30D0FFF726FD2DD0FFF78F
S315080010D01DFD2AD0FFF714FD27D0FFF7E7FD24D022
S315080010E0FFF7DEFD21D0FFF729FD1ED0FFF7BAFD79
S315080010F01BD0FFF7CFFD18D0FFF7C6FD15D0FFF7B9
S31508001100ABFD12D0FFF7BAFD0FD0FFF7B1FD0CD03B
S31508001110FFF71AFD09D0FFF70BFD06D0FFF702FD12
S3150800112003D040F62121FFF7DEFC4FF4614005426B
S3150800113000D11DB940F62221FFF7D5FC00E00000DA
S31508001140E843208270BD70B5048C4FF6FE752C40BE
S315080011500484048B058C4FF60C763440224342EA0D
S31508001160031202834FF6FD722A40114341F0010132
S31508001170018470BD70B5048C4FF6EF752C4004845D
S31508001180048B058C40F6FF46344044EA033343EAB1
S31508001190022202834FF6DF722A4042EA011141F029
S315080011A01001018470BD000070B58AB0624C07A8B2
S315080011B006CC06C0083C04F049FC002080F31088E1
S315080011C0012300220F2103F093FD28B101230022F9
S315080011D00821002003F08CFD04F0E8FC054604F025
S315080011E0B1FC2B46024604F1080100F081F905F02E
S315080011F02FFE020005D004F11C0100F0E1F904F00D
S315080012007FFC0DF102020DF10101042000F0F6FC4D
S315080012100346042B07D0042204F13401002003F00E
S31508001220AFFD04F06DFC0321192000F000FD20B18C
S31508001230024604F1600100F0C3F9002004F020FB27
S3150800124038B1024604F1B80100F0BAF904F058FCC6
S3150800125005E004F1D40103F06BFD00F045FB00F056
S31508001260CBFB04F1F40100F043FBDFF8641600F051
S3150800127032FB30A500F03BFB00F036FB21210220B3
S3150800128000F00BFD20B1024604F2081100F098F9AF
S3150800129004F2441601A900A800F083FD30B99DF8B0
S315080012A00000012802D100F022FD40B302F0C4FA82
S315080012B040F2FF10ADF80C004FF0FF308DF80E002D
S315080012C01A208DF80F0007A801A90CC80CC100F058
S315080012D035F800F00DF901A9002002F0D9FA00F05E
S315080012E006FB00F001FB01A800F01CFD98B10246C0
S315080012F004F27C1100F064F904F002FC0BE000F043
S315080013001DF803F015FD01A9002002F0C1FA00F04E
S31508001310EEFA00F0E9FA002005F050FA012005F08F
S315080013205BFA04F0EBFB04F081FB00F071FB00F0C4
S315080013304AF9F6E70D0A0000045C0008BDF80C300F
S315080013409DF80F203146704780B5029820B1538822
S315080013500246024900F0CCF801BD00BF78720008C9
S315080013602DE9F04F85B083460E460E9D109F119CC1
S31508001370DFF854A5082C05D223467288514600F09A
S31508001380B7F864E00822129902A805F09BFD728856
S315080013900AF2A4090FF25418DFF83415012A0BD003
S315080013A0022A24D0032A58D0042A5FD00A2A6AD0EF
S315080013B0642A00F0898090E00A2C09D20AF13001EB
S315080013C000F096FA00F097F8414600F091FA3EE0F0
S315080013D0082202A805F0E4FD002838D00AF15801D1
S315080013E000F086FA00F087F80AF17401EDE7BBF120
S315080013F0000F2FD10AF1840100F07AFA00F07BF889
S31508001400494600F075FAA9B202A800F0E3F9DFF838
S31508001410BC44224601A9A8B205F0FAFC58B12246F6
S315080014209DF80410A8B200F059FD20B102460AF250
S315080014308C1100F056FA002300223146A8B200F0BB
S3150800144029FD020003D00AF2B01100F04AFA05B0ED
S31508001450BDE8F08FBBF1010FF9D10AF1BC0100F02C
S3150800146047FA00F048F80AF1D401AEE70AF1EC01B0
S3150800147000F03EFA00F03FF8494600F039FAA8B203
S3150800148002F024FBC3E7FF2F05D0DFF8900600EB38
S315080014904700002181810AF2041100F029FA00F0C0
S315080014A02AF80A2C04D20AF2181100F021FAAEE73B
S315080014B01298407A00901298037A22460AF2381156
S315080014C0002003F035FCA2E7082202A805F068FD13
S315080014D00028BCD00AF2541172E70AF2701100F023
S315080014E000FA00F008F80AF174016EE70D0A000028
S315080014F0002003F01DBC02A9002002F0D3BA0000A8
S3150800150010B5044600F0F6FBDFF8101608700E4911
S31508001510902C04D0912C07D0942C0BD00CE000F022
S31508001520E7F9BDE81040D9E02C310020BDE81040AD
S3150800153003F0FEBB5831F8E7224684310020BDE8A7
S31508001540104003F0F5BB00BFA069000870B588B06D
S3150800155005460E460D4C00A806CC06C0083C1821C8
S3150800156006F02EF88DF81360ADF810504FF0FF30E6
S315080015708DF8120000A802A90CC80CC100F0D2FB15
S3150800158008B100F0ABF908B070BD00BFF4730008ED
S315080015907047000002460249002003F0C9BB00BF9D
S315080015A01C7500087047000080B50246034900F024
S315080015B007F8BDE8014004F0A3BA00BF6473000849
S315080015C0002003F0DDBB2DE9F84304F0ECFFDFF85B
S315080015D04C552989411A89B2FB297CD32881DFF821
S315080015E04095287802283CD1002005F006F901200C
S315080015F005F003F904F046FF50B16889401C68817C
S3150800160080B2F12804D3002004F01CFF0020688172
S31508001610E888401EE88080B2022808D10A21A888F6
S3150800162000F04AFC80464246494600F05AF9E888E6
S3150800163038B909F13C0103F07BFB00F08DF8F02086
S31508001640E880E87868B1401EE870C0B248B900F092
S31508001650E9FC8046424609F1740100F042F900F0BF
S3150800166043F900244FF6FF7605EB4407B889B042E4
S3150800167013D0401CB88180B2F1280ED33146E0B2AF
S3150800168000F04DFC09F1B00100F032F9434622465C
S3150800169009F1D401FFF72CFFBE81641C0F2CE3DB94
S315080016A0687868B10020687009F2041103F040FBFD
S315080016B03C2000F057FB00206881012004F0C2FEA0
S315080016C0A87840B10020A87000F049FB024609F24C
S315080016D0341100F006F9BDE8F183000080B541F247
S315080016E01110ADF8000001208DF8020000A90020B5
S315080016F000F059FC0246024900F0F3F801BD00BFAC
S31508001700B870000830B589B0124C06A806CC06C0D9
S31508001710083C6E4D08226E49284605F0D3FB052283
S3150800172006A905F1080005F0DAFB4CF20F00ADF842
S315080017300C006420ADF80E00012000F038F8019581
S315080017400D200090642300F02DF800F0C7F809B0CA
S3150800175030BD00BFF471000810B586B05B4C082296
S315080017605B49204605F0AEFB00F011FB207200F045
S315080017700EFB000A60724CF20F00ADF80C00012057
S31508001780ADF80E0000F013F801940A20009001232A
S3150800179000F008F80246024900F0A3F806B010BDAA
S315080017A0F072000806220A2103A800F04FBB8DF844
S315080017B010008DF811000020ADF8120041F211104A
S315080017C0ADF8140000208DF816000DF116000290F1
S315080017D070470000F0B587B006460F4600F09BF844
S315080017E00446394DFF2C09D005F2D01100F080F8D7
S315080017F000F070F832A100F07BF821E000F07BF8E9
S315080018000446FF2C04D105F2F01100F071F854E0FB
S31508001810314600F072FB18B1024605F220214AE073
S315080018203946204600F07BFB224605F2602100F08F
S3150800183058F800F04FF823A100F05AF800F054F8D1
S31508001840B64800EB440000218181204E324603A9A8
S31508001850384605F0DDFA58B132469DF80C10384680
S3150800186000F03CFB20B1024605F28C1100F039F875
S3150800187008221749304605F025FB4CF20F00ADF853
S3150800188010000320ADF8120001208DF814008DF821
S3150800189015004020ADF816000DF11A0002900196C9
S315080018A008200090032304AA2146012000F0B3FA79
S315080018B0024605F2942100F014F807B0F0BD00BF07
S315080018C00D0A00005D0D0A00684800088809002016
S315080018D06C0B00203146002002F0E4B8024604F101
S315080018E00801002003F024BA002003F043BA294671
S315080018F0002003F01DBA10B50024E0B200F02DFB5D
S315080019004FF6FF71884201D1E0B210BD641C0F2C5E
S31508001910F3DBFF2010BD30B583B004460025E8B2DE
S3150800192000F01BFB4FF6FF7188420CD000A9E8B205
S3150800193000F003FB082200A9204605F031FB002829
S3150800194001D1E8B23EBD6D1C0F2DE8DBFF203EBD80
S31508001950724A20B9012907D1012050707047012821
S3150800196002D1012900D190707047000030B585B0CA
S31508001970204DFFF7BCFFFFF7B7FF00A802F04AF9B2
S3150800198010B105F120012EE005F1400103F0D0F970
S3150800199000A801F029FFFFF7A7FF00A800F03AFB0F
S315080019A00446224605F15801FFF79BFFFFF79CFF07
S315080019B04CB905F18001FFF79BFFFFF795FF5748E4
S315080019C07821C17013E0702C11D105F1BC01FFF725
S315080019D08FFFFFF789FF05F1FC01FFF789FFFFF786
S315080019E083FF05F23C11FFF783FFFFF77DFF05B084
S315080019F030BD00BF3C62000800204FF6FF72474921
S31508001A0001EB40018A81401C0F28F8DB7047000073
S31508001A1038B500208DF8000000A903F06BF90028FE
S31508001A2079D19DF800000A2875D03BA1FFF760FF21
S31508001A303A4D3B4C9DF800000A2864D00D2862D028
S31508001A40262854D02A284FD0302839D031283AD0E1
S31508001A503F281CD0612828D0632837D0652838D07D
S31508001A6066280DD0692808D06B283AD06C2824D06F
S31508001A706D281ED074280DD041E001F01FFF42E00A
S31508001A8004F25811FFF734FF0320E8803BE000F02A
S31508001A9049F838E004F2C4150021284603F03EFC54
S31508001AA00021284603F03AFC2DE00F2001F046FFFE
S31508001AB029E0012001F0B2FF25E0FFF723FE22E02E
S31508001AC0012068701FE00120A8701CE002F03AF8B7
S31508001AD019E004F28411002003F052F904F010F81A
S31508001AE011E002F06FF80EE0FFF740FF0BE000F0A0
S31508001AF099FA024604F17401FFF7F3FE03E004F2D3
S31508001B00A411FFF7F5FE9DF800000A2803D004F299
S31508001B10B411FFF7EDFE31BD0D0A0000200C0020C0
S31508001B20AC56000810B5344C2146FFF7E1FEFFF726
S31508001B30DBFE04F10C01FFF7DBFEFFF7D5FE04F12F
S31508001B402401FFF7D5FEFFF7CFFE04F14401FFF7A6
S31508001B50CFFEFFF7C9FE04F15401FFF7C9FEFFF7F0
S31508001B60C3FE04F17001FFF7C3FEFFF7BDFE04F1E3
S31508001B708C01FFF7BDFEFFF7B7FE04F1AC01FFF7D6
S31508001B80B7FEFFF7B1FE04F1DC01FFF7B1FEFFF780
S31508001B90ABFE04F20411FFF7ABFEFFF7A5FE04F255
S31508001BA01811FFF7A5FEFFF79FFE04F23011FFF7A5
S31508001BB09FFEFFF799FE04F25011FFF799FEFFF713
S31508001BC093FE04F29011FFF793FEFFF78DFE04F2E1
S31508001BD0B411FFF78DFEFFF787FE04F2F811FFF741
S31508001BE087FEFFF781FE04F23C21FFF781FE002005
S31508001BF0BDE8104003F0BEB82450000870B500F0E8
S31508001C0066F9002000F028FC00F06BF800F060FC94
S31508001C1003F04AFC00F068F82070D4E038B50546B1
S31508001C200C46522000F018FC00F0EFF84FE038B5EB
S31508001C3005460C46532000F00FFC00F0E6F800F0CD
S31508001C40FAF866E12DE9F84F82468B4691469846A2
S31508001C500A9D0B9E0C9F0D9C022000F0FDFB504632
S31508001C6003F028FC584603F031FC484603F02EFCE6
S31508001C70404603F01FFC00F0C8F800F032F8394679
S31508001C80284603F05BFC2146304603F057FC00F07B
S31508001C901FFCBDE8F14F03F007BC38B505460C46F6
S31508001CA0552000F0D9FB00F0B0F800F014F930E147
S31508001CB080B5062000F0D0FB00F00AFCBDE8014024
S31508001CC000F0C2B938B50446492000F0C5FB00F05B
S31508001CD0FFFB03F0E9FB054603F0FFFB20802846DF
S31508001CE032BD304603F0E6BB064603F0DDBB80B5E1
S31508001CF0172001E080B5182000F0AEFB00F0E8FBE5
S31508001D00BDE8014003F0D0BB70B500F0E0F81A203A
S31508001D1000F0A2FBFFF7E5FF204603F0E8FB00F022
S31508001D2074F882E110B504461E2000F095FB00F019
S31508001D3021F9208903F0CAFBA07A03F0BBFBE07AFD
S31508001D4003F0B8FB207B03F0B5FBE08903F0BEFB8C
S31508001D50207C03F0AFFB606903F0C9FB54E180B552
S31508001D602020C9E710B50446222000F075FB00F0D4
S31508001D70B2F849E110B50446262000F06DFB00F0E4
S31508001D80A7FB21460820BDE8104003F0E4BB80B558
S31508001D90272000F061FB00F09BFBBDE8014003F043
S31508001DA09CBB70B505460C46282000F055FB00F094
S31508001DB08FFB03F079FBFFF797FF2870204603F0A7
S31508001DC0D9FB304670BD03F088FB2880304670BDCD
S31508001DD02146082003F0BFBBF8B507460D46144652
S31508001DE01E464A2000F038FB00F005F900F070FBAB
S31508001DF003F05AFB074603F070FB2880FFF7E8FF5D
S31508001E0003F052FB30703846F2BD284603F052BB49
S31508001E10054603F049BB2DE9F04700F00FF83420DA
S31508001E2000F01AFB484603F045FB00F004F840466C
S31508001E3003F0BCFB19E0204603F048BB81460C467C
S31508001E4090469A46089E099D0A9F70472DE9F047D5
S31508001E50FFF7F4FF382000F0FFFA484603F0A6FB28
S31508001E6000F039F8404603F025FB504603F022FB04
S31508001E70304603F01FFB2946304603F049FB00F0C5
S31508001E8027FB03F011FB044603F00EFB38702046CF
S31508001E90BDE8F087F8B507460E4615461C463920B4
S31508001EA000F0DAFA384603F011FB304603F07EFB01
S31508001EB0FFF7ABFF2146BEE038B505460C46412084
S31508001EC000F0CAFA00F05AF800F005F821E00646D4
S31508001ED00C4615467047204603F0ECBA70B500F07C
S31508001EE08DF85A2000F0B8FA00F048F8FFF7F9FE26
S31508001EF02146304603F022FB97E038B505460C46E6
S31508001F005C2000F0A9FAFFF780FF2146082003F0BD
S31508001F10FFFA00F0DDFABDE8314003F0C5BA38B57E
S31508001F2005460C465D2000F097FAFFF76EFFFFF7AF
S31508001F3082FFBDE8314000F0CBBA38B505460C46FD
S31508001F405E2000F089FAFFF760FF00F0C1FA21462B
S31508001F500820BDE8344003F0FEBA10B504465F20F9
S31508001F6000F07AFAFFF7B7FF00F0B2FABDE81040C2
S31508001F7003F0B3BA2146082003F0CABA284603F08C
S31508001F80A5BA38B505460C46632000F065FAFFF792
S31508001F903CFF00F09DFA03F087FA0546204603F059
S31508001FA03AFB284632BD38B505460C46642000F093
S31508001FB053FAFFF72AFF204603F025FBA9E710B5D9
S31508001FC00446682000F048FA204603F02EFB1BE082
S31508001FD038B505460C466A20FFE700F03DFAFFF7DC
S31508001FE014FF00F075FA03F05FFA0546204603F081
S31508001FF02FFB284632BD384603F05CBA05460E4626
S315080020001446704703F084FA00F062FABDE81040FF
S3150800201003F04ABA10B50446732000F01DFA2146AB
S315080020201020EFE780B5742066E600F051FABDE8A7
S31508002030704003F039BA284603F06AFA00F048FA05
S31508002040BDE8F14003F030BA2DE9F04788B0DFF873
S31508002050E043DFF8E05380222968204604F032FF87
S3150800206004F20300DFF8D013086028688078072890
S3150800207051D00F2852D0192855D01B2861D01C28BA
S315080020806CD0232873D0242800F05981312800F019
S315080020908280322800F09D803F2800F0A3804328E4
S315080020A000F0BC80442800F0BE80452800F0C680B9
S315080020B048283DD0592800F0E680622800F0B8800C
S315080020C06E2800F02E81782800F077817C2800F0B1
S315080020D00B817D2800F0F180802800F0FB808E2897
S315080020E000F07081922800F07D81932800F08D81A0
S315080020F0972800F0FE80982800F00E819B2800F0B3
S3150800210015819E2800F02F81A02800F03881A72885
S3150800211000F0468186E105F056F886E103F0C4F939
S3150800212005F052F881E103F0BFF9FFF7E9F97CE120
S3150800213003F0BAF900F08DF941B2204605F024FA09
S3150800214073E100A803F09BFA03F0AEF900F081F9F9
S3150800215042B2214600A805F013FA66E103F0A4F995
S3150800216000F077F90146204605F00CFA5DE103F028
S315080021709BF9FFF74DFE064603F0AFF9044600F05B
S3150800218064F903F091F9009001AB224631462846DE
S3150800219005F01BF849E103F087F98DF8000003F014
S315080021A083F98DF8010003F098F9ADF8020003F001
S315080021B07BF98DF804000DF1050100F043F903F0F1
S315080021C073F900F046F90246214600A805F001F821
S315080021D02BE103F069F900F03CF90146204604F0CA
S315080021E0F9FF22E103F060F9804603F076F9044628
S315080021F003A803F0F1F903F057F9FFF709FE00F019
S315080022001DF9064600F09EF90290019600972B46A6
S3150800221003AA21464046FFF797F806E103F044F97A
S3150800222004F0D9FF01E103F058F904F0D5FFFCE00A
S3150800223000F007F900A804F0D0FFF6E003F034F93F
S31508002240804605A803F0C8F903F02EF900F001F955
S31508002250054603F042F900F0F1F8FFF745FD81461F
S3150800226003F022F9824600F06DF90490CDF80CA02F
S31508002270CDF80890019600976BB2224605A940460C
S31508002280FFF76EF8D1E003F028F9064602A900F038
S31508002290D9F803F009F900F0DCF8FFF7B9FD0746AD
S315080022A07800C0B200F04EF9019000976BB2224652
S315080022B002A9304604F090FDB7E003F00EF9044693
S315080022C000F0BFF803F0F0F8024600A9204604F033
S315080022D086FFAAE003F0E8F8044603F0FEF8014694
S315080022E0204604F07DFFA0E003F0F7F804F076FF3F
S315080022F09BE003F0D9F800F0A1F800F0AAF8FFF780
S3150800230087FD064600F01EF9009033466AB221465C
S31508002310384604F068FF88E003F0C6F804F065FF65
S3150800232083E003F0C1F804F053FF7EE000F089F87B
S3150800233003F0BAF8014600A804F049FF75E003F077
S31508002340CCF8064600F081F803F0AEF800F081F804
S31508002350054603F0C2F800902B46224601A93046EE
S3150800236004F034FF61E003F09FF8044600A9162044
S3150800237003F0F1F800A9204604F038FF55E003F011
S3150800238093F8044604A9102003F0E5F800A91020E4
S3150800239003F0E1F800AA04A9204604F028FF44E067
S315080023A003F082F8FFF734FD044600F0CBF8024646
S315080023B02146284604F01CFF37E003F075F804F0C0
S315080023C018FF32E003F070F8FFF78EFC00F041F8D2
S315080023D0054600F0B7F803462A4661B2304604F0CF
S315080023E003FF22E000F031F803F05EF800F031F860
S315080023F0FFF70EFD064600F0A5F8009033466AB2D0
S31508002400214601A804F0EDFE0FE003F04DF8FFF7B2
S31508002410FFFC044600F096F802462146284604F0DA
S31508002420E1FE02E03120FFF7BFF808B0BDE8F0870B
S31508002430880A0020740B00207C0B0020074603F056
S3150800244033B800A9082003F086B801A9082003F0CC
S3150800245082B8044603F028B80349096801F2030262
S31508002460024B1A6088707047740B0020800B00209E
S3150800247080B504F00DFD192801D0272801D10120C7
S3150800248002BD1049096801F203020F4B1A6098B998
S315080024904A788B78582B00D1C878110600D4322098
S315080024A0910700D53320D10700D5342012F0040156
S315080024B000D00121054A1170002802D0FFF774F8F0
S315080024C0022002BD740B00207C0B0020890B002023
S315080024D010B517480168174A1268521A92B2164C74
S315080024E0A3780B70591CA170006821784170812A65
S315080024F004DB4020BDE81040FFF756B80F480068D7
S315080025000270607818B1F9210D4803F007FB012025
S31508002510607004F0CBFC30B9FFF7AAFF012804D19C
S3150800252004F050FEF8E7FFF73FF80020607010BD92
S31508002530740B0020800B0020840B0020780B0020F1
S31508002540B87500080146024A1068091811607047F4
S315080025507C0B002010B504F099FC441CE4B20A4830
S31508002560407848B14FF48D71084803F0D7FA03E074
S31508002570FFF76AFD641EE4B2012C03DBFFF778FF60
S315080025800028F5D010BD00BF840B0020B8750008E0
S3150800259080B5DFF8141488421ED0DFF8101488427C
S315080025A021D0DFF80C14884224D0DFF808148842BA
S315080025B027D0DFF8041488422AD0DFF800148842AE
S315080025C02DD0DFF8FC13884230D06E21DFF8E40501
S315080025D0BDE8044003F0A2BA0121042002F0B6F8CF
S315080025E0002104202AE00121082002F0AFF800218A
S315080025F0082023E00121102002F0A8F8002110206D
S315080026001CE00121202002F0A1F80021202015E07D
S315080026100121402002F09AF8002140200EE0012115
S31508002620802002F093F80021802007E001214FF472
S31508002630807002F08BF800214FF4807006E080B5B8
S315080026400121012002F082F800210120BDE80440A2
S3150800265002F07CB82DE9F04104460D46DFF85475C2
S3150800266000F0DEF814D000F03BF911D000F035F98F
S315080026700ED000F02FF90BD000F029F908D000F0A1
S3150800268023F905D000F01DF902D0B12100F09AF91E
S31508002690E87880B104280ED028280CD048280AD01B
S315080026A0142808D0102806D01C2804D0182802D0D0
S315080026B0B22100F087F9288810B9B32100F082F911
S315080026C0E87800F00F06C0060BD5A878012806D0D2
S315080026D0022804D0032802D0BA2100F073F9A8789A
S315080026E00643288801210F22C3B213B3D4F800C0C9
S315080026F0002301FA03F707EA0008B84514D14FEAA0
S31508002700830E02FA0EF82CEA080C06FA0EFE4EEABA
S315080027100C0C95F803E0BEF1280F01D1676103E0C0
S31508002720BEF1480F00D127615B1C082BE1D3C4F822
S3150800273000C04FF48073984225D3D4F804C0002310
S3150800274003F1080701FA07F707EA0008B84515D1A3
S315080027504FEA830E02FA0EF82CEA080C06FA0EFE69
S315080027604EEA0C0C95F803E0BEF1280F00D167611C
S3150800277095F803E0BEF1480F00D127615B1C082BD2
S31508002780DED3C4F804C0BDE8F08170B500F0ABF83C
S3150800279015D000F0A5F812D000F09FF80FD000F081
S315080027A099F80CD000F093F809D000F08DF806D00F
S315080027B000F087F803D040F21D1100F006F9012D4C
S315080027C02BD0022D29D0042D27D0082D25D0102D49
S315080027D023D0202D21D0402D1FD0802D1DD04FF481
S315080027E08070854219D04FF40070854215D0B5F532
S315080027F0806F12D0B5F5006F0FD0B5F5805F0CD09D
S31508002800B5F5005F09D0B5F5804F06D0B5F5004F90
S3150800281003D04FF48F7100F0D8F8A0684CE0044656
S3150800282061488442704770B500F05DF815D000F035
S3150800283057F812D000F051F80FD000F04BF80CD032
S3150800284000F045F809D000F03FF806D000F039F856
S3150800285003D040F2431100F0B8F8012D2BD0022D19
S3150800286029D0042D27D0082D25D0102D23D0202D92
S3150800287021D0402D1FD0802D1DD04FF48070854269
S3150800288019D04FF40070854215D0B5F5806F12D077
S31508002890B5F5006F0FD0B5F5805F0CD0B5F5005FC4
S315080028A009D0B5F5804F06D0B5F5004F03D04FF4E3
S315080028B0A27100F08AF8E068284000D00120C0B272
S315080028C070BD3F48844270473C48844270473A4846
S315080028D08442704737488442704735488442704777
S315080028E032488442704704460D46DFF8C8622E48CF
S315080028F084427047F8B505460E461446DFF8B472AA
S315080029002948854215D02948854212D0284885424B
S315080029100FD0284885420CD02748854209D0274839
S31508002920854206D02648854203D04FF4C67100F08A
S3150800293049F8012E2BD0022E29D0042E27D0082E96
S3150800294025D0102E23D0202E21D0402E1FD0802E09
S315080029501DD04FF48070864219D04FF4007086421D
S3150800296015D0B6F5806F12D0B6F5006F0FD0B6F554
S31508002970805F0CD0B6F5005F09D0B6F5804F06D05B
S31508002980B6F5004F03D040F28D1100F01BF8002C6D
S3150800299007D0012C03D04FF4C77100F013F82E614D
S315080029A0F1BD6E61F1BD000000080140000C014058
S315080029B0001001400014014000180140001C0140AD
S315080029C000200140384603F0A9B8304603F0A6B8FF
S315080029D070B500F0EBF8012C78D0022C76D0042CD8
S315080029E074D0082C72D0514884426FD05048844223
S315080029F06CD05048844269D04F48844266D04F48CC
S31508002A00844263D04E48844260D04E4884425DD0AA
S31508002A104D4884425AD04D48844257D0B4F5805F19
S31508002A2054D0B4F5EA1F51D0B4F5EB1F4ED0B4F527
S31508002A30004F4BD04648844248D04648844245D049
S31508002A404548844242D0454884423FD0444884425F
S31508002A503CD0B4F1201F39D04248844236D042488F
S31508002A60844233D04148844230D0414884422DD0F4
S31508002A70404884422AD04048844227D0B4F5011FF2
S31508002A8024D03E48844221D03D4884421ED03D4849
S31508002A9084421BD03C48844218D03C48844215D016
S31508002AA03B48844212D03B4884420FD03A4884427D
S31508002AB00CD03A48844209D03948844206D039486D
S31508002AC0844203D040F22221FFF77FFF2DB1012D6A
S31508002AD003D040F22321FFF778FF3348002C4CBF80
S31508002AE08269026804F470210B0CA1B2660D3601E6
S31508002AF0B14004F44016B6F5401F06D122F07062C4
S31508002B00036823F07063036008E0E60243BF032608
S31508002B1006FA03F39A438A4342F0706205B10A4300
S31508002B20002C4CBF8261026070BD00BF100014000B
S31508002B303000140040001600C000160000011800FE
S31508002B40000218000003180000081A00000C1A00FA
S31508002B5001002000020020000400200008002000D8
S31508002B601000200040002000000130000002300064
S31508002B700004300000102000002020000100008022
S31508002B800200008004000080080000801000008019
S31508002B902000008040000080800000800001008046
S31508002BA000020080000400800400014004460D462F
S31508002BB0004E70474C74000870B5FFF7F7FF7CB1FC
S31508002BC0012C0DD0022C0BD0032C09D0042C07D0D5
S31508002BD0052C05D0062C03D040F25D21FFF7F5FE43
S31508002BE00DB3012D1FD0022D1DD0032D1BD0042D92
S31508002BF019D0052D17D0062D15D0072D13D0082D61
S31508002C0011D0092D0FD00A2D0DD00B2D0BD00C2D60
S31508002C1009D00D2D07D00E2D05D00F2D03D040F26B
S31508002C205E21FFF7D2FE05F003008000A910084ACE
S31508002C3052F821300F258540AB4342F8213052F82F
S31508002C40213004FA00F0184342F8210070BD00BF95
S31508002C50080001404109014A04E000BF80E100E0A4
S31508002C604109044A012300F01F0003FA00F042F864
S31508002C702100704780E200E010B5DFF89444014671
S31508002C80204602F064F90121204602F098F900284E
S31508002C90F9D0204602F06DF9C0B210BD10B58CB05F
S31508002CA0DFF8B4440122102100F01CF910208DF839
S31508002CB0030000F01DF9182000F017F918208DF808
S31508002CC00300802000F014F900F002F9402000F01B
S31508002CD00FF90020ADF81C004FF48270ADF81E0005
S31508002CE000200890ADF824004FF40070ADF82600D7
S31508002CF02020ADF828000020ADF82A000720ADF8FE
S31508002D002C00DFF80C4407A9204602F082F80121BE
S31508002D10204602F0FDF842F22830ADF810000020F7
S31508002D20ADF812004FF6FF70ADF814000020ADF8AC
S31508002D3016008DF8180004A94FF08040FDF7D6FA62
S31508002D4001214FF08040FDF757FD00F0DAF81C200E
S31508002D5000F043F88DF8060001208DF8070001A859
S31508002D6003F0A6FCDFF81C050021817000F0B0F81E
S31508002D70102000F038F8DFF82C4500F0BEF80421E2
S31508002D800220FFF719FF1020029000208DF80C0092
S31508002D900C208DF80D0001208DF80E0002A803F016
S31508002DA0D7F800F013F90A2000F017F8ADF8060076
S31508002DB001A803F07DFC0122202100F093F81020E1
S31508002DC000F093F800F084F8012000F00CF800A950
S31508002DD03E48FFF73FFC0CB010BD8DF804000020FC
S31508002DE08DF805007047ADF8000003208DF8020045
S31508002DF0704770B582B00646344C012200F071F86F
S31508002E0010208DF80300012000F072F8002200F06F
S31508002E1068F8DFF89054002E14BF00220122202102
S31508002E202846FFF767FD1A2002F0D2FE00F050F898
S31508002E30012000F05DF8DFF84C040021817002F0F3
S31508002E405DFEEFF3108400F064F84EF6602100F0A2
S31508002E5078F900F06AF900F054F800F084F900F007
S31508002E6062F900F011FA00F0B1F800F0ADF886F357
S31508002E70108884F3108800F068F9012809D002F058
S31508002E803DFE00F06BF90128F5D100F025F81B206E
S31508002E9076BD00F021F8EFF3108400F0F9F900F0A0
S31508002EA095F800F091F884F3108800F08DF9002861
S31508002EB007D100F089F9012803D100F072F9012839
S31508002EC001D01C2076BD002076BD0000000C014014
S31508002ED048208DF803007047012220212846FFF775
S31508002EE009BD01212046FFF705BD8DF80300202006
S31508002EF0ADF8000003208DF8020000A92046FFF770
S31508002F00A9BB002201214FF08040FDF7BEBC00207E
S31508002F106FE7012080F31088EFF3108680F310889E
S31508002F20704700002DE9F041DFF858431020E070A3
S31508002F307E2704E0082002F04BFE7F1EFFB2607871
S31508002F4008B9012FF6DAEFF3108800F0E8F8002246
S31508002F5000F0FEF800206070A54E3078FE2806D1F5
S31508002F607078851C862805DB1720E07028E0FD2888
S31508002F70F6D001250020E070002703E0B85DFFF7D2
S31508002F807BFE7F1CEDB2AF42F8DBA720FFF774FE8D
S31508002F9000F0C3F84FF4C86100F0D3F800F0C5F8A4
S31508002FA0FFF7AFFF00F0DFF800F0BDF800F06CF9AE
S31508002FB000F00CF800F008F886F310880020A070DE
S31508002FC088F31088BDE8F0810A2049E6102003F04E
S31508002FD057B80000F8B5EFF3108400F0A0F8A94D33
S31508002FE0E87817286CD01020E87000F0B7F80128A8
S31508002FF002D11520E87063E000F0A7F8012802D096
S315080030001920E8707DE000F086F80746FF2FFAD011
S3150800301057B900F080F8287000F07DF8A72801D08D
S315080030201620E7E71120E5E7052F17DA00F073F811
S315080030302870012F01D112200AE0022F01D1132096
S3150800304006E0032F01D1142002E0042F01D11D2030
S31508003050E87000F060F8A72832D0E1E7644EFE2F4A
S3150800306001D0FD2F19D100F055F87070862801D3CC
S315080030701820BFE7022704E000F04DF8B8557F1C7A
S31508003080FFB27078801C8742F6DB00F044F8A72868
S3150800309001D01620AEE70020ACE707F0C000802874
S315080030A005D100F037F8A728BAD10020A2E7C02832
S315080030B001D13770E9E740F2E111144802F02EFD1C
S315080030C000F02BF8082100F03CF800F02EF8012259
S315080030D0FFF718FF00F047F800F025F800F0D4F8DD
S315080030E0FFF774FFFFF770FF86F310880020A870BB
S315080030F08021074801F063FF0128F9D0012200F07A
S3150800310027F884F31088E878F2BD00BFAC7400088D
S31508003110003001403770FF20AEE5EFF3108601203E
S3150800312080F3108870471C209AE500214FF08040F4
S31508003130FDF7C2BDEFF31085012080F310884FF626
S31508003140FF714FF08040FDF7F1BD102002F056BF29
S3150800315010210148FFF7CEBB0008014001214FF0BE
S315080031608040FDF74BBF01214FF08040FDF7A5BF1A
S315080031701F48FE210170D5E680B520214948FFF792
S3150800318004FB00280CD03F488178002903D0002191
S315080031908170012002BDFFF7D8FF012800D000206A
S315080031A002BD10B5124C0A202070FFF7BBFEFFF7D0
S315080031B011FF1928FBD0002804D12078822801D1D4
S315080031C0012010BD002010BD10B5094C0B20207041
S315080031D0FFF7A8FEFFF7FEFE1928FBD0002804D14A
S315080031E02078C12801D1012010BD002010BD0000A3
S315080031F00008002038B5234C4FF08040808D5028B9
S315080032000FD1EFF3108500F043F8FFF7DFFEFFF765
S31508003210DBFE85F3108800F040F80020A070FEF76A
S31508003220C1F9FFF787FFFFF780FFFFF76AFEFFF791
S315080032309AFFFFF778FF85F310880120607031BD8B
S3150800324038B5EFF3108400F023F8FFF7BFFEFFF759
S31508003250BBFE84F310880B4C0020A07000F01DF80C
S31508003260FFF768FFFFF761FFFFF74BFEFFF77BFFEE
S31508003270FFF759FF85F3108801206070BDE83240DA
S31508003280FEF790B9B80C002086F31088EFF3108685
S31508003290012080F310880A20DCE40122202101485D
S315080032A0FFF728BB0010014080B5DFF87414884288
S315080032B016D0DFF8681488421ED0DFF85C148842FE
S315080032C023D0DFF8B813884228D0DFF8A413884241
S315080032D02DD08321DFF83C04BDE8044002F01EBC73
S315080032E001214FF4804001F031FA00214FF480406B
S315080032F0BDE8044001F02ABA01214FF4003001F07C
S3150800330047FA00214FF4003019E001214FF48020DC
S3150800331001F03EFA00214FF4802010E001214FF41D
S31508003320002001F035FA00214FF4002007E00121C2
S315080033304FF4801001F02CFA00214FF48010BDE8FC
S31508003340044001F025BA00002DE9F04385B000F0ED
S31508003350D7F90CD044450AD0BC4208D000F08AF907
S3150800336005D000F080F902D0B52100F089F9286867
S3150800337010B14949884202D3B62100F081F9A888DC
S3150800338028B1B0F5805F02D0B72100F079F9E88856
S3150800339058B1B0F5805F08D0B0F5005F05D0B0F53C
S315080033A0405F02D0B82100F06BF9288940B1B0F52A
S315080033B0806F05D0B0F5C06F02D0B92100F060F972
S315080033C068894FF6F371084200D110B9BA2100F0A6
S315080033D057F9A889C8B14FF4807188420CD04FF4C8
S315080033E00071884208D04FF44071884204D0BB214E
S315080033F000F046F9A88940B14C4506D0444504D0AA
S31508003400BC4202D0BF2100F03BF9208A4CF6FF717E
S315080034100840E98808432082A0894EF6F31108403F
S31508003420A98808432989084369890843A081A08A8D
S315080034304FF6FF410840A9890843A08200A801F079
S3150800344007F94C450CBF039802982968192250437E
S31508003450A28912044CBF49008900B0FBF1F164222D
S31508003460B1FBF2F00001030902FB1311A3891B0447
S3150800347006D5C9003231B1FBF2F101F0070105E0CA
S3150800348009013231B1FBF2F101F00F010843208145
S3150800349005B0BDE8F08300BF21AA440070B500F06E
S315080034A0B4F80FD000F0D7F80CD000F0D0F809D057
S315080034B000F0E0F806D000F0D6F803D040F25F112D
S315080034C000F0DEF84DB1012D03D04FF4B07100F0D5
S315080034D0D7F8A08940F4005003E0A0894DF6FF71A3
S315080034E00840A08170BD2DE9F84F00F065F8DFF8B7
S315080034F028B2DFF828A2DFF8288245450FD05545BF
S315080035000DD05D450BD0DFF87401854207D0DFF892
S315080035106001854203D04FF4C37100F053F840F6BA
S315080035206A19282E1BD040F22770864217D040F21F
S315080035302660864213D040F2255086420FD040F2CC
S31508003540244086420BD040F64600864207D04E45B8
S3150800355005D0602E03D040F2871100F033F82CB165
S31508003560012C03D04FF4C47100F02CF84E4509D154
S31508003570454507D0554505D05D4503D04FF4C6717E
S3150800358000F020F83006400F012106F01F02914096
S31508003590012802D105F10C0005E002280CBF05F14F
S315080035A0100005F11400002C026814BF114322EA2A
S315080035B001010160BDE8F18F05460E461446DFF8A5
S315080035C054717047384602F0A9BA70B500F01DF874
S315080035D00FD000F040F80CD000F039F809D000F010
S315080035E049F806D000F03FF803D040F24F2100F02A
S315080035F047F84FF40070854203D34FF4147100F076
S315080036003FF8E805C00DA08070BD04460D46DFF8FA
S315080036100461DFF80C018442704710B50446DFF8F0
S31508003620000184420FD000F016F80CD000F00FF815
S3150800363009D000F01FF806D000F015F803D04FF4B3
S31508003640187100F00CF8A088C005C00D10BDDFF891
S31508003650C80084427047DFF8C40084427047DFF828
S31508003660B40002F05BBA02488442704700000000CA
S31508003670005000400148844270470000004C00405A
S31508003680304602F04BBA2DE9F84300F039F80DD070
S3150800369044450BD0BC4209D0FFF7ECFF06D0FFF734
S315080036A0E2FF03D040F26A31FFF7EAFF012D22D08C
S315080036B0802D20D0402D1ED0202D1CD0102D1AD0A4
S315080036C04FF48070854216D04FF40070854208D0BA
S315080036D0082D10D0042D0ED0022D0CD040F26B31DF
S315080036E007E04C4507D0444505D0BC4203D040F21C
S315080036F06F31FFF7C5FF2088284000D001206FE012
S3150800370004460D46034E044FDFF81080DFF810908C
S315080037104C4570476074000800480040004400406B
S31508003720003801402DE9F843FFF7EAFF0DD044457C
S315080037300BD0BC4209D0FFF79DFF06D0FFF793FFD9
S3150800374003D040F2BD31FFF79BFF282D30D040F261
S31508003750277085422CD040F22660854228D040F258
S315080037602550854224D040F22440854220D040F698
S31508003770460085421CD040F66A1085420ED04FF4AA
S315080037805870854214D04FF41870854210D04FF403
S31508003790B07085420CD040F2BE3107E04C4507D0E8
S315080037A0444505D0BC4203D040F2C231FFF768FF5A
S315080037B02806400F012105F01F0201FA02F201282E
S315080037C001D1A08903E002280CBF208AA08A1040F4
S315080037D02A0A91402288114010B1080000D0012021
S315080037E0C0B2BDE8F283000070B586B00546002673
S315080037F0104C7019C1790591817904914179039129
S3150800380001790291C1780191817800914378725DBE
S315080038102146002001F08CFA00F0FCF80836102E3C
S31508003820E7DB03A1002006B0BDE8704001F080BACE
S315080038300D0A0000A473000810B588B0134C04A83C
S315080038402146102203F04BFB00A804F110011022B8
S3150800385003F045FB00A904A802F0A8FD28B9002238
S3150800386004F1200101F064FA0DE004F1400100F0D2
S3150800387015F904A8FFF7B8FF04F15C0100F00EF98A
S3150800388000A8FFF7B1FF08B010BD00BFE86C00083C
S31508003890F8B505460E46084901F04AFA002705A478
S315080038A0BA5D2146284601F043FA7F1C082FF7DB4C
S315080038B0F1BD00BF257800002C75000810B588B04A
S315080038C002A901A8FEF76DFA1A4C00F0E6F804F111
S315080038D0080100F0E3F89A49002000F0E3F8FEF743
S315080038E056FA024604F1100100F0D4F800F092F8F6
S315080038F0BDF8100000909DF912309DF8132004F1D0
S315080039002401002001F014FA02A90020FFF7C0FFE5
S315080039100948028804F1540100F0BCF800F07AF86E
S31508003920052204F1700100F0B5F800F073F808B04C
S3150800393010BD00BFD86A00086A0B00202DE9FC47B5
S315080039408246324C00F0A9F804F1200100F0A6F8EE
S315080039502DA5294600F0A2F800F05CF80026DFF84D
S31508003960B0800A2717E004F1700100F093F800A967
S31508003970F0B2FEF7E2FA00A9002000F093F838F852
S31508003980162004F17C0100F085F8294600F086F837
S3150800399000F040F8761C564534DA96FBF7F007FB3C
S315080039A0106101F13003DBB2784390FBF7F000F1C8
S315080039B03002D2B204F13401002001F0B9F9F0B2B4
S315080039C0FEF7CBFA81464FF6FF7081450CBF04F12E
S315080039D03C0104F1440100F061F848464FF6FC71D9
S315080039E0401A0BD0401E05D0801E4A46BBD104F1B2
S315080039F04C01BAE74A4604F15801B6E74A4604F1CB
S31508003A006401B2E7BDE8F3870D0A0000E46B00081D
S31508003A102C0C0020002001F0ADB90000F8B50446D2
S31508003A201B4D294600F03AF8FFF7F4FF00270A264F
S31508003A3006E005F1480100F031F8FFF7EBFF7F1CBF
S31508003A40A74224DA97FBF6F006FB107101F1300362
S31508003A50DBB2704390FBF6F000F13002D2B205F10A
S31508003A602001002001F064F900A9F8B2FEF789FAEE
S31508003A700028DED1BDF8002005F12C0101F058F927
S31508003A809DF8022005F13C0100F004F8D5E7F1BDE8
S31508003A9004700008002001F04BB92146002001F00F
S31508003AA047B90000F8B505460E46082706A4B81912
S31508003AB010F8012C2146284601F03AF97F1EFFB27C
S31508003AC0012FF4DAF1BD00BF2578000030B587B0C4
S31508003AD00446194D08221A49284603F0F3F9FEF759
S31508003AE056F92872FEF753F9000A68724CF20F006D
S31508003AF0ADF80C000120ADF80E008DF810008DF819
S31508003B0011004020ADF812000DF116000290019543
S31508003B100A200090012303AA21460020FEF77BF91C
S31508003B2038B1034622460549002001F001F9FFF79E
S31508003B3071FF07B030BD00BF880900204C7200082D
S31508003B406C0B0020FEB51E4CFFF7A7FF00251BA631
S31508003B5000AB01AA0DF10201E8B2FEF73DF90746EE
S31508003B602A4604F12401FFF795FFFFB901A90020B1
S31508003B70FFF798FFBDF8022004F12C01FFF78AFF32
S31508003B809DF8000003280AD0042802D0052803D08F
S31508003B9008E004F1340107E004F13C0104E004F113
S31508003BA0440101E004F15001FFF778FF3146FFF7C1
S31508003BB075FF6D1C062DCBDBF7BD00BF0D0A000097
S31508003BC06070000870B58AB00124FEF793F8104DAE
S31508003BD0022801D0032814D102260AE005F12001A3
S31508003BE0FFF75CFF0DF10300FFF7FEFD0324761EC9
S31508003BF00BD000A92046FEF7EBF9012CEED1294699
S31508003C00EEE705F14001FFF749FF0AB070BD00BFB6
S31508003C10606D000838B50446002501F0D3FF01128F
S31508003C2004F8151004EB450148706D1C042DF4DBEF
S31508003C300349FFF733FF2046FFF7D6FD002032BDC4
S31508003C407475000880B5DFF8B41388420ED0DFF823
S31508003C50B413884213D0DFF8A813884218D0B521C8
S31508003C60DFF8A403BDE8044001F058BF01214FF472
S31508003C70007000F06BFD00214FF4007010E0012188
S31508003C804FF4806000F062FD00214FF4806007E089
S31508003C9001214FF4004000F059FD00214FF4004087
S31508003CA0BDE8044000F052BD70B500F076F908D0C2
S31508003CB000F06BF905D000F06CF902D0DE2100F0B7
S31508003CC073F92868E8B1B0F5803F1AD0B0F5003F1F
S31508003CD017D0B0F5403F14D0B0F5802F11D0B0F50D
S31508003CE0A02F0ED0B0F5C02F0BD0B0F5E02F08D01E
S31508003CF0B0F5002F05D0B0F5102F02D0DF2100F067
S31508003D0053F9287920B1012802D0E02100F04CF9B6
S31508003D10687920B1012802D0E12100F045F9A868A8
S31508003D20B8B1B0F5003F14D0B0F5802F11D0B0F57A
S31508003D30C02F0ED0B0F5002F0BD0B0F5202F08D02D
S31508003D40B0F5402F05D0B0F5602F02D0E22100F083
S31508003D502BF9E86828B1B0F5006F02D0E32100F02E
S31508003D6023F9287C08B1112802D3E42100F01CF9B4
S31508003D7060680E49084029680843297940EA012005
S31508003D806060A0680A490840E9680843A9680843CA
S31508003D90697940EA4100A060E06A20F47000297C55
S31508003DA0491EC9B240EA0150E06270BDFFFEF0FF4D
S31508003DB0FDF7F1FF70B500F0F0F809D000F0E5F86E
S31508003DC006D000F0E6F803D040F22D1100F0ECF82A
S31508003DD04DB1012D03D04FF4977100F0E5F8A068B6
S31508003DE040F0010002E0A06840084000A06070BDF5
S31508003DF010B500F049F809D000F0C7F806D000F071
S31508003E00C8F803D040F27D1100F043F8A06840F0EE
S31508003E100800A06010BD10B500F036F809D000F013
S31508003E20B4F806D000F0B5F803D040F28B1100F0D4
S31508003E3030F8A0680006C00E23E010B500F024F89C
S31508003E4009D000F0A2F806D000F0A3F803D040F29B
S31508003E50A31100F01EF8A06840F00400A06010BD91
S31508003E6010B500F011F809D000F08FF806D000F070
S31508003E7090F803D040F2B11100F00BF8A0680006E4
S31508003E80800E00F0010010BD0446DFF87001844280
S31508003E907047DFF8740101F041BE2DE9F04100F0EA
S31508003EA086F80BD0DFF85C01864207D0DFF85001B0
S31508003EB0864203D040F2512100F09CF82FB3012F1F
S31508003EC023D0022F21D0032F1FD0042F1DD0052F5A
S31508003ED01BD0062F19D0072F17D0082F15D0092F5A
S31508003EE013D00A2F11D00B2F0FD00C2F0DD00D2F5A
S31508003EF00BD00E2F09D00F2F07D0102F05D0112F5A
S31508003F0003D040F2522100F075F80CB1112C03D3FE
S31508003F1040F2532100F06EF88DB1012D0FD0022D1D
S31508003F200DD0032D0BD0042D09D0052D07D0062D55
S31508003F3005D0072D03D04FF4157100F05BF800F09B
S31508003F403FF81F200521072C06D2621E5143726BCB
S31508003F5000F014F870630FE00D2C06D2E21F5143EF
S31508003F60326B00F00BF8306306E0A4F10D02514302
S31508003F70F26A00F003F8F062BDE8F081884022EAB0
S31508003F80000007FA01F108437047DFF87800844219
S31508003F907047DFF86C008442704704460D46DFF828
S31508003FA06860164884427047304601F0B7BD064639
S31508003FB00F4614461D46DFF8508010488642704763
S31508003FC0072003210A2F0BD3A7F10A025143F268EF
S31508003FD0884022EA000005FA01F10843F0607047BC
S31508003FE079433269884022EA000005FA01F108435C
S31508003FF030617047404601F091BD00000024014041
S31508004000003C014000280140BC74000870B5FF253B
S3150800401000260020DFF8BC42A168425CA5F119031E
S315080040209A4202DA02F11905EDB2401C1028F4DBB7
S315080040300020425CAA4201DA761CF6B2401C10281F
S31508004040F7DB01F0BFFD90FBF6F106FB1100C0B2ED
S315080040500021A2688A5CAA4206DA18B901F10B00A7
S31508004060607004E0401EC0B2491C1029F1DBBDE8AF
S31508004070704038B50024974D09E001F0A3FD4FF6CE
S31508004080FF71884203D0A96821F81400641C102C1B
S31508004090F3DB0320287003220120697800FA01F176
S315080040A0BDE8384018E110B58A4C2078012807D0B9
S315080040B07020FDF76FFA702010BDE07803F044F821
S315080040C0E078A0B1401EE070C0B203F039F801886C
S315080040D04FF6FF729142F0D090F90F20817BFDF7E1
S315080040E057FAE07803F030F803F035F814E0607812
S315080040F0401C607060781B280BD201218140E26861
S315080041001142F5D0042020700322012000F0E4F8C3
S3150800411002E0AB2000F0D2F8002010BD10B50C4626
S3150800412000F0C5F8002801D1002010BD69480278C2
S31508004130022A0BD0002CF7D14178022A06D0032A8E
S3150800414007D0042A1AD0052A2FD032E0FFF75EFFDF
S315080041502FE0002280684FF6FF7430F81230A34231
S3150800416006D01846FDF7F2F9002000F0A7F820E07F
S31508004170521C102AF1DBFFF77CFF1AE00279A2B184
S315080041800F2901D3172910D3C27872B10F2934BF6A
S315080041900C236FF00B030522027003220120591825
S315080041A000FA01F100F098F803E001210170FFF729
S315080041B07AFF012010BD2DE9F843044689461746C3
S315080041C04FF6FF75434E3078032804D004280FD0E5
S315080041D0052844D05BE00027B06830F8171022881D
S315080041E0914201D120F817507F1C102F4FDAF4E7BF
S315080041F0E07800284BD0257B02F096FF854246D111
S31508004200B07838B90822211D06F1100002F0C8FE60
S3150800421000283CD100250AE0284602F091FF082232
S31508004220211D001D02F0BCFE88B36D1CEDB2F078AE
S315080042308542F1DB401CC0B202F086FF38BBF0783D
S3150800424002F07EFF0546F078401CF0700E222146EB
S31508004250284602F037FE85F80E90EF7317E0002720
S3150800426012E0384602F06CFF80460822211D08F14C
S31508004270040002F095FE28B998F80E00484501D2C8
S31508004280A8F800507F1CFFB2F0788742E9DBBDE84A
S31508004290F1430CE038B505460C4600F008F828B19D
S315080042A00C488068281800F80B4C012032BD0948D4
S315080042B0017802298041C043C00F704710B50446F3
S315080042C004480021017002F049FF14B12046FDF7A9
S315080042D061F910BD680C002080B5FDF715FD08B121
S315080042E0FFF7ECFF01BD00002DE9F04186B0064658
S315080042F00F4614461D46A848002141808180C1808A
S3150800430001814181818118208DF803004FF40070E6
S31508004310ADF8000003208DF80200DFF87C8000A9C4
S315080043204046FEF797F904208DF803004FF48060A5
S31508004330ADF8000000A94046FEF78CF90296ADF8E4
S315080043400C70ADF81040ADF80E500020ADF8140012
S315080043500C20ADF81200914C02A92046FEF7F4FF96
S3150800436001212046FFF79AF8012240F225512046FE
S31508004370FFF7B9F825208DF8040000208DF8050010
S315080043808DF8060001208DF8070001A802F090F9C3
S3150800439006B0BDE8F08100BF0008014080B50829D5
S315080043A006D00A290DD00C290ED00F290FD011E0FE
S315080043B04FF49640012A0FD0022A10D14FF480629A
S315080043C00EE04FF41640F5E74FF46140F2E74FF47C
S315080043D0E130EFE7202002BD4FF4C06200E0002282
S315080043E0022B0CBF4FF4005300230021FFF77CFF7C
S315080043F0002002BD2DE9F8430C4615460026012883
S3150800440005D0022803D04FF0FF30BDE8F283DFF86D
S315080044108C81614F3878A0B1002709E000F049F88F
S315080044200028FBD0395D4046FFF7CFF8761C7F1C85
S31508004430AF42F3D3402100F03DF80028FAD03046C9
S31508004440E3E740F2277914B3002DF8D0B8897F281E
S3150800445018D2EFF31080012181F310883989514A67
S3150800446014F8013B8B54491C8A1101EB5262D21194
S31508004470A1EBC2113981B989491CB9816D1E761C17
S3150800448080F3108800F010F8DEE700F00DF8B88920
S315080044900028FAD100F00DF80028F6D0402100F0E7
S315080044A009F80028F1D0CAE7012249464046FFF735
S315080044B01AB880214046FFF7E6B8002200210120FD
S315080044C098E7354908707047F0B5002802D04FF0D4
S315080044D0FF30F0BD324B304C17E0EFF31085012664
S315080044E086F31088A688F65C01F8016BA688761C08
S315080044F0B71106EB5767FF11A6EBC716A680E68825
S31508004500761EE68085F31088401CE588002D01D0CC
S315080045109042E2D3F0BD70B51F4E204D40F22551B2
S315080045202846FFF7FFF8012812D12846FFF775F845
S31508004530F1887F290CD27288194BD054501C8211ED
S3150800454000EB5262D211A0EBC2107080481CF080BA
S3150800455040F2277421462846FFF7E4F8012819D1C6
S31508004560B08990B170890F49415C2846FFF72DF84C
S315080045707089401C811100EB5161C911A0EBC11073
S315080045807081B089401EB08170BD00222146284640
S31508004590FEF7A9FF70BD0000580B00200038014047
S315080045A088080020080900202143016010BD4A48F8
S315080045B00168704710B504000CD0B4F5804F09D0D7
S315080045C0B4F5004F06D0B4F5404F03D040F20B3196
S315080045D000F005F8FFF7EBFF21F44041E4E77D48DA
S315080045E001F09CBA0000000010B5040005D0012CAB
S315080045F003D040F26A31FFF7F2FF0148046010BDAC
S315080046008004424210B504464FF4807084420BD0B1
S315080046104FF40070844207D04FF44070844203D0B0
S3150800462040F27B31FFF7DBFF01480168BCE7000079
S315080046302010024010B5040005D0012C03D040F22A
S315080046408931FFF7CCFF0148046010BD3C044242A3
S3150800465030B521490B681D4A03F00C03082B0FD10E
S315080046600B680C6803F470139B0C9B1C184D5D4378
S31508004670E40301D42A4603E00C68A403FAD45A4397
S3150800468002600B68134A046803F0F0031B099B5C7D
S3150800469024FA03F343600C6804F4E064240AA45C77
S315080046A0E34083600B68446803F46053DB0A9B5C51
S315080046B024FA03F3C360096801F4404102EB91311F
S315080046C0097CB3FBF1F1016130BD00BF00127A002D
S315080046D000093D00800C002004100240F8B500F0E7
S315080046E04FF800D11CB940F2514100F02BF8074DA4
S315080046F046B1012E03D040F2524100F023F8286853
S31508004700204301E02868A0432860F1BD1810024044
S31508004710F8B500F057F800D11CB94FF48E6100F0D7
S3150800472011F8074D46B1012E03D040F2714100F051
S3150800473009F82868204301E02868A0432860F1BDED
S315080047401C100240384601F0E9B90000F8B500F03F
S3150800475017F800D11CB940F2AB41FFF7F3FF074D3C
S3150800476046B1012E03D040F2AC41FFF7EBFF2868B3
S31508004770204301E02868A0432860F1BD0C100240E0
S3150800478004460E46134F0148044270470200C0FF14
S31508004790F8B500F017F800D11CB940F2CA41FFF786
S315080047A0D1FF074D46B1012E03D040F2CB41FFF7AA
S315080047B0C9FF2868204301E02868A0432860F1BDA6
S315080047C01010024004460E46024F01480442704744
S315080047D000360181DC74000810B5040005D0012CF0
S315080047E003D040F2DF41FFF7FAFE0148046010BD2E
S315080047F04004424210B50446212C17D0312C15D05E
S31508004800392C13D0412C11D0612C0FD07A2C0DD015
S315080048107B2C0BD07C2C09D07D2C07D07E2C05D088
S315080048207F2C03D040F23B51FFF7D9FE60090949B6
S31508004830012801D1086803E002280CBF086A486A03
S31508004840012104F01F029140084000D00120C0B2A7
S3150800485010BD0000001002400248016841F0807156
S3150800486001607047241002405258205B6261642040
S315080048707061636B65745D20636C75737465722013
S315080048803078253278206F66206C656E67746820EC
S3150800489025780D0A00000000525820746F6F2073A7
S315080048A0686F7274205B73696E6B206164766572DB
S315080048B0746973655D2066726F6D3A2000000000AA
S315080048C05258205B73696E6B2061647665727469F1
S315080048D073655D2066726F6D3A2000003B2069673C
S315080048E06E6F72696E670D0A000000005258205BF1
S315080048F073656E736F722073656C65637420736974
S315080049006E6B5D2066726F6D3A2000003B207072F8
S315080049106F63657373696E67206D65737361676529
S315080049200D0A00005258205B73696E6B2072656130
S3150800493064795D2066726F6D3A2000003B207468CA
S31508004940697320697320616E206572726F725D0DDE
S315080049500A0000005258205B73696E6B20717565FA
S3150800496072795D2066726F6D3A2000005258205B9E
S31508004970444154415D2066726F6D3A200000000084
S315080049803B206C656E2030782578202F2064617472
S3150800499061204E4F2044415441210D0A0000000079
S315080049A03B206C656E2030782578202F2064617452
S315080049B061203078257825780D0A00005258205B4A
S315080049C06D756C7469636173742068656C6C6F5D72
S315080049D02066726F6D3A20005258205B756E6B6EBA
S315080049E06F776E2028253278295D2066726F6D3ABA
S315080049F0200000004552524F523A20657A73705390
S31508004A006574536F75726365526F7574653A2030B5
S31508004A107825780D0A0000004552524F523A206513
S31508004A207A737053656E645265706C793A20307883
S31508004A3025780D0A000000007265636569766520B1
S31508004A406475706C6963617465206D6573736167FD
S31508004A50652066726F6D20005741524E494E473A9F
S31508004A60206E6F206D6F72652066726565206164C1
S31508004A706472657373207461626C6520656E747206
S31508004A806965730D0A0000005458204552524F526A
S31508004A90205B73696E6B2072656164795D2C207387
S31508004AA065742072656D6F746520455549363420E6
S31508004AB06661696C7572652C2073746174757320F0
S31508004AC0307825780D0A00004556454E543A20732D
S31508004AD0696E6B20736574206164647265737320F4
S31508004AE07461626C6520656E74727920257820740D
S31508004AF06F206E6F6465205B000000005458205BD1
S31508004B0073696E6B2072656164795D2C20737461BC
S31508004B107475733A307825780D0A000070B5134617
S31508004B20101804E03724A4192C705B1EDBB243B1BD
S31508004B3001F00F060909451E28460A2EF2DA302426
S31508004B40F1E7101870BD00002DE9F24F88B08146D4
S31508004B501546984601AE002701A88DF80000DFF833
S31508004B6080B11AE058F8044B0422210C3046FFF7AE
S31508004B70D5FF0422A1B2FFF7D1FF064605A8864253
S31508004B800AD39DF80000361AF6B200F0ACF80028F1
S31508004B9037D1F719FFB201AE6D1C9DF80000301A27
S31508004BA0C0B22978002907D0252902D006F8011BAA
S31508004BB0E4E715F8011F002900F08780252914D09D
S31508004BC0322972D0342970D0582968D0632910D078
S31508004BD064292CD06C292AD070290DD073290BD0C2
S31508004BE0752924D078295AD0C8E7252006F8010B5C
S31508004BF0C4E758F8040BF9E758F804AB00F072F864
S31508004C00002868D1F719FFB201AE002401E0601C44
S31508004C10C4B214F80A000028F9D1224651469DF874
S31508004C202000C847002856D1E719FFB2A6E76C2925
S31508004C3002D158F8040B05E0752958F8040B01D180
S31508004C40002200E00122002142B1002806D52D21CC
S31508004C503170012110F1004F00D04042002200239C
S31508004C604FF0000C04E0001B0CF101045FFA84FC11
S31508004C705BF82340A042F6D2BCF1000F00D12AB15E
S31508004C800CF130028A55491CC9B201225B1C092B5A
S31508004C90E6DB30308855481CC0B286196EE758F8EE
S31508004CA0041B0222C9B2304665E715F8010F7828B9
S31508004CB003D0582801D06D1E60E732297FF452AF21
S31508004CC058F8041B042289B2EDE700F00BF810B976
S31508004CD0F019C0B200E0002009B0BDE8F08F00BFAF
S31508004CE0147300080646324601A99DF82000484775
S31508004CF0FFF754BB10B50C4602F04CFA002801D554
S31508004D00262010BD2070002010BD000000A10FE075
S31508004D100D0A000010B5002413460A46014603484A
S31508004D20FFF712FF00B90124204610BD594D0008AF
S31508004D300CB480B502AAFFF7EDFF02BC5DF80CFBC8
S31508004D400CB438B5044604AAFFF7E4FF0546204626
S31508004D50FFF7DCFF284624E038B50C46154603E085
S31508004D6014F8010B02F0B0FA2846451EC0B2002816
S31508004D70F6D132BD80B50120FFF79FFB002002BDAA
S31508004D800CB438B505460C460120FFF79AFB04AA71
S31508004D9021462846FFF7BEFF04460020FFF791FB91
S31508004DA0204632BC5DF80CFB80B5DFF86C128842F1
S31508004DB00ED0DFF86812884216D0DFF864128842EF
S31508004DC01BD07921DFF84C02BDE8044000F0A6BEEE
S31508004DD001214FF48050FFF7B9FC00214FF48050B1
S31508004DE0BDE80440FFF7B2BC01214FF48040FFF74D
S31508004DF0CFFC00214FF4804007E001214FF400402A
S31508004E00FFF7C6FC00214FF40040BDE80440FFF759
S31508004E10BFBC70B500F0CDF808D000F0BDF805D0DD
S31508004E2000F0B7F802D0A22100F0C0F8288858B1DF
S31508004E30B0F5806F08D0B0F5004F05D0B0F5404FFB
S31508004E4002D0A52100F0B2F868884FF48271884232
S31508004E5003D010B1A62100F0A9F8A888B0F5006F14
S31508004E6003D010B1A72100F0A1F8E88820B10228E4
S31508004E7002D0A82100F09AF8288920B1012802D08A
S31508004E80A92100F093F868894FF40071884203D08D
S31508004E9010B1AA2100F08AF8A88980B108280ED096
S31508004EA010280CD018280AD0202808D0282806D080
S31508004EB0302804D0382802D0AB2100F077F8E889EA
S31508004EC020B1802802D0AC2100F070F8288A10B9E9
S31508004ED0AD2100F06BF8208800F44150298808437A
S31508004EE069880843A9880843E98808432989084343
S31508004EF069890843A9890843E98908432080A08B62
S31508004F004FF2FF710840A083288A208270BD0000F6
S31508004F1070B500F04EF809D000F03EF806D000F063
S31508004F2038F803D040F2AD1100F040F84DB1012D2C
S31508004F3003D04FF4D77100F039F8208840F04000CC
S31508004F4003E020884FF6BF710840208070BD38B551
S31508004F5004460D463048844209D000F01DF806D0B4
S31508004F6000F017F803D040F2252100F01CF8A581BF
S31508004F7031BD10B500F013F809D000F00DF806D0D1
S31508004F8000F007F803D040F2352100F00CF8A089AC
S31508004F9010BD23488442704720488442704704461F
S31508004FA01D48844270471B4800F0B8BD304600F0E3
S31508004FB0B5BD04460D46174E17488442704770B56E
S31508004FC005460C46134E1448854209D013488542B7
S31508004FD006D01348854203D040F20131FFF7E6FFB9
S31508004FE0802C11D0402C0FD0202C0DD0102C0BD09B
S31508004FF0082C09D0042C07D0022C05D0012C03D08C
S3150800500040F20231FFF7D2FF2889204000D0012064
S31508005010C0B270BDFC740008003001400038004082
S31508005020003C00403F203D2068656C700D0A00007A
S3150800503069203D207072696E74206E6F6465206900
S315080050406E666F0D0A0000006C203D2073656E6465
S31508005050206D756C746963617374205B68656C6C2C
S315080050606F5D0D0A0000000074203D20706C6179A8
S315080050702074756E650D0A0061203D207072696E98
S31508005080742061646472657373207461626C650D63
S315080050900A0000006D203D207072696E74206D75DF
S315080050A06C746963617374207461626C650D0A00BF
S315080050B066203D2073656E642073696E6B2061649B
S315080050C0766572746973656D656E740D0A00000005
S315080050D030203D20627574746F6E20303A207475E6
S315080050E0726E20616C6C6F77206A6F696E204F4E06
S315080050F020666F72203630207365630D0A00000043
S3150800510031203D20627574746F6E20313A206C65CB
S31508005110617665205A6967426565206E6574776FA2
S31508005120726B0D0A0000000065203D2072657365EC
S3150800513074206E6F64650D0A0000000063203D2030
S315080051407072696E74206368696C64207461626C3D
S31508005150650D0A006B203D207072696E74207468B4
S3150800516065207365637572697479206B6579730D4B
S315080051700A0000002A203D2073776974636820744A
S315080051806865206E6574776F726B206B65793A2057
S3150800519073656E6420746865206B657920666F6C2C
S315080051A06C6F776564206279206120737769746310
S315080051B0680D0A00202020206B657920636F6D6DCD
S315080051C0616E64203330207365636F6E6473206C80
S315080051D0617465720D0A000026203D2073656E64B1
S315080051E0206120737769746368206B657920636F23
S315080051F06D6D616E642E2054686973206973206E24
S315080052006565646564206F6E6C79206966207468CC
S3150800521065206465766963650D0A000020202020F4
S3150800522073656E742061206E6577206B65792061E1
S315080052306E64207468656E20726573657420626595
S31508005240666F7265206974207761732061626C6588
S3150800525020746F2073656E64207468650D0A0000FB
S3150800526020202020737769746368206B6579206332
S315080052706F6D6D616E640D0A0000000010B58AB08E
S315080052804020ADF8040018208DF8070003208DF89B
S31508005290060001A91F48FDF7DDF901211E48FDF7A3
S315080052A097FB4820ADF808004FF6FF70ADF80C00E4
S315080052B00020ADF80E00ADF80A00774C02A920468A
S315080052C0FBF714F805A8FBF78DFA3020ADF81400A3
S315080052D00120ADF8160005A92046FBF799F8082124
S315080052E02046FBF7ADFB01212046FBF760FB0022B9
S315080052F002212046FBF7C9FA1D208DF80000002080
S315080053008DF80100ADF8020000A801F0D1F90AB045
S3150800531010BD00BF00100140000C1A002DE9F04135
S3150800532007460C46FFF7AAFF554D6F60DFF8688100
S31508005330544E00F03DF8FBF7F9FC00F039F8FBF79E
S315080053402FFD00214046FBF7B7FC387879784843AB
S31508005350642148437D2190FBF1F068800220287083
S3150800536000206870EFF31087012080F3108801226F
S3150800537002214046FBF789FA4FF000560A480660B4
S3150800538002214046FBF799FE08480660012140467F
S31508005390FBF732FA87F3108801E000F0AFFB687874
S315080053A02043FAD0BDE8F08100E100E080E200E0A9
S315080053B0387896FBF0F189B240467047F8B5364C16
S315080053C002212046FBF779FE2D4D6888411E69802B
S315080053D0002854D12878696842185278002A40D0A3
S315080053E06426425C1AB3274F97FBF2F189B220462E
S315080053F0FBF79CFC28786968405C97FBF0F189B25A
S315080054002046FBF7CDFC00212046FBF755FC012280
S3150800541000212046FBF79EFB28786968425C401805
S315080054204078504370437D2190FBF1F014E04FF42F
S315080054307A712046FBF77AFC4FF47A712046FBF71F
S31508005440AFFC00212046FBF737FC00F027F8287848
S31508005450696840184078704368802878801C2870EE
S31508005460F1BD02212046FBF710FA00F00DF800F016
S3150800547015F800212046FBF7BFF901206870F1BD39
S31508005480A40C002048E8010002484FF000510160D2
S31508005490704700BF80E100E00004004000220021C0
S315080054A02046FBF757BB000031480268511C0160D3
S315080054B0107870471F490A681F4B1B68D31A802B40
S315080054C000DA10700868401C0860704710B504467A
S315080054D0C0B2FFF7EFFF200A7BE010B5FFF7E4FF45
S315080054E00446FFF7E1FF04EB002080B210BD10B5BB
S315080054F0044680B2FFF7EAFF200CBDE81040E5E756
