S0190000736C656570792D73656E736F722D686F73742E73333797
S31508000000000800205D720008E5720008E972000821
S31508000010ED720008F1720008F57200080000000091
S31508000020000000000000000000000000F97200084F
S31508000030FD7200080000000001730008057300083F
S31508000040097300080D73000811730008157300087A
S31508000050197300081D73000821730008257300082A
S31508000060297300082D730008392D00083573000818
S31508000070397300083D73000841730008457300088A
S31508000080497300084D73000851730008557300083A
S31508000090597300085D7300086173000865730008EA
S315080000A0697300086D73000871730008757300089A
S315080000B0ED2C000825510008817300088573000897
S315080000C0897300088D7300089173000895730008FA
S315080000D0997300086F450008A1730008A573000806
S315080000E0A9580008AD730008B1730008B573000875
S315080000F0B9730008BD730008C1730008C57300080A
S31508000100C9730008CD730008D1730008D5730008B9
S31508000110D9730008DD730008E1730008E573000869
S31508000120E9730008ED730008F1730008F573000819
S3150800013080B5DFF89C16884244D0B0F1804F4AD08B
S31508000140DFF8881688424DD0DFF87C16884250D0F2
S31508000150DFF87016884256D0AB4988425AD0AB4968
S3150800016088425ED0DFF85816884261D0DFF84C1610
S31508000170884266D0DFF85C1688426BD0DFF85816DE
S31508000180884270D0DFF83016884275D0DFF84C16F2
S31508000190884278D0DFF8481688427BD0DFF81416F4
S315080001A0884200F080804F49884200F085804E4999
S315080001B0884200F08A807C21DFF8F405BDE8044017
S315080001C005F094B901214FF4006004F0EBFA002120
S315080001D04FF4006081E00121012004F005FB0021B5
S315080001E001200CE00121022004F0FEFA0021022081
S315080001F005E00121042004F0F7FA00210420BDE8F7
S31508000200044004F0F1BA0121082004F0EDFA0021B7
S315080002100820F4E70121102004F0E6FA0021102056
S31508000220EDE70121202004F0DFFA00212020E6E78F
S3150800023001214FF4005004F0B5FA00214FF40050A4
S315080002404BE001214FF4002004F0ACFA00214FF4F2
S31508000250002042E001214FF4801004F0A3FA0021A7
S315080002604FF4801039E001214FF4001004F09AFA97
S3150800027000214FF4001030E00121402004F0B4FAC8
S3150800028000214020BBE70121802004F0ADFA0021BF
S315080002908020B4E701214FF4807004F0A5FA00210C
S315080002A04FF48070ABE701214FF4803004F07AFAFE
S315080002B000214FF4803010E001214FF4003004F0A3
S315080002C071FA00214FF4003007E001214FF4802035
S315080002D004F068FA00214FF48020BDE8044004F0D9
S315080002E061BA000000440140004801402DE9F84F7A
S315080002F004460D46DFF8B864DFF8C474DFF8C4B402
S31508000300DFF8C4A4DFF8C484DFF8C4944C452ED0C3
S31508000310B4F1804F2BD0444529D0544527D05C45AD
S3150800032025D000F0C3FC22D000F0BAFC1FD0BC4296
S315080003301DD000F097FC1AD000F0ACFC17D000F0E6
S31508000340A3FC14D000F088FC11D000F097FC0ED066
S3150800035000F08EFC0BD000F0F7FB08D000F0E8FBAD
S3150800036005D000F0DFFB02D0E52100F0BCFB688871
S3150800037050B1102808D0202806D0402804D060287C
S3150800038002D0E62100F0AFFBE88840B100F0F7F8AC
S3150800039005D000F0EFF802D0E72100F0A4FB208892
S315080003A04C450AD0BC4208D0B4F1804F05D044452C
S315080003B003D0544501D05C4503D100F0F3FA6988AF
S315080003C0084311498C4207D010498C4204D04FF695
S315080003D0FF410840E98808432080A888A085288826
S315080003E020854C450AD0BC4208D000F0ADFB05D0AC
S315080003F000F09EFB02D000F095FB01D1287A2086FA
S315080004000120A082BDE8F18F0010004000140040D2
S315080004102DE9F84F00F0C4F8DFF898B300F0B6F805
S315080004202BD0B4F1804F28D000F076FB25D000F011
S315080004306DFB22D000F064FB1FD054451DD000F0A0
S3150800044011FC1AD000F026FC17D000F01DFC14D0C1
S3150800045000F002FC11D000F011FC0ED000F008FCF0
S315080004600BD05C4509D000F063FB06D000F05AFBC0
S3150800047003D04FF48D7100F063FA288868B110280C
S315080004800BD0202809D0302807D0602805D070283E
S3150800049003D040F21B1100F053FA688828B10128EE
S315080004A003D04FF48E7100F04BFA288928B1022840
S315080004B003D040F21D1100F043FA208C4FF6FE716E
S315080004C000F06AF8A688218B4FF68C7211402A88AC
S315080004D01143ADF800104FF6FD710840298908430D
S315080004E0698841EA00074C4509D0544507D05C4560
S315080004F005D000F01DFB02D000F014FB32D1A8880D
S3150800050028B1042803D04FF49D7100F019FA6889C0
S3150800051028B1082803D040F23B1100F011FA00F088
S3150800052028F804D018B14FF49E7100F009FA00F0CB
S3150800053025F804D018B140F23D1100F001FA4FF643
S31508000540F7703840698908434FF6FB710840A98857
S3150800055041EA00074FF6FF403040A9890843E98978
S3150800056041EA0006A680BDF800002083E888A08638
S3150800057009E0E8894FF4007188427047A8894FF46A
S315080005808071884270472784BDE8F18FDFF830A272
S31508000590DFF83C924C45704708402084208C704711
S315080005A004460D46DFF8088270472DE9F8430446ED
S315080005B00D4628887E4E48B1042807D0082805D05D
S315080005C00C2803D04FF4137100F08DFA688828B10F
S315080005D0022803D040F24D2100F085FAA8880128A8
S315080005E007D0022805D0032803D040F24E2100F098
S315080005F07AFAE88848B1042807D0082805D00C28D4
S3150800060003D040F24F2100F06EFA2889102803D350
S315080006104FF4147100F067FA29886648664A674BF2
S31508000620674FDFF8A0C1DFF8A0E1DFF8A081DFF8A7
S31508000630A091002933D14C4526D0B4F1804F23D060
S31508000640444521D074451FD064451DD0BC421BD0FB
S315080006509C4219D05F498C4216D05F498C4213D010
S31508000660944211D05D498C420ED05D498C420BD024
S31508000670844209D000F05CFA06D000F053FA03D0A1
S315080006804FF4157100F02FFA2B89AA88698820463D
S3150800069000F059FDE988204600F0C4FB84E00429EF
S315080006A021D14C4514D0B4F1804F11D044450FD018
S315080006B074450DD064450BD0BC4209D09C4207D086
S315080006C0944205D0844203D040F25E2100F00BFA32
S315080006D02B89AA886988204600F04CFDE9882046BF
S315080006E000F0E5FB60E008292FD14C450ED0B4F1A7
S315080006F0804F0BD0444509D0744507D0644505D0D2
S31508000700BC4203D04FF41A7100F0EDF92989AA8882
S315080007106888238C4FF6FF6633402384A38B268C88
S315080007204FF60C773B401A4342EA0111A1834FF674
S31508000730FF51314041EA00204FF48071084320847C
S31508000740E988204600F0E6FB2EE04C450ED0B4F1D1
S31508000750804F0BD0444509D0744507D0644505D071
S31508000760BC4203D040F2722100F0BDF92989AA885B
S315080007706888238C4EF6FF7633402384A38B268C19
S3150800078040F6FF473B4043EA022242EA0131A18391
S315080007904DF6FF71314041EA003040F48050208424
S315080007A0E988204600F0E0FBBDE8F1830000000080
S315080007B02C7200080040014000180040004C01401F
S315080007C000340140000C00400008004000040040CE
S315080007D0002C01400050014000540140001C00401C
S315080007E0002000400021018041808180C180018174
S315080007F041818181C181704770B500F077F933D0A6
S31508000800B4F1804F30D000F087F92DD000F07EF992
S315080008102AD000F075F927D000F048FA24D000F065
S315080008203FFA21D000F08AF91ED000F01BFA1BD03F
S3150800083000F030FA18D000F027FA15D000F00CFABC
S3150800084012D000F01BFA0FD000F012FA0CD000F00C
S315080008507BF909D000F06CF906D000F063F903D0F3
S3150800086040F21F3100F03FF94DB1012D03D04FF48E
S31508000870487100F038F9208840F0010003E020882C
S315080008804FF6FE710840208070BDF8B500F04CF8B0
S3150800089033D0B5F1804F30D000F068F82DD000F095
S315080008A05FF82AD000F056F827D000F075F824D063
S315080008B000F06CF821D000F047F81ED000F0BCF923
S315080008C01BD000F0B3F918D000F0A4F915D000F049
S315080008D0A7F912D000F098F90FD000F08FF90CD0D4
S315080008E000F04EF809D000F083F906D000F07AF946
S315080008F003D040F2613100F03FF84FF47F400642E2
S3150800090000D11EB940F2623100F036F844B1012C2C
S3150800091003D040F2633100F02FF8A889304301E094
S31508000920A889B043A881F1BD05460E461446024F74
S3150800093002488542704700002C720008002C0140CE
S31508000940404604F0D3BD000001488542704700BF09
S315080009500034014001488542704700BF000C004042
S3150800096001488542704700BF00080040014885429B
S31508000970704700BF00040040384604F0B7BD0000C9
S3150800098001488542704700BF004001400148854242
S31508000990704700BF0014004001488542704700BFF9
S315080009A0001000404FF68F7108407047000070B580
S315080009B000F09CF833D0B4F1804F30D000F0ACF89A
S315080009C02DD000F0A3F82AD000F09AF827D000F02E
S315080009D06DF924D000F064F921D000F0AFF81ED0EC
S315080009E000F040F91BD000F055F918D000F04CF98A
S315080009F015D000F031F912D000F040F90FD000F010
S31508000A0037F90CD000F0A0F809D000F091F806D01C
S31508000A1000F088F803D040F27A5100F064F84DB13E
S31508000A20012D03D040F27B5100F05DF8208840F09C
S31508000A30800003E020884FF67F710840208070BD53
S31508000A4070B500F053F82DD0B4F1804F2AD000F0DD
S31508000A5063F827D000F05AF824D000F051F821D0D6
S31508000A6000F06CF81ED000F0FDF81BD000F012F96B
S31508000A7018D000F009F915D000F0EEF812D000F001
S31508000A80FDF80FD000F0F4F80CD000F05DF809D0AE
S31508000A9000F04EF806D000F045F803D040F2DF51DA
S31508000AA000F021F8082D04D01DB14FF4BC6100F008
S31508000AB01AF8208B00F00EF808402843208370BDF2
S31508000AC0084040EA0520208370BD08402843A083DB
S31508000AD070BD00004FF6F7717047084040EA0520E0
S31508000AE0A08370BD0000304604F000BD04460D46E4
S31508000AF0014E0248844270472C720008002C0140BF
S31508000B0001488442704700BF000C004001488442F7
S31508000B10704700BF0008004001488442704700BF84
S31508000B200004004001488442704700BF0048014065
S31508000B3001488442704700BF00440140014884428E
S31508000B40704700BF0034014001488442704700BF27
S31508000B5000400140F8B5FFF7E7FE2DD0B5F1804F0C
S31508000B602AD0FFF703FF27D0FFF7FAFE24D0FFF7B6
S31508000B70F1FE21D0FFF7E8FE1ED000F05DF81BD08D
S31508000B8000F054F818D000F045F815D000F048F8F1
S31508000B9012D000F039F80FD000F030F80CD0FFF77B
S31508000BA0EFFE09D000F024F806D000F01BF803D0B9
S31508000BB040F2B171FFF7E0FE4EB1042E07D0082EC1
S31508000BC005D00C2E03D040F2B271FFF7D5FE012CEA
S31508000BD004D01CB140F2B371FFF7CEFE288C012178
S31508000BE030E0000001488542704700BF00480140D8
S31508000BF001488542704700BF0044014001488542CC
S31508000C00704700BF0020004001488542704700BF7A
S31508000C10001C004001488542704700BF005401404F
S31508000C2001488542704700BF0018004001488542C8
S31508000C30704700BF0050014001488542704700BF19
S31508000C40004C0140B14088432884288C04FA06F1F8
S31508000C5008432884F1BD000001488442704700BF5C
S31508000C600018004001488442704700BF004C01400C
S31508000C7001488442704700BF002000400148844272
S31508000C80704700BF001C004001488442704700BFFF
S31508000C900054014001488442704700BF005001409B
S31508000CA001488442704700BF00140040014884424E
S31508000CB0704700BF0010004038B500F0A5F833D0E3
S31508000CC0B4F1804F30D0FFF727FF2DD0FFF71EFF76
S31508000CD02AD0FFF715FF27D0FFF7E8FF24D0FFF744
S31508000CE0DFFF21D0FFF72AFF1ED0FFF7BBFF1BD07F
S31508000CF0FFF7D0FF18D0FFF7C7FF15D0FFF7ACFFF7
S31508000D0012D0FFF7BBFF0FD0FFF7B2FF0CD0FFF7EB
S31508000D101BFF09D0FFF70CFF06D0FFF703FF03D030
S31508000D2040F6D10100F078F8A58431BD38B500F059
S31508000D306BF833D0B4F1804F30D0FFF7EDFE2DD0ED
S31508000D40FFF7E4FE2AD0FFF7DBFE27D0FFF7AEFF5A
S31508000D5024D0FFF7A5FF21D0FFF7F0FE1ED0FFF73E
S31508000D6081FF1BD0FFF796FF18D0FFF78DFF15D030
S31508000D70FFF772FF12D0FFF781FF0FD0FFF778FF5A
S31508000D800CD0FFF7E1FE09D0FFF7D2FE06D0FFF739
S31508000D90C9FE03D040F6DF0100F03EF8A58531BD57
S31508000DA038B500F031F82DD0B4F1804F2AD0FFF7CE
S31508000DB0B3FE27D0FFF7AAFE24D0FFF7A1FE21D065
S31508000DC0FFF7BCFE1ED0FFF74DFF1BD0FFF762FFF3
S31508000DD018D0FFF759FF15D0FFF73EFF12D0FFF7DF
S31508000DE04DFF0FD0FFF744FF0CD0FFF7ADFE09D03B
S31508000DF0FFF79EFE06D0FFF795FE03D040F6ED01FD
S31508000E0000F00AF8A58631BD04460D46014884421D
S31508000E10704700BF002C0140014804F067BB00BFC3
S31508000E202C72000870B5FFF761FE2DD0B4F1804F23
S31508000E302AD0FFF771FE27D0FFF768FE24D0FFF708
S31508000E405FFE21D0FFF77AFE1ED0FFF70BFF1BD0FF
S31508000E50FFF720FF18D0FFF717FF15D0FFF7FCFEA6
S31508000E6012D0FFF70BFF0FD0FFF702FF0CD0FFF7EA
S31508000E706BFE09D0FFF75CFE06D0FFF753FE03D0E2
S31508000E8040F62A11FFF72FFE4DB1042D07D0082D85
S31508000E9005D00C2D03D040F62B11FFF724FE208B2E
S31508000EA04FF6F37108402083208BFFF706BE70B516
S31508000EB0FFF71CFE1BD0B4F1804F18D0FFF72CFEAD
S31508000EC015D0FFF723FE12D0FFF71AFE0FD0FFF753
S31508000ED035FE0CD0FFF7C6FE09D0FFF7BDFE06D0DB
S31508000EE0FFF732FE03D04FF41461FFF7FCFD4DB156
S31508000EF0042D07D0082D05D00C2D03D040F641113E
S31508000F00FFF7F1FD208B4FF2FF3108402083208B3D
S31508000F10FFF7D7BD70B5FFF7E9FD12D0B4F1804FE2
S31508000F200FD0FFF7F9FD0CD0FFF7F0FD09D0FFF75A
S31508000F30E7FD06D0FFF702FE03D040F65611FFF78D
S31508000F40D2FD4DB1042D07D0082D05D00C2D03D0A8
S31508000F5040F65711FFF7C7FDA08B4FF6F37108400F
S31508000F60A083A08BFFF7B2BD70B5FFF7BFFD12D007
S31508000F70B4F1804F0FD0FFF7CFFD0CD0FFF7C6FDB9
S31508000F8009D0FFF7BDFD06D0FFF7D8FD03D040F620
S31508000F906C11FFF7A8FD4DB1042D07D0082D05D01B
S31508000FA00C2D03D040F66D11FFF79DFDA08B4FF277
S31508000FB0FF310840A083A08BFFF790BD0446014887
S31508000FC084427047002C014010B5FFF7F7FF12D096
S31508000FD0B4F1804F0FD0FFF79FFD0CD0FFF796FDB9
S31508000FE009D0FFF78DFD06D0FFF7A8FD03D040F620
S31508000FF0B911FFF711FFB4F8400010BD70B5FFF73F
S3150800100075FD33D0B4F1804F30D0FFF785FD2DD074
S31508001010FFF77CFD2AD0FFF773FD27D0FFF746FEC2
S3150800102024D0FFF73DFE21D0FFF788FD1ED0FFF73D
S3150800103019FE1BD0FFF72EFE18D0FFF725FE15D098
S31508001040FFF70AFE12D0FFF719FE0FD0FFF710FEC2
S315080010500CD0FFF779FD09D0FFF76AFD06D0FFF738
S3150800106061FD03D040F6F611FFF73DFD012D1ED0B8
S31508001070022D1CD0042D1AD0082D18D0102D16D0EC
S31508001080202D14D0402D12D0802D10D04FF4007092
S3150800109085420CD0B5F5806F09D0B5F5006F06D03E
S315080010A0B5F5805F03D040F6F711FFF71CFD208ADF
S315080010B0284000D00120C0B270BD70B5FFF716FDFC
S315080010C033D0B4F1804F30D0FFF726FD2DD0FFF78F
S315080010D01DFD2AD0FFF714FD27D0FFF7E7FD24D022
S315080010E0FFF7DEFD21D0FFF729FD1ED0FFF7BAFD79
S315080010F01BD0FFF7CFFD18D0FFF7C6FD15D0FFF7B9
S31508001100ABFD12D0FFF7BAFD0FD0FFF7B1FD0CD03B
S31508001110FFF71AFD09D0FFF70BFD06D0FFF702FD12
S3150800112003D040F62121FFF7DEFC4FF4614005426B
S3150800113000D11DB940F62221FFF7D5FC00E00000DA
S31508001140E843208270BD70B5048C4FF6FE752C40BE
S315080011500484048B058C4FF60C763440224342EA0D
S31508001160031202834FF6FD722A40114341F0010132
S31508001170018470BD70B5048C4FF6EF752C4004845D
S31508001180048B058C40F6FF46344044EA033343EAB1
S31508001190022202834FF6DF722A4042EA011141F029
S315080011A01001018470BD000030B587B004F032F933
S315080011B0002080F31088012300220F2103F0A8FDE8
S315080011C028B1012300220821002003F0A1FD05F023
S315080011D0B9FCDFF8E84648B1024604F1080100F018
S315080011E0E0F9E32104F1200004F080F9002004F07E
S315080011F001FA020009D004F1300100F0D2F9F02119
S3150800120004F1200004F072F905E004F14C0100F045
S3150800121059FB00F03FFA00F047F800F0B5FC04F17E
S315080012206C0100F04FFBDFF82419002002F0DEFE07
S315080012301CA5294600F046FB00F02CFA04F09EF99E
S31508001240024604F1880100F0ACF901A900A800F0F3
S3150800125062FEB8B99DF80000DFF8281A09788842B6
S3150800126010D100F0F7FD68B9BDF80C309DF80F20D5
S3150800127004F1940103F068FD01A9002002F0BAFD0B
S31508001280294601E004F1D00100F01CFB00F002FA47
S3150800129004F01CF904F084FA00F07EFC00F0FEF974
S315080012A0F6E700BF0D0A000080B5002005F08EF9AC
S315080012B00120BDE8024005F097B980B5002005F089
S315080012C0A4F90120BDE8024005F09FB938B5049895
S315080012D0069952880A2A1FD1DFF8A8590022EA700F
S315080012E0DFF8A84690B1A87A401CA872C0B2009050
S315080012F04B7A0A7A2146002003F026FDA87A0328AD
S315080013000AD300F0DDFA0020A87004E004F1800199
S3150800131003F01AFD0020A87231BD00002DE9FC4734
S315080013200E460D9F0E9CDFF80091082F06D23B460D
S3150800133072884946002003F007FD70E0082221461E
S3150800134000A805F03BFC728809F28C0609F2BC0875
S31508001350DFF830590FF2CC0A012A0AD0022A26D021
S31508001360032A2CD0042A3BD00A2A3CD0642A43D02C
S315080013704CE00A2F07D209F1300100F0A3FA00F079
S3150800138055F8514649E009F1580100F09BFA00F07A
S315080013904DF8A878297908433ED10020A87109F1AB
S315080013A0740103F0D1FC204600F07EFB37E009F11A
S315080013B09C0100F087FA00F039F841462DE009F162
S315080013C0D40100F07FFA00F031F809F1EC0100F0E1
S315080013D079FA002028710120A870502068721EE052
S315080013E009F20811E5E709F2201100F06BFA00F09E
S315080013F01DF809F2341110E00822DFF8501700A88A
S3150800140005F048FC58B109F24C11B6E709F2681123
S3150800141000F0F7FA00F00AF8314600F053FABDE892
S31508001420F38700BF0D0A0000D85A000800A900205B
S3150800143002F0DCBD70B50446DFF8485800F00DFD33
S315080014406870214E902C06D0912C0CD0942C14D078
S31508001450962C25D02DE0314600F034FA0020E873AA
S3150800146000F0D2FA2AE006F12C0100F02BFAFFF779
S315080014701BFF0020A870287220E006F1580100F032
S3150800148008FC06F1840100F004FC06F1B40100F042
S3150800149000FC06F1F40100F0FCFBFFF705FF0DE088
S315080014A006F23C1100F00EFAFFF7FEFE00F00DFD05
S315080014B004E0224606F2641100F0A3FA0020BDE813
S315080014C0704003F057BC00BF5C5C00080246014947
S315080014D004E000BFE06F000802460249002003F05E
S315080014E033BC00BF3C72000830B589B00546104CC5
S315080014F000A806CC06C0083C182105F0EBFE00A89B
S3150800150002A90CC80CC12888ADF810004FF0FF30AE
S315080015108DF81200A8788DF8130002A9DFF8640781
S31508001520007800F0B2FC08B100F068FA09B030BDE6
S31508001530147100087047000038B5D8B1312819D0A1
S31508001540DFF840476078022801D0032812D10A4DF7
S31508001550294600F0B7F900F036F90021012000F01D
S31508001560B7FC024605F1140100F04BFA00F092F8B8
S315080015703220E07331BD00BFFC6D0008DFF80417A8
S315080015808873704710B5CD4C024604F2001100F07E
S3150800159008F840F2732104F12000BDE8104003F07A
S315080015A0A5BF002003F0ECBB2DE9F8430646374CEF
S315080015B009B9214603E0012903D104F1140100F019
S315080015C081F900F067F8DFF8BC56298A687830B9DF
S315080015D0C9B10222002100F00EFD002012E0306899
S315080015E0814210D0F021B1FBF0F2D2B2022180B2D2
S315080015F000F001FD020004D004F12C0100F001FA0C
S3150800160040E03068288204F069FE8046204F0120B9
S31508001610387000230222316889B2002000F0F0FBFE
S31508001620020002D004F13C01E8E70020A873EFF3BA
S315080016301089012080F3108803F046FF072003F085
S31508001640C9FF03F03FFFFFF72FFE89F31088A87B39
S3150800165020B905F095FAA87B0028FCD00020387040
S3150800166000AA0DF1010100F0DBFB31680D1A08EB49
S31508001670052004F03BFE3068401B306004F1500141
S3150800168000F020F900F006F8BDE8F183F86C0008D0
S31508001690040B0020002003F06DBB000070B582B07B
S315080016A000240094DFF8DC556878022814D1A8785D
S315080016B040B12879012805D0E878012802D0687A4F
S315080016C0012803D104240094002102E05024009448
S315080016D0012100A8FFF768FF687878B9687B0128B8
S315080016E006D1F0240094012100A8FFF75DFF05E06C
S315080016F0288A18B100F067F8002028820098261A70
S31508001700F6B204F0E6FD698A411A89B2FB2952D37A
S3150800171068826878022801D1FFF7CFFD00F058F8F3
S3150800172006B90126244CA87901280FD1E87900F0DA
S3150800173045F8E871C0B248B9A871214603F004FB20
S3150800174004F1300100F0BEF8FFF7A4FF287901285C
S315080017500AD1687900F032F86871C0B220B92871E8
S3150800176004F1480103F0F0FAA87801280AD1687A4A
S3150800177000F024F86872C0B278B95020687200F098
S31508001780A4F80AE06878022807D1A879297A0843D4
S315080017902979084301D100F0FBF8E87B58B1401ECF
S315080017A0E873C0B238B9002100F092FB024604F192
S315080017B0900100F026F973BDC4640008B04200DA4F
S315080017C00646801B704702220021002000F013BC49
S315080017D030B589B0394CDFF8AC54E87A00285AD0CD
S315080017E00020E872687830B1022847D042D304282E
S315080017F048D04AD34FE004F2201103F0A5FAFFF7C8
S3150800180049FF02F0DBFA06A806CC06C0083C40F2FF
S31508001810FF10ADF808004FF0FF308DF80A001A20C7
S315080018208DF80B0006A800A90CC80CC100208DF87D
S315080018300C00BDF808309DF80B2004F1940103F064
S3150800184083FA00A9002002F0D5FA1BA100F03AF8A5
S31508001850FFF720FF00A9287800F017FB28B10246F9
S3150800186004F2381100F0CDF815E004F2681103F01F
S315080018706BFA10E004F284110020F8E704F2AC11C8
S315080018800020F4E704F2D411F6E704F2F81100F0A8
S3150800189019F800F01AFB287B60B10020287300F0C5
S315080018A014FB024604F2142100F0ABF8012028725A
S315080018B00020A87209B030BD0D0A0000A84D000826
S315080018C004F14401002003F03FBA2DE9F04186B047
S315080018D0282603F05FFE044600F04BFBDFF8AC80D9
S315080018E0302809DAA0F10806F6B23346282208F1AC
S315080018F09401002003F028FA06F0FE06924F08220B
S315080019009249384605F05AF90020221205E007EBFD
S3150800191040010A724C72401CC0B206EBD671B0EB9D
S31508001920610FF4DB00F0BAF80A2000F011F901970C
S3150800193006F10800C0B200900A2300F0F9F805463F
S31508001940D04FA5B1B87A431CBB72DBB22A4608F160
S31508001950CC01002003F0F8F9B87A032809D308F176
S315080019604401FFF7AFFF0020B870B87201E001200C
S31508001970F87006F10800009023462A4608F204117A
S31508001980002003F0E1F906B0BDE8F081B460000874
S3150800199010B58AB003A907A800F0CFFA6A4C082246
S315080019A06A49204605F00AF94CF20F00ADF8100016
S315080019B00420ADF8120001208DF814008DF81500EA
S315080019C04020ADF816000DF11A0002900194082087
S315080019D00090042304AABDF80C10002000F0CCFAED
S315080019E00246054900F00DF8A64801218171282113
S315080019F0C1710AB010BD00BF84700008024604F128
S31508001A000801002003F0A0B980B541F21110ADF825
S31508001A10000001208DF8020000A9002000F053FB09
S31508001A2002460249FFF7EDFF01BD00BF746E0008CC
S31508001A3030B589B0184C06A806CC06C0083C00F09C
S31508001A407CF8052206A905F1080005F0C4F800F09F
S31508001A5025F86420ADF80E0001208DF810008DF8E9
S31508001A6011000020ADF8120041F21110ADF8140073
S31508001A7000208DF816000DF11600029001950D2034
S31508001A800090642306220A2103A800F090FAFFF7C3
S31508001A90B5FF09B030BD00BF506F00084CF20F000B
S31508001AA0ADF80C007047000030B589B0044608222E
S31508001AB0214606A805F082F8607A217A01EB00250E
S31508001AC0ADB206A9002000F0ABFA184C20B10246C8
S31508001AD02146FFF796FF24E0294600F0B3FA0022D4
S31508001AE004F14801FFF78DFF06A9FFF7A0FC0EA138
S31508001AF0FFF7E8FE00F021F8FFF7D0FF022000F01C
S31508001B0027F8019508200090022300F011F80246F4
S31508001B1004F17C01FFF775FF5A4801210171502134
S31508001B20417109B030BD00BF5D0D0A00FC660008B2
S31508001B3003AA0021012000F01FBA034D0822034919
S31508001B40284605F03BB8000088090020EC0A00206A
S31508001B50ADF80E0001208DF810008DF81100402018
S31508001B60ADF812000DF1160002907047454A01289B
S31508001B7003D1012907D110737047002803D1012921
S31508001B8001D10120D07270473E4800218170502152
S31508001B90417200218172704710B582B000A90020F9
S31508001BA003F0B8F8002867D19DF800000A2863D02A
S31508001BB032A1FFF787FE324C32489DF800100A29F9
S31508001BC052D00D2950D030292FD0312930D03F2975
S31508001BD013D0612919D065292DD069290AD06B2916
S31508001BE030D06C2919D06D2913D073292DD07429BA
S31508001BF006D035E002F014F936E000F04DF833E08F
S31508001C0000F042F800F040F82EE0012002F04AF910
S31508001C102AE0012002F0AAF926E04078022802D13B
S31508001C20FFF706FF20E021461CE00121C1721BE0F8
S31508001C300121017318E004F1240100F02AF803F0E9
S31508001C4047FC11E002F0E6F90EE0427B511E89419D
S31508001C50C90F4173427B04F13801FFF7D2FE03E056
S31508001C6004F15001FFF72EFE9DF800000A2803D064
S31508001C7004F16001FFF726FE13BD00BF0D0A000040
S31508001C8048690008E80B0020002104F1740003F0FD
S31508001C90F9B9002003F074B810B5244C2146FFF7B3
S31508001CA011FEFFF7F7FC04F10C01FFF70BFEFFF737
S31508001CB0F1FC04F12401FFF705FEFFF7EBFCFFF743
S31508001CC0FFFDFFF7E7FC04F15401FFF7FBFDFFF703
S31508001CD0E1FC04F17001FFF7F5FDFFF7DBFC04F109
S31508001CE08C01FFF7EFFDFFF7D5FC04F1B801FFF70C
S31508001CF0E9FDFFF7CFFC04F1E801FFF7E3FDFFF785
S31508001D00C9FC04F1FC01FFF7DDFDFFF7C3FC04F293
S31508001D102411FFF7D7FDFFF7BDFC04F24411FFF7C6
S31508001D20D1FD0020BDE8104003F024B85C5F000830
S31508001D3070B500F06EF9002000F010FC00F084F891
S31508001D4000F048FC03F064FA00F081F8207001E125
S31508001D5038B505460C46522000F000FC00F003F9A1
S31508001D6044E038B505460C46532000F0F7FB00F072
S31508001D70FAF800F011F95FE12DE9F84F82468B4633
S31508001D80914698460A9D0B9E0C9F0D9C022000F0DA
S31508001D90E5FB504603F042FA584603F04BFA48462C
S31508001DA003F048FA404603F039FA00F0DCF800F090
S31508001DB04BF83946284603F075FA2146304603F0B3
S31508001DC071FA00F007FCBDE8F14F03F021BA80B5BF
S31508001DD0062000F0C3FB00F0FDFBBDE8014000F063
S31508001DE0B5B938B50446492000F0B8FB00F0F2FB57
S31508001DF003F00EFA054603F024FA2080284632BD81
S31508001E00F8B500F08BF90E2000F0A8FB00F083F976
S31508001E1000F0C2F800F0A7F800F016F800F08FB945
S31508001E2070B500F0F6F84E2000F098FB00F00CF8BC
S31508001E3000F0D0FB03F005FA00F009F8207003F073
S31508001E40E7F92870304670BD304603F0E7B9064614
S31508001E5003F0DEB980B5172001E080B5182000F040
S31508001E607DFB00F0B7FBBDE8014003F0D1B970B5C2
S31508001E7000F0CFF81A2000F071FBFFF7E5FF2046C7
S31508001E8003F0E9F900F06FF853E138B505460C465A
S31508001E901F2000F063FB00F066F800F0FEF82089CA
S31508001EA003F0C8F9A07A03F0B9F9E07A03F0B6F9B5
S31508001EB0207B03F0B3F9E08903F0BCF9207C03F03A
S31508001EC0ADF9606903F0C7F9B6E080B52020C6E72A
S31508001ED038B505460C46212000F040FB00F043F8D3
S31508001EE0204603F0B8F9A7E010B50446262000F00E
S31508001EF035FB00F06FFB21460820BDE8104003F0D3
S31508001F00DEB980B5272000F029FB00F063FBBDE8A9
S31508001F10014003F096B970B505460C46282000F036
S31508001F201DFB00F057FB03F073F9FFF790FF2870CD
S31508001F30204603F0D3F9304670BD70B504460D4609
S31508001F40292000F00BFB00F045FB03F061F906467B
S31508001F5000F005F803F075F92880304670BD214673
S31508001F60082003F0ACB9284603F058B9054603F033
S31508001F704FB980B5332072E72DE9F04700F00FF826
S31508001F80342000F0EBFA484603F048F900F004F86C
S31508001F90404603F0BFF919E0204603F04BB98146E5
S31508001FA00C4690469A46089E099D0A9F70472DE959
S31508001FB0F047FFF7F4FF382000F0D0FA484603F060
S31508001FC0A9F900F02AF8404603F028F9504603F02C
S31508001FD025F9304603F022F92946304603F04CF934
S31508001FE000F0F8FA03F014F9044603F011F9387012
S31508001FF02046BDE8F08770B500F00BF8422000F0E7
S31508002000ADFA304603F016F900F007F8FFF7ABFF14
S315080020108FE006460C4615467047204603F0FEB884
S3150800202038B505460C465C2000F098FAFFF79BFF8A
S315080020302146082003F020F900F0CCFABDE831402B
S3150800204003F0E6B838B505460C465D2000F086FA7A
S31508002050FFF789FFFFF7A0FFBDE8314000F0BABAE5
S3150800206038B505460C465E2000F078FAFFF77BFF88
S3150800207000F0B0FA21460820BDE8344003F01FB945
S3150800208010B504465F2000F069FAFFF7C6FF00F0B6
S31508002090A1FABDE8104003F0D4B82146082003F0A1
S315080020A0EBB838B505460C46632000F057FAFFF73B
S315080020B05AFF00F08FFA03F0ABF80546204603F006
S315080020C05EF9284632BD38B505460C46642000F050
S315080020D045FAFFF748FF204603F049F9ACE710B583
S315080020E00446682000F03AFA204603F052F91AE04E
S315080020F038B505460C466A20FFE700F02FFAFFF7C9
S3150800210032FF00F067FA03F083F80546204603F02D
S3150800211053F9284632BD384603F080B807460C46C0
S3150800212015461E46704700F055FABDE8104003F004
S315080021306FB800F04FFABDE8704003F069B800F0D8
S3150800214049FABDE8F14003F063B800002DE9F0470D
S3150800215088B0DFF8E043DFF8E0538022296820469C
S3150800216004F02CFD04F20300DFF8D0130860286899
S315080021708078072851D00F2852D0192855D01B2807
S3150800218061D01C286CD0232873D0242800F05981EC
S31508002190312800F08280322800F09D803F2800F028
S315080021A0A380432800F0BC80442800F0BE80452860
S315080021B000F0C68048283DD0592800F0E6806228FD
S315080021C000F0B8806E2800F02E81782800F077811C
S315080021D07C2800F00B817D2800F0F180802800F033
S315080021E0FB808E2800F07081922800F07D8193286C
S315080021F000F08D81972800F0FE80982800F00E8167
S315080022009B2800F015819E2800F02F81A02800F059
S315080022103881A72800F0468186E104F0CAFE86E1E7
S3150800222002F0F6FF04F0C6FE81E102F0F1FFFFF7C7
S3150800223001F97CE102F0ECFF00F08DF941B220468D
S3150800224005F02CF873E100A803F0CDF802F0E0FFE2
S3150800225000F081F942B2214600A805F01BF866E1B4
S3150800226002F0D6FF00F077F90146204605F014F88B
S315080022705DE102F0CDFFFFF779FE064602F0E1FFC9
S31508002280044600F064F902F0C3FF009001AB224651
S315080022903146284604F08FFE49E102F0B9FF8DF871
S315080022A0000002F0B5FF8DF8010002F0CAFFADF894
S315080022B0020002F0ADFF8DF804000DF1050100F0F3
S315080022C043F902F0A5FF00F046F90246214600A8A8
S315080022D004F074FE2BE102F09BFF00F03CF9014686
S315080022E0204604F06CFE22E102F092FF804602F0DE
S315080022F0A8FF044603A803F023F802F089FFFFF7B6
S3150800230035FE00F01DF9064600F09EF9029001968A
S3150800231000972B4603AA21464046FEF7D7FF06E15B
S3150800232002F076FFFFF708F901E102F08AFF04F0F0
S3150800233047FEFCE000F007F900A804F043FEF6E0CB
S3150800234002F066FF804605A802F0FAFF02F060FF79
S3150800235000F001F9054602F074FF00F0F1F8FFF706
S3150800236076FD814602F054FF824600F06DF904902E
S31508002370CDF80CA0CDF80890019600976BB22246CE
S3150800238005A94046FEF7CAFFD1E002F05AFF064605
S3150800239002A900F0D9F802F03BFF00F0DCF8FFF7DD
S315080023A0E5FD07467800C0B200F04EF901900097A7
S315080023B06BB2224602A9304604F003FEB7E002F0EB
S315080023C040FF044600F0BFF802F022FF024600A9CB
S315080023D0204604F0F9FDAAE002F01AFF044602F0CE
S315080023E030FF0146204604F0F0FDA0E002F029FF88
S315080023F004F0E9FD9BE002F00BFF00F0A1F800F005
S31508002400AAF8FFF7B3FD064600F01EF9009033461A
S315080024106AB22146384604F0DBFD88E002F0F8FE91
S3150800242004F0D8FD83E002F0F3FEFFF74FF87EE0F4
S3150800243000F089F802F0ECFE014600A804F0BDFDA4
S3150800244075E002F0FEFE064600F081F802F0E0FEB6
S3150800245000F081F8054602F0F4FE00902B4622466D
S3150800246001A9304604F0A8FD61E002F0D1FE044659
S3150800247000A9162002F023FF00A9204604F0ABFDB0
S3150800248055E002F0C5FE044604A9102002F017FF25
S3150800249000A9102002F013FF00AA04A9204604F0A0
S315080024A09BFD44E002F0B4FEFFF760FD044600F031
S315080024B0CBF802462146284604F08FFD37E002F0A5
S315080024C0A7FE04F08BFD32E002F0A2FEFFF7BFFC88
S315080024D000F041F8054600F0B7F803462A4661B20F
S315080024E0304604F076FD22E000F031F802F090FE66
S315080024F000F031F8FFF73AFD064600F0A5F800901F
S3150800250033466AB2214601A804F060FD0FE002F0E6
S315080025107FFEFFF72BFD044600F096F8024621469B
S31508002520284604F054FD02E03120FFF72BF808B0E6
S31508002530BDE8F087080A0020F40A0020FC0A0020FB
S31508002540074602F065BE00A9082002F0B8BE01A938
S31508002550082002F0B4BE044602F05ABE03490968D0
S3150800256001F20302024B1A6088707047F40A0020D1
S31508002570000B002080B504F007FB192801D0272896
S3150800258001D1012002BD1049096801F203020F4B6F
S315080025901A6098B94A788B78582B00D1C8781106F2
S315080025A000D43220910700D53320D10700D5342036
S315080025B012F0040100D00121054A1170002802D04A
S315080025C0FEF7E0FF022002BDF40A0020FC0A002004
S315080025D0090B002010B517480168174A1268521AE5
S315080025E092B2164CA3780B70591CA170006821781A
S315080025F04170812A04DB4020BDE81040FEF7C2BFC7
S315080026000F4800680270607818B1F9210D4802F089
S315080026106DFF0120607004F0C5FA30B9FFF7AAFF14
S31508002620012804D104F0C4FCF8E7FEF7ABFF00204C
S31508002630607010BDF40A0020000B0020040B002077
S31508002640F80A0020CC7200080146024A10680918E8
S3150800265011607047FC0A002010B504F093FA441C78
S31508002660E4B20A48407848B14FF48D71084802F040
S315080026703DFF03E0FFF76AFD641EE4B2012C03DBAD
S31508002680FFF778FF0028F5D010BD00BF040B002027
S31508002690CC7200084109014A04E000BF80E100E06D
S315080026A04109044A012300F01F0003FA00F042F82A
S315080026B02100704780E200E010B5DFF84C4501467E
S315080026C0204602F0D0F90121204602F004FA00283B
S315080026D0F9D0204602F0D9F9C0B210BD10B58CB0B9
S315080026E0DFF86C450122102100F038F910208DF82A
S315080026F0030000F039F9182000F033F918208DF896
S315080027000300802000F030F900F01EF9402000F0A8
S315080027102BF90020ADF81C004FF48270ADF81E00AE
S3150800272000200890ADF824004FF40070ADF826009C
S315080027302020ADF828000020ADF82A000720ADF8C3
S315080027402C00DFF8C44407A9204602F0EEF8012160
S31508002750204602F069F942F22830ADF81000002050
S31508002760ADF812004FF6FF70ADF814000020ADF872
S3150800277016008DF8180004A94FF08040FDF7B6FD45
S3150800278001214FF08040FEF737F800F0F6F81C20DC
S3150800279000F043F88DF8060001208DF8070001A81F
S315080027A003F02CFEDFF8D4050021817000F0CCF888
S315080027B0102000F038F8DFF8E44500F0DAF80421D4
S315080027C0022000F001FE1020029000208DF80C0077
S315080027D00C208DF80D0001208DF80E0002A803F0DC
S315080027E0C3F800F06FF90A2000F017F8ADF80600F4
S315080027F001A803F003FE0122202100F0AFF8102003
S3150800280000F0AFF800F0A0F8012000F00CF800A9DD
S315080028104C4800F027FB0CB010BD8DF804000020D2
S315080028208DF805007047ADF8000003208DF802000A
S31508002830704710B51021DFF8640500F0AEFB401EA6
S315080028408041C00FDFF834158870EFF3108400F06C
S315080028509BFA04E010B5EFF3108400F0D5F800F009
S3150800286031F900F02DF984F3108810BD70B582B0E7
S315080028700646344C012200F070F810208DF803004B
S31508002880012000F071F8002200F067F8DFF80C5517
S31508002890002E14BF002201222021284600F032FC17
S315080028A01A2002F07DFE00F04FF8012000F05CF8D7
S315080028B0DFF8C8040021817002F008FEEFF31084E7
S315080028C000F099F84EF6602100F0B7F900F0A9F982
S315080028D000F053F800F0C3F900F0A1F900F050FA3F
S315080028E000F0F0F800F0ECF886F3108884F310880E
S315080028F000F0A7F9012809D002F0E8FD00F0AAF9CE
S315080029000128F5D100F024F81B2076BD00F020F848
S31508002910EFF3108400F038FA00F0D4F800F0D0F89D
S3150800292084F3108800F0CCF9002807D100F0C8F924
S31508002930012803D100F0B1F9012801D01C2076BD89
S31508002940002076BD000C014048208DF80300704732
S3150800295001222021284600F0D5BB0121204600F09F
S31508002960D1BB8DF803002020ADF8000003208DF8B8
S31508002970020000A9204600F075BA002201214FF096
S315080029808040FDF782BF002070E770B5DFF8EC43A2
S3150800299000F057F9012801D0A07828B10120FEF7E8
S315080029A0EDFD0120607070BDEFF3108500F023F88F
S315080029B0502100F042F900F034F90122FFF7DEFF5A
S315080029C000F04DF900F02BF986F31088EFF3108626
S315080029D000F01AF800F076F800F072F886F310881E
S315080029E00020A07002462021DFF8B00300F08AFB21
S315080029F085F3108870BD012080F31088EFF31086E8
S31508002A0080F3108870470000012080F31088024880
S31508002A104FF480610160704700E100E02DE9F04164
S31508002A20DFF858431020E0707E2704E0082002F003
S31508002A30B7FD7F1EFFB2607808B9012FF6DAEFF30B
S31508002A40108800F0E8F8002200F0FEF80020607018
S31508002A50A54E3078FE2806D17078851C862805DBB9
S31508002A601720E07028E0FD28F6D001250020E07048
S31508002A70002703E0B85DFFF71FFE7F1CEDB2AF42EB
S31508002A80F8DBA720FFF718FE00F0C3F84FF4C8617B
S31508002A9000F0D3F800F0C5F8FFF76FFF00F0DFF895
S31508002AA000F0BDF800F06CF900F00CF800F008F83A
S31508002AB086F310880020A07088F31088BDE8F0819E
S31508002AC00A20EDE5102002F0E7BF0000F8B5EFF3A5
S31508002AD0108400F0A0F8A94DE87817286CD01020CB
S31508002AE0E87000F0B7F8012802D11520E87063E015
S31508002AF000F0A7F8012802D01920E8707DE000F060
S31508002B0086F80746FF2FFAD057B900F080F82870E4
S31508002B1000F07DF8A72801D01620E7E71120E5E7A1
S31508002B20052F17DA00F073F82870012F01D112204B
S31508002B300AE0022F01D1132006E0032F01D1142049
S31508002B4002E0042F01D11D20E87000F060F8A728E4
S31508002B5032D0E1E7644EFE2F01D0FD2F19D100F0E7
S31508002B6055F87070862801D31820BFE7022704E0BD
S31508002B7000F04DF8B8557F1CFFB27078801C87426C
S31508002B80F6DB00F044F8A72801D01620AEE70020AF
S31508002B90ACE707F0C000802805D100F037F8A72871
S31508002BA0BAD10020A2E7C02801D13770E9E740F280
S31508002BB0E111144802F09AFC00F02BF8082100F005
S31508002BC03CF800F02EF80122FFF7D8FE00F047F88F
S31508002BD000F025F800F0D4F8FFF774FFFFF770FF50
S31508002BE086F310880020A8708021074801F073FF3B
S31508002BF00128F9D0012200F027F884F31088E87834
S31508002C00F2BD00BFCC710008003001403770FF20CC
S31508002C1052E5EFF31086012080F3108870471C20D8
S31508002C203EE500214FF08040FEF746B8EFF31085E9
S31508002C30012080F310884FF6FF714FF08040FEF7B1
S31508002C4075B8102002F0E6BE1021014800F05ABA05
S31508002C500008014001214FF08040FEF7CFB901215D
S31508002C604FF08040FEF729BA1F48FE210170D5E6CD
S31508002C7080B52021494800F090F900280CD03F483B
S31508002C808178002903D000218170012002BDFFF759
S31508002C90D8FF012800D0002002BD10B5124C0A202A
S31508002CA02070FFF7BBFEFFF711FF1928FBD000289D
S31508002CB004D12078822801D1012010BD002010BD42
S31508002CC010B5094C0B202070FFF7A8FEFFF7FEFE93
S31508002CD01928FBD0002804D12078C12801D1012069
S31508002CE010BD002010BD00000008002038B5234C98
S31508002CF04FF08040808D50280FD1EFF3108500F0FB
S31508002D0043F8FFF7DFFEFFF7DBFE85F3108800F0D8
S31508002D1040F80020A070FEF731FCFFF787FFFFF7A9
S31508002D2080FFFFF72AFEFFF79AFFFFF778FF85F384
S31508002D3010880120607031BD38B5EFF3108400F0BB
S31508002D4023F8FFF7BFFEFFF7BBFE84F310880B4C92
S31508002D500020A07000F01DF8FFF768FFFFF761FF7D
S31508002D60FFF70BFEFFF77BFFFFF759FF85F3108888
S31508002D7001206070BDE83240FEF700BC1C0C002044
S31508002D8086F31088EFF31086012080F310880A2056
S31508002D9080E401222021014800F0B4B90010014066
S31508002DA080B5DFF8141488421ED0DFF81014884264
S31508002DB021D0DFF80C14884224D0DFF808148842A2
S31508002DC027D0DFF8041488422AD0DFF80014884296
S31508002DD02DD0DFF8FC13884230D06E21DFF8E405E9
S31508002DE0BDE8044002F082BB0121042001F0DAFCB0
S31508002DF0002104202AE00121082001F0D3FC00214B
S31508002E00082023E00121102001F0CCFC002110202D
S31508002E101CE00121202001F0C5FC0021202015E03E
S31508002E200121402001F0BEFC002140200EE00121D6
S31508002E30802001F0B7FC0021802007E001214FF433
S31508002E40807001F0AFFC00214FF4807006E080B579
S31508002E500121012001F0A6FC00210120BDE8044063
S31508002E6001F0A0BC2DE9F04104460D46DFF8547583
S31508002E7000F0DEF814D000F03BF911D000F035F977
S31508002E800ED000F02FF90BD000F029F908D000F089
S31508002E9023F905D000F01DF902D0B12100F09AF906
S31508002EA0E87880B104280ED028280CD048280AD003
S31508002EB0142808D0102806D01C2804D0182802D0B8
S31508002EC0B22100F087F9288810B9B32100F082F9F9
S31508002ED0E87800F00F06C0060BD5A878012806D0BA
S31508002EE0022804D0032802D0BA2100F073F9A87882
S31508002EF00643288801210F22C3B213B3D4F800C0B1
S31508002F00002301FA03F707EA0008B84514D14FEA87
S31508002F10830E02FA0EF82CEA080C06FA0EFE4EEAA2
S31508002F200C0C95F803E0BEF1280F01D1676103E0A8
S31508002F30BEF1480F00D127615B1C082BE1D3C4F80A
S31508002F4000C04FF48073984225D3D4F804C00023F8
S31508002F5003F1080701FA07F707EA0008B84515D18B
S31508002F604FEA830E02FA0EF82CEA080C06FA0EFE51
S31508002F704EEA0C0C95F803E0BEF1280F00D1676104
S31508002F8095F803E0BEF1480F00D127615B1C082BBA
S31508002F90DED3C4F804C0BDE8F08170B500F0ABF824
S31508002FA015D000F0A5F812D000F09FF80FD000F069
S31508002FB099F80CD000F093F809D000F08DF806D0F7
S31508002FC000F087F803D040F21D1100F006F9012D34
S31508002FD02BD0022D29D0042D27D0082D25D0102D31
S31508002FE023D0202D21D0402D1FD0802D1DD04FF469
S31508002FF08070854219D04FF40070854215D0B5F51A
S31508003000806F12D0B5F5006F0FD0B5F5805F0CD084
S31508003010B5F5005F09D0B5F5804F06D0B5F5004F78
S3150800302003D04FF48F7100F0D8F8A0684CE004463E
S3150800303061488442704770B500F05DF815D000F01D
S3150800304057F812D000F051F80FD000F04BF80CD01A
S3150800305000F045F809D000F03FF806D000F039F83E
S3150800306003D040F2431100F0B8F8012D2BD0022D01
S3150800307029D0042D27D0082D25D0102D23D0202D7A
S3150800308021D0402D1FD0802D1DD04FF48070854251
S3150800309019D04FF40070854215D0B5F5806F12D05F
S315080030A0B5F5006F0FD0B5F5805F0CD0B5F5005FAC
S315080030B009D0B5F5804F06D0B5F5004F03D04FF4CB
S315080030C0A27100F08AF8E068284000D00120C0B25A
S315080030D070BD3F48844270473C48844270473A482E
S315080030E0844270473748844270473548844270475F
S315080030F032488442704704460D46DFF8C8622E48B7
S3150800310084427047F8B505460E461446DFF8B47291
S315080031102948854215D02948854212D02848854233
S315080031200FD0284885420CD02748854209D0274821
S31508003130854206D02648854203D04FF4C67100F072
S3150800314049F8012E2BD0022E29D0042E27D0082E7E
S3150800315025D0102E23D0202E21D0402E1FD0802EF1
S315080031601DD04FF48070864219D04FF40070864205
S3150800317015D0B6F5806F12D0B6F5006F0FD0B6F53C
S31508003180805F0CD0B6F5005F09D0B6F5804F06D043
S31508003190B6F5004F03D040F28D1100F01BF8002C55
S315080031A007D0012C03D04FF4C77100F013F82E6135
S315080031B0F1BD6E61F1BD000000080140000C014040
S315080031C0001001400014014000180140001C014095
S315080031D000200140384602F089B9304602F086B927
S315080031E070B500F0EBF8012C78D0022C76D0042CC0
S315080031F074D0082C72D0514884426FD0504884420B
S315080032006CD05048844269D04F48844266D04F48B3
S31508003210844263D04E48844260D04E4884425DD092
S315080032204D4884425AD04D48844257D0B4F5805F01
S3150800323054D0B4F5EA1F51D0B4F5EB1F4ED0B4F50F
S31508003240004F4BD04648844248D04648844245D031
S315080032504548844242D0454884423FD04448844247
S315080032603CD0B4F1201F39D04248844236D0424877
S31508003270844233D04148844230D0414884422DD0DC
S31508003280404884422AD04048844227D0B4F5011FDA
S3150800329024D03E48844221D03D4884421ED03D4831
S315080032A084421BD03C48844218D03C48844215D0FE
S315080032B03B48844212D03B4884420FD03A48844265
S315080032C00CD03A48844209D03948844206D0394855
S315080032D0844203D040F22221FFF77FFF2DB1012D52
S315080032E003D040F22321FFF778FF3348002C4CBF68
S315080032F08269026804F470210B0CA1B2660D3601CE
S31508003300B14004F44016B6F5401F06D122F07062AB
S31508003310036823F07063036008E0E60243BF0326F0
S3150800332006FA03F39A438A4342F0706205B10A43E8
S31508003330002C4CBF8261026070BD00BF10001400F3
S315080033403000140040001600C000160000011800E6
S31508003350000218000003180000081A00000C1A00E2
S3150800336001002000020020000400200008002000C0
S31508003370100020004000200000013000000230004C
S31508003380000430000010200000202000010000800A
S315080033900200008004000080080000801000008001
S315080033A0200000804000008080000080000100802E
S315080033B000020080000400800400014004460D4617
S315080033C0004E70476C71000870B5FFF7F7FF7CB1C7
S315080033D0012C0DD0022C0BD0032C09D0042C07D0BD
S315080033E0052C05D0062C03D040F25D21FFF7F5FE2B
S315080033F00DB3012D1FD0022D1DD0032D1BD0042D7A
S3150800340019D0052D17D0062D15D0072D13D0082D48
S3150800341011D0092D0FD00A2D0DD00B2D0BD00C2D48
S3150800342009D00D2D07D00E2D05D00F2D03D040F253
S315080034305E21FFF7D2FE05F003008000A910084AB6
S3150800344052F821300F258540AB4342F8213052F817
S31508003450213004FA00F0184342F8210070BD00BF7D
S315080034600800014080B5DFF87414884216D0DFF8EA
S31508003470681488421ED0DFF85C14884223D0DFF82F
S31508003480B813884228D0DFF8A41388422DD08321A8
S31508003490DFF83C04BDE8044002F028B801214FF4E7
S315080034A0804001F07FF900214FF48040BDE80440D8
S315080034B001F078B901214FF4003001F095F90021A7
S315080034C04FF4003019E001214FF4802001F08CF907
S315080034D000214FF4802010E001214FF4002001F074
S315080034E083F900214FF4002007E001214FF48010F2
S315080034F001F07AF900214FF48010BDE8044001F08C
S3150800350073B900002DE9F04385B000F0D7F90CD067
S3150800351044450AD0BC4208D000F08AF905D000F02C
S3150800352080F902D0B52100F089F9286810B1494917
S31508003530884202D3B62100F081F9A88828B1B0F5EF
S31508003540805F02D0B72100F079F9E88858B1B0F564
S31508003550805F08D0B0F5005F05D0B0F5405F02D0B7
S31508003560B82100F06BF9288940B1B0F5806F05D015
S31508003570B0F5C06F02D0B92100F060F968894FF63E
S31508003580F371084200D110B9BA2100F057F9A88999
S31508003590C8B14FF4807188420CD04FF4007188424C
S315080035A008D04FF44071884204D0BB2100F046F998
S315080035B0A88940B14C4506D0444504D0BC4202D047
S315080035C0BF2100F03BF9208A4CF6FF710840E988D4
S315080035D008432082A0894EF6F3110840A9880843BB
S315080035E02989084369890843A081A08A4FF6FF41C3
S315080035F00840A9890843A08200A801F055F84C455F
S315080036000CBF03980298296819225043A28912040C
S315080036104CBF49008900B0FBF1F16422B1FBF2F01E
S315080036200001030902FB1311A3891B0406D5C9006F
S315080036303231B1FBF2F101F0070105E0090132313F
S31508003640B1FBF2F101F00F010843208105B0BDE896
S31508003650F08300BF21AA440070B500F0B4F80FD07B
S3150800366000F0D7F80CD000F0D0F809D000F0E0F858
S3150800367006D000F0D6F803D040F25F1100F0DEF86D
S315080036804DB1012D03D04FF4B07100F0D7F8A089E1
S3150800369040F4005003E0A0894DF6FF710840A08170
S315080036A070BD2DE9F84F00F065F8DFF828B2DFF8AD
S315080036B028A2DFF8288245450FD055450DD05D452F
S315080036C00BD0DFF87401854207D0DFF86001854228
S315080036D003D04FF4C37100F053F840F66A19282E48
S315080036E01BD040F22770864217D040F226608642E9
S315080036F013D040F2255086420FD040F2244086422D
S315080037000BD040F64600864207D04E4505D0602EBF
S3150800371003D040F2871100F033F82CB1012C03D006
S315080037204FF4C47100F02CF84E4509D1454507D031
S31508003730554505D05D4503D04FF4C67100F020F815
S315080037403006400F012106F01F029140012802D1E0
S3150800375005F10C0005E002280CBF05F1100005F183
S315080037601400002C026814BF114322EA010101600B
S31508003770BDE8F18F05460E461446DFF854717047CA
S31508003780384601F0B3BE70B500F01DF80FD000F052
S3150800379040F80CD000F039F809D000F049F806D006
S315080037A000F03FF803D040F24F2100F047F84FF4FD
S315080037B00070854203D34FF4147100F03FF8E80512
S315080037C0C00DA08070BD04460D46DFF80461DFF821
S315080037D00C018442704710B50446DFF800018442A4
S315080037E00FD000F016F80CD000F00FF809D000F052
S315080037F01FF806D000F015F803D04FF4187100F042
S315080038000CF8A088C005C00D10BDDFF8C8008442BA
S315080038107047DFF8C40084427047DFF8B40001F04F
S3150800382065BE024884427047000000000050004010
S315080038300148844270470000004C0040304601F0C1
S3150800384055BE2DE9F84300F039F80DD044450BD0A4
S31508003850BC4209D0FFF7ECFF06D0FFF7E2FF03D022
S3150800386040F26A31FFF7EAFF012D22D0802D20D0E1
S31508003870402D1ED0202D1CD0102D1AD04FF480704C
S31508003880854216D04FF40070854208D0082D10D016
S31508003890042D0ED0022D0CD040F26B3107E04C45BA
S315080038A007D0444505D0BC4203D040F26F31FFF73C
S315080038B0C5FF2088284000D001206FE004460D4649
S315080038C0034E044FDFF81080DFF810904C45704720
S315080038D0807100080048004000440040003801405C
S315080038E02DE9F843FFF7EAFF0DD044450BD0BC425B
S315080038F009D0FFF79DFF06D0FFF793FF03D040F2EC
S31508003900BD31FFF79BFF282D30D040F22770854246
S315080039102CD040F22660854228D040F225508542B8
S3150800392024D040F22440854220D040F64600854205
S315080039301CD040F66A1085420ED04FF45870854266
S3150800394014D04FF41870854210D04FF4B0708542E9
S315080039500CD040F2BE3107E04C4507D0444505D0AF
S31508003960BC4203D040F2C231FFF768FF2806400F79
S31508003970012105F01F0201FA02F2012801D1A089EE
S3150800398003E002280CBF208AA08A10402A0A914028
S315080039902288114010B1080000D00120C0B2BDE84D
S315080039A0F283000080B5DFF8B41388420ED0DFF842
S315080039B0B413884213D0DFF8A813884218D0B5216B
S315080039C0DFF8A403BDE8044001F090BD01214FF4DF
S315080039D0007000F0E7FE00214FF4007010E00121AE
S315080039E04FF4806000F0DEFE00214FF4806007E0AF
S315080039F001214FF4004000F0D5FE00214FF40040AD
S31508003A00BDE8044000F0CEBE70B500F076F908D0E7
S31508003A1000F06BF905D000F06CF902D0DE2100F059
S31508003A2073F92868E8B1B0F5803F1AD0B0F5003FC1
S31508003A3017D0B0F5403F14D0B0F5802F11D0B0F5AF
S31508003A40A02F0ED0B0F5C02F0BD0B0F5E02F08D0C0
S31508003A50B0F5002F05D0B0F5102F02D0DF2100F009
S31508003A6053F9287920B1012802D0E02100F04CF959
S31508003A70687920B1012802D0E12100F045F9A8684B
S31508003A80B8B1B0F5003F14D0B0F5802F11D0B0F51D
S31508003A90C02F0ED0B0F5002F0BD0B0F5202F08D0D0
S31508003AA0B0F5402F05D0B0F5602F02D0E22100F026
S31508003AB02BF9E86828B1B0F5006F02D0E32100F0D1
S31508003AC023F9287C08B1112802D3E42100F01CF957
S31508003AD060680E49084029680843297940EA0120A8
S31508003AE06060A0680A490840E9680843A96808436D
S31508003AF0697940EA4100A060E06A20F47000297CF8
S31508003B00491EC9B240EA0150E06270BDFFFEF0FFEF
S31508003B10FDF7F1FF70B500F0F0F809D000F0E5F810
S31508003B2006D000F0E6F803D040F22D1100F0ECF8CC
S31508003B304DB1012D03D04FF4977100F0E5F8A06858
S31508003B4040F0010002E0A06840084000A06070BD97
S31508003B5010B500F049F809D000F0C7F806D000F013
S31508003B60C8F803D040F27D1100F043F8A06840F091
S31508003B700800A06010BD10B500F036F809D000F0B6
S31508003B80B4F806D000F0B5F803D040F28B1100F077
S31508003B9030F8A0680006C00E23E010B500F024F83F
S31508003BA009D000F0A2F806D000F0A3F803D040F23E
S31508003BB0A31100F01EF8A06840F00400A06010BD34
S31508003BC010B500F011F809D000F08FF806D000F013
S31508003BD090F803D040F2B11100F00BF8A068000687
S31508003BE0800E00F0010010BD0446DFF87001844223
S31508003BF07047DFF8740101F079BC2DE9F04100F057
S31508003C0086F80BD0DFF85C01864207D0DFF8500152
S31508003C10864203D040F2512100F09CF82FB3012FC1
S31508003C2023D0022F21D0032F1FD0042F1DD0052FFC
S31508003C301BD0062F19D0072F17D0082F15D0092FFC
S31508003C4013D00A2F11D00B2F0FD00C2F0DD00D2FFC
S31508003C500BD00E2F09D00F2F07D0102F05D0112FFC
S31508003C6003D040F2522100F075F80CB1112C03D3A1
S31508003C7040F2532100F06EF88DB1012D0FD0022DC0
S31508003C800DD0032D0BD0042D09D0052D07D0062DF8
S31508003C9005D0072D03D04FF4157100F05BF800F03E
S31508003CA03FF81F200521072C06D2621E5143726B6E
S31508003CB000F014F870630FE00D2C06D2E21F514392
S31508003CC0326B00F00BF8306306E0A4F10D025143A5
S31508003CD0F26A00F003F8F062BDE8F081884022EA53
S31508003CE0000007FA01F108437047DFF878008442BC
S31508003CF07047DFF86C008442704704460D46DFF8CB
S31508003D006860164884427047304601F0EFBB0646A5
S31508003D100F4614461D46DFF8508010488642704705
S31508003D20072003210A2F0BD3A7F10A025143F26891
S31508003D30884022EA000005FA01F10843F06070475E
S31508003D4079433269884022EA000005FA01F10843FE
S31508003D5030617047404601F0C9BB000000240140AD
S31508003D60003C014000280140DC71000870B586B0AF
S31508003D7005460026104C7019C17905918179049180
S31508003D804179039101790291C17801918178009175
S31508003D904378725D2146002000F0D6FF00F0E3F874
S31508003DA00836102EE7DB03A1002006B0BDE87040F8
S31508003DB000F0CABF0D0A0000C47000081FB50C4CFD
S31508003DC000A82146102202F006FF00A803F034F8E6
S31508003DD028B9002204F1100100F0B6FF1FBD04F156
S31508003DE0300100F000F900A8FFF7C0FF1FBD00BFB3
S31508003DF0B06D0008F8B505460E46084900F0A4FF60
S31508003E00002705A4BA5D2146284600F09DFF7F1CC1
S31508003E10082FF7DBF1BD00BF257800004C720008BB
S31508003E2010B588B002A901A8FEF775F81A4C214604
S31508003E3000F0D9F804F1080100F0D5F81749002078
S31508003E4000F0D4F8FEF75DF8024604F1100100F020
S31508003E5087F800F088F8BDF8100000909DF9123038
S31508003E609DF8132004F12401002000F06DFF02A93B
S31508003E700020FFF7BFFF0A48028804F1540100F04A
S31508003E806FF800F070F8052204F1700100F068F888
S31508003E9000F069F808B010BDC0680008EC0A0020F8
S31508003EA0EA0A00202DE9F04383B080462B4C2146D0
S31508003EB000F099F828A500F095F800F054F80026C7
S31508003EC00A2710E004F15C0100F04AF800A9F0B2F4
S31508003ED0FEF7C6F800A9002000F088F800F082F87E
S31508003EE000F041F8761C464534DA96FBF7F007FBF6
S31508003EF0106101F13003DBB2784390FBF7F000F173
S31508003F003002D2B204F12001002000F01DFFF0B209
S31508003F10FEF7B6F881464FF6FF7081450CBF04F1EF
S31508003F20280104F1300100F05EF848464FF6FC71AE
S31508003F30401A0BD0401E05D0801E4A46C2D104F155
S31508003F403801C1E74A4604F14401BDE74A4604F18F
S31508003F505001B9E7BDE8F7830D0A00002C6C00088C
S31508003F60002000F0F1BE002000F004BFF8B50446BA
S31508003F701B4D00F037F8FFF7F6FF00270A2606E084
S31508003F8005F1480100F02FF8FFF7EDFF7F1CA74267
S31508003F9024DA97FBF6F006FB107101F13003DBB269
S31508003FA0704390FBF6F000F13002D2B205F1200121
S31508003FB0002000F0C9FE00A9F8B2FEF772F8002842
S31508003FC0DED1BDF8002005F12C0100F0BDFE9DF8FC
S31508003FD0022005F13C01FFF7C3FFD5E7F1BD00BF9D
S31508003FE0546D00082946002000F0AEBEF8B5054617
S31508003FF00E46082706A4B81910F8012C21462846AB
S3150800400000F0A2FE7F1EFFB2012FF4DAF1BD00BF59
S315080040102578000070B58AB00124FDF71EFF104D03
S31508004020022801D0032814D102260AE005F120014E
S31508004030FFF7D9FF0DF10300FFF798FE0324761E5C
S315080040400BD000A92046FEF753F8012CEED12946DD
S31508004050EEE705F14001FFF7C6FF0AB070BD00BFE5
S31508004060CC6A000870B5FF2500260020DFF8BC42A0
S31508004070A168425CA5F119039A4202DA02F1190510
S31508004080EDB2401C1028F4DB0020425CAA4201DA9B
S31508004090761CF6B2401C1028F7DB01F07BFA90FB81
S315080040A0F6F106FB1100C0B20021A2688A5CAA429A
S315080040B006DA18B901F10B00607004E0401EC0B2C0
S315080040C0491C1029F1DBBDE8704038B50024974D2E
S315080040D009E001F05FFA4FF6FF71884203D0A9683C
S315080040E021F81400641C102CF3DB0320287003222B
S315080040F00120697800FA01F1BDE8384018E110B5E9
S315080041008A4C2078012807D07020FDF7E5F9702041
S3150800411010BDE07802F0F6FEE078A0B1401EE0702F
S31508004120C0B202F0EBFE01884FF6FF729142F0D062
S3150800413090F90F20817BFDF7D7F9E07802F0E2FECF
S3150800414002F0E7FE14E06078401C607060781B2877
S315080041500BD201218140E2681142F5D0042020707B
S315080041600322012000F0E4F802E0AB2000F0D2F8C8
S31508004170002010BD10B50C4600F0C5F8002801D186
S31508004180002010BD69480278022A0BD0002CF7D10E
S315080041904178022A06D0032A07D0042A1AD0052A0B
S315080041A02FD032E0FFF75EFF2FE0002280684FF63F
S315080041B0FF7430F81230A34206D01846FDF7BAF954
S315080041C0002000F0A7F820E0521C102AF1DBFFF7C8
S315080041D07CFF1AE00279A2B10F2901D3172910D35F
S315080041E0C27872B10F2934BF0C236FF00B03052276
S315080041F0027003220120591800FA01F100F098F81C
S3150800420003E001210170FFF77AFF012010BD2DE9B7
S31508004210F8430446894617464FF6FF75434E3078ED
S31508004220032804D004280FD0052844D05BE00027D3
S31508004230B06830F817102288914201D120F817503B
S315080042407F1C102F4FDAF4E7E07800284BD0257B47
S3150800425002F048FE854246D1B07838B90822211DB9
S3150800426006F1100002F016FD00283CD100250AE0F0
S31508004270284602F043FE0822211D001D02F00AFD11
S3150800428088B36D1CEDB2F0788542F1DB401CC0B2F4
S3150800429002F038FE38BBF07802F030FE0546F078BA
S315080042A0401CF0700E222146284602F087FC85F84D
S315080042B00E90EF7317E0002712E0384602F01EFE54
S315080042C080460822211D08F1040002F0E3FC28B903
S315080042D098F80E00484501D2A8F800507F1CFFB296
S315080042E0F0788742E9DBBDE8F1430CE038B50546CE
S315080042F00C4600F008F828B10C488068281800F821
S315080043000B4C012032BD0948017802298041C0437F
S31508004310C00F704710B5044604480021017002F02A
S31508004320FBFD14B12046FDF7D7F810BDBC0B0020E5
S3150800433080B5FDF79CFD08B1FFF7ECFF01BD000055
S315080043402DE9F04186B006460F4614461D46A84894
S31508004350002141808180C1800181418181811820AD
S315080043608DF803004FF40070ADF8000003208DF8B7
S315080043700200DFF87C8000A94046FEF773FD0420A2
S315080043808DF803004FF48060ADF8000000A94046A0
S31508004390FEF768FD0296ADF80C70ADF81040ADF862
S315080043A00E500020ADF814000C20ADF81200914C08
S315080043B002A92046FFF7A6F801212046FFF74CF987
S315080043C0012240F225512046FFF76BF925208DF88A
S315080043D0040000208DF805008DF8060001208DF8F0
S315080043E0070001A802F00AF806B0BDE8F08100BF90
S315080043F00008014080B5082906D00A290DD00C29E5
S315080044000ED00F290FD011E04FF49640012A0FD095
S31508004410022A10D14FF480620EE04FF41640F5E7F9
S315080044204FF46140F2E74FF4E130EFE7202002BD98
S315080044304FF4C06200E00022022B0CBF4FF4005379
S3150800444000230021FFF77CFF002002BD2DE9F84379
S315080044500C4615460026012805D0022803D04FF041
S31508004460FF30BDE8F283DFF88C81614F3878A0B160
S31508004470002709E000F049F80028FBD0395D4046DE
S31508004480FFF781F9761C7F1CAF42F3D3402100F079
S315080044903DF80028FAD03046E3E740F2277914B30E
S315080044A0002DF8D0B8897F2818D2EFF310800121A3
S315080044B081F310883989514A14F8013B8B54491CF9
S315080044C08A1101EB5262D211A1EBC2113981B98965
S315080044D0491CB9816D1E761C80F3108800F010F80F
S315080044E0DEE700F00DF8B8890028FAD100F00DF8DB
S315080044F00028F6D0402100F009F80028F1D0CAE7D4
S31508004500012249464046FFF7CCB880214046FFF7CE
S3150800451098B900220021012098E7354908707047AC
S31508004520F0B5002802D04FF0FF30F0BD324B304CCA
S3150800453017E0EFF31085012686F31088A688F65C47
S3150800454001F8016BA688761CB71106EB5767FF11B1
S31508004550A6EBC716A680E688761EE68085F3108841
S31508004560401CE588002D01D09042E2D3F0BD70B51D
S315080045701F4E204D40F225512846FFF7B1F9012874
S3150800458012D12846FFF727F9F1887F290CD27288BD
S31508004590194BD054501C821100EB5262D211A0EB79
S315080045A0C2107080481CF08040F2277421462846C5
S315080045B0FFF796F9012819D1B08990B170890F498A
S315080045C0415C2846FFF7DFF87089401C811100EB33
S315080045D05161C911A0EBC1107081B089401EB0812C
S315080045E070BD002221462846FFF75BF870BD000023
S315080045F0D80A002000380140880800200809002051
S315080046002143016010BD4A480168704710B504008F
S315080046100CD0B4F5804F09D0B4F5004F06D0B4F5E8
S31508004620404F03D040F20B3100F005F8FFF7EBFFDF
S3150800463021F44041E4E77D4800F058BF000000003F
S3150800464010B5040005D0012C03D040F26A31FFF7FB
S31508004650F2FF0148046010BD8004424210B50446CA
S315080046604FF4807084420BD04FF40070844207D018
S315080046704FF44070844203D040F27B31FFF7DBFFF2
S3150800468001480168BCE700002010024010B504008C
S3150800469005D0012C03D040F28931FFF7CCFF014841
S315080046A0046010BD3C04424230B521490B681D4ADE
S315080046B003F00C03082B0FD10B680C6803F4701376
S315080046C09B0C9B1C184D5D43E40301D42A4603E06A
S315080046D00C68A403FAD45A4302600B68134A0468A8
S315080046E003F0F0031B099B5C24FA03F343600C6890
S315080046F004F4E064240AA45CE34083600B6844681D
S3150800470003F46053DB0A9B5C24FA03F3C36009686D
S3150800471001F4404102EB9131097CB3FBF1F10161EF
S3150800472030BD00BF00127A0000093D00D40B0020FE
S3150800473004100240F8B500F04FF800D11CB940F259
S31508004740514100F02BF8074D46B1012E03D040F237
S31508004750524100F023F82868204301E02868A04366
S315080047602860F1BD18100240F8B500F057F800D1DE
S315080047701CB94FF48E6100F011F8074D46B1012EB1
S3150800478003D040F2714100F009F82868204301E09F
S315080047902868A0432860F1BD1C100240384600F086
S315080047A0A5BE0000F8B500F017F800D11CB940F214
S315080047B0AB41FFF7F3FF074D46B1012E03D040F298
S315080047C0AC41FFF7EBFF2868204301E02868A043C7
S315080047D02860F1BD0C10024004460E46134F0148EE
S315080047E0044270470200C0FFF8B500F017F800D180
S315080047F01CB940F2CA41FFF7D1FF074D46B1012E59
S3150800480003D040F2CB41FFF7C9FF2868204301E0F7
S315080048102868A0432860F1BD1010024004460E46E1
S31508004820024F01480442704700360181FC710008B6
S3150800483010B5040005D0012C03D040F2DF41FFF784
S31508004840FAFE0148046010BD4004424210B5044611
S31508004850212C17D0312C15D0392C13D0412C11D03E
S31508004860612C0FD07A2C0DD07B2C0BD07C2C09D048
S315080048707D2C07D07E2C05D07F2C03D040F23B51EF
S31508004880FFF7D9FE60090949012801D1086803E044
S3150800489002280CBF086A486A012104F01F029140E9
S315080048A0084000D00120C0B210BD00000010024030
S315080048B00248016841F08071016070472410024087
S315080048C080B5DFF86C1288420ED0DFF8681288428D
S315080048D016D0DFF8641288421BD07921DFF84C0223
S315080048E0BDE8044000F002BE01214FF48050FFF7F6
S315080048F059FF00214FF48050BDE80440FFF752BF2E
S3150800490001214FF48040FFF76FFF00214FF48040EC
S3150800491007E001214FF40040FFF766FF00214FF43E
S315080049200040BDE80440FFF75FBF70B500F0CDF862
S3150800493008D000F0BDF805D000F0B7F802D0A221E3
S3150800494000F0C0F8288858B1B0F5806F08D0B0F5E7
S31508004950004F05D0B0F5404F02D0A52100F0B2F8BF
S3150800496068884FF48271884203D010B1A62100F0FE
S31508004970A9F8A888B0F5006F03D010B1A72100F0F8
S31508004980A1F8E88820B1022802D0A82100F09AF8F8
S31508004990288920B1012802D0A92100F093F8688956
S315080049A04FF40071884203D010B1AA2100F08AF8AA
S315080049B0A88980B108280ED010280CD018280AD04B
S315080049C0202808D0282806D0302804D0382802D035
S315080049D0AB2100F077F8E88920B1802802D0AC2115
S315080049E000F070F8288A10B9AD2100F06BF820881D
S315080049F000F441502988084369880843A988084370
S31508004A00E98808432989084369890843A989084325
S31508004A10E98908432080A08B4FF2FF710840A083E4
S31508004A20288A208270BD000070B500F04EF809D0C3
S31508004A3000F03EF806D000F038F803D040F2AD1189
S31508004A4000F040F84DB1012D03D04FF4D77100F0B6
S31508004A5039F8208840F0400003E020884FF6BF71FF
S31508004A600840208070BD38B504460D46304884425B
S31508004A7009D000F01DF806D000F017F803D040F270
S31508004A80252100F01CF8A58131BD10B500F013F8FA
S31508004A9009D000F00DF806D000F007F803D040F270
S31508004AA0352100F00CF8A08910BD234884427047D0
S31508004AB020488442704704461D48844270471B4874
S31508004AC000F014BD304600F011BD04460D46174EE1
S31508004AD017488442704770B505460C46134E14486D
S31508004AE0854209D01348854206D01348854203D02B
S31508004AF040F20131FFF7E6FF802C11D0402C0FD091
S31508004B00202C0DD0102C0BD0082C09D0042C07D043
S31508004B10022C05D0012C03D040F20231FFF7D2FF58
S31508004B202889204000D00120C0B270BD1C72000840
S31508004B300030014000380040003C004070B5134684
S31508004B40101804E03724A4192C705B1EDBB243B19D
S31508004B5001F00F060909451E28460A2EF2DA302406
S31508004B60F1E7101870BD00002DE9F24F88B08146B4
S31508004B701546984601AE002701A88DF80000DFF813
S31508004B8080B11AE058F8044B0422210C3046FFF78E
S31508004B90D5FF0422A1B2FFF7D1FF064605A8864233
S31508004BA00AD39DF80000361AF6B200F0ACF80028D1
S31508004BB037D1F719FFB201AE6D1C9DF80000301A07
S31508004BC0C0B22978002907D0252902D006F8011B8A
S31508004BD0E4E715F8011F002900F08780252914D07D
S31508004BE0322972D0342970D0582968D0632910D058
S31508004BF064292CD06C292AD070290DD073290BD0A2
S31508004C00752924D078295AD0C8E7252006F8010B3B
S31508004C10C4E758F8040BF9E758F804AB00F072F843
S31508004C20002868D1F719FFB201AE002401E0601C24
S31508004C30C4B214F80A000028F9D1224651469DF854
S31508004C402000C847002856D1E719FFB2A6E76C2905
S31508004C5002D158F8040B05E0752958F8040B01D160
S31508004C60002200E00122002142B1002806D52D21AC
S31508004C703170012110F1004F00D04042002200237C
S31508004C804FF0000C04E0001B0CF101045FFA84FCF1
S31508004C905BF82340A042F6D2BCF1000F00D12AB13E
S31508004CA00CF130028A55491CC9B201225B1C092B3A
S31508004CB0E6DB30308855481CC0B286196EE758F8CE
S31508004CC0041B0222C9B2304665E715F8010F782899
S31508004CD003D0582801D06D1E60E732297FF452AF01
S31508004CE058F8041B042289B2EDE700F00BF810B956
S31508004CF0F019C0B200E0002009B0BDE8F08F00BF8F
S31508004D00347000080646324601A99DF82000484737
S31508004D10FFF770BB10B50C4602F032F9002801D532
S31508004D20262010BD2070002010BD000010B50024FC
S31508004D3013460A4601460348FFF716FF00B9012441
S31508004D40204610BD594D00080CB480B502AAFFF7DD
S31508004D50EDFF02BC5DF80CFB38B50C46154603E0C2
S31508004D6014F8010B02F052F92846451EC0B2002875
S31508004D70F6D132BD80B50120FFF7CBFB002002BD7E
S31508004D800CB438B505460C460120FFF7C6FB04AA45
S31508004D9021462846FFF7CAFF04460020FFF7BDFB59
S31508004DA0204632BC5DF80CFB73656E736F720000AB
S31508004DB04552524F523A20657A7370496E6974208B
S31508004DC0307825780D0A0000736C656570792D7347
S31508004DD0656E736F722E63004552524F523A2065C4
S31508004DE07A73705574696C496E69742030782578C1
S31508004DF00D0A00004556454E543A20657A7370559B
S31508004E0074696C496E6974207061737365640D0A00
S31508004E10000000000D0A494E49543A20736C656536
S31508004E2070792D73656E736F722061707020000043
S31508004E3052455345543A25700D0A000053454E53C2
S31508004E404F52204150503A206A6F696E696E67204A
S31508004E506E6574776F726B202D206368616E6E6560
S31508004E606C20307825782C2070616E696420307843
S31508004E702532782C2000000053454E534F522041CE
S31508004E8050503A207075736820627574746F6E207E
S31508004E903020746F206A6F696E2061206E657477A2
S31508004EA06F726B0D0A0000004552524F523A206548
S31508004EB07A73704572726F7248616E646C6572209F
S31508004EC0307825780D0A0000425554544F4E303A32
S31508004ED0206A6F696E206E6574776F726B0D0A00B3
S31508004EE06572726F722072657475726E656420667B
S31508004EF0726F6D20656D6265724A6F696E4E657474
S31508004F00776F726B3A20307825780D0A000000001A
S31508004F1077616974696E6720666F7220737461635E
S31508004F206B2075702E2E2E0D0A0000004255545423
S31508004F304F4E303A2061707020616C7265616479F9
S31508004F4020747279696E6720746F206A6F696E0DB6
S31508004F500A000000425554544F4E303A20616C7294
S31508004F6065616479206A6F696E65642C206E6F20AE
S31508004F70616374696F6E0D0A00000000425554544F
S31508004F804F4E303A20617070206C656176696E67A5
S31508004F902C206E6F20616374696F6E0D0A00000025
S31508004FA0425554544F4E303A206170702077696CE0
S31508004FB06C206C656176650D0A00000042555454F4
S31508004FC04F4E313A206C65617665206E6574776F51
S31508004FD0726B2073746174757320307825780D0AA6
S31508004FE00000000010B58AB04020ADF80400182073
S31508004FF08DF8070003208DF8060001A91F48FDF764
S3150800500031FF01211E48FEF7EBF84820ADF80800ED
S315080050104FF6FF70ADF80C000020ADF80E00ADF8A5
S315080050200A00774C02A92046FBF760F905A8FBF7AA
S31508005030D9FB3020ADF814000120ADF8160005A9FB
S315080050402046FBF7E5F908212046FBF7F9FC012184
S315080050502046FBF7ACFC002202212046FBF715FC94
S315080050601D208DF8000000208DF80100ADF8020023
S3150800507000A801F0C3F90AB010BD00BF0010014036
S31508005080000C1A002DE9F04107460C46FFF7AAFF67
S31508005090554D6F60DFF86881544E00F03DF8FBF718
S315080050A045FE00F039F8FBF77BFE00214046FBF78A
S315080050B003FE387879784843642148437D2190FB7C
S315080050C0F1F068800220287000206870EFF31087DE
S315080050D0012080F31088012202214046FBF7D5FB08
S315080050E04FF000560A48066002214046FBF7E5FFE6
S315080050F00848066001214046FBF77EFB87F31088C7
S3150800510001E000F0E3F968782043FAD0BDE8F081C1
S3150800511000E100E080E200E0387896FBF0F189B221
S3150800512040467047F8B5364C02212046FBF7C5FFC6
S315080051302D4D6888411E6980002854D128786968F1
S3150800514042185278002A40D06426425C1AB3274F88
S3150800515097FBF2F189B22046FBF7E8FD28786968E3
S31508005160405C97FBF0F189B22046FBF719FE002157
S315080051702046FBF7A1FD012200212046FBF7EAFCA9
S3150800518028786968425C40184078504370437D210E
S3150800519090FBF1F014E04FF47A712046FBF7C6FD58
S315080051A04FF47A712046FBF7FBFD00212046FBF7FA
S315080051B083FD00F027F8287869684018407870431E
S315080051C068802878801C2870F1BD02212046FBF7EC
S315080051D05CFB00F00DF800F015F800212046FBF7FF
S315080051E00BFB01206870F1BD0C0C002048E801009B
S315080051F002484FF000510160704700BF80E100E0AF
S3150800520000040040002200212046FBF7A3BC000052
S3150800521031480268511C0160107870471F490A68B6
S315080052201F4B1B68D31A802B00DA10700868401CC5
S315080052300860704710B50446C0B2FFF7EFFF200AB2
S315080052407BE010B5FFF7E4FF0446FFF7E1FF04EB48
S31508005250002080B210BD10B5044680B2FFF7EAFF01
S31508005260200CBDE81040E5E710B5FFF7EAFF00F0AF
S315080052708EF804EB004010BD30B50546074C236890
S31508005280074A12689A1AAA18812A03DA02461846A1
S3150800529001F094FC20682818206030BD000B00201F
S315080052A0F40A002070B505460C46002604E034F8DA
S315080052B01600FFF7BFFF761CAE42F8DB70BD30B5AF
S315080052C004460846044D2246296801F077FC2868FA
S315080052D02018286030BD0000FC0A002010B50446DE
S315080052E021460820FFF7EBFFFFF7ABFF2081FFF70A
S315080052F08FFFA072FFF78CFFE072FFF789FF20731C
S31508005300FFF79FFFE081FFF783FF2074FFF7ACFFED
S31508005310606110BD10B500F02FF86088FFF78AFFAE
S315080053202079FFF77BFF6079FFF778FFE088FFF7C2
S3150800533081FF2089FFF77EFFA07ABDE810406DE760
S3150800534010B500F024F82080FFF77BFF6080FFF798
S315080053505FFF2071FFF75CFF6071FFF772FFE08067
S31508005360FFF76FFF2081FFF753FFA07210BD10B53E
S3150800537000F002F8A078E0E7044620885AE710B55E
S3150800538000F005F82080FFF743FFA07010BD044623
S3150800539057E710B5FFF7F0FFA11C1020FFF76CFFC9
S315080053A004F112011020FFF767FF94F82200C4E702
S315080053B00820BDE8104082E710B5FFF7E8FF208017
S315080053C0FFF726FFA070E11C1020FFF778FFFFF714
S315080053D04BFF6061FFF748FFA061FFF719FF2077D1
S315080053E004F11D01E4E710B50446FFF711FFA070AC
S315080053F0FFF727FF2080211D0820FFF760FFFFF732
S3150800540007FFE070FFF704FF2073FFF701FF6073E3
S3150800541010BD000080B5012080F3108801211F48C7
S31508005420FFF7A2F9012145F23D20FFF783F9012094
S3150800543001F0CCFA1A48FEF7B5FA01F0ABFE00F017
S3150800544087FAFDF704FD1748FDF7AAFC1648FDF78D
S31508005450A7FC1648FDF7A4FC1548FDF7A1FC15485E
S31508005460FFF72EFA4FF08040FAF762FE1248FAF775
S315080054705FFE1248FAF75CFE1148FDF7F3FF00F0ED
S3150800548023FF042001F006F801F0DCF800F0B4F977
S3150800549001F08FF8BDE80140FDF720B90B40001870
S315080054A00024014000080140000C014000100140A2
S315080054B0001401400030014000040040000C004088
S315080054C000380140FDF7B5B9FDF7C4B901F0CEBE05
S315080054D00448016801F4E061034A11430160BFF31F
S315080054E04F8FFEE70CED00E00400FA0538B50546D7
S315080054F00C4601F0BBFE012080F3108823462A469D
