S01A0000657A73702D7370692D626F6F746C6F616465722E73333747
S31508000000000400205B000008710000087100000869
S31508000010A70B0701000000000401A84500200008FE
S3150800002004050000390A0008510A000840130008B0
S3150800003000000000000000000000000000000000B2
S3150800004009480068202100EA010028B1074801682C
S3150800005042685FEA010D10477047FFF7F1FF00F0AD
S315080000600FF800F041F800002C00004000200008BE
S3150800007002E05FEA000D70474FF4017001F0F2B834
S3150800008038B54FF20F044A4D00F08CFB002804D017
S3150800009040F2052028806C8031BD44480068C006BF
S315080000A013D56888A0421BD1288840F202218842CD
S315080000B016D040F20621884212D040F20111884239
S315080000C00ED040F2111188420AD0064C208A40F61A
S315080000D0A721884204D12068FFF7CBFF60688047D4
S315080000E031BD00BF0020000810B572B6254801686A
S315080000F04908490001602448592101602B480068D5
S3150800010010F0100000D0012008B1204905E0204970
S3150800011003E04FF0CD3241F8042B1E4A9142F8D342
S315080001201D491E4A1E4B03E051F8044B42F8044B86
S315080001309A42F9D31B491C4A002301E041F8043BC3
S315080001409142FBD31A494A884FF20F039A420AD1C1
S315080001500A8840F205239A4206D020B1100A0128DF
S3150800016002D0022800D00022124802804CF23C300D
S31508000170488000F09FFB4FF40170BDE8104001F085
S3150800018071B800BFFCED00E000800040940000203C
S315080001900000002000040020581300080004002076
S315080001A00804002008040020980D00202C000040B8
S315080001B000000020880D0020C108032908D2C110BC
S315080001C08902044A012300F0070003FA00F05050A0
S315080001D0704700BF14B00040C108032908D2C110F7
S315080001E08902044A012300F0070003FA00F0505080
S315080001F0704700BF10B00040C10803290BD2C110D8
S31508000200054A02EB81210A68012300F0070003FA78
S3150800021000F05040086070470CB0004030B583B01D
S31508000220044610467F2800D10020B1F5004F19D1A9
S3150800023008237F2240F6120100A8FFF7EFFF0822E5
S315080002400D4900A800F07DF830B908237F2240F256
S31508000250A27100A8FFF7E2FF082200A9204600F0D5
S3150800026057F837BD1A46054D294300FB03112046AA
S3150800027000F04EF837BD00BFEC1200080000040875
S315080002800748012181604EF6BE21416002E0000068
S31508000290024800BF01210160704700BF08600040A6
S315080002A00060004010B58208074B53F822201368F7
S315080002B000F0030080000F248440A34301FA00F0F5
S315080002C01843106010BD00BFF41200080A0242EA83
S315080002D0112148400106090F484080EA00304101D3
S315080002E0C9B20206D20E41EA0221484080B27047DE
S315080002F00A0A4840C0B208214308C00746BF034857
S3150800030058401846491EF7D1504070472083B8ED2B
S3150800031000E00000814210D21018401E5118491EF4
S3150800032092B26AB111F8013900F80139521EF7E79D
S3150800033011F8013B00F8013B521E92B2002AF7D190
S31508000340704710B500E0521E92B2002A03D000F0A2
S3150800035004F8F8D007E0002010BD10F8013B11F8AA
S31508000360014BA3427047181B40B210BDDFF8BC030F
S31508000370002141718171DFF8B803016C4908490011
S315080003800164016C21F400710164134910220A63A7
S3150800039020220A6300224A650A664A668A6502229C
S315080003A04A65C54A0A608D324A60C24A0A618D3278
S315080003B04A61BF4A126812070AD5026C42F0010266
S315080003C00264026C4FF400731A43026401220A6342
S315080003D04FF6FF710160704700C0004038B5DFF87E
S315080003E04C03002181700121C17001710021017047
S315080003F009214170FFF7BAFF1C4848F29441016091
S31508000400082101611A484FF4005303601949002274
S315080004100A65194A546824F4706444F40064546004
S315080004204024146102240C60144C236040230B659D
S31508000430136823F4704343F4804313604FF48043F6
S315080004400360002048650E480325056004200860FF
S3150800045023602020486504201061106820F470602D
S315080004604FF480710843106031BD00BF00B00040F2
S3150800047080E100E014A8004000B4004080E200E0FB
S3150800048014BC004058B189480168490605D5884911
S315080004900968090701D50421C160002000E0012090
S315080004A0A249C8707047A1490A7922B901220A717E
S315080004B0087000204870704710B504460620FFF7FC
S315080004C07BFE0948102101600620FFF785FE7A4861
S315080004D04078A72807BF774804700320FFF7E3FF93
S315080004E00120BDE81040F1E030C000402DE9F041A0
S315080004F082B06E4D6E498D4C227922B10A68120778
S3150800050001D50422EA60A27892B10420E86028683E
S315080005104006FCD50420A8600020A070E07820B929
S31508000520322000F087FE0420E8600020BDE8F6814E
S315080005307F4E5D4FDFF87C8100283FD06079002828
S315080005403CD00620FFF738FE207930B10020207114
S31508000550022221464046FFF7DBFEE07808B1042078
S31508000560A86098F80000052804D2A72088F8020099
S31508000570032010E0FE2801D0FD2808D198F80100D4
S315080005804044A721817098F80100C01C03E0A72009
S3150800059088F801000220A071A0794044401E386006
S315080005A0012030600420F861306C40F001003064AE
S315080005B00420E8600620FFF70FFEB6E74FF4007048
S315080005C0BA69D20713D40968090710D500F076F876
S315080005D000F074F8012131603060316C41F001019E
S315080005E03164316C0246114331640121F961F968BD
S315080005F011B93168890598D5012161710421A9606D
S315080006002D4D3168890501D530601FE0F86802284C
S315080006108BD328780A2806D00B2808D0FD2808D0BE
S31508000620FE2806D081E78220FFF746FF7DE7C12036
S31508000630FAE76878862805D3FFF798FE0120FFF7C2
S3150800064032FF72E7F968C01C8142FAD30620FFF729
S31508000650B3FD306C400840003064306C20F4007004
S3150800066030641020F8610620FFF7B6FD207918B12E
S31508000670012000F02BF858E7687840198078A728F9
S3150800068003D00320FFF70FFFF2E72878FE2806D1EC
S315080006900420FFF708FF012000F018F845E7FD20C1
S315080006A088F80000012041E714C0004008B4004063
S315080006B008B000409804002008040020B96A8DF8A4
S315080006C00010B96A8DF800107047000070B504462E
S315080006D0164D144E16480168C90703D50421316022
S315080006E0012169718168890703D502218160012189
S315080006F0A9708168490710D50421816031600A48CC
S315080007000068A979884202D00220FFF7CCFEFFF7DD
S315080007102DFEE87808B9042070602046BDE87040D0
S31508000720E4E600BF10B4004028C000408A0D00204F
S315080007300CA80040FFF752BE10B5044600F012F8A8
S3150800074000280AD015488178054A891889782170C1
S315080007508178491C8170002010BD012010BD00BFA2
S315080007600804002010B50D4C2078002813D1FFF797
S31508000770ADFF002810D06078002808D00020FFF7C9
S3150800078081FE0120FFF7A2FF0020607010BD012046
S3150800079020700020A070012010BD0000940D0020DC
S315080007A07047000010B5002408210E20FFF77AFDD7
S315080007B00A48402181600A2100BF491EFCD1002158
S315080007C00268520601D4012402E0491CC829F7D35D
S315080007D004210E20FFF766FD204610BD08B4004030
S315080007E080B5FFF74DFD01210620FFF75BFD0620CA
S315080007F0FFF7F2FC01210720FFF754FD0720FFF75A
S31508000800DBFC0348016821F01001016001BD00BF4F
S3150800081000BC004010B5052821D8DFE800F0032009
S3150800082008151D030620BDE81040FFF7C5BC0C4C93
S315080008302088411E2180002811D10720FFF7DCFC03
S3150800084042F21070208010BD0720FFF7C5FC062075
S31508000850BDE81040FFF7D0BC0620FFF7BDFC10BD71
S31508000860920D00200078704730B5CFB00446214677
S315080008702AA800F077FA002000904FF402630B4A8A
S315080008802AA901A800F0D8F8094A01A902F10C0022
S3150800089000F0DEF80546FFF7FBFC1DB121462846A9
S315080008A000F0ACFA28464FB030BD00BF68050020FE
S315080008B03413000880B500F04DFCFFF791FFFFF7F1
S315080008C039FFFFF7E5FCFFF76BFF0020FFF7A2FFF4
S315080008D007E01A2000F096FB01220021522000F0C2
S315080008E025F8FFF7D5FC0220FFF794FF00A8FFF7CD
S315080008F023FF0028F5D19DF800005128E9D00A48C1
S31508000900002101700120FFF7AFFF20B90520FFF78E
S3150800091081FF012000E00420FFF77CFF40F2012060
S3150800092000F0A0FC002002BD960D00202DE9F04144
S3150800093004460F461546284EDFF8A0801D2241467C
S315080009403046FFF7E5FC0A2206F13401301DFFF7B1
S31508000950DFFC08237F222248018806F10E00FFF7F4
S315080009605DFCB476522C1BD135203070062208F176
S31508000970200106F12E00FFF7CBFC0120F0760223BA
S315080009807F221848018806F11C00FFF747FC102350
S315080009907F221548018806F11E00FFF73FFC02E09A
S315080009A01D203070F776012D13D13078A0F11B0485
S315080009B0E4B20120FFF766FD0C48FD210170447082
S315080009C0224606F11A01801CFFF7A2FC08480121FD
S315080009D00170BDE8F08100BF280500200C1300084F
S315080009E056130008521300085013000898040020F4
S315080009F0950D002038B50D46144605E0014615F854
S31508000A00010BFFF775FC641EA4B2002CF6D132BDAB
S31508000A10F8B507460E4615461C462246294630684E
S31508000A203B689847070005D122462946F068FFF734
S31508000A30E1FFF0603846F2BD10B5029C847203816E
S31508000A40426001604FF0FF31C1600021017410BDA2
S31508000A502DE9F54F83B00E467468B6F808A006F27D
S31508000A601400009000F110075046C00704D4BAF1EC
S31508000A70800FDFF8C89201DA4F2082E000F06CF9A7
S31508000A800100FAD12078617801EB00201FFA80FB7B
S31508000A90A078E17801EB0025ADB2E80701D546203C
S31508000AA06FE0B5F5026F01DD4E206AE0002DE5D056
S31508000AB05FEA0B000AD04FF60441BBEB010000F0D9
S31508000AC0B280FF3860D0FE385ED034E1307C08B1A1
S31508000AD0452056E0912DCFD22B460098021D31466F
S31508000AE00398FFF795FF01004BD100F02BF9019809
S31508000AF00C308542ECD10098808800F0DFFB00F4CA
S31508000B007F404FF400718842E2D10098C08800F017
S31508000B10D5FB4EF250318842DAD1388A40F6A72101
S31508000B208842D5D1788A00F47F404FF48071884294
S31508000B30CED100F00DF9D9F81C108842C8D14FF66D
S31508000B40FF703882019A92B2009800F110014FF0B6
S31508000B50FF30FFF74FFF05460098C06800F0B8FB66
S31508000B60C0438542B4D1387E0428B1D1787E0528A1
S31508000B7001D00628ACD101203074B07A002896D06E
S31508000B80502005B0BDE8F08F307C08B94120F8E761
S31508000B9000F0E2F80100F4D120786178090441EA0E
S31508000BA00060A17840EA0120E17841EA00082D1F9B
S31508000BB0ADB2D9F81C00804501D24820E1E705EB23
S31508000BC00800796D884201D34920DAE74FF60350C9
S31508000BD083450DD1049858B141460220049A1268FB
S31508000BE0904728B14A20CCE7A5EB0B05ADB2D8440F
S31508000BF0002DC2D0AB46554500DDD3461FFA8BF310
S31508000C0000F0ABF80100BCD104980028ECD00BEB3F
S31508000C10DB70421021464046049B5B6898470028D3
S31508000C20E2D04B20ADE7307C0028AFD0042D01D0B0
S31508000C304C20A6E700F090F80028A2D100F082F830
S31508000C40F0683F49884234D1049800286BD08468FC
S31508000C504FF0FF3A002502E06D1C062D24DA07EB5B
S31508000C604500029090F8488016E0FFF711FB4FEA1E
S31508000C70C82040F0006B4FF400695846A04751461B
S31508000C80FFF736FB82460BF1010BB9F10109F4D1E6
S31508000C9008F101005FFA80F8029890F8490040458B
S31508000CA0DADBB8F1FF0FE0D1786C6FEA0A01884207
S31508000CB001D0432065E700F04BF801994A08394608
S31508000CC0049B5B689847F0B90098C06800F000FB81
S31508000CD0044600F03DF8019D80464FF0FF39049820
S31508000CE0D0F808B008E04046D8474946FFF700FB69
S31508000CF081466D1E08F10108ADB2002DF3D16FEAE9
S31508000D000900844201D042203BE740F6A7203882FA
S31508000D1000F01EF8012207F110011030049B5B68F1
S31508000D2098470028EFD130680399496888471728FB
S31508000D3000D1002025E7442023E700BF0000000873
S31508000D40E320BBDEF87E802800D380200190704720
S31508000D500098806800F0BCBA0423224631460398FE
S31508000D6056E60000017001224270827001290CBF0C
S31508000D708021402181800021C18001811E480160B7
S31508000D800E218162016821F0100101600021416392
S31508000D9041627047F8B506460C46154615484FF0A9
S31508000DA0FF310160144FFD6200207862386840F018
S31508000DB001003860FFF76CFA012E19D16CB9FFF7FC
S31508000DC0D1FC78B9786AA842F4D3002DF2D03868F5
S31508000DD04008400038601620F2BD2046FFF7ACFCFC
S31508000DE00028EFD138684008400038600020F2BD7E
S31508000DF00120F2BD00A8004000E0004080B50A4688
S31508000E0001461820FFF792FD0120FFF73BFBBDE8DE
S31508000E100140FBE038B50446002020814AF6B4328A
S31508000E2000A92078FFF7B6FF002801D01C2032BDA4
S31508000E309DF80000032801D1182032BD1828FBD0E0
S31508000E40042801D1172032BD012801D0212032BD46
S31508000E50002501E06D1CEDB2A088001D85420BDA65
S31508000E6040F2DD22281900F10A012078FFF792FFE7
S31508000E700028EFD0262032BD0025002006E00146D6
S31508000E802819007BFFF722FA6D1CEDB2A1888D4266
S31508000E90F5DBA17AE27A511889B2FF2901D022201E
S31508000EA032BDA1880919097B0212D2B2914201D03A
S31508000EB0232032BDA1880919497BC0B2814201D0DD
S31508000EC0242032BDA07AA178884207D0491EC9B22B
S31508000ED0884201D1272032BD252032BDA088801C3A
S31508000EE020810220E080002032BD38B504466078B3
S31508000EF0012804D0022821D0032827D028E0022080
S31508000F0060702046FFF786FF05462078012802D143
S31508000F10284600F077F80DB1FFF742FC272D19D1C6
S31508000F202278A078411EC9B20620FFF7FFFC002DE3
S31508000F30E7D10320FFF76EFC002032BDFFF730FC37
S31508000F4000F048F8A078401CA070DAE7172032BDF8
S31508000F50182032BDA80603D52278A1781520E4E723
S31508000F60680603D4182D01D01C2D07D121782846F0
S31508000F70FFF744FF04206070284632BD172DD6D1EE
S31508000F8000F028F803206070E0E7F8B506460C463E
S31508000F901546002706E0F088411CF1808019807A02
S31508000FA038557F1CAF4209DAF08831898842F2D376
S31508000FB03046FFF79AFF0100EDD0F2BD0020F2BDE2
S31508000FC010B50446FFF791FF00F004F800F01EF88C
S31508000FD0172010BD2278A1780620FFF7A7BC0000CD
S31508000FE080B50649FD220A7001224A7088700120E0
S31508000FF0FFF76CFB02480021017001BD9804002030
S31508001000940D002000B91920EAE7000010B582B057
S315080010100B4C207860B10020FFF758FB0028F8D069
S315080010200020FFF72FFA0120FFF750FB0020207061
S3150800103040F2DD2200A90120FFF7ACFE13BD00BF78
S31508001040950D00200648016841F001010160012163
S315080010504160024851210160704700BF008000408E
S315080010601C400040F8B5394C454D4FF6FF77454EC4
S31508001070B088B84229D102237F2233480188301D1F
S31508001080FFF7CCF8B088B84201D10220B080A06939
S31508001090800703D4A06940F00200A06101203070E7
S315080010A0B08820600720286000206860A86028486B
S315080010B04FF000710160A069C00732D5E0690028C9
S315080010C02FD048F69F4068600AE0A0698007E1D5FE
S315080010D02868C00301D500F047F83078002801D009
S315080010E00020F2BDA06810F00100A168B28803D103
S315080010F00F2A08D2521C06E0890704D5B17811B127
S31508001100032A00D3521EB07092B2022A00D20222DB
S31508001110B2802068B1888842C0D1FFF793FF0120CA
S31508001120F2BDA069C00705D5E069002802D144F2DE
S315080011304F60C8E7A069C00702D4E0690028F6D165
S3150800114042F22730BFE700BF5413000804400040AE
S3150800115004ED00E080B5FFF785FF00B101BD40F260
S31508001160DC5000F067F8F6E7054800214160816029
S31508001170016821F0020101600248002101707047F0
S3150800118010E000E0000400202848018A40F6A77213
S31508001190914209D1418A4FF47F40014204D1022984
S315080011A08041C043C00F704700207047F8B5054618
S315080011B00C460E4E01203070FFF7E6FF18B94FF4C3
S315080011C0017000F04FF81948876A21464FF480707D
S315080011D02843B84700213170154E20B921464FF4EF
S315080011E000702843B847805DF2BD0000970D0020C7
S315080011F02DE9F04180460C465500FFF7C5FF18B9A2
S315080012004FF4017000F02EF80848466A00232A4673
S3150800121021464046B047064F20B92B4600222146B4
S315080012204046B047C05DBDE8F081000000000408F4
S315080012304813000809490A68094B1B68DB0700D4EC
S315080012404008032809D34B6D43F001034B650B682F
S315080012509B1A1B031B0B8342F9D3704738200040A7
S315080012601C4000400D4930220A600D490A600D49AC
S315080012700A600D4910220A60010A00D100020E49CF
S3150800128008804FF20F004880BFF35F8F07480021A0
S3150800129001604160064807490160704730200040F8
S315080012A030C8004030C0004010D000401C4000400C
S315080012B00CED00E00400FA050000002001B49DF8DA
S315080012C000009DF8011001EB002080B201B07047C4
S315080012D011B581B0BDF80400FFF7F0FF0446BDF86C
S315080012E00600FFF7EBFF40EA044016BDFFFFFFFFCD
S315080012F0FFFFFFFF00B0004004B0004000B400400C
S3150800130004B4004000B8004004B800400063CC00B4
S31508001310FFFF0000000000000000FFFFFFFFFFFFC7
S31508001320FFFF7C656D010000000000000004050059
S3150800133045A80000AD110008F1110008650800086D
S315080013408B0F0008C10F0008000202024B4B4647EC
S313080013502A083A08EE08008000000100FFFF98
S7050800005B97
